:020000040800F2
:1000000090060020F1370008B5030008B703000888
:10001000B9030008BB030008BD030008000000008E
:10002000000000000000000000000000BF03000806
:10003000C103000800000000C3030008C503000856
:100040000B3800080B3800080B3800080B38000884
:100050000B3800080B3800080B3800080B38000874
:100060000B3800080B3800080B3800080B38000864
:100070000B3800080B3800080B3800080B38000854
:100080000B3800080B3800080B3800080B38000844
:100090000B3800080B3800080B3800080B38000834
:1000A0000B3800080B3800080B3800080B38000824
:1000B0000B3800080B3800080B3800080B38000814
:1000C0000B3800080B3800080B3800080B38000804
:1000D0000B380008C70300080B3800080B3800086D
:1000E0000B3800080B3800080B3800080B380008E4
:1000F0000B3800080B3800080B3800080B380008D4
:100100000B3800080B3800080B3800080B380008C3
:100110000B3800080B3800080B3800080B380008B3
:100120000B3800080B3800080B3800080B380008A3
:100130000B3800080B3800080B3800080B38000893
:100140000B3800080B3800080B3800080B38000883
:100150000B3800080B3800080B3800080B38000873
:100160000B3800080B3800080B3800080B38000863
:100170000B3800080B380008D10300080B380008C2
:100180000B38000800F002F800F041F80AA090E8EF
:10019000000C82448344AAF10107DA4501D100F042
:1001A00036F8AFF2090EBAE80F0013F0010F18BFCE
:1001B000FB1A43F0010318470457000024570000BE
:1001C000103A24BF78C878C1FAD8520724BF30C883
:1001D00030C144BF04680C60704700000023002455
:1001E00000250026103A28BF78C1FBD8520728BF47
:1001F00030C148BF0B607047782904F0DB860020CF
:1002000070471FB505F046F81FBD10B510BD05F0CD
:1002100005F81146FFF7F5FF00F008F805F023F8A0
:1002200003B4FFF7F2FF03BC02F005F81CB501F0C0
:100230009FFF00F0E6FA4FF47844204601F039FEC3
:100240004FF6FF752B4624A246213220009401F080
:1002500040FF25A004F06CFE33A004F069FE02F01C
:100260009EFD002830D034A004F062FE2B4638A258
:1002700000945A21322001F02CFF01A803F06EFAFD
:100280009DF8060000909DF807309DF805209DF828
:10029000041034A004F04CFE46F26801112004F072
:1002A000F1FF0021084601F0D4FD4FF0DE4122208D
:1002B00008800121334804F0C7FC012003F0E6FF69
:1002C000012003F0EEFFFEE72FA004F031FE2B46E5
:1002D00033A20094CDE7000043616D65726120494F
:1002E0006E69742E2E0000000D0A0D0A57656C63AE
:1002F0006F6D6520746F2057617665536861726514
:100300002053544D33324632207365726965732031
:100310004D435520426F617264204F70656E3230DC
:1003200037490D0A000000004F563936353520494F
:100330006E69742E2E0D0A004F5639363535204918
:100340006E6974206661696C7321210D0A000000DA
:100350004F563936353520496E6974206661696CAF
:10036000732121004F56393635352049443A3078CB
:100370002578203078257820307825782030782529
:10038000780D0A002864024043616D65726120485F
:1003900061766520496E69742E2E0D0A00000000FA
:1003A00043616D657261204861766520496E6974AC
:1003B0002E2E00007047FEE7FEE7FEE7FEE77047DF
:1003C00070477047704740F22551164803F0ECBC67
:1003D00010B5082003F092FF50B10021084601F04B
:1003E00038FD4FF0DE4122200880082003F08EFF08
:1003F000102003F083FF10B1102003F087FF0120CD
:1004000003F07CFF10B1012003F080FF042003F013
:1004100075FF002804D0BDE81040042003F076BF2B
:1004200010BD00000010014070B586B0012102200F
:1004300003F00BFE0121880503F025FE914E0422F6
:100440000B21304603F01DFB04220A21304603F045
:1004500018FB02208DF8040001208DF806008DF8AD
:1004600005003515002400958DF807406946304693
:1004700003F096FA680000906946304603F090FA5F
:10048000814E304603F048FFADF80C404BF6FF704C
:10049000ADF80E00FE20ADF810002801ADF81400F4
:1004A0007A480290ADF812500121304603F0B4FFB3
:1004B00002A9304603F04CFF0121304603F0D2FF81
:1004C00006B070BD2DE9F047714D81460E46286893
:1004D00092466D4F0121384603F0A8FF2C68DFF8E3
:1004E000B48101E0641E3BD34146384604F064F811
:1004F0000028F7D000224946384603F0ABFF2C68AD
:10050000DFF8948101E0641E2AD34146384604F0A6
:1005100053F80028F7D0F1B2384604F008F82C68F8
:100520005D4EB61C01E0641E1AD33146384604F015
:1005300043F80028F7D05146384603F0F8FF2C68FE
:1005400001E0641E0CD33146384604F035F800282B
:10055000F7D00121384603F073FF0020BDE8F08793
:10056000FF20FBE72DE9F74F494E89469246306858
:10057000454F1437388840F480603880DFF80881B0
:100580000121404603F052FF3468424D01E0641EF1
:1005900076D32946404604F00FF80028F7D0002211
:1005A0004046009903F056FF3468DFF8ECB001E0F4
:1005B000641E65D35946404603F0FEFF0028F7D07D
:1005C00009F0FF01404603F0B2FF3468DFF8C8B01D
:1005D000C1460BF1020B01E0641E51D35946484657
:1005E00003F0EAFF0028F7D03988B84641F480616B
:1005F000398001214F46484603F022FF0121384649
:1006000003F014FF346801E0641E39D329463846EC
:1006100003F0D2FF0028F7D001223846009903F0FA
:1006200019FF34681B4D6D1C01E0641E28D3294658
:10063000384603F0C1FF0028F7D00021384603F008
:1006400011FF3468134D3F3501E0641E18D329466D
:10065000384603F0B1FF0028F7D00121384603F0F7
:10066000EFFE384603F065FF8AF80000B8F8001086
:1006700041F48061A8F800100020BDE8FE8FFFE77C
:10068000FF20FAE70004024000580040A086010065
:10069000000000200100030082000700034A02EB73
:1006A0000111A1F50071102204F0B2BCA2520008A1
:1006B0001CB50121582003F0C8FC0121084603F0B5
:1006C000D8FCFF4C0C220021204603F0DAF90C2262
:1006D0000121204603F0D5F90C220421204603F025
:1006E000D0F90C220521204603F0CBF90C22082179
:1006F000204603F0C6F90C220921204603F0C1F977
:100700000C220A21204603F0BCF90C220E212046BF
:1007100003F0B7F90C220F21204603F0B2F90220B2
:100720008DF804004CF23371032000918DF8050020
:1007300000218DF806108DF807106946204603F059
:100740002FF9E04C0C220221204603F09AF90C22EA
:100750000721204603F095F90C220821204603F0DA
:1007600090F90C220921204603F08BF90C220A2172
:10077000204603F086F90C220B21204603F081F974
:100780000C221146204603F07CF90C220D21204654
:1007900003F077F90C220E21204603F072F90C22A7
:1007A0000F21204603F06DF94FF6847100916946E0
:1007B000204603F0F5F8C44C0C220521204603F036
:1007C00060F90C221146204603F05BF90C220D2142
:1007D000204603F056F943F2200100916946204675
:1007E00003F0DEF81CBD002240F2754306E0002154
:1007F000491C89B29942FBD3521C92B28242F6D371
:1008000070472DE9F05FB14CFFF752FF641EFDD237
:1008100001F082FC4FF0DE43AD4A00201880DFF883
:10082000B4C2BCF800005080A0F513414FF48074AE
:1008300040F2272840F2077540F23F164FF4887BBC
:10084000253901D0C91E7CD1012010701021E7206C
:1008500004F018FD0121002004F014FD21460120C0
:1008600004F010FD4FF4E061022004F00BFD41F2B2
:100870003001032004F006FD0021042004F002FDF5
:1008800040F20721082004F0FDFC0021092004F0BB
:10089000F9FC00210A2004F0F5FC01210C2004F0F1
:1008A000F1FC00210D2004F0EDFC00210F2004F0EC
:1008B000E9FC0021102004F0E5FC0721112004F0E0
:1008C000E1FC0021122004F0DDFC0021132004F0E3
:1008D000D9FC3220FFF787FF41F29051102004F03D
:1008E000D1FC4146112004F0CDFC3220FFF77BFF04
:1008F0009C21122004F0C6FC3220FFF774FF4FF455
:10090000C851132004F0BEFC2321292004F0BAFCB6
:100910000E212B2004F0B6FC3220FFF764FF0021EB
:10092000202004F0AFFC0021212004F0ABFC322099
:10093000FFF759FF0721302004F0A4FC294631209D
:1009400000E082E004F09EFC0621322004F09AFCD4
:1009500040F20471352004F095FC41F60471362014
:1009600004F090FC0421372004F08CFC0021382096
:1009700004F088FC40F20671392004F083FC40F258
:1009800001713C2004F07EFC0F213D2004F07AFC34
:100990003220FFF728FF0021502004F073FCEF21E4
:1009A000512004F06FFC0021522004F06BFC314612
:1009B000532004F067FC4FF42741602004F062FCF0
:1009C0000121612004F05EFC00216A2004F05AFC41
:1009D0000021802004F056FC0021812004F052FC0C
:1009E0000021822004F04EFC0021832004F04AFC08
:1009F0000021842004F046FC0021852004F042FC04
:100A00001021902004F03EFC0021922004F03AFCDA
:100A10000321932004F036FC5946952004F032FC63
:100A20000021972004F02EFC0021982004F02AFCDD
:100A300040F23311072004F025FC0021202004F0AF
:100A400021FC0021212001F0FDB9A0F5134120393E
:100A50007DD0B0F5134FFBD04FF40177113977D12A
:100A60000320107041F21401E72004F00BFC214632
:100A7000012004F007FC391F022004F003FC41F2BE
:100A80003001032004F0FEFBB91E082004F0FAFB3D
:100A90000021092004F0F6FB00210A2004F0F2FBFB
:100AA00000210C2004F0EEFB00210D2004F0EAFBF5
:100AB00000210F2004F0E6FB002110200CE00000D4
:100AC000000C02400010024000180240FFFF1F000F
:100AD000040000200000016F04F0D4FB0721112066
:100AE00004F0D0FB0021122004F0CCFB00211320E5
:100AF00004F0C8FBC820FFF776FE41F29061102099
:100B000004F0C0FB4146112004F0BCFB3220FFF78B
:100B10006AFE0C21122004F0B5FB3220FFF763FEC1
:100B20004FF40061132004F0ADFB1121292004F0E3
:100B3000A9FB0B212B2004F0A5FB3220FFF753FE6D
:100B40000021202004F09EFB0021212001E07CE018
:100B500020E104F097FB0021302004F093FB4FF4D8
:100B600083742146312004F08DFB0021322004F0F3
:100B700089FB3946352004F085FB41F20A613620B5
:100B800004F080FB2946372004F07CFB2146382006
:100B900004F078FB2946392004F074FB40F202414E
:100BA0003C2004F06FFB40F60F413D2004F06AFB4F
:100BB0000021502004F066FBEF21512004F062FB7D
:100BC0000021522004F05EFB3146532004F05AFB12
:100BD0004FF41C51602004F055FB0121612004F00A
:100BE00051FB00216A2004F04DFB0021802004F01D
:100BF00049FB0021812004F045FB0021822004F004
:100C000041FB0021832004F03DFB0021842004F0FF
:100C100039FB0021852004F035FB1021902004F0E1
:100C200031FB4FF4C061922004F02CFB21210720FE
:100C300004F028FB3220FFF7D6FD6121072004F0E5
:100C400021FB3220FFF7CFFDF6E3002010700146B4
:100C500004F018FB2146012004F014FB4FF4E0617E
:100C6000022004F00FFB41F21801032004F00AFBFC
:100C70000021042004F006FB40F20221082004F0C9
:100C800001FB0021092004F0FDFA00210A2004F0F4
:100C9000F9FA01210C2004F0F5FA00210D2004F0EE
:100CA000F1FA00210F2004F0EDFA6420FFF79BFD1C
:100CB00040F20111072004F0E5FA6420FFF793FDEC
:100CC0004FF48651102004F0DDFA0721112004F0C2
:100CD000D9FA5C465946122004F0D4FA4FF4306138
:100CE000132004F0CFFA0021292004F0CBFA44F2BB
:100CF00010012B2004F0C6FA0021502004F0C2FAA3
:100D0000EF21512004F0BEFA0021522004F0BAFA7B
:100D10003146532004F0B6FA4FF41C51602004F021
:100D2000B1FA0121612004F0ADFA00216A2004F03B
:100D3000A9FA0021802004F0A5FA0021812004F006
:100D4000A1FA0021822004F09DFA0021832004F002
:100D500099FA0021842004F095FA0021852004F0FE
:100D600091FA1021902004F08DFA0021922004F0D5
:100D700089FA0121932004F085FA2146952004F098
:100D800081FA0021972004F07DFA00219820FCE3ED
:100D9000072058E6A0F5194140F2055919397DD1CF
:100DA0000D2010700621282004F06CFA012100208B
:100DB00004F068FA0021102004F064FA47F2EF21F1
:100DC000012004F05FFA4FF4C061022004F05AFAE7
:100DD00046F63821032004F055FA46F67401112036
:100DE00004F050FA00210F2004F04CFA45F20831CB
:100DF0000B2004F047FA03210C2004F043FA0A21E7
:100E00000D2004F03FFA4FF438510E2004F03AFA66
:100E1000BE211E2004F036FA4FF40041252004F0D4
:100E200031FA4FF4F041262004F02CFA78212720E3
:100E300004F028FA00214E2004F024FA00214F206B
:100E400004F020FA40F6D901122004F01BFA002128
:100E5000302004F017FA4FF48271312004F012FAB6
:100E60002146322004F00EFA40F2053421463320A8
:100E700004F008FA4946342004F004FA21463520EB
:100E800004F000FA2946362004F0FCF9611F3720EF
:100E900004F0F8F94FF490513A2000E008E004F033
:100EA000F1F94FF400613B2004F0ECF933216FE7D6
:100EB000A0F5A851053901D048457DD10920107011
:100EC0000021072004F0DEF93220FFF78CFC4FF4FC
:100ED0008E71122004F0D6F90121A42004F0D2F979
:100EE0000F21082004F0CEF908210A2004F0CAF9E5
:100EF00008210D2004F0C6F92946302004F0C2F97B
:100F00000721312004F0BEF940F20361322004F0E1
:100F1000B9F94FF4E0673946332004F0B3F940F2F1
:100F20000221342004F0AEF90221352004F0AAF9A0
:100F300041F60F71362004F0A5F92946372004F058
:100F4000A1F90021382004F09DF90021392004F096
:100F500099F929463A2004F095F900213B2004F044
:100F600091F907213C2004F08DF900213D2004F087
:100F700089F93220FFF737FC0121072004F082F9BC
:100F80000121172004F07EF93220FFF72CFC4FF4EA
:100F9000BD51102004F076F940F21721112004F021
:100FA00071F94FF48F71122004F06CF94FF47061F5
:100FB000132004F067F900E08AE000212A2004F001
:100FC00061F90A21292004F05DF94FF49F71122084
:100FD00004F058F90021502004F054F9EF21512079
:100FE00004F050F90021522004F04CF9314653200E
:100FF00004F048F94FF41C51602004F043F901213A
:10100000612004F03FF900216A2004F03BF900213F
:10101000802004F037F90021812004F033F9002109
:10102000822004F02FF90021832004F02BF9002105
:10103000842004F027F90021852004F023F91321EE
:10104000902004F01FF94FF44071922004F01AF937
:101050000521932004F016F90021952004F012F9DF
:101060000021972004F00EF90021982004F00AF9DD
:101070002146012004F006F93946022004F002F965
:1010800041F23001032004F0FDF80021042004F0B7
:10109000F9F800210C2004F0F5F800210F2004F0ED
:1010A000F1F80021202004F0EDF80021212004F0C7
:1010B000E9F82121072004F0E5F8C820FFF793FBA9
:1010C0006121072004F0DEF8C820FFF78CFB9EE2C8
:1010D000A0F5094140F2025840F2023A89397CD128
:1010E000052010700121002004F0CCF83220FFF719
:1010F0007AFB4AF6A401032004F0C4F83220FFF77B
:1011000072FB00210C2004F0BDF83220FFF76BFBCE
:1011100040F60C010D2004F0B5F83220FFF763FB18
:101120004FF42C510E2004F0ADF83220FFF75BFB9A
:10113000B0211E2004F0A6F83220FFF754FB42F63F
:101140003F31012004F09EF83220FFF74CFB4FF4B2
:10115000C061022004F096F83220FFF744FB002122
:10116000102004F08FF83220FFF73DFB46F27001AB
:10117000112004F087F83220FFF735FB002105200D
:1011800004F080F83220FFF72EFB0021062004F047
:1011900079F83220FFF727FB4EF61C71162004F079
:1011A00071F83220FFF71FFB0321172004F06AF8C3
:1011B0003220FFF718FB40F23311072004F062F8E9
:1011C0003220FFF710FB00210B2004F05BF83220E7
:1011D000FFF709FB00210F2000E0AAE004F052F81D
:1011E0003220FFF700FB0021412004F04BF83220B1
:1011F000FFF7F9FA0021422004F044F83220FFF70B
:10120000F2FA0021482004F03DF83220FFF7EBFA13
:101210003146492004F036F83220FFF7E4FA002185
:101220004A2004F02FF83220FFF7DDFA00214B208E
:1012300004F028F83220FFF7D6FA4FF46F4144202B
:1012400004F020F83220FFF7CEFA0021452004F008
:1012500019F83220FFF7C7FA3146462004F012F899
:101260003220FFF7C0FA2946302004F00BF8322074
:10127000FFF7B9FA3946312004F004F83220FFF7BD
:10128000B2FA3946322003F0FDFF3220FFF7ABFA05
:1012900044464146332003F0F5FF3220FFF7A3FA1E
:1012A00040F20751342003F0EDFF3220FFF79BFAA4
:1012B0003946352003F0E6FF3220FFF794FA39462D
:1012C000362003F0DFFF3220FFF78DFA214637206A
:1012D00003F0D8FF3220FFF786FA544651463A20F1
:1012E00003F0D0FF3220FFF77EFA21463B2003F0C7
:1012F000C9FF3220FFF777FA0021232003F0C2FF55
:101300003220FFF770FA0021242003F0BBFF3220C7
:10131000FFF769FA4FF40041252003F0B3FF3220B4
:10132000FFF761FA00214F2003F0ACFF00214E20AF
:101330002FE5A0F5094199397DD1042010700621CF
:10134000282003F09FFF0121002003F09BFF4AF6B5
:10135000A461032003F096FF04210C2003F092FF08
:101360000C210D2003F08EFF4FF420510E2003F0CE
:1013700089FFB5211E2003F085FF43F63F31012090
:1013800003F080FF4FF4C061022003F07BFF0021D7
:10139000102003F077FF46F63001112003F072FFB2
:1013A0000021052003F06EFF0021062003F06AFFF4
:1013B0004EF61C71162003F065FF3321072003F061
:1013C00061FF00210B2003F05DFF00210F2003F0DF
:1013D00059FF0021412003F055FF0021422003F076
:1013E00051FF0021482003F04DFF3146492003F012
:1013F00049FF00214A2003F045FF00214B2003F064
:1014000041FF4FF46F41442003F03CFF0021452091
:1014100003F038FF3146462003F034FF00214E2010
:1014200003F030FF00214F2003F02CFF294630202D
:1014300003F028FF01E042E0FEE240F20221312009
:1014400003F020FF3946322003F01CFF444641469A
:10145000332003F017FF40F20751342003F012FF4E
:101460003946352003F00EFF3946362003F00AFFD7
:101470002146372003F006FF544651463A2003F038
:1014800001FF21463B2003F0FDFE0021232003F055
:10149000F9FE0021242003F0F5FE4FF40041252041
:1014A00003F0F0FE4FF4E041262003F0EBFE4BF298
:1014B000EB01202003F0E6FE7C21272069E4A0F563
:1014C000A84108397ED1082010702146012003F080
:1014D000D9FE4FF4E061022003F0D4FE41F2300166
:1014E000032003F0CFFE0021042003F0CBFE40F2E6
:1014F0000721082003F0C6FE0021092003F0C2FEE8
:1015000000210A2003F0BEFE00210C2003F0BAFEE9
:1015100000210D2003F0B6FE00210F2003F0B2FEE3
:101520003220FFF760F940F20111072003F0AAFE14
:101530003220FFF758F941F2B061102003F0A2FE0B
:101540000121112003F09EFE0121172003F09AFED5
:101550004FF49C71122003F095FE4FF400611320AC
:1015600003F090FE0921292003F08CFE09212A2096
:1015700003F088FE0021A42003F084FE0021502007
:1015800003F080FEEF21512000E03EE003F07AFE00
:101590000021522003F076FE3146532003F072FE04
:1015A0004FF41C51602003F06DFE0321612003F015
:1015B00069FE00216A2003F065FE0021802003F00F
:1015C00061FE00E026E00021812003F05BFE0021A7
:1015D000822003F057FE0021832003F053FE0021F8
:1015E000842003F04FFE0021852003F04BFE1321E1
:1015F000902003F047FE0021922003F043FE0321D8
:10160000932003F03FFE5946952003F03BFE40F245
:1016100073114CE4A0F58A4131397CD10720107058
:101620000121002003F02EFE4FF4C561102003F0CD
:1016300029FE0621122003F025FE40F63221132058
:1016400003F020FE4021112003F01CFE5021152044
:1016500003F018FE1621122003F014FE3220FFF7CB
:10166000C2F845F26061102003F00CFE3220FFF753
:10167000BAF842F64E21132003F004FE2146012061
:1016800003F000FE4FF44071022003F0FBFD41F235
:101690003001032003F0F6FD40F20221082003F0A0
:1016A000F1FD00210A2003F0EDFD0021302003F0C0
:1016B000E9FD40F20241312003F0E4FD4FF4837173
:1016C000322003F0DFFD4FF4E061332003F0DAFD58
:1016D0004FF48271342003F0D5FD40F20131352002
:1016E00003F0D0FD2946362003F0CCFD40F2053151
:1016F000372003F0C7FD4FF40271382003F0C2FD1C
:1017000040F60B71392003F0BDFD3220FFF76BF876
:101710000221412000E02AE003F0B4FD4FF41C5107
:10172000602003F0AFFD0121612003F0ABFD40F22A
:101730001911902003F0A6FD4FF48571922003F05B
:10174000A1FD0421932003F09DFD2146A02003F07C
:1017500099FD3220FFF747F840F23311072003F0DC
:1017600091FD3220FFF73FF80021A0206AE3A0F5A9
:101770008A4135397ED10C2010703021152003F0BC
:1017800081FD10219A2003F07DFD2021112003F01E
:1017900079FD43F22841102003F074FD022112204C
:1017A00003F070FD41F23801132003F06BFD282097
:1017B000FFF719F81221084603F064FD2820FFF70F
:1017C00012F843F22041102003F05CFD43F2450182
:1017D000132003F057FD4620FFF705F800213020C5
:1017E00003F050FD40F20241312003F04BFD40F286
:1017F0000731322003F046FD4FF44171332003F0EE
:1018000041FD0421342003F03DFD40F2014135202B
:1018100003F038FD2946362003F034FD40F205314F
:10182000372003F02FFD4FF4C2652946382003F01E
:1018300029FD2946392003F025FD2146012003F02A
:1018400021FD4FF44071022003F01CFD41F23001F4
:10185000032003F017FD40F60801082003F012FDF5
:1018600008210A2003F00EFD4FF41C51602003F004
:1018700009FD00E028E00121612003F003FD4FF4A1
:101880009F71902003F0FEFC2146922003F0FAFCA9
:101890002146932003F0F6FC4FF44051A02003F0C2
:1018A000F1FC1021A32003F0EDFC0121072003F03F
:1018B000E9FC2121072003F0E5FC2321072003F0A8
:1018C000E1FC33210720B5E047287DD0A0F5EE41AB
:1018D00083397AD1062010700121FF2003F0D2FC59
:1018E0000821F32003F0CEFC2146012003F0CAFCBE
:1018F0004FF4E061022003F0C5FC41F23001032007
:1019000003F0C0FC5146082003F0BCFC40F2072164
:10191000082003F0B7FC0021092003F0B3FC0021EC
:101920000A2003F0AFFC0021102003F0ABFC0521DE
:10193000112003F0A7FC0021122003F0A3FC0021DA
:10194000132003F09FFC3220FEF74DFF41F2B0213F
:10195000102003F097FC3220FEF745FF07211120ED
:1019600003F090FC3220FEF73EFF8B21122003F0A3
:1019700089FC3220FEF737FF4FF4B851132003F0F3
:1019800081FC3220FEF72FFF2221292003F07AFC70
:101990000021302003F076FC2946312003F072FC50
:1019A0004946322003F06EFC40F20711352003F067
:1019B00069FC0821362003F065FC0021372003F084
:1019C00061FC40F2022401E039E018E121463820B0
:1019D00003F058FC4FF48371392003F053FC214687
:1019E0003C2003F04FFC4FF481613D2003F04AFCA2
:1019F0003220FEF7F8FE0021502003F043FCEF21D7
:101A0000512003F03FFC0021522003F03BFC314603
:101A1000532003F037FC4FF42741602003F032FCE1
:101A20000121612003F02EFC3321902003F02AFCD9
:101A30000B212B2003F026FC40F23311E9E50A20AC
:101A400010700021EA2003F01DFC2021EB2003F0A0
:101A500019FC0C21EC2003F015FCC421ED2003F04F
:101A600011FC4021E82003F00DFC3821E92003F0AF
:101A700009FC0121F12003F005FC1021F22003F004
:101A800001FCA321272003F0FDFB0121402003F0EE
:101A9000F9FB0021412003F0F5FB0021422003F077
:101AA000F1FB1021432003F0EDFB0E21442003F055
:101AB000E9FB2421452003F0E5FB0421462003F047
:101AC000E1FB5021472003F0DDFB0221482003F019
:101AD000D9FB1321492003F0D5FB19214A2003F03B
:101AE000D1FB19214B2003F0CDFB16214C2003F034
:101AF000C9FB1B21502003F0C5FB3121512003F00D
:101B0000C1FB2F21522003F0BDFB3F21532003F0E6
:101B1000B9FB3F21542003F0B5FB3E21552003F0D3
:101B2000B1FB2F21562003F0ADFB7B21572003F0A2
:101B3000A9FB0921582003F0A5FB0621592003F039
:101B4000A1FB06215A2003F09DFB0C215B2003F032
:101B500099FB1D215C2003F095FBCC215D2003F057
:101B600091FB18211B2003F08DFB01211A2003F0AB
:101B700089FB1521242003F085FB5021252003F04B
:101B800081FB8B21232003F07DFB3621182003F0FD
:101B900079FB0121192003F075FB0021012003F0DE
:101BA00071FB88211F2003F06DFB3220FEF71BFE26
:101BB00080211F2003F066FB3220FEF714FE9021E7
:101BC0001F2003F05FFB3220FEF70DFED0211F2007
:101BD00003F058FB3220FEF706FE0521172003F024
:101BE00051FB0021362003F04DFB3821282003F063
:101BF00049FB3220FEF7F7FD3C21282022E1672037
:101C00001880BCF80000508047287DD10B20107050
:101C10000821422003F036FBB421462003F032FBBA
:101C20004321472003F02EFB1321482003F02AFB19
:101C30004721492003F026FB14214A2003F022FB10
:101C400036214B2003F01EFB03214C2003F01AFB2E
:101C500046214D2003F016FB05214E2003F012FB18
:101C600010214F2003F00EFB0821502003F00AFB47
:101C70000A21512003F006FB0021022003F002FBA1
:101C80000021032003F0FEFA0021042003F0FAFAF9
:101C9000EF21052003F0F6FA0021062003F0F2FA06
:101CA0000021072003F0EEFA0121082003F0EAFAF0
:101CB0003F21092003F0E6FA0A20FEF794FD0621F1
:101CC000012003F0DFFAC821162003F0DBFA95218A
:101CD000232003F0D7FA9521242003F0D3FAFF2123
:101CE000252003F0CFFA0221272003F0CBFA0221AE
:101CF000282003F0C7FA0221292003F0C3FA0221A9
:101D00002A2003F0BFFA00E09EE002212C2003F01D
:101D1000B9FA02212D2003F0B5FA01213A2003F08F
:101D2000B1FA01213B2003F0ADFAF0213C2003F091
:101D3000A9FA00213D2003F0A5FA1420FEF753FD77
:101D40003821352003F09EFA7821362003F09AFAE4
:101D500038213E2003F096FA0F21402003F092FA3A
:101D6000F021412003F08EFA0021382003F08AFA96
:101D70004921192003F086FA0A21932003F082FA00
:101D80000A20FEF730FD2021084603F07BFA0321EC
:101D90001D2003F077FA00211E2003F073FA0921B9
:101DA0001F2003F06FFA5321442003F06BFA102137
:101DB000452003F067FA0A20FEF715FD04211C20D8
:101DC00003F060FA1420FEF70EFD8021432003F09B
:101DD00059FA0520FEF707FD0A211B2003F052FAED
:101DE0002820FEF700FD12211B2003F04BFA2820CB
:101DF000FEF7F9FC7F21902003F044FA042126200D
:101E000003F040FA2820FEF7EEFC2421262003F000
:101E100039FA2C21262003F035FA2820FEF7E3FCBE
:101E20000821702003F02EFA3C21262003F02AFA24
:101E30000221572003F026FA0021552003F022FA50
:101E40000021572003F01EFABDE8F05F3220FEF7B4
:101E5000CABC70B50546C4480C460178091F0A295A
:101E600006D2DFE801F00C0C050505051313052566
:101E70002946202003F006FA2146212014E02946B5
:101E80004E2003F0FFF921464F200DE0290A0220E1
:101E900003F0F8F92946032003F0F4F9210A06209B
:101EA00003F0F0F921460720BDE8704003F0EAB9DD
:101EB00070BD70B50546AC48002400780A2811D0E2
:101EC0000B280FD000210846FFF7C3FF4FF0DE417B
:101ED00022200880A5484FF496310580641C8C426E
:101EE000FBD370BD0021022003F0CCF900210320B8
:101EF00003F0C8F90021042003F0C4F9EF21052004
:101F000003F0C0F90021062003F0BCF900210720EE
:101F100003F0B8F90121082003F0B4F93F210920AA
:101F200003F0B0F9D2E710B5FFF793FF4FF0DE41B1
:101F3000222008808C4801788C48091F092917D273
:101F4000DFE801F0050505051616080805000188FB
:101F5000008810BD0188C1F3C70201880088C90844
:101F6000C0F38700C90241EA4010104380B210BD9F
:101F700001880088C0F34511C20AC00200EB41107D
:101F80001044F3E710B51446F0280AD2B1F5A07F4B
:101F900007D2FFF75EFF2146BDE81040222003F084
:101FA00071B910BD2DE9F04704469046DDF820A038
:101FB0000D4699461046444501D9A04684B21846BC
:101FC0004D4501D9894685B2A8EB0400A9EB05016E
:101FD00000B20EB250B1A6B1B04230DDC0EB460146
:101FE0000FB27100404201EB400925E052462946FC
:101FF0002046FFF7C7FF6D1CADB2A945F6D2BDE87C
:10200000F087524629462046FFF7BCFF641CA4B265
:10201000A045F6D2F3E7524629462046FFF7B2FF25
:10202000641CA4B2002F04DD6D1CADB209EB0700E7
:1020300001E007EB460007B24445ECD11AE0C6EBDD
:1020400040010FB27100404201EB400810E05246DF
:1020500029462046FFF796FF6D1CADB2002F04DD28
:10206000641CA4B208EB070001E007EB460007B2CE
:102070004D45ECD1524629462046BDE8F04781E760
:102080002DE9FF5F0746894611469B466846FEF7E5
:1020900005FB0025EA4600241AF8058009EB050631
:1020A000C4F1070128FA01F0C00707EB0400B1B240
:1020B00080B201D05A4600E00E9AFFF763FF641C1D
:1020C000A4B2082CECD36D1CADB2102DE3D3BDE847
:1020D000FF9F2DE9F8430446089F0D461646994692
:1020E0004FF4987816F8012B4B4629462046009766
:1020F000FFF7C6FFE82C02D20834A4B207E045453A
:102100004FF0000402D21035ADB200E00025307867
:102110000028E7D1BDE8F88300B597B0062000900D
:1021200000201021CDE90201049009020190CDE9BF
:102130000801069007900A900FA905900F220B90B6
:10214000CDE90C01CDE90F20CDE9112013901490B9
:1021500015900E91684602F085FA0121062002F0E2
:1021600012FB17B000BD0000040000200000016F4A
:1021700070B5012186B0084601F067FF01210846CD
:1021800001F063FF0121102001F087FF324E07228A
:102190000921304601F075FC07220A21304601F082
:1021A00070FC7015009002208DF8040000248DF85A
:1021B00006408DF8050001258DF807506946304628
:1021C00001F0EEFBA80200908DF806508DF8074054
:1021D0006946304601F0E4FB4FF4E130ADF80C40C5
:1021E0000290ADF80E40ADF81040ADF814400C2050
:1021F0001A4CADF8120002A9204601F09EFC012203
:1022000040F22551204601F0ADFD0121204601F0AC
:102210000AFD06B070BD08B525208DF8000000202D
:102220008DF801008DF8020001208DF8030068464A
:1022300001F003FB08BD704770B5084D0446C1B2FC
:10224000284601F016FD4021284601F0A3FD002894
:10225000F9D0204670BD000000000240001001408F
:102260002DE9F04796B0012140F2811001F0EDFE1A
:102270000121084601F0F3FEDFF804A40D22062137
:10228000504601F0FEFBFF4F0D220821384601F0B9
:10229000F8FB0D220921384601F0F3FB0D220A213B
:1022A000384601F0EEFB0D220B21384601F0E9FB28
:1022B0000D220C21384601F0E4FB0D220E21384698
:1022C00001F0DFFBDFF8C0930D220521484601F045
:1022D000D8FB0D220621484601F0D3FB0D22072131
:1022E000484601F0CEFB0D220421484601F0C9FB0F
:1022F00002268DF840604FF003084FF4BE408DF881
:10230000418000240F908DF8424001258DF8435004
:102310000FA9384601F044FBF0200F900FA9484662
:1023200001F03EFB40278DF840600F978DF842404A
:102330000FA9504601F034FBADF848408020ADF8BD
:102340004440ADF84A00ADF84C70ADF84640ADF8E9
:102350004E40ADF8504011A801F04DFF012108207A
:1023600001F0ADFF4FF4C06001F062FA4E208DF82D
:1023700054008DF855508DF856508DF8575015A8CB
:1023800001F05BFA0121880501F05FFEBF4D284690
:1023900002F09AFB30060090BD480190BD48CDE99F
:1023A00002044FF4A070CDE90404A814CDE906405E
:1023B000400008904011099040020A900420CDE9A5
:1023C0000C840B90694628460E9402F004FC16B06B
:1023D000BDE8F08710B50220401EFDD20022114654
:1023E0006020FEF76FF80220401EFDD280220121FE
:1023F0006020FEF767F80220401EFDD280220221F5
:102400006020FEF75FF80220401EFDD20222032169
:102410006020FEF757F80220401EFDD20022042162
:102420006020FEF74FF80220401EFDD20322092152
:102430006020FEF747F80220401EFDD257220B21F4
:102440006020FEF73FF80220401EFDD201220E213F
:102450006020FEF737F80220401EFDD2C0220F2177
:102460006020FEF72FF80220401EFDD250221021DE
:102470006020FEF727F80220401EFDD280221121A5
:102480006020FEF71FF80220401EFDD263221221B9
:102490006020FEF717F80220401EFDD2EF22132124
:1024A0006020FEF70FF80220401EFDD22A221421E0
:1024B0006020FEF707F80220401EFDD218221521E9
:1024C0006020FDF7FFFF0220401EFDD224221621CE
:1024D0006020FDF7F7FF0220401EFDD218221721D1
:1024E0006020FDF7EFFF0220401EFDD204221821DC
:1024F0006020FDF7E7FF0220401EFDD201221921D6
:102500006020FDF7DFFF0220401EFDD281221A214C
:102510006020FDF7D7FF0220401EFDD200221E21C1
:102520006020FDF7CFFF0220401EFDD23C22242177
:102530006020FDF7C7FF0220401EFDD23622252174
:102540006020FDF7BFFF0220401EFDD2722226212F
:102550006020FDF7B7FF0220401EFDD20822272190
:102560006020FDF7AFFF0220401EFDD20822282187
:102570006020FDF7A7FF0220401EFDD21522292171
:102580006020FDF79FFF0220401EFDD200222A217D
:102590006020FDF797FF0220401EFDD200222B2174
:1025A0006020FDF78FFF0220401EFDD208222C2163
:1025B0006020FDF787FF0220401EFDD2122232214B
:1025C0006020FDF77FFF0220401EFDD20022332154
:1025D0006020FDF777FF0220401EFDD23F2234210C
:1025E0006020FDF76FFF0220401EFDD20022352142
:1025F0006020FDF767FF0220401EFDD23A223621FF
:102600006020FDF75FFF0220401EFDD272223821BC
:102610006020FDF757FF0220401EFDD257223921CE
:102620006020FDF74FFF0220401EFDD2CA223A2152
:102630006020FDF747FF0220401EFDD204223B210F
:102640006020FDF73FFF0220401EFDD299223D2170
:102650006020FDF737FF0220401EFDD202223E21FE
:102660006020FDF72FFF0220401EFDD2C1223F2136
:102670006020FDF727FF0220401EFDD2D0220BE094
:1026800000000240001C024000200240286402407A
:10269000280005500000016F40216020FDF712FF67
:1026A0000220401EFDD2412211466020FDF70AFFA4
:1026B0000220401EFDD2C02242216020FDF702FF11
:1026C0000220401EFDD20A2243216020FDF7FAFEBF
:1026D0000220401EFDD2F02244216020FDF7F2FED0
:1026E0000220401EFDD2462245216020FDF7EAFE71
:1026F0000220401EFDD2622246216020FDF7E2FE4C
:102700000220401EFDD22A2247216020FDF7DAFE7A
:102710000220401EFDD23C2248216020FDF7D2FE5F
:102720000220401EFDD2FC224A216020FDF7CAFE95
:102730000220401EFDD2FC224B216020FDF7C2FE8C
:102740000220401EFDD27F224C216020FDF7BAFE00
:102750000220401EFDD27F224D216020FDF7B2FEF7
:102760000220401EFDD27F224E216020FDF7AAFEEE
:102770000220401EFDD298224F216020FDF7A2FECC
:102780000220401EFDD2982250216020FDF79AFEC3
:102790000220401EFDD2002251216020FDF792FE52
:1027A0000220401EFDD2282252216020FDF78AFE21
:1027B0000220401EFDD2702253216020FDF782FED0
:1027C0000220401EFDD2982254216020FDF77AFE9F
:1027D0000220401EFDD21A2258216020FDF772FE11
:1027E0000220401EFDD2852259216020FDF76AFE9D
:1027F0000220401EFDD2A9225A216020FDF762FE70
:102800000220401EFDD264225B216020FDF75AFEAB
:102810000220401EFDD284225C216020FDF752FE82
:102820000220401EFDD253225D216020FDF74AFEAA
:102830000220401EFDD20E225E216020FDF742FEE6
:102840000220401EFDD2F0225F216020FDF73AFEFB
:102850000220401EFDD26021F0220846FDF732FE24
:102860000220401EFDD2F02261216020FDF72AFEE9
:102870000220401EFDD2002262216020FDF722FED0
:102880000220401EFDD2002263216020FDF71AFEC7
:102890000220401EFDD2022264216020FDF712FEBC
:1028A0000220401EFDD2202265216020FDF70AFE95
:1028B0000220401EFDD2002266216020FDF702FEAC
:1028C0000220401EFDD20A2269216020FDF7FAFD98
:1028D0000220401EFDD20A226B216020FDF7F2FD8E
:1028E0000220401EFDD204226C216020FDF7EAFD8B
:1028F0000220401EFDD255226D216020FDF7E2FD31
:102900000220401EFDD200226E216020FDF7DAFD7C
:102910000220401EFDD29D226F216020FDF7D2FDD6
:102920000220401EFDD2212270216020FDF7CAFD49
:102930000220401EFDD2782271216020FDF7C2FDE9
:102940000220401EFDD20220401EFDD21122722123
:102950006020FDF7B7FD0220401EFDD20220401E80
:10296000FDD2012273216020FDF7ACFD0220401E44
:10297000FDD2102274216020FDF7A4FD0220401E2C
:10298000FDD2102275216020FDF79CFD0220401E23
:10299000FDD2012276216020FDF794FD0220401E29
:1029A000FDD2022277216020FDF78CFD0220401E1F
:1029B000FDD212227A216020FDF784FD0220401E04
:1029C000FDD208227B216020FDF77CFD0220401E05
:1029D000FDD216227C216020FDF774FD0220401EEE
:1029E000FDD230227D216020FDF76CFD0220401ECB
:1029F000FDD25E227E216020FDF764FD0220401E94
:102A0000FDD272227F216020FDF75CFD0220401E76
:102A1000FDD2822280216020FDF754FD0220401E5D
:102A2000FDD28E2281216020FDF74CFD0220401E48
:102A3000FDD29A2282216020FDF744FD0220401E33
:102A4000FDD2A42283216020FDF73CFD0220401E20
:102A5000FDD2AC2284216020FDF734FD0220401E0F
:102A6000FDD2B82285216020FDF72CFD0220401EFA
:102A7000FDD2C32286216020FDF724FD0220401EE6
:102A8000FDD2D62287216020FDF71CFD0220401ECA
:102A9000FDD2E62288216020FDF714FD0220401EB1
:102AA000FDD2F22289216020FDF70CFD0220401E9C
:102AB000FDD224228A216020FDF704FD0220401E61
:102AC000FDD280228C216020FDF7FCFC0220401EFC
:102AD000FDD27D2290216020FDF7F4FC0220401EF3
:102AE000FDD27B2291216020FDF7ECFC0220401EEC
:102AF000FDD202229D216020FDF7E4FC0220401E51
:102B0000FDD202229E216020FDF7DCFC0220401E47
:102B1000FDD27A229F216020FDF7D4FC0220401EC6
:102B2000FDD27922A0216020FDF7CCFC0220401EBE
:102B3000FDD21F22A1216020FDF7C4FC0220401E0F
:102B4000FDD25022A4216020FDF7BCFC0220401ED3
:102B5000FDD26822A5216020FDF7B4FC0220401EB2
:102B6000FDD24A22A6216020FDF7ACFC0220401EC7
:102B7000FDD2C122A8216020FDF7A4FC0220401E46
:102B8000FDD2EF22A9216020FDF79CFC0220401E0F
:102B9000FDD29222AA216020FDF794FC0220401E63
:102BA000FDD20422AB216020FDF78CFC0220401EE8
:102BB000FDD28022AC216020FDF784FC0220401E63
:102BC000FDD28022AD216020FDF77CFC0220401E5A
:102BD000FDD28022AE216020FDF774FC0220401E51
:102BE000FDD28022AF216020FDF76CFC0220401E48
:102BF000FDD2F222B2216020FDF764FC0220401ECB
:102C0000FDD22022B3216020FDF75CFC0220401E93
:102C1000FDD22022B4216020FDF754FC0220401E8A
:102C2000FDD20022B5216020FDF74CFC0220401EA1
:102C3000FDD2AF22B6216020FDF744FC0220401EE9
:102C4000FDD2AF22B6216020FDF73CFC0220401EE1
:102C5000FDD2AE22BB216020FDF734FC0220401ED5
:102C6000FDD27F22BC216020FDF72CFC0220401EFB
:102C7000FDD27F22BD216020FDF724FC0220401EF2
:102C8000FDD27F22BE216020FDF71CFC0220401EE9
:102C9000FDD27F22BF216020FDF714FC0220401EE0
:102CA000FDD27F22BF216020FDF70CFC0220401ED8
:102CB000FDD2AA22C0216020FDF704FC0220401EA4
:102CC000FDD2C022C1216020FDF7FCFB0220401E86
:102CD000FDD20122C2216020FDF7F4FB0220401E3C
:102CE000FDD24E22C3216020FDF7ECFB0220401EE6
:102CF000FDD20522C6216020FDF7E4FB0220401E24
:102D0000FDD28122C7216020FDF7DCFB0220401E9E
:102D1000FDD2E022C9216020FDF7D4FB0220401E35
:102D2000FDD2E822CA216020FDF7CCFB0220401E24
:102D3000FDD2F022CB216020FDF7C4FB0220401E13
:102D4000FDD2D822CC216020FDF7BCFB0220401E22
:102D5000FDD29322CD216020FDF7B4FB0220401E5E
:102D6000FDD210BD1CB50121084601F06EF94FF4EB
:102D70008070009003208DF8050002208DF804007B
:102D800000208DF806008DF807006946FE4800F027
:102D900007FE4FF08061081101F0BAF81CBD10B5B4
:102DA000FFF7E0FFFDF740FB40F6FF74204600F020
:102DB00016FD802212216020FDF784FB08B1FF2060
:102DC00010BD204600F00BFDFFF704FB632212212B
:102DD0006020FDF777FB102240216020FDF772FB99
:102DE000082215216020FDF76DFBFFF739FA00205E
:102DF00010BD802212216020FDF764BB10B50220B7
:102E0000401EFDD2002211466020FDF75BFB022030
:102E1000401EFDD2802201216020FDF753FB0220DD
:102E2000401EFDD2802202216020FDF74BFB0220D4
:102E3000401EFDD2022203216020FDF743FB022049
:102E4000401EFDD2032204216020FDF73BFB02203F
:102E5000401EFDD2012209216020FDF733FB022034
:102E6000401EFDD257220B216020FDF72BFB0220D4
:102E7000401EFDD261220E216020FDF723FB0220BF
:102E8000401EFDD240220F216020FDF71BFB0220D7
:102E9000401EFDD2012211216020FDF713FB02200C
:102EA000401EFDD2622212216020FDF70BFB0220A2
:102EB000401EFDD2C72213216020FDF703FB022034
:102EC000401EFDD23A2214216020FDF7FBFA0220B9
:102ED000401EFDD2082215216020FDF7F3FA0220E2
:102EE000401EFDD2242216216020FDF7EBFA0220BD
:102EF000401EFDD2182217216020FDF7E3FA0220C0
:102F0000401EFDD2042218216020FDF7DBFA0220CA
:102F1000401EFDD2012219216020FDF7D3FA0220C4
:102F2000401EFDD281221A216020FDF7CBFA02203B
:102F3000401EFDD220221E216020FDF7C3FA022090
:102F4000401EFDD23C2224216020FDF7BBFA022066
:102F5000401EFDD2362225216020FDF7B3FA022063
:102F6000401EFDD2722226216020FDF7ABFA02201E
:102F7000401EFDD2082227216020FDF7A3FA02207F
:102F8000401EFDD2082228216020FDF79BFA022076
:102F9000401EFDD2152229216020FDF793FA022060
:102FA000401EFDD200222A216020FDF78BFA02206C
:102FB000401EFDD200222B216020FDF783FA022063
:102FC000401EFDD208222C216020FDF77BFA022052
:102FD000401EFDD2A42232216020FDF773FA0220A8
:102FE000401EFDD2002233216020FDF76BFA022043
:102FF000401EFDD23F2234216020FDF763FA0220FB
:10300000401EFDD2002235216020FDF75BFA022030
:10301000401EFDD23A2236216020FDF753FA0220ED
:10302000401EFDD2722238216020FDF74BFA0220AB
:10303000401EFDD2572239216020FDF743FA0220BD
:10304000401EFDD2CC223A216020FDF73BFA02203F
:10305000401EFDD204223B216020FDF733FA0220FE
:10306000401EFDD299223D216020FDF72BFA02205F
:10307000401EFDD20E223E216020FDF723FA0220E1
:10308000401EFDD2C1223F216020FDF71BFA022025
:10309000401EFDD2C02240216020FDF713FA02201D
:1030A000401EFDD2412211466020FDF70BFA02209E
:1030B000401EFDD2C02242216020FDF703FA02200B
:1030C000401EFDD20A2243216020FDF7FBF90220B9
:1030D000401EFDD2F02244216020FDF7F3F90220CA
:1030E000401EFDD2462245216020FDF7EBF902206B
:1030F000401EFDD2622246216020FDF7E3F9022046
:10310000401EFDD22A2247216020FDF7DBF9022074
:10311000401EFDD23C2248216020FDF7D3F9022059
:10312000401EFDD2FC224A216020FDF7CBF902208F
:10313000401EFDD2FC224B216020FDF7C3F9022086
:10314000401EFDD27F224C216020FDF7BBF90220FA
:10315000401EFDD27F224D216020FDF7B3F90220F1
:10316000401EFDD27F224E216020FDF7ABF90220E8
:10317000401EFDD298224F216020FDF7A3F90220C6
:10318000401EFDD2982201E0000002405021602044
:10319000FDF798F90220401EFDD200225121602047
:1031A000FDF790F90220401EFDD228225221602016
:1031B000FDF788F90220401EFDD2702253216020C5
:1031C000FDF780F90220401EFDD298225421602094
:1031D000FDF778F90220401EFDD21A225821602006
:1031E000FDF770F90220401EFDD285225921602092
:1031F000FDF768F90220401EFDD2A9225A21602065
:10320000FDF760F90220401EFDD264225B216020A0
:10321000FDF758F90220401EFDD284225C21602077
:10322000FDF750F90220401EFDD253225D2160209F
:10323000FDF748F90220401EFDD20E225E216020DB
:10324000FDF740F90220401EFDD2F0225F216020F0
:10325000FDF738F90220401EFDD26021F022084619
:10326000FDF730F90220401EFDD2F02261216020DE
:10327000FDF728F90220401EFDD2002262216020C5
:10328000FDF720F90220401EFDD2002263216020BC
:10329000FDF718F90220401EFDD2022264216020B1
:1032A000FDF710F90220401EFDD22022652160208A
:1032B000FDF708F90220401EFDD2002266216020A1
:1032C000FDF700F90220401EFDD20A22692160208C
:1032D000FDF7F8F80220401EFDD21A226B21602073
:1032E000FDF7F0F80220401EFDD204226C21602080
:1032F000FDF7E8F80220401EFDD255226D21602026
:10330000FDF7E0F80220401EFDD200226E21602071
:10331000FDF7D8F80220401EFDD29D226F216020CB
:10332000FDF7D0F80220401EFDD22122702160203E
:10333000FDF7C8F80220401EFDD2782271216020DE
:10334000FDF7C0F80220401EFDD22222722160202B
:10335000FDF7B8F80220401EFDD202227321602042
:10336000FDF7B0F80220401EFDD21022742160202B
:10337000FDF7A8F80220401EFDD210227521602022
:10338000FDF7A0F80220401EFDD201227621602028
:10339000FDF798F80220401EFDD20222772160201E
:1033A000FDF790F80220401EFDD212227A21602003
:1033B000FDF788F80220401EFDD208227B21602004
:1033C000FDF780F80220401EFDD216227C216020ED
:1033D000FDF778F80220401EFDD230227D216020CA
:1033E000FDF770F80220401EFDD25E227E21602093
:1033F000FDF768F80220401EFDD272227F21602076
:10340000FDF760F80220401EFDD28222802160205C
:10341000FDF758F80220401EFDD28E228121602047
:10342000FDF750F80220401EFDD29A228221602032
:10343000FDF748F80220401EFDD2A422832160201F
:10344000FDF740F80220401EFDD2AC22842160200E
:10345000FDF738F80220401EFDD2B82285216020F9
:10346000FDF730F80220401EFDD2C32286216020E5
:10347000FDF728F80220401EFDD2D62287216020C9
:10348000FDF720F80220401EFDD2E62288216020B0
:10349000FDF718F80220401EFDD2F222892160209B
:1034A000FDF710F80220401EFDD224228A21602060
:1034B000FDF708F80220401EFDD280228C216020FA
:1034C000FDF700F80220401EFDD27D2290216020F1
:1034D000FCF7F8FF0220401EFDD27B2291216020E4
:1034E000FCF7F0FF0220401EFDD202229D21602049
:1034F000FCF7E8FF0220401EFDD202229E21602040
:10350000FCF7E0FF0220401EFDD27A229F216020BE
:10351000FCF7D8FF0220401EFDD27922A0216020B6
:10352000FCF7D0FF0220401EFDD24022A1216020E6
:10353000FCF7C8FF0220401EFDD25022A4216020CB
:10354000FCF7C0FF0220401EFDD26822A5216020AA
:10355000FCF7B8FF0220401EFDD24A22A6216020BF
:10356000FCF7B0FF0220401EFDD2C122A82160203E
:10357000FCF7A8FF0220401EFDD2EF22A921602007
:10358000FCF7A0FF0220401EFDD29222AA2160205B
:10359000FCF798FF0220401EFDD20422AB216020E0
:1035A000FCF790FF0220401EFDD28022AC2160205B
:1035B000FCF788FF0220401EFDD28022AD21602052
:1035C000FCF780FF0220401EFDD28022AE21602049
:1035D000FCF778FF0220401EFDD28022AF21602040
:1035E000FCF770FF0220401EFDD2F222B2216020C3
:1035F000FCF768FF0220401EFDD22022B32160208C
:10360000FCF760FF0220401EFDD22022B421602082
:10361000FCF758FF0220401EFDD20022B521602099
:10362000FCF750FF0220401EFDD2AF22B6216020E1
:10363000FCF748FF0220401EFDD2AF22B6216020D9
:10364000FCF740FF0220401EFDD2AE22BB216020CD
:10365000FCF738FF0220401EFDD27F22BC216020F3
:10366000FCF730FF0220401EFDD27F22BD216020EA
:10367000FCF728FF0220401EFDD27F22BE216020E1
:10368000FCF720FF0220401EFDD27F22BF216020D8
:10369000FCF718FF0220401EFDD27F22BF216020D0
:1036A000FCF710FF0220401EFDD2AA22C02160209C
:1036B000FCF708FF0220401EFDD2C022C12160207D
:1036C000FCF700FF0220401EFDD20122C221602033
:1036D000FCF7F8FE0220401EFDD24E22C3216020DE
:1036E000FCF7F0FE0220401EFDD20522C62160201C
:1036F000FCF7E8FE0220401EFDD28222C721602096
:10370000FCF7E0FE0220401EFDD2E022C92160202D
:10371000FCF7D8FE0220401EFDD2E822CA2160201C
:10372000FCF7D0FE0220401EFDD2F022CB2160200B
:10373000FCF7C8FE0220401EFDD2D822CC2160201A
:10374000FCF7C0FE0220401EFDD29322CD21602056
:10375000FCF7B8FE0220401EFDD210BD38B504466D
:103760006A461C216020FCF7FDFE9DF800002070D9
:103770006A461D216020FCF7F5FE9DF80000607090
:103780006A460B216020FCF7EDFE9DF80000A0705A
:103790006A460A216020FCF7E5FE9DF80000E07013
:1037A00038BD024611216020FCF78CBE0246122172
:1037B0006020FCF787BE024612216020FCF782BE23
:1037C0000A4601466020FCF77DBE02463221602099
:1037D000FCF778BE024640216020FCF773BE4FF430
:1037E0007A7302E01946491EFDD2401EFAD2704794
:1037F0000948804709480047FEE7FEE7FEE7FEE785
:10380000FEE7FEE7FEE7FEE7FEE7FEE704480549C0
:10381000054A064B70470000E94D00088501000885
:1038200090000020900600209002002090020020CE
:103830002749084327490860704770B50F23C278AD
:10384000017801254FF0E026E2B1224A126802F425
:10385000E062C2F5E062C2F30722C2F10404D34081
:103860004278A24084781C401B4B14432201CA5466
:10387000007800F01F018D40400906EB8000C0F881
:10388000005170BD01F01F008540480906EB800023
:10389000C0F8805170BD114A114001430D48001F0E
:1038A000016070470B4A121D0029116801D00143C5
:1038B00000E08143116070474FF0E021042808695F
:1038C00003D020F004000861704740F00400FAE7DC
:1038D0000000FA050CED00E000E400E080FFFF1FAF
:1038E000704910B5884206D10121084600F0DFFB7F
:1038F000002101204FE06C49884206D101210220BD
:1039000000F0D5FB0021022045E06849884206D13D
:103910000121042000F0CBFB002104203BE064499E
:10392000884206D10121082000F0C1FB00210820B7
:1039300031E06049884206D10121102000F0B7FB38
:103940000021102027E05C49884206D10121202077
:1039500000F0ADFB002120201DE05849884206D12F
:103960000121402000F0A3FB0021402013E0544936
:10397000884206D10121802000F099FB002180209F
:1039800009E0504988420AD184150121204600F0FF
:103990008EFB00212046BDE8104000F088BB10BD22
:1039A000F0B5002201264FF0030C0C6806FA02F372
:1039B0001C409C422DD1056853000CFA03F4A5432A
:1039C00005600D7907689D403D4305600D79012D27
:1039D00001D0022D12D18568A54385604C79856898
:1039E0009C402C438460446806FA02F5AC43446072
:1039F00044688D799540ADB22C434460C46855004D
:103A00000CFA05F7BC43C460CC799C40C3681C43E6
:103A1000C460521C102AC8D3F0BD4FF6FF7101607C
:103A20000021017141718171C171704741F480328F
:103A3000C261C161C261C169C069704702460020AC
:103A400012690A4200D001207047006980B27047B5
:103A50000246002052690A4200D0012070474069A6
:103A600080B2704701837047418370470AB1018378
:103A70007047418370474161704742694A404261E3
:103A800070474B07DB0E9A40C90810B500EB810068
:103A9000016A0F249C40A1430162016A1143016243
:103AA00010BD000000000240000402400008024077
:103AB000000C0240001002400014024000180240B6
:103AC000001C024000200240CA4910B5884206D1BD
:103AD0000121102000F013FB0021102028E0C6492E
:103AE000884202D101214C0410E0C449884202D12D
:103AF00001218C040AE0C249884202D10121CC0490
:103B000004E0C04988420AD101210C05204600F09A
:103B1000ECFA2046BDE81040002100F0E6BABA49B0
:103B2000884209D10121202000F0E9FA002120205B
:103B3000BDE8104000F0E3BA10BD7FB50446008A2E
:103B40000D4620F44051E88808432082A18941F2C3
:103B50000C608143A8882A8910436A890A4310436C
:103B6000A081A08A20F44071A8890843A0826846F9
:103B700000F007FA9F48844202D0A348844201D152
:103B8000039800E00298A1890904002900EBC00114
:103B900001EB0010296802DA4FEA410101E04FEA27
:103BA0008101B0FBF1F06422B0FBF2F14FEA0111A8
:103BB0004FEA11136FF018056B4300EB8300A389E4
:103BC0001D044FF0320306D503EBC000B0FBF2F04A
:103BD00000F0070005E003EB0010B0FBF2F000F08E
:103BE0000F00084320817FBD4FF416510160002172
:103BF0008180C18001810C2242818181704710B592
:103C0000028A4C8822F470630A8822438C88C9880F
:103C10000C4322431A43028210BD002101804180DF
:103C20008180C18070470029818902D041F4005110
:103C300001E021F4005181817047028B02F47F4240
:103C40000283028B0A43028370470029818902D0D4
:103C500041F4004101E0C1F30E0181817047002968
:103C6000818A02D041F4006101E021F40061818287
:103C70007047C1F30801818070478088C0F3080055
:103C80007047028A22F00F020282028A0A430282ED
:103C900070470029818902D041F0020101E021F042
:103CA000020181817047828922F4006282818289C7
:103CB0000A4382817047028A22F020020282028A2D
:103CC0000A43028270470029018A02D041F48041F0
:103CD00001E021F4804101827047818941F00101B6
:103CE000818170470029818A02D041F0080101E0FA
:103CF00021F0080181827047028BD2B20283028BCD
:103D000042EA0121018370470029818A02D041F0F3
:103D1000200101E021F02001818270470029818A81
:103D200002D041F0100101E021F0100181827047C2
:103D3000828A22F004028282828A0A438282704747
:103D40000029818A02D041F0020101E021F0020144
:103D500081827047002A828A01D00A4300E08A43A8
:103D60008282704710B5C1F3421301F01F04012194
:103D7000A140012B07D0022B07D01430002A026883
:103D800005D00A4304E00C30F8E71030F6E78A4328
:103D9000026010BD0246002012880A4200D00120B5
:103DA0007047C9430180704770B501F01F060125B7
:103DB0000024C1F3421305FA06F2012B0FD0022BA7
:103DC0000FD0838A4FEA11210088134205FA01F5CA
:103DD00000EA050001D000B10124204670BD8389AE
:103DE000F0E7038AEEE70A0A01219140C943018006
:103DF00070470000001001400044004000480040AF
:103E0000004C00400050004000140140E9480168A7
:103E100041F001010160E74A0021083211600268A7
:103E2000E54B1A400260031DE44A1A60026822F45E
:103E300080220260DF480C3001607047DD490022BB
:103E4000891C0A7008707047024600205109012938
:103E50000CD002290CD0D7497431096802F01F0236
:103E6000012393400B4200D001207047D149F4E771
:103E7000D0497031F1E730B500244FF4A06531200E
:103E8000FFF7E2FF641CAC4201D00028F7D03120DC
:103E9000FFF7DAFF002800D0012030BDC54A1168C5
:103EA00021F0F80141EAC00010607047C449086081
:103EB0007047C049002270310A700A70012802D090
:103EC000042801D1052008707047BE49086070477A
:103ED00041EA82115A0810B5BB4B029C03EB024227
:103EE0001143014341EA0460B249091D086010BD55
:103EF000B34908667047800140EA0170AD498431DA
:103F000008607047AE4988667047AD49C86470471D
:103F1000A84B08331A68084322F0EC62104318607B
:103F20007047A44B08331A68084322F078421043C4
:103F3000186070479F4A0832116821F0030101435D
:103F4000116070479B480830006800F00C00704713
:103F5000984A0832116821F0F0010143116070475E
:103F6000944A0832116821F4E0510143116070470E
:103F7000904A0832116821F4604141EAC0001060A3
:103F8000704770B58B4B08331968904C11F00C01D9
:103F900004D08F4E042903D0082903D004601BE00D
:103FA000066019E0834A121D1168C1F3805511683B
:103FB00001F03F0115B1B6FBF1F101E0B4FBF1F105
:103FC00014681268C4F388146143C2F30142521C9E
:103FD0005200B1FBF2F1016019687E4A01F0F00174
:103FE0000909545C0168E14041601C6804F4E05434
:103FF000A40A145D21FA04F484601B6803F460438E
:104000005B0BD25CD140C16070BDC0F301210329BC
:1040100008D1684B083319686F4A21F4F81102403F
:104020000A431A60634970310A68C0F30B00024307
:104030000A607047634944390860704761494039F4
:10404000086070476549086070475A4A3032002955
:10405000116801D0014300E0814311607047554A67
:1040600034320029116801D0014300E0814311601E
:104070007047504A38320029116801D0014300E0EE
:104080008143116070474B4A40320029116801D0CA
:10409000014300E0814311607047464A44320029E1
:1040A000116801D0014300E0814311607047414A2B
:1040B00010320029116801D0014300E081431160F2
:1040C00070473C4A14320029116801D0014300E0D6
:1040D000814311607047374A18320029116801D0B6
:1040E000014300E0814311607047324A20320029C9
:1040F000116801D0014300E08143116070472D4AEF
:1041000024320029116801D0014300E0814311608D
:104110007047284A50320029116801D0014300E05D
:10412000814311607047234A54320029116801D03D
:10413000014300E08143116070471E4A5832002954
:10414000116801D0014300E0814311607047194AB2
:1041500060320029116801D0014300E08143116001
:104160007047144A64320029116801D0014300E00D
:104170008143116070470F4A0D320029117801D038
:10418000014300E08143117070470A4874300168B0
:1041900041F08071016070470146064A00200C32F0
:1041A00012680A4200D00120704702490E3108709F
:1041B0007047000000380240FFFFF6FE1030002478
:1041C00000004742800E47420000FFFF0024F40039
:1041D00040787D010C000020FFFCFF0F5C0147428E
:1041E0004C4800210160C1601F2242618161C161B0
:1041F00001624162704730B546490A6844F20103E2
:104200009A430A600A6840F6F2739A430388448826
:10421000C588234384882C4323430489234344894A
:1042200080892343034313430B6030BD0021018089
:1042300041808180C1800181418181817047016815
:104240004FEA314233490A6240684FEA30404862DF
:10425000704730490028086802D040F0040001E0AF
:1042600020F0040008607047C178006861F31F60A7
:1042700028498861704727490028086802D040F023
:10428000080001E020F0080008607047214900287C
:10429000086802D040F4804001E020F480400860CB
:1042A00070471C490028086802D040F0010001E076
:1042B00020F00100086070471648806A7047154A70
:1042C0000029D16801D0014302E0C04380B201401F
:1042D000D160704703460020190B0E4A012906D011
:1042E000022906D01169194200D001207047916857
:1042F000F9E75168F7E70749486170470549024601
:1043000000200969114200D001207047014948612D
:104310007047000000000550C44910B5884202D122
:1043200001214C050AE0C249884202D101218C05D5
:1043300004E0C04988420AD10121CC052046FFF79C
:10434000D4FE2046BDE810400021FFF7CEBE10BDD0
:104350007FB5044680880D4620F03F066846FFF78B
:1043600010FEB5490298B0FBF1F189B20E43A68068
:10437000228822F001022280B04B2A689A421BD880
:104380005200B0FBF2F080B2042800D20420491C95
:104390002184A083208840F00100208020884FF6EF
:1043A000F5310840A9886A89114301432180A88911
:1043B0002989084320817FBDEB88A3F53F46FF3E56
:1043C00005D102EB4202B0FBF2F080B208E002EB52
:1043D000C20303EB0212B0FBF2F080B240F4804063
:1043E000020501D140F001004FF4967251434FF4A1
:1043F0007A72B1FBF2F140F40040C8E741F2883133
:104400000160002181804BF6FF72C28001814181F1
:104410004FF48041818170470029018802D041F02A
:10442000010101E021F001010180704700290188AC
:1044300002D041F4807101E021F480710180704765
:104440000029018802D041F4007101E021F40071DB
:104450000180704712B141F0010101E001F0FE015D
:10446000018270470029018802D041F4806101E097
:1044700021F4806101807047828901F0FE0122F001
:10448000FE021143818170470029818902D041F0E9
:10449000010101E021F001018181704700290188BB
:1044A00002D041F0400101E021F04001018070475D
:1044B0000029018802D041F4004101E0C1F30E015E
:1044C000018070470029018803D021F0800101801C
:1044D000704741F08001FAE7B1F5804F818B02D03F
:1044E00021F4804101E041F4804181837047B1F5BE
:1044F000006F018803D021F400610180704741F40E
:104500000061FAE7B1F5005F018803D021F40051A2
:104510000180704741F40051FAE70029018802D078
:1045200041F0100101E021F010010180704701828B
:104530007047008AC0B270470029018802D041F458
:10454000805101E021F4805101807047B1F5006F86
:10455000018803D021F400610180704741F40061BB
:10456000FAE70029018802D041F0200101E021F0A2
:10457000200101807047008B000A70470029818864
:1045800002D041F4006101E021F4006181807047B4
:104590000029818802D041F4805101E021F480514A
:1045A00081807047405A7047002A828801D00A43B0
:1045B00000E08A4382807047034600209A8A1B8B62
:1045C00042EA034222F07F42914300D1012070472A
:1045D000818A008B41EA004121F07F407047002230
:1045E0000B0F21F07F4101D0143001E0090C18308D
:1045F0000068084200D0012210467047C9438182FA
:10460000704710B502460020938801F0E064928A5A
:1046100003EA144321F07F410A4202D0002B00D06C
:10462000012010BDC9438182704700000054004042
:1046300000580040005C004040420F00A08601008E
:104640004FF0204202EB800140B143F2D2000860FB
:104650006FF070404860C1F80401704743F2DB001E
:104660001060F5E730B5D0E901121143D0E903231A
:104670001A43114342690368114382691143C269B5
:104680001143026A1143426A1143826A1143C26AAA
:104690001143026B11434FF0204242F8231081680E
:1046A000082906D1016802EB81010B6843F0400341
:1046B0000B60416BD1E9003443EA04138C68CD6888
:1046C000240244EA054423430C6943EA04534C6939
:1046D000896943EA04630B43016802EB81014B6083
:1046E000C16AB1F5804F07D000686FF0704102EBEE
:1046F0008000C0F8041130BD816B0068D1E900343E
:1047000043EA04138C680D69240244EA05542343E8
:104710004C69896943EA046302EB80000B43C0F8EB
:10472000043130BD10B500210222C0E900128160C1
:10473000C160016141618161D202C161C0E90812B9
:104740005200C0E90A210163436B0F221A60436BD8
:104750005A60446BFF23A360446BE260446B2261A8
:10476000446B6261446BA161846B2260846B626004
:10477000846BA360836BDA60836B1A61836B5A610D
:10478000806B816110BD4FF0204202EB8000002958
:10479000016802D041F0010101E0C94A1140016005
:1047A000704710B5182340244FF020414FF0FC32E1
:1047B000102805D041F8803F4C608A60CA6010BD67
:1047C0000B664C668A66CA6610BD30B5D0E9011228
:1047D0001143D0E903231A431143426941EA4221BC
:1047E000826941EA423141F00804C169D1E90023FC
:1047F00042EA03228B68C9681B0443EA01610A4349
:10480000016AD1E9003543EA05238D68C9682D04A2
:1048100045EA01610B4301684FF02040102904D0A4
:1048200040F8804F8260C36030BD04668266C36614
:1048300030BD10210160002141608160C1600161D3
:1048400041618161C269FC211160C2695160C26924
:104850009160C269D160026A1160026A5160026AA5
:104860009160006AC16070474FF0204251B110283A
:1048700004D052F8800F40F004000AE0106E40F0BF
:1048800004000AE08E49C91E102804D052F8800F97
:10489000084010607047106E0840106670474FF077
:1048A000204251B1102804D052F8800F40F040004F
:1048B0000AE0106E40F040000AE081493F391028BC
:1048C00004D052F8800F084010607047106E084006
:1048D000106670474FF02041102802D0D1F89400A4
:1048E0007047486F70477748182101604FF000010A
:1048F00041604FF0FC318160C1600161704710B5CB
:10490000D0E9001241EA42218268102343EA423290
:1049100011436C4A1160C168D1E9003443EA0423B1
:104920008C68C9684FEA044444EA016143EA010320
:1049300093600169D1E9003443EA04238C68C968B3
:104940004FEA044444EA016143EA0103D360406949
:10495000D0E9001341EA03218368C0684FEA0343AA
:1049600043EA006041EA0001116110BD00210160CD
:1049700041608160C268FC211160C2685160C268F8
:104980009160C268D1600269116002695160026978
:1049900091600269D1604269116042695160426967
:1049A00091604069C160704746490028086802D09C
:1049B00040F0040002E0424AD21E104008607047F6
:1049C00010B54FF480744FF0204382B1102804D00A
:1049D000A04205D103F1840304E0586E08430FE0C0
:1049E00003F1A403186840EA0100186010BD102804
:1049F00004D0A04206D103F1840305E0586E884339
:104A0000586610BD03F1A403186820EA0100ECE722
:104A1000034600204FF02042102B08D0B3F5807FD2
:104A200007D0D2F8A4200A4200D001207047526E6D
:104A3000F9E7D2F88420F6E74FF02042102809D099
:104A4000B0F5807F0AD002F1A402106820EA0100CC
:104A500010607047506E88435066704702F18402C0
:104A6000F3E7034600204FF02042102B0CD0B3F5A3
:104A7000807F0BD0D2F8A4200A4202EAD10102D0F2
:104A8000002900D001207047526EF5E7D2F884204B
:104A9000F2E74FF02042102809D0B0F5807F0BD00C
:104AA00002F1A402106820EAD10010607047506E35
:104AB00020EAD1005066704702F18402F2E700005C
:104AC000FEFF0F00A00000A02DE9F043016821F0D7
:104AD000010101600021016041608160C1600161EC
:104AE00021214161B849B84B3D221039984202D189
:104AF0008A60BDE8F083B44C4FF474631834A0426C
:104B000001D18B60F5E7B04D4FF474143035A842F5
:104B100001D18C60EDE7AC4E4FF074654836B04281
:104B200001D18D60E5E7A84FA84E6037B84201D1AA
:104B3000CE60DEE7A44FDFF898C27837B84202D1E2
:104B4000C1F80CC0D5E7A04FDFF888829037B84293
:104B500002D1C1F80C80CCE79B4F4FF03D59A837EC
:104B6000B84202D1C1F80C90C3E79B499A4F08396B
:104B7000B84201D10A60BCE7974A1832904201D18D
:104B80000B60B6E7944A3032904201D10C60B0E736
:104B9000914A4832904201D10D60AAE78E4A8E496F
:104BA0006032091F904201D10E60A2E78A4A783232
:104BB000904202D1C1F800C09BE7874A90329042F0
:104BC00002D1C1F8008094E7834AA832904290D184
:104BD000C1F800908DE730B50368804ACC68134077
:104BE0000A682243D1E905452C432243CC6922437C
:104BF0000C6A22434C6A22438C6A22434C6B224348
:104C00008C6B22431A430260426922F00703D1E908
:104C10000B2422431A4342610A6942604A68826057
:104C20008968C16030BD0021016041608160C16060
:104C3000016141618161C161016241628162C16260
:104C400001634163816370470029016802D041F02C
:104C5000010101E021F001010160704700290168B4
:104C600002D041F4004101E021F4004101607047AD
:104C70000029016802D041F0200101E021F020016B
:104C80000160704741607047406880B27047002AF9
:104C9000026802D042F4002201E022F40022026005
:104CA000016170470029016802D041F4802101E0D0
:104CB00021F48021016070470AB101617047C16031
:104CC0007047014600200968090300D5012070479C
:104CD000014600200968C90700D0012070474069DB
:104CE00000F03800704702463B4B00209A4202D247
:104CF000354A103A01E0384A103A8B0001D5526823
:104D000000E01268364B1A400A4200D0012070477A
:104D1000314A904202D22C48103801E02E48103817
:104D20002F4A8B0001EA020101D5C1607047816002
:104D300070470B0607D5436912B143F0800301E0C9
:104D400023F080034361802908D0002A026801F023
:104D50001E0101D00A4300E08A430260704730B56B
:104D60001D4A0024904202D2174A103A01E01A4A22
:104D7000103A1C4B194205D01E2303EAD1250368C3
:104D80002B4002E0406900F08003880001D55068A4
:104D900000E01068124A1040084201D003B101241B
:104DA000204630BD0C4A904202D20748103801E03C
:104DB000094810380A4A8B0001EA020101D5C16096
:104DC0007047816070470000106002403D00002085
:104DD000400F002000003D20106402403F801CF086
:104DE0007D0F7D0F3C0F3C0F474810B5016841F027
:104DF00001010160444A0021083211600268434BFE
:104E00001A400260031D424A1A60026822F480229E
:104E100002603D480C30016000F03BF83D494FF026
:104E20000060086010BD70B5374D083528683A4BF2
:104E30003A4910F00C0004D0394E042803D0082859
:104E400003D00B601BE00E6019E02F4A121D1068A2
:104E5000C0F38054106800F03F0014B1B6FBF0F0CE
:104E600001E0B3FBF0F013681268C3F388135843F2
:104E7000C2F30142521C5200B0FBF2F008602868F5
:104E8000264AC0F30310121D105C0A68C2400A6073
:104E900070BD1D4A0020116841F4803111604FF44B
:104EA000A063116800F1010011F4003F01D19842A4
:104EB000F7D11068800326D51348083001680160D7
:104EC000016841F400410160016841F4A0510160B2
:104ED000031F14491960116841F080711160116855
:104EE0008901FCD5104A40F203711160016821F07C
:104EF00003010160016841F0020101600168C1F332
:104F000081010229FAD1704700380240FFFFF6FE06
:104F10001030002408ED00E00024F4001C00002004
:104F200040787D01193C4005003C0240704700007C
:104F30000FB4044910B503AA029800F00FF910BC91
:104F40005DF814FB080000202DE9F04104460E46F0
:104F500000200AE0E1682046884738B3252806D0BB
:104F6000D4E901219047206A401C2062F2E7E16801
:104F7000204600278847050018D0A5F141001928D0
:104F800002D820354FF40067324629462046276074
:104F9000FBF732F940B1012804D0F61D26F00706D0
:104FA0000836D7E7361DD5E72846D9E7206ABDE899
:104FB000F081000070B504460D4621461068AFF33D
:104FC00000802168090502D5104A7A4402E00F4AA0
:104FD0007A440E32002104F1240307E000F00F06AA
:104FE0004FEA1010965D5E5401F101010028F5D1E1
:104FF00003462068000704D5702D02D009B1113294
:1050000002232046BDE8704000F04BB8C408000001
:10501000032A40F2308010F0030C00F0158011F8E4
:10502000013BBCF1020F624498BF11F801CB00F8BC
:10503000013B38BF11F8013BA2F1040298BF00F810
:1050400001CB38BF00F8013B11F0030300F098805A
:10505000083AC0F0088051F8043B083A51F804CBF4
:10506000A0E80810F5E7121D5CBF51F8043B40F8BA
:10507000043BAFF30080D20724BF11F8013B11F8C5
:1050800001CB48BF11F8012B24BF00F8013B00F809
:1050900001CB48BF00F8012B70477047704770473D
:1050A00070472DE9F0470D4604469246994600F1B7
:1050B00024080168880604D5E06921F01001216008
:1050C00000E00120A84202DDA0EB050700E0002778
:1050D000A16907EB050202EB0900A1EB0000A0614A
:1050E0002068C00602D42046AFF30080002608E006
:1050F000D4E901211AF806009047206A401C761C6A
:1051000020624E45F4DB2068C0060AD52046AFF386
:10511000008006E0D4E9012130209047206A401C3D
:105120002062381EA7F10107F4DC07E0D4E9012171
:1051300018F805009047206A401C2062281EA5F13F
:105140000105F3DC2046AFF300802068000602D59D
:105150000220BDE8F0870120FBE70000074B70B597
:105160000C467B4400F043F80546204600F052F818
:1051700010B14FF0FF3070BD284670BDD3D0FFFF97
:1051800010B5203AC0F00B80B1E81850203AA0E8E2
:105190001850B1E81850A0E81850BFF4F5AF5FEA16
:1051A000027C24BFB1E81850A0E8185044BF18C9C9
:1051B00018C0BDE810405FEA827C24BF51F8043B70
:1051C00040F8043B08BF7047D20728BF31F8023BC4
:1051D00048BF11F8012B28BF20F8023B48BF00F858
:1051E000012B704701694A1C02610878704700B5BD
:1051F0008FB0CDE901310021059105497944CDE910
:10520000031011466846FFF79FFE0FB000BD000077
:10521000E5FFFFFFC06800F080007047754600F0B2
:1052200029F8AE4605006946534620F0070085463A
:1052300018B020B5FEF7EAFABDE820404FF00006AE
:105240004FF000074FF000084FF0000B21F007016E
:10525000AC46ACE8C009ACE8C009ACE8C009ACE8B1
:10526000C0098D4670470446AFF300802046FAF728
:10527000D7FF00000048704730000020004870470A
:10528000340000204FF0DE4210800148018070475A
:105290000000016F10B5FFF7F1FF4FF00001016052
:1052A00010BD000000000000000000000000000031
:1052B0000000000000183C3C3C18180018180000C2
:1052C00000000000006666660000000000000000AC
:1052D000000000000036367F3636367F3636000056
:1052E00000000018183C666030180C06663C181860
:1052F0000000000070D8DA760C18306E5B1B0E00D0
:105300000000000000386C6C38606F66663B00007F
:105310000000000000181818000000000000000045
:1053200000000000000C1818303030303018180C15
:1053300000000000003018180C0C0C0C0C18183071
:1053400000000000000000361C7F1C36000000003A
:105350000000000000000018187E1818000000006F
:105360000000000000000000000000001C1C0C18E1
:105370000000000000000000007E000000000000AF
:105380000000000000000000000000001C1C0000E5
:10539000000000000006060C0C1818303060600099
:1053A00000000000001E333737333B3B331E000044
:1053B00000000000000C1C7C0C0C0C0C0C0C000001
:1053C00000000000003C6666060C1830607E00009D
:1053D00000000000003C6666061C0666663C000095
:1053E00000000000003030363636667F06060000CA
:1053F00000000000007E6060607C06060C78000003
:1054000000000000001C18307C666666663C0000E8
:1054100000000000007E060C0C1818303030000030
:1054200000000000003C6666763C6E66663C00004C
:1054300000000000003C666666663E0C18380000FE
:10544000000000000000001C1C0000001C1C0000EC
:10545000000000000000001C1C0000001C1C0C18B8
:105460000000000000060C18306030180C06000028
:1054700000000000000000007E007E000000000030
:1054800000000000006030180C060C1830600000AE
:1054900000000000003C66660C1818001818000098
:1054A00000000000007EC3C3CFDBDBCFC07F000065
:1054B0000000000000183C6666667E6666660000B6
:1054C00000000000007C6666667C6666667C000004
:1054D00000000000003C666660606066663C00009C
:1054E0000000000000786C66666666666C780000F6
:1054F00000000000007E6060607C6060607E0000F4
:1055000000000000007E6060607C60606060000001
:1055100000000000003C666660606E66663E00004B
:105520000000000000666666667E666666660000CD
:1055300000000000003C181818181818183C00004B
:10554000000000000006060606060666663C00002F
:10555000000000000066666C6C786C6C666600008B
:10556000000000000060606060606060607E0000BD
:1055700000000000006363776B6B6B636363000084
:1055800000000000006363737B6F67636363000068
:1055900000000000003C666666666666663C0000C9
:1055A00000000000007C6666667C60606060000051
:1055B00000000000003C666666666666663C0C0697
:1055C00000000000007C6666667C6C666666000013
:1055D00000000000003C666030180C06663C0000CD
:1055E00000000000007E181818181818181800007D
:1055F000000000000066666666666666663C00003F
:105600000000000000666666666666663C1800007C
:1056100000000000006363636B6B6B36363600007E
:10562000000000000066663418182C6666660000EC
:105630000000000000666666663C18181818000036
:1056400000000000007E06060C183060607E00003E
:1056500000000000003C303030303030303030302E
:105660003C000000006060303018180C0C0606008A
:1056700000000000003C0C0C0C0C0C0C0C0C0C0C76
:105680003C0000183C660000000000000000000024
:10569000000000000000000000000000000000000A
:1056A000FF000000001818180000000000000000B3
:1056B000000000000000003C06063E66663E00005A
:1056C000000000000060607C66666666667C000024
:1056D000000000000000003C66606060663C000066
:1056E000000000000006063E66666666663E000034
:1056F000000000000000003C66667E60603C000028
:1057000000000000001E3030307E303030300000AD
:10571000000000000000003E66666666663E060603
:105720007C0000000060607C66666666666600005D
:10573000000000001818007818181818187E0000CB
:10574000000000000C0C003C0C0C0C0C0C0C0C0CA5
:105750007800000000606066666C786C6666000029
:10576000000000000078181818181818187E00009B
:10577000000000000000007E6B6B6B6B6B63000031
:10578000000000000000007C666666666666000039
:10579000000000000000003C66666666663C000093
:1057A000000000000000007C66666666667C606043
:1057B000600000000000003E66666666663E060603
:1057C00006000000000000666E706060606000000F
:1057D000000000000000003E60603C06067C000007
:1057E000000000000030307E30303030301E0000CD
:1057F000000000000000006666666666663E000007
:105800000000000000000066666666663C18000046
:1058100000000000000000636B6B6B6B363600000D
:105820000000000000000066663C183C6666000050
:10583000000000000000006666666666663C0C18A4
:10584000F00000000000007E060C1830607E0000B2
:1058500000000000000C1818183060301818180CE0
:105860000000000000181818181818181818181830
:105870001800000000301818180C060C1818183002
:10588000000000000071DB8E00000000000000003E
:1058900000003031323334353637383941424344F1
:1058A0004546403058003031323334353637383998
:1058B000616263646566403078000000DC5800086F
:1058C0000000002030000000C00100080C59000852
:1058D0003000002060060000DC01000810270000F6
:1058E00000000000000000000000000001020304AE
:1058F0000102030406070809000E27070000000044
:0C59000000000000010203040607080973
:040000050800018569
:00000001FF
