:020000040800F2
:1000000098090020F1010008FB070008A10700087B
:10001000F9070008F1040008BD0C0008000000000A
:100020000000000000000000000000001D090008A2
:10003000A7050008000000001B0900088909000846
:100040000B0200080B0200080B0200080B0200085C
:100050000B0200080B0200080B020008290600082A
:100060000B020008A50500080B0200080B0200089F
:100070003D0300080B0200080B0200080B020008F9
:100080000B0200080B02000800000000650B0008CE
:10009000A90B00080B020008ED0B00080B0200087A
:1000A0000B0200080B0200080B020008550C0008A8
:1000B0000B020008000000000B0200080000000016
:1000C0000B020008000000000B0200080000000006
:1000D0000000000000000000000000000000000020
:1000E00000000000000000000B02000800000000FB
:1000F0000000000000000000000000000000000000
:100100000B020008000000000000000000000000DA
:1001100000000000000000000000000000000000DF
:1001200000000000000000000000000000000000CF
:1001300000000000000000000000000000000000BF
:100140000000000000000000000000000B0200089A
:1001500000F002F800F03CF80AA090E8000C82449D
:100160008344AAF10107DA4501D100F031F8AFF27A
:10017000090EBAE80F0013F0010F18BFFB1A43F085
:10018000010318476C1C00008C1C0000103A24BFAF
:1001900078C878C1FAD8520724BF30C830C144BFEC
:1001A00004680C607047000000230024002500262E
:1001B000103A28BF78C1FBD8520728BF30C148BFCA
:1001C0000B6070471FB501F002FE1FBD10B510BDDA
:1001D00000F07AF81146FFF7F5FF01F03FF800F064
:1001E00098F803B4FFF7F2FF03BC00F09FF800009B
:1001F0000948804709480047FEE7FEE7FEE7FEE7BB
:10020000FEE7FEE7FEE7FEE7FEE7FEE704480549F6
:10021000054A064B704700008D090008510100088F
:1002200098010020980900209805002098050020DA
:100230004FF000020429C0F0128010F0030C00F00F
:100240001B80CCF1040CBCF1020F18BF00F8012B8D
:10025000A8BF20F8022BA1EB0C0100F00DB85FEA5B
:10026000C17C24BF00F8012B00F8012B48BF00F827
:10027000012B70474FF0000200B513469446964696
:10028000203922BFA0E80C50A0E80C50B1F12001A9
:10029000BFF4F7AF090728BFA0E80C5048BF0CC057
:1002A0005DF804EB890028BF40F8042B08BF7047B5
:1002B00048BF20F8022B11F0804F18BF00F8012B27
:1002C0007047704770477047754600F02BF8AE4690
:1002D00005006946534620F00700854618B020B552
:1002E000FFF794FFBDE820404FF000064FF00007F5
:1002F0004FF000084FF0000BAC46ACE8C009ACE88A
:10030000C009ACE8C009ACE8C00921F007018D467E
:10031000704710B50446AFF300802046BDE810409A
:10032000FFF75FBF00487047100000200149182008
:10033000ABBEFEE72600020070470000B0B5974C48
:10034000A08BA188814238BFA0802C480168013170
:100350000160208E40F2D251884211D3A078013042
:10036000A070C0B202280DD325480021002200252C
:1003700001F0B1FA2348012105702348017001E022
:100380000020A070208DB0F51B7F10D9E0780130DF
:10039000E070C0B202280DD34FF090404FF480615E
:1003A00000F0F6FE012060701848023000E0E01C0A
:1003B00000210170207878B100200A2819D004EBC0
:1003C000400101304A8BCB881A4493B2DD08A2EB7E
:1003D000D302CD85CA80F0E70120207000200A28D2
:1003E00007D004EB400101304A8BC2EBC202CA8045
:1003F000F5E70220BDE8B04000F072BD74000020B7
:10040000002C0140200100204401002018010020A0
:1004100010B500F09BF801204FF4202100F04CFDB6
:10042000002000F0F5FC01200A2100F0CDFC204C5A
:10043000002000210222A047012001210222A04722
:10044000022002210222A047032003210222A0470A
:10045000042004210222A047052005210222A047F2
:10046000062006210222A047072007210222A047DA
:10047000082008210222A047092009210222A047C2
:100480000120012100F0FCFC0120052100F0CAFC44
:1004900000F0ECFC00F088FC00F0E2FC0C200221F3
:1004A000002200F001FF0220BDE8104000F01EBD58
:1004B000190F0008B0B5394C00251421A01D257076
:1004C000FFF7B6FE04F11A001421FFF7B1FE04F1A4
:1004D0002E001421FFF7ACFE6570B0BD034800216B
:1004E0008160C0F802100170704700BF3401002025
:1004F000FEE70000B0B586B04FF6FF70124C002545
:1005000069460290472000F090F94FF4803005953D
:100510000021049004AA204601F09CFA204601F034
:100520009DF800F09CF92046022101F015FB00F037
:100530009FF94FF4C06000F0E1FE16200121012276
:1005400000F0B2FE06B0B0BD0048014010B588B062
:100550000020002400F046FD104869468DF8084050
:100560001A3003900E4800904FF4806004904FF4CE
:10057000405007900A2006900120ADF814004FF477
:1005800080700190002000F045FD002000F020FD6B
:10059000002000F013FD08B010BD00BF8000002057
:1005A0004C2401407047704710B5072000F06EFEE4
:1005B0001C4CA078053801281FD811480168B1F5F6
:1005C000FA6F1CD94FF4FA610160A08A4FF6FE71F0
:1005D000884238BF0130A082606A10F1020F38BF34
:1005E0000130606200F00EF8A16A6FF00102531A48
:1005F000834288BF0A18A26210BD0020A08210BDED
:10060000540100200748008C052801D2012007E092
:10061000F9288FBF40F6C41040431921B0FBF1F018
:1006200080B270476001002080B54FF4005000F0A8
:1006300065FD58B11548C1680131C160FFF7B4FFCD
:100640004FF40050BDE8804000F052BD80BD00BFB7
:1006500080B507200221002200F026FE01200D2196
:1006600000F090FF4FF4005000F042FD4FF40050B6
:1006700000210122BDE8804000F00CBD03480021AC
:10068000C0E90111C1600180704700BF7000002007
:10069000B0B51446054600F04BFD28460221012264
:1006A000234600F079FD2846002103222346BDE8B9
:1006B000B04000F098BD000070B52D4C2D4D0021CC
:1006C00040222046A8474FF0904002214FF480720C
:1006D000A847204602214FF48072A84720460121F6
:1006E0001022A847204602214FF40072A847224D4D
:1006F0004FF0904003210022EF23A847204603211A
:1007000000220323A8471D4E20464FF48041B047E6
:1007100020464FF48051B0474FF090404FF4806135
:10072000B04720464FF40041B0474FF090404FF49F
:100730000061B04704F580504021B04720464FF497
:100740008061B04720464FF40061B0474FF09040C1
:100750004FF40071B0472046002100224FF40053AF
:10076000A84720464FF40041BDE8704000F012BD9C
:10077000000400489106000899110008810700084C
:10078000B0B50C46012100220546234600F004FDC9
:100790002846002101222346BDE8B04000F023BDD9
:1007A000FEE700000648002101228181817001805E
:1007B00001614272A0F80710C0F80310704700BF33
:1007C00044010020054801210022062903D040F8F9
:1007D00021200131F9E7002101607047E400002089
:1007E00004480021C0F801100170C0F80510A0F8FD
:1007F00009107047FC000020FEE7704701EB410044
:1008000002FA00F1072202FA00F05A6822EA000018
:1008100008435860B0BD00F01F010122800902FAB0
:1008200001F1704741F8202070478DF80C50019578
:100830000090204601F0B2B801EB41001E3802FAE8
:1008400000F1072202FA00F01A6822EA00000843C9
:1008500018607047026002681143016070472046CB
:10086000022101F07DB901FA00F405FA00F07047A9
:10087000204601F089B80A6822EA00000860704743
:10088000835823EA010181507047012202FA01F1E5
:10089000026A1143016270478358194381507047BF
:1008A000F0B589B01D4616460F46044601F036F8ED
:1008B000701E00260390781ECDF806608DF810603B
:1008C000ADF80A60ADF8040001A9204601F066F811
:1008D000012006960796ADF820602946059005AAE6
:1008E000204600F0E3FE20462946002200F0F3FFF8
:1008F00020462946602200F0D3FF204629460022E8
:1009000000F0F0FF2046012101F037F9204600F009
:10091000A5FEFFF7ADFF09B0F0BD704770470000BE
:1009200010B5184C4FF4C060A04740F21150A047DA
:1009300040F21250A04740F21350A04740F2165028
:10094000A0474FF4A060A04740F20960A04740F2E2
:100950000E60A04740F20B60A04740F20170A04734
:100960004FF4E160A0474FF4C260A04740F211602D
:10097000A04740F21260A0470620BDE8104000F0FA
:10098000D3BC00BF5115000800F00EBBB0B56948DC
:10099000816901F0060106294BD08169890448D597
:1009A0006549664A0160026041604260C16841F089
:1009B0002001C160C16841F04001C1608168C90780
:1009C000FCD1C16821F02001C160C16841F0100173
:1009D000C1605B49826912F0060F06D0826902F09D
:1009E0000602022A03D1BB2200E0A5220A80826906
:1009F000DF2303EA12224A808269C2F307428A8017
:100A00008269120ECA80C269D2B20A81C26992B2E8
:100A1000120A4A818168C907FCD1C16821F010011E
:100A2000C160C16821F40071C160C16841F08001FA
:100A3000C1604448016841F47001016042480168A6
:100A400041F00101016001688907FCD541683F4A16
:100A500040F2031321F003014160016811403C4A58
:100A60000160416811403B4A41604168114041606A
:100A70003949C26A0A40C262026B9A430263026B3E
:100A800022F480320263026B22F000420263426B66
:100A900022F001024263D0F8C02022F48032C0F874
:100AA000C02000228260C0F8CC20036843F4803369
:100AB000036040F2FF730568013B42F10004AD039F
:100AC00001D4002CF7D1026892032CD54268234B45
:100AD0004260426842F400524260426842F48062DE
:100AE000426042681A404260C26A11401C4AC162B8
:100AF000416811434160C16A41F00101C162C16AAC
:100B0000C162016841F08071016001688901FCD512
:100B1000416821F003014160416841F002014160F8
:100B200041680907FCD54FF000600021BDE8B040E6
:100B300000F0EEBB0420024023016745AB89EFCDF6
:100B400000F8FF1F88ED00E000100240FFFFF2FEFA
:100B50000C00FF08FFFFC277F0FFFF3FFFFFC0F769
:100B60000000110810B50C4C0121204600F011FFC7
:100B700088B10A48016801310160094801780131F2
:100B80000170084801880131018020460121BDE83B
:100B9000104000F0E5BF10BD00200040940100208F
:100BA0005B0100205E01002010B50F4C01212046A2
:100BB00000F0EFFE18B12046012100F0D1FF2046E1
:100BC000022100F0E6FE08B1FFF749FE20464FF48F
:100BD000007100F0DEFE30B120464FF40071BDE838
:100BE000104000F0BDBF10BD0040014070B5154C75
:100BF0000221204600F0B7FF012822D1FFF72FFE87
:100C0000114DA878012807D0D8B92046002100F05E
:100C10002AFDE880012613E020460021002600F08E
:100C200022FD0A494FF6FF7283B228810E60E988DF
:100C30004A408B4288BF4A42054912FA80F0086058
:100C4000AE7070BD00480140C40000207400002058
:100C500078000020B0B5164C40F20771204601F034
:100C600080F818B3204640F2077101F076F8114D74
:100C7000A978E878884208D2411CE9700E49095CDD
:100C80002046BDE8B04001F045B8204640F207716B
:100C900001F067F80028F8D000200721E870A5F8D7
:100CA00001002046BDE8B04001F063B8B0BD00BF10
:100CB00000380140D400002004000020FEE70000BE
:100CC00010B5304C207803282AD8DFE800F0021A4B
:100CD00009124FF090404FF4007100F05BFA05E00C
:100CE0002179A078072913D800F02AF80020E080A5
:100CF00010BD2079072811D86078BDE8104000F0B9
:100D00001FB84FF090404FF4007100F041FA01E03D
:100D1000F32803D1BDE8104000F004B80020207093
:100D200010BD00BF1748C188B1F5FA7F06D3002176
:100D3000C180A0F80310017801310170704700BF35
:100D400010490979C840C0074FF0140018BF3C2073
:100D5000AFF300800B49CA78824207D9502A0BD8DA
:100D60004FF090404FF4007100F012BA4FF09040F5
:100D70004FF4007100F00EBA0020C87008790130FD
:100D80000871704758010020024800214181FFF797
:100D900009BD00BF440100200248002101814160DB
:100DA000016070472A0100204C48016841F00801A9
:100DB000016001680907FCD4016841F00401016089
:100DC00001684907FCD47047022810D001281CD1C3
:100DD0000E48026822F4700202604FF4700202EBC7
:100DE000015102683FFA81F11143016070470748E1
:100DF000C26822F44012C2604FF4401202EB01516B
:100E0000C26801F440111143C16070472C240140B5
:100E1000324900280A6822F4006218BF02F5006215
:100E20000A6070473B4A0228136823F4C0531360DA
:100E300010D0012813D1106820F4604010604FF4E6
:100E4000604000EB4130116880B2084310604FF4FD
:100E5000006001E04FF48050116808431060704753
:100E60001E48016841F48071016070471B480168A9
:100E7000C90703D1016841F001010160704700BF5B
:100E8000164A00F0010351B11BB1116841F4801101
:100E9000116080070ED5106840F4004009E01BB1D6
:100EA000116821F480111160800703D5106820F4C7
:100EB00000401060704700BF012804D002280BD109
:100EC0006FF4E04001E06FF46020044A13681840BA
:100ED0001060106808431060704700BF082401408C
:100EE0000149FFF7C8BC00BF00240140C107094900
:100EF00003D00A6842F040020A60820703D50A68FC
:100F000042F020020A60400703D5086840F08000E4
:100F10000860704704240140B0B5194B05280AD871
:100F200000EB80001F25FFF79EFC9D6A25EA00006C
:100F3000204398621AE00B280BD800EB80001F2595
:100F40001E38FFF790FC5D6A25EA000020435862D6
:100F50000CE010280AD200EB80001F253C38FFF778
:100F600082FC1D6A25EA000020431862092901D885
:100F7000FFF744BC122901D8FFF75EFCB0BD00BFEB
:100F80000C24014080B5FFF7CBFC00F02DFBFFF7F0
:100F900093FBFFF75DFBFFF73BFA00F073FEBDE844
:100FA000804000F031BE00000348016811B10168C3
:100FB00001390160704700BF8C010020344900EB0B
:100FC000800051F8202042F00102FFF72BBC00BF47
:100FD0002F4900EB800051F8202042F02002FFF75B
:100FE00021BC00BF0A4A00EB8001800002EB8101B6
:100FF0004B6823F001034B6000234B608B60CB6098
:101000000B610F2101FA00F011680843106070476E
:101010000400024070B51E4A00EB800052F82030F8
:1010200023F0010342F8203002EB80030C689C603F
:10103000CC68DC600C8B5C6052F820304C680D6929
:10104000CE6923F47C5323432B43334342F82030AF
:1010500052F820300C7A0D7D23F04003012C08BF9C
:10106000403342F82030012D52F8203023F0800325
:1010700008BF803342F8203052F82030497D23F0F9
:101080001003002918BF103342F8203070BD00BF94
:101090000800024010B51F4B1C6884431C605C684C
:1010A00084435C609C6884439C60DC6884430129C1
:1010B000DC6004D031B919680143196002E0596855
:1010C00001435960022A09D0C143012A09D072B9EB
:1010D0009A6810439860D868084007E0996801430F
:1010E00001E09A6811409960D9680843D86010BD42
:1010F00001490860704700BF1404014005494A696E
:10110000024018BF01220968084018BF01201040A2
:10111000704700BF0004014003480021034A81607A
:101120001288016082807047D800002000400008CB
:10113000F0B5D0F820E0446A00254FF00F0C0027EE
:10114000082F0ED022FA07F6F60707D00CFA05F39F
:1011500001FA05F62EEA030343EA060E04350137C9
:10116000EEE7082500264FF00F0C102D0CD022FAC8
:1011700005F3DB0705D00CFA06F701FA06F3BC43CA
:101180001C4304360135F0E7C0F820E04462F0BDAE
:1011900081627047816170472DE9F043D0F800E02B
:1011A000D0F80C8000264FF0030C0027102F14D02D
:1011B00023FA07F4E4070DD00CFA06F502FA06F953
:1011C00028EA05042EEA050544EA090801FA06F4AE
:1011D00045EA040E02360137E8E7C0F800E0C0F83F
:1011E0000C80BDE8F083F0B5012941684FF6FF742B
:1011F00014BF994319434160A242816815D1C26B63
:1012000000244FF0010C4FF0030E0027102F21D0C7
:101210000CFA07F515EA030618BF2A430EFA04F57F
:1012200018BF294302340137F0E700244FF0030CC4
:101230000026102E04BF8160F0BD23FA06F7FF07D9
:1012400005D00CFA04F502FA04F7A9433943023435
:101250000136EEE78160C263F0BD0000094C45F63F
:10126000A5252088A84202D000F098FD2580FFF730
:1012700089FE05484FF48041FFF78CFFFFF720FD02
:10128000FCE700BF900100200004004800F01F01AF
:10129000012202FA01F1034A42EAD00020F00300E1
:1012A0000160704780E100E010B5184B1C6804F441
:1012B000E064A4F54074B4F5A06F31BF230A0D4C6F
:1012C0001C6002239940C3F104030F2424FA03F3A2
:1012D0001A401143084A090140EA020383F8001347
:1012E0001C21012301EAD00100F01F0003FA00F0E5
:1012F000885010BD0005FA0500E100E002490843EE
:1013000002490860704700BF0000FA050CED00E0DC
:10131000034A1140084303490860BFF34F8F7047E9
:1013200080FFFF1F08ED00E07F49214B0A6822F48F
:1013300040420A60CA6A1A400928CA6237D8DFE800
:1013400000F00509111315191D212E25C86A20F476
:10135000803002E0C86A40F48030C862C86A20F475
:10136000807023E008681DE0086812E0086840F417
:10137000804017E0086840F480400AE0086840F4C4
:1013800000400FE0086840F4004002E0086840F4C4
:1013900040400860C86A40F00040C86203E0086846
:1013A00040F440400860C86A40F48070C8627047EA
:1013B000FFFEFE7FF0B55C4A01465C4B10681D469F
:1013C00000F00C00082839D110681468956AC0F341
:1013D0008340B5F1FF3FC4F3C0640646C8BF023680
:1013E000002C18BF06463046B5F1FF3FC8BF11308C
:1013F000002C08BF30460646002D48BF2136002C81
:1014000018BF06463046002D48BF3130002C08BFBB
:1014100030461568946AED0303D4464C00FB04F58E
:101420000CE0956A05F00F050135640052BFB3FB6F
:10143000F5F43F4CB4FBF5F404FB00F514681668B2
:101440001068062984BF0020F0BDC4F303143AA736
:10145000C0F3C2209C463C5D3B4F385C25FA04F447
:1014600024FA00F0DFE801F00406083B0E1A22001F
:101470002846F0BD2046F0BDC6F30220385C24FAB1
:1014800000F0F0BDD16AC9052AD4D06AC0032F4844
:101490005CBF49F68070C0F2D500F0BDD06A40064E
:1014A0004FF4004058BF48F21200F0BDD16A8907DE
:1014B00015D0D06A00F00300012828460FD0D06A6A
:1014C00000F00300022804BF4FF40040F0BDD06AD2
:1014D000614600F00300032818BF00210846F0BD54
:1014E0001368D16AC3F38132DFE802F002060A1002
:1014F00000290FD44008F0BD00290DD48008F0BDAC
:1015000000290BD40621B0FBF1F0F0BD002907D46F
:10151000C008F0BD032004E0052002E0072000E041
:101520000920B4FBF0F0F0BD0410024000127A0074
:10153000006CDC0200093D0000000000000000001B
:101540000102030406070809E81D0008003FAB017B
:101550007346FFF760F99E46094AFFF79DB900BF41
:101560007346FFF758F99E46054AFFF789B900BF51
:101570007346FFF750F99E46014AFFF78DB900BF49
:10158000001002408A08032A2AD80C2303EA8101AA
:101590000F23884003FA01F1C943DFE802F0020A91
:1015A000121A104A1368194011601168084310603C
:1015B00070470C4A536819405160516808435060A5
:1015C0007047084A93681940916091680843906099
:1015D0007047044AD3681940D160D1680843D0608D
:1015E000704700BF080001400A484FF47A71006854
:1015F000B0FBF1F00138B0F1807F00D3FEE706497F
:10160000F022072348600548027000228A600B60C0
:10161000027070470000002010E000E023ED00E0C1
:101620001FB5D84C204600F079F94F20694602904A
:101630000820009000208DF80C000190204600F05A
:10164000ADF9FFF715F9132002210022FFF72CFE58
:101650002046012100F080FA1FBD00BF016841F063
:1016600080010160704703298EBF002000EB8100DC
:10167000406B7047032917D8DFE801F00205080D19
:1016800050F8181F04E050F8181F06E050F81C1F0F
:1016900021F00C0104E050F81C1F21F440611202FB
:1016A00001600168114301607047000010B5032913
:1016B00000F2EE80DFE801F0028144BF016A21F010
:1016C00001010162816921F0030181611168036AEE
:1016D00019430162016A21F002010162D188036AA3
:1016E000194301626D4901444FEAB121072900F213
:1016F000CF80012303FA01F111F0E10F00F0C8805F
:10170000016A21F0040101629188036A19430162B0
:10171000016A21F0080101621189036A194301621B
:1017200050F8041F21F48071016051890368194346
:101730000160016821F40071016092890168A5E0EF
:10174000016A21F480710162C16921F00301C16164
:101750001168036A43EA01210162016A21F4007100
:101760000162D188036A43EA01214A4B0162191FD1
:10177000884240F08D80016A21F480610162918885
:10178000046A44EA01210162016A21F400610162F4
:101790001189046A44EA01210162186820F480502A
:1017A00018605089196841EA00101860186820F420
:1017B00000501860908901015DE0016A21F010017C
:1017C0000162816921F4407181611168036A43EA11
:1017D00001110162016A21F020010162D188036ACE
:1017E00043EA011101629849884247D094498842EE
:1017F0004ED1016A21F0400101629188036A43EAF7
:1018000001110162016A21F0800101621189036AFC
:1018100043EA011101621F48016821F480610160FF
:101820005189036843EA81010160016821F4006184
:101830000160918928E0016A21F480510162C16947
:1018400021F44071C1611168036A43EA0131016208
:10185000016A21F400510162D188036A43EA01312F
:101860000C4B0162191F884212D1186820F4804085
:101870001860508981011A68184607E00648016817
:1018800021F480610160518902688900114301607F
:1018900010BD00BF042C01400440014000D4FEBF35
:1018A000032917D8DFE801F00205080D50F8181FCA
:1018B00004E050F8181F06E050F81C1F21F07001DA
:1018C00004E050F81C1F21F4E0411202016001689D
:1018D00011430160704703299CBF00EB8100426304
:1018E00070470000032917D8DFE801F00205080D52
:1018F00050F8181F04E050F8181F06E050F81C1F9D
:1019000021F0080104E050F81C1F21F400611202CC
:1019100001600168114301607047000010B54B4938
:10192000884215D0C849884215D04649884215D00A
:101930004349884215D0B349884215D0444988426A
:1019400015D0B0F1804F18BF10BD4FF4806410E087
:1019500040F212340DE040F201440AE04FF4816499
:1019600007E040F20B3404E04FF4447401E040F22D
:1019700011342046FFF7FCFD2046BDE81040FFF77C
:10198000EFBD00BF00200040016841F0010101608F
:1019900070470069084018BF0120704710B50A88D9
:1019A0008262274A904204D0A74C40F48063A3424D
:1019B00018D1036823F0700303604B880468234345
:1019C00003608B8804682343036090428B68C36282
:1019D0000AD1136823F440731360CB88146823433F
:1019E000136026E08B68C362B0F1804F0ED0964B37
:1019F00098420BD0134B984208D0824B984205D0A6
:101A0000124B984202D0124B984214D1036823F42F
:101A100040730360CB88046823439042036008D07E
:101A2000784A904205D00A4A904202D0074A904232
:101A300001D1097B0163416941F00101416110BDA0
:101A4000002C0140002000400040014000480140BF
:101A500000440140F0B5032900F27980DFE801F08D
:101A600002162B4903464FF0010C53F8204F24F087
:101A700001041C601C6824F00A041C6014881D68A2
:101A80002C431C60044654F8185F28E003464FF0CE
:101A9000100C53F8204F24F010041C601C6824F034
:101AA000A0041C6014881D6845EA04141C600446E8
:101AB00054F8185F31E003464FF4807C53F8204F10
:101AC00024F480741C601C6824F420641C60148856
:101AD0001D6845EA04241C60044654F81C5F25F088
:101AE00003052560B2F802E0276804256FF0F006D0
:101AF0001DE003464FF4805C53F8204F24F48054DB
:101B00001C601C6824F420441C6014881D6845EA8D
:101B100004341C60044654F81C5F25F440752560AD
:101B20005588D4F800E02F020C256FF4704647EA80
:101B30000E07276027683E402660D68806FA05F51E
:101B40002668354325601C6844EA0C041C609288B2
:101B5000BDE8F040FFF78EBDC2681143C160704719
:101B6000C94301617047C2680A4018BF0122006979
:101B7000084018BF012010407047426C012922F430
:101B8000004208BF02F5004242647047B0B588B019
:101B90001C4C2046FFF7C2FE6320002569460290D8
:101BA0002320FEF742FE012005950695ADF81C5056
:101BB0000021049004AA2046FFF778FD204600216A
:101BC0003222FFF788FE204600216022FFF768FEE0
:101BD000204600210022FFF785FE20460121FFF765
:101BE000CCFF2046FFF73AFDFEF742FE142003210A
:101BF0000122FFF759FB20460221FFF7ADFF08B095
:101C0000B0BD00BF00400140B0B5FFF7BFFFFFF718
:101C100007FDFEF76FFC0C4C0C4D07214FF47A7258
:101C2000002304F59430A84704F5A0302421642251
:101C30000023A847204648214FF47A720023AC467F
:101C4000BDE8B040604700BF00040040A1080008A4
:101C500003480021C16001800181416081707047AB
:101C6000C4000020064800214FF47A7201614160EF
:101C7000C0F813100176C260018181700180704745
:101C80000801002010B5304C204600F047F82046EF
:101C90004FF4165100F018F82046002100F074F8B7
:101CA0002046082100F075F8204600F051F81B206E
:101CB00002210022BDE81040FFF7F6BA01480521D5
:101CC00001707047D4000020B0B504461E480D4690
:101CD000844204D01D48844205D1022000E0062041
:101CE000FFF768FB00E000202168090405D400EB41
:101CF0005500B0FBF5F080B20AE040004FF6F071FD
:101D000000EB5500B0FBF5F00140C0F34200084481
:101D1000E060B0BD6FF35F218162704710B50A4982
:101D2000884206D00949884218BF10BD40F21144CC
:101D300001E040F20E342046FFF71AFC2046BDE8D1
:101D40001040FFF70DBC00BF0038014000440040C8
:101D5000016841F001010160704701F01F01FEF7C9
:101D600094BD8A0901F01F011058C84000F001001D
:101D7000704701F01F020123890903FA02F20B5890
:101D800023EA02020A507047026822F00402FEF7BA
:101D900061BD026822F00802FEF75CBD80B5FEF767
:101DA0006DFCFEF787FBFFF753FFFFF787FFFFF799
:101DB000B3F9FEF707FDFEF713FDFFF753FFFEF73C
:101DC000EBFFFEF78BFBBDE88040FEF7DDBFF1EED9
:101DD000100A4FF6FF71C0F2C03120EA010040F056
:101DE0004070E1EE100A7047000000000102030499
:101DF000101E000800000020100000008C010008E8
:101E0000201E00081000002088090000A80100081A
:101E100000BD0105AC030564003F8621018B000075
:04000005080001519D
:00000001FF
