:020000040800F2
:1000000088060020ED0700083105000833050008C8
:100010003505000837050008390500080000000014
:100020000000000000000000000000003B05000888
:100030003D050008000000003F05000841050008DC
:100040000708000807080008070800080708000854
:100050000708000807080008070800080708000844
:100060000708000807080008070800080708000834
:100070000708000807080008070800080708000824
:100080000708000807080008070800080708000814
:100090000708000807080008070800080708000804
:1000A00007080008070800080708000807080008F4
:1000B00007080008070800080708000807080008E4
:1000C00007080008070800080708000807080008D4
:1000D000070800084305000807080008070800088B
:1000E00007080008070800080708000807080008B4
:1000F00007080008070800080708000807080008A4
:100100000708000807080008070800080708000893
:100110000708000807080008070800080708000883
:100120000708000807080008070800080708000873
:100130000708000807080008070800080708000863
:100140000708000807080008070800080708000853
:100150000708000807080008070800080708000843
:100160000708000807080008070800080708000833
:100170000708000807080008070800080708000823
:10018000070800080708000800F002F800F047F828
:100190000AA090E8000C82448344AAF10107DA45E2
:1001A00001D100F03CF8AFF2090EBAE80F0013F0ED
:1001B000010F18BFFB1A43F0010318470019000094
:1001C00020190000103A24BF78C878C1FAD8520725
:1001D00024BF30C830C144BF04680C6070470000C1
:1001E0000023002400250026103A28BF78C1FBD840
:1001F000520728BF30C148BF0B607047642901F027
:100200007B82782901F0B482632901F0CB8300203E
:1002100070471FB501F039FC1FBD10B510BD01F0CE
:10022000FBFB1146FFF7F5FF00F00EF801F019FC9B
:1002300003B4FFF7F2FF03BC00F065F901B50098C5
:10024000411E0091FBD208BD0EB5002501210820FA
:1002500000F05CFD4FF47040009001208DF8040028
:1002600000218DF8061003218DF80510414C8DF802
:1002700007006946204600F091FB00F0EFF83EA031
:1002800001F0DEF900F08EF94BA001F0D9F902A8D7
:1002900000F0A9F94FA001F0D3F902AE51A0715DB1
:1002A00001F0CEF96D1CEDB2042DF7D34FA001F093
:1002B000C7F94FA001F0C4F900252946084600F00F
:1002C000BAF9294652A001F0BBF96D1CEDB2FF2D21
:1002D000F3D351A001F0B4F90025284600F0C8F985
:1002E00001464BA001F0ACF96D1CEDB2FF2DF4D32B
:1002F0004FF48055504E6F004FF480484FF4004942
:100300002946204600F0AFFB3046FFF797FF3946FD
:10031000204600F0A8FB3046FFF790FF41462046FC
:1003200000F0A1FB3046FFF789FF4946204600F068
:100330009AFB3046FFF782FF2946204600F095FBE6
:100340003046FFF77BFF3946204600F08EFB3046F3
:10035000FFF774FF4146204600F087FB3046FFF769
:100360006DFF4946204600F080FB3046FFF766FFF0
:10037000C6E70000000C02400D0A57656C636F6D04
:100380006520746F205761766553686172652053EC
:10039000544D3332463420736572696573204D4382
:1003A0005520426F617264204F70656E343037564D
:1003B0002D440D0A00000000415434354442585881
:1003C00020686164206265656E20496E6974210D44
:1003D0000A00000041543435444258582049442012
:1003E0006973000020307825782000000D0A000095
:1003F0000D0A46414C534820415434354442585824
:1004000020577269746520546573743A200D0A0090
:1004100025336420000000000D0A46414C5348205B
:100420004154343544425858205265616420546523
:1004300073743A200D0A0000FFFF5F0008B5272003
:100440008DF8000001208DF8010000218DF80210C8
:100450008DF80300684600F0EEF908BD70B586B06F
:100460000121042000F052FC0121042000F04EFC88
:100470000121880400F068FC2B4E07220A21304637
:1004800000F000FB07220B21304600F0FBFA30158C
:10049000009002208DF8040000248DF806408DF8AD
:1004A000050001258DF807506946304600F076FAC0
:1004B000E80200908DF806508DF8074069463046F6
:1004C00000F06CFA4FF4E130ADF80C400290ADF85A
:1004D0000E40ADF81040ADF814400C20134CADF8B0
:1004E000120002A9204600F010FD012240F2255121
:1004F000204600F01AFE0121204600F077FDFFF7AC
:100500009DFF06B070BD704770B5084D0446C1B27E
:10051000284600F091FD4021284600F01EFE0028EC
:10052000F9D0204670BD000000080240004800409D
:100530007047FEE7FEE7FEE7FEE77047704770474B
:10054000704710B5084C40F22551204600F00FFED0
:10055000002808D0204600F073FD0146BDE8104099
:1005600002A001F06DB810BD004800400A0D5553BF
:100570004152542048797065727465726D696E617C
:100580006C20496E74657272757074732052656365
:1005900065697665206120776F72643A2025630A69
:1005A0000D0000001CB500F08DF841A001F048F8E6
:1005B0000121084600F0AAFB1020009001208DF8D0
:1005C000040000218DF8061003218DF805103C4C25
:1005D0008DF807006946204600F0E0F9102120461A
:1005E00000F041FA1CBD70B5354C0546102120467F
:1005F00000F03BFAD72000F0C3F800F0D9F800066D
:10060000FBD510212646204600F02DFA1021304659
:1006100000F02BFA9F2000F0B3F8002400F0C8F897
:100620002855641CE4B2042CF8D33046BDE8704071
:10063000102100F018BA70B5214D0E460446102165
:10064000284600F012FA842000F09AF8FF2000F00B
:1006500097F8002000F094F8E0B200F091F83046EE
:1006600000F08EF82846BDE87040102100F0FBB97C
:1006700070B5134D04461021284600F0F6F9D42039
:1006800000F07EF8FF2000F07BF8002000F078F802
:10069000E0B200F075F8FF2000F072F800F088F882
:1006A000C4B21021284600F0DEF9204670BD0000DB
:1006B000535049206973207265616479210D0A00E5
:1006C00000000240F0B587B00121032000F01EFBBE
:1006D0000121080300F042FB414E05220321304670
:1006E00000F0D0F93F4F05220621384600F0CAF944
:1006F00005220721384600F0C5F90820022505909B
:100700008DF8185003208DF8190000248DF81A4038
:100710008DF81B5005A9304600F040F940200590A7
:1007200005A9384600F03AF98020059005A9384619
:1007300000F034F92C4E304600F04AFDADF8004090
:100740004FF48270ADF802000120ADF808004002BD
:10075000ADF80A003020ADF80C000720ADF80440D9
:10076000ADF81000ADF80650ADF80E4069463046C1
:1007700000F052FD0121304600F0DDFD07B0F0BD74
:1007800070B5194C05460221204600F067FE00288E
:10079000F9D02946204600F034FE0121204600F021
:1007A0005DFE0028F9D02046BDE8704000F027BE6D
:1007B00010B50D4C0221204600F050FE0028F9D063
:1007C0000021204600F01DFE0121204600F046FEDB
:1007D0000028F9D02046BDE8104000F010BE00000F
:1007E00000040240000002400030014009488047F8
:1007F00009480047FEE7FEE7FEE7FEE7FEE7FEE703
:10080000FEE7FEE7FEE7FEE704480549054A064B1A
:100810007047000063150008890100088800002067
:10082000880600208802002088020020284908430A
:1008300028490860704730B50F23C2780178012538
:10084000FAB1244A126801F1E02102F4E062C2F533
:10085000E062C2F30722C2F10404D3404278A2400E
:1008600084781C401443220181F80024007800F0B1
:100870001F018D404009800000F1E020C0F80051C8
:1008800030BD01F01F0085404809800000F1E020E4
:10089000C0F8805130BD104A114001430D48001F7F
:1008A000016070470B4A121D0029116801D00143F5
:1008B00000E08143116070474FF0E021042808698F
:1008C00003D020F004000861704740F00400FAE70C
:1008D0000000FA050CED00E080FFFF1F714910B524
:1008E000884206D10121084600F042FA0021012089
:1008F0004FE06D49884206D10121022000F038FA0C
:100900000021022045E06949884206D101210420E6
:1009100000F02EFA002104203BE06549884206D110
:100920000121082000F024FA0021082031E061496B
:10093000884206D10121102000F01AFA002110206F
:1009400027E05D49884206D10121202000F010FAFD
:10095000002120201DE05949884206D10121402074
:1009600000F006FA0021402013E05549884206D1E4
:100970000121802000F0FCF90021802009E051498C
:1009800088420AD184150121204600F0F1F90021A6
:100990002046BDE8104000F0EBB910BDF0B50022D4
:1009A00001274FF0030C0B6807FA02F52B40AB420E
:1009B0002CD1066853000CFA03F4A64306600E79A6
:1009C000D0F800E09E4046EA0E0606600E79012E41
:1009D00001D0022E12D18668A64386604E79D0F8E7
:1009E00008E09E4046EA0E0686604668AE434660D2
:1009F00045688E799640B6B235434560C568A543D3
:100A0000C560CC799C40C3681C43C460521C102A4A
:100A1000C9D3F0BD4FF6FF71016000210171417132
:100A20008171C171704708B541F480320092C26192
:100A3000C1610099C161C169C069009008BD0246E9
:100A4000002012690A4200D001207047006980B27C
:100A500070470246002052690A4200D001207047C8
:100A6000406980B2704701837047418370470AB183
:100A700001837047418370474161704742694A4032
:100A8000426170474B07DB0E9A40C90810B500EB76
:100A90008100016A0F249C40A1430162016A114355
:100AA000016210BD00000240000402400008024044
:100AB000000C0240001002400014024000180240E6
:100AC000001C024000200240EA48016841F0010198
:100AD0000160E84A0021083211600268E64B1A40C2
:100AE0000260031DE54A1A60026822F48022026057
:100AF000E0480C3001607047DE490022891C0A7012
:100B00000870704702460020510901290CD00229C3
:100B10000CD0D8497431096802F01F0201239340B8
:100B20000B4200D001207047D249F4E7D14970311F
:100B3000F1E718B500204FF4A06400903120FFF7D2
:100B4000E1FF0099491C0091A14201D00028F5D095
:100B50003120FFF7D7FF002800D0012018BDC54A7B
:100B6000116821F0F80141EAC00010607047C449E3
:100B700008607047BF49002270310A700A7001286E
:100B800002D0042801D1052008707047BD490860D3
:100B9000704741EA82115A0810B5BB4B029C03EB27
:100BA00002421143014341EA0460B249091D086051
:100BB00010BDB34908667047800140EA0170AD4935
:100BC000843108607047AE4988667047AC49C86494
:100BD0007047A84B08331A68084322F0EC621043B0
:100BE00018607047A34B08331A68084322F0784214
:100BF0001043186070479F4A0832116821F00301C2
:100C00000143116070479B480830006800F00C00F9
:100C10007047984A0832116821F0F00101431160D1
:100C20007047944A0832116821F4E0510143116081
:100C30007047904A0832116821F4604141EAC000CF
:100C40001060704770B58B4B083319688F4C11F0EA
:100C50000C0104D06610042903D0082903D00460D5
:100C60001BE0066019E0834A121D1168C1F380552C
:100C7000116801F03F0115B1B6FBF1F101E0B4FBE1
:100C8000F1F114681268C4F388146143C2F301429D
:100C9000521C5200B1FBF2F1016019680F2202EA06
:100CA00011117B4A545C0168E14041601C680725D2
:100CB00005EA9424145D21FA04F484601B6805EAB3
:100CC0005333D25CD140C16070BDC0F30121032910
:100CD00008D1684B083319686E4A21F4F8110240B4
:100CE0000A431A60634970310A68C0F30B0002437B
:100CF0000A60704763494439086070476149403968
:100D0000086070475E49C1F85C017047594A30324B
:100D10000029116801D0014300E081431160704750
:100D2000544A34320029116801D0014300E0814364
:100D3000116070474F4A38320029116801D00143D1
:100D400000E08143116070474A4A4032002911682F
:100D500001D0014300E0814311607047454A4432AD
:100D60000029116801D0014300E081431160704700
:100D7000404A10320029116801D0014300E081434C
:100D8000116070473B4A14320029116801D00143B9
:100D900000E0814311607047364A1832002911681B
:100DA00001D0014300E0814311607047314A203295
:100DB0000029116801D0014300E0814311607047B0
:100DC0002C4A24320029116801D0014300E08143FC
:100DD00011607047274A50320029116801D0014341
:100DE00000E0814311607047224A543200291168A3
:100DF00001D0014300E08143116070471D4A583221
:100E00000029116801D0014300E08143116070475F
:100E1000184A60320029116801D0014300E0814383
:100E200011607047134A64320029116801D00143F0
:100E300000E08143116070470E4A0D32002911789D
:100E400001D0014300E081431170704709487430BC
:100E5000016841F08071016070470146054A002039
:100E60000C3212680A4200D00120704701490E314D
:100E70000870704700380240FFFFF6FE1030002473
:100E800000004742800E47420000FFFF0024F400AC
:100E900004000020FFFCFF0FC74910B5884206D1AF
:100EA00001211020FFF78CFF0021102028E0C3490A
:100EB000884202D101214C0410E0C149884202D18C
:100EC00001218C040AE0BF49884202D10121CC04EF
:100ED00004E0BD4988420AD101210C052046FFF7F4
:100EE00065FF2046BDE810400021FFF75FBFB7490E
:100EF000884209D101212020FFF762FF0021202034
:100F0000BDE81040FFF75CBF10BD7FB50446008A06
:100F10000D46C98820F4405001432182A08941F246
:100F20000C618843A9882A8911436A8902431143C5
:100F3000A181A08A20F44071A8890843A082684654
:100F4000FFF780FE9C48844202D0A048844201D131
:100F5000039800E00298A189090400EBC00101EBAD
:100F60000010296801D5490000E08900B0FBF1F0CC
:100F70006422B0FBF2F109010B096FF018056B4315
:100F800000EB8300A3891D044FF0320306D503EB69
:100F9000C000B0FBF2F000F0070005E003EB00102A
:100FA000B0FBF2F000F00F00084320817FBD4FF44A
:100FB0001651016000218180C18001810C22428193
:100FC0008181704710B5028A4C8822F470630A88C8
:100FD00022438C88C9880C4322431A43028210BDE5
:100FE0000021018041808180C18070470029818972
:100FF00002D041F4005101E021F400518181704799
:10100000028B02F47F420283028B0A430283704701
:101010000029818902D041F4004101E0C1F30E01B1
:10102000818170470029818A02D041F4006101E08A
:1010300021F4006181827047C1F30801818070470B
:101040008088C0F308007047028A22F00F020282F3
:10105000028A0A43028270470029818902D041F046
:10106000020101E021F0020181817047828922F4AE
:101070000062828182890A4382817047028A22F05B
:1010800020020282028A0A43028270470029018AF2
:1010900002D041F4804101E021F480410182704797
:1010A000818941F00101818170470029818A02D044
:1010B00041F0080101E021F0080181827047028BB4
:1010C000D2B20283028B42EA0121018370470029D8
:1010D000818A02D041F0200101E021F020018182CB
:1010E00070470029818A02D041F0100101E021F00F
:1010F000100181827047828A22F004028282828AF1
:101100000A43828270470029818A02D041F002019D
:1011100001E021F0020181827047002A828A01D019
:101120000A4300E08A438282704710B5C1F342133C
:1011300001F01F040121A140012B07D0022B07D091
:101140001430002A026805D00A4304E00C30F8E7A6
:101150001030F6E78A43026010BD02460020128874
:101160000A4200D001207047C9430180704770B522
:1011700001F01F0501260024C1F3421306FA05F20F
:10118000012B0FD0022B0FD0838A4FEA1121008848
:10119000134206FA01F600EA060001D000B101246C
:1011A000204670BD8389F0E7038AEEE70A0A012131
:1011B0009140C94301807047001001400044004045
:1011C00000480040004C0040005000400014014026
:1011D000B64910B588420AD1841401212046FFF790
:1011E000EFFD2046BDE810400021FFF7E9BDB04902
:1011F000884202D10121041404E0AE4988420AD198
:101200000121C4132046FFF7D1FD2046BDE8104060
:101210000021FFF7CBBD10BD30B502884C8802F429
:1012200041530A88CD8822438C882C4322430C8961
:1012300022434C8922438C892243CC8922431A437E
:101240000280828B22F400628283098A018230BD8F
:10125000F0B502220023858B01244FF24006354071
:1012600085830284858B8E68022E38D08A8802B1ED
:101270000224914A13681B0203D5136823F4000368
:1012800013608D4A7C3213681268C3F388138A4E48
:10129000C2F30272361F3668884F06F03F06B7FB6E
:1012A000F6F65E43B6FBF2F2CB88B3F5007F2BD0A7
:1012B0006301B2FBF3F202EB82028B685200B2FBD5
:1012C000F3F2521D92B20A23B2FBF3F202F00103D1
:1012D000D21A4FF6FF74C2F34F0204EA0323941E9E
:1012E000FE2C01D302220023CC881A431443048429
:1012F0000A884B881A438B8889890B431A432A43EF
:1013000042F400618183F0BD120AD4E7002101801C
:1013100041808180C180018141818181C18107211A
:10132000018270470021018041808180C1800222BA
:101330008260818170470029018802D041F040011C
:1013400001E021F04001018070470029818B02D02B
:1013500041F4806101E021F480618183704702885B
:1013600022F40062028002880A4302807047B1F5CD
:10137000804F018803D021F480410180704741F4FF
:101380008041FAE7A1F57E420188FF3A02D041F49C
:10139000807101E021F4807101807047002981880B
:1013A00002D041F0040101E021F004018180704786
:1013B0000029818802D041F0100101E021F01001E4
:1013C0008180704730B5828B00234FF24004224069
:1013D000828302220284848B0A884FF48075B2F5DE
:1013E000007F00D002B92B464A888D8889892A431C
:1013F00019430A43224342F40061818330BD80894E
:101400007047818170470029018802D041F4005162
:1014100001E021F4005101807047018841F48051BE
:1014200001807047012901D0008B7047808A704786
:10143000008A7047002A828801D00A4300E08A436C
:1014400082807047090901238B40002A828899B263
:1014500001D00A4300E08A438280704702460020A0
:1014600012890A4200D001207047C94301817047A8
:1014700030B501F00F030125024605FA03F4002000
:10148000A3B2090905FA01F49188A4B21289214096
:101490001A4202D0002900D0012030BD01F00F0215
:1014A00001219140C9430181704700000030014093
:1014B00000380040003C00400838024000127A002A
:1014C0000CB50022544900920192086840F4803023
:1014D00008604FF4A063086800F4003001900098A1
:1014E000401C0090019810B900989842F3D1086808
:1014F000800334D50120019047484030026842F013
:10150000805202604548026842F4804202604248CC
:10151000083002680260026842F400420260026819
:1015200042F4A0520260031F3D4A1A600A6842F06A
:1015300080720A600A689201FCD53A4940F205625D
:101540000A60016821F003010160016841F00201B5
:1015500001600168C1F381010229FAD10CBD019239
:101560000CBD314810B5016841F4700101602A4892
:10157000016841F001010160274A00210832116031
:1015800002682A4B1A400260031D294A1A60026849
:1015900022F48022026020480C300160FFF790FFA7
:1015A00021494FF000608039086010BD70B51A4DB8
:1015B000083528681F4B204910F00C0004D05E103D
:1015C000042803D0082803D00B601BE00E6019E04C
:1015D000114A121D1068C0F38054106800F03F00DB
:1015E00014B1B6FBF0F001E0B3FBF0F01368126841
:1015F000C3F388135843C2F30142521C5200B0FB9C
:10160000F2F0086028680C4AC0F30310121D105C49
:101610000A68C2400A6070BD003802400070004095
:1016200008544007003C024088ED00E0FFFFF6FE52
:10163000103000240024F400140000207047000043
:101640000FB4044910B503AA029800F0B7F910BC12
:101650005DF814FB0000002070B504468569006841
:10166000C10601D5302600E02026C00707D070BD96
:10167000D4E9012130469047206A401C20626D1E4B
:10168000F6D570BD70B5044685690078C00707D1EE
:1016900070BDD4E9012120209047206A401C2062BF
:1016A0006D1EF6D570BD70B50C460546012A05D0F5
:1016B0002878800600D5EA69002302E0012305E0CE
:1016C0005B1C934202D2E05C0028F9D1A869E618BD
:1016D000C01AA861286A184428622846FFF7BCFF90
:1016E00004E0D5E9012114F8010B9047B442F8D386
:1016F0002846FFF7C7FF70BD2DE9F04106460024DC
:1017000010687529314616A510D0AFF30080002867
:1017100002DA404213A507E031688A0701D512A515
:1017200002E0490704D511A5012401E0AFF30080D0
:1017300000210A2206F1240709E0B0FBF2FCB0FB0D
:10174000F2F302FB1C00303078541846491C002884
:10175000F3D123462A463046BDE8F04100F0BFB839
:10176000000000002D0000002B0000002000000001
:1017700070B504460D4621461068AFF300802188FD
:10178000090502D50F4A7A4402E00E4A7A440E3225
:10179000002104F1240305E000F00F060009965D26
:1017A0005E54491C0028F7D120780023000704D597
:1017B000702D02D009B1022311322046BDE87040DD
:1017C00000F08DB80A0300002DE9F0474FF0000A41
:1017D00089460446C0F820A02046E16888470028D2
:1017E00076D0252806D0D4E901219047206A401CF4
:1017F0002062F1E7E168204600258847C4F81CA074
:1018000006460027C4F818A02A2E09D0304600F05A
:1018100035F938B304EB8708303EC8F8186019E092
:1018200059F8041B204604EB87029161E168884760
:10183000012F064618D1E069002820DA25F020059E
:101840001DE0D8F8180000EB800006EB40003038AF
:10185000C8F818002046E1688847064600F00EF9EF
:101860000028EED1012F0AD02E2E08D12046E168A3
:1018700088477F1C0646022F45F02005C4DBA0697F
:10188000002803DA404245F00105A061E80701D0D5
:1018900025F01005B6B1A6F14100192802D820366E
:1018A00045F400654A463146204625604D46FEF720
:1018B000A5FC58B1012806D0ED1D25F0070000F168
:1018C000080989E704E005F1040985E730468AE75D
:1018D000206ABDE8F08770477047704770472DE970
:1018E000F0470D4699469246044600F124080168E7
:1018F000880604D5E06921F01001216000E0012094
:10190000A84201DD471B00E00027A1697A1902EB1C
:101910000900081AA0612078C00602D42046FFF70B
:101920009BFE002608E0D4E901211AF80600904742
:10193000206A401C761C20624E45F4DB2078C006ED
:101940000AD52046FFF788FE06E0D4E901213020C1
:101950009047206A401C2062381EA7F10107F4DC82
:1019600007E0D4E9012118F805009047206A401CDF
:101970002062281EA5F10105F3DC2046FFF782FE58
:101980002078000602D50220BDE8F0870120FBE7A1
:1019900010B5436913B1AFF3008001E0FFF783FE98
:1019A000012010BD127800F124010A7000224A7053
:1019B0000122EDE711684FF0FF32E9E7074B70B500
:1019C0000D467B4400F011F80446284600F020F84C
:1019D00010B14FF0FF3070BD204670BD43EBFFFFEC
:1019E00001694A1C02610878704700B58FB0CDE9E3
:1019F00001310021059105497944CDE903101146D3
:101A00006846FFF7E1FE0FB000BD0000E5FFFFFFF5
:101A1000007B00F080007047754600F02BF8AE4662
:101A200005006946534620F00700854618B020B5EA
:101A3000FEF7EAFEBDE820404FF000064FF0000739
:101A40004FF000084FF0000B21F00701AC46ACE866
:101A5000C009ACE8C009ACE8C009ACE8C0098D46D3
:101A6000704710B50446AFF300802046BDE8104033
:101A7000FEF7DEBB004870472800002030380A28F7
:101A800001D201207047002070474FF04070E1EE16
:101A9000100A7047303132333435363738394142E5
:101AA00043444546403058003031323334353637C0
:101AB000383961626364656640307800DC1A00087A
:101AC0000000002028000000C4010008041B0008DA
:101AD0002800002060060000E0010008000000006F
:101AE00000000000010203040102030406070809C4
:101AF000007A030A00000000000000000102030455
:041B000006070809C3
:040000050800018965
:00000001FF
