:020000040800F2
:1000000090060020250F0008E1030008E303000824
:10001000E5030008E7030008E9030008000000000A
:10002000000000000000000000000000EB030008DA
:10003000ED03000800000000EF030008F1030008D2
:100040003F0F00083F0F00083F0F00083F0F000858
:100050003F0F00083F0F00083F0F00083F0F000848
:100060003F0F00083F0F00083F0F00083F0F000838
:100070003F0F00083F0F00083F0F00083F0F000828
:100080003F0F00083F0F00083F0F00083F0F000818
:100090003F0F00083F0F00083F0F00083F0F000808
:1000A0003F0F00083F0F00083F0F00083F0F0008F8
:1000B0003F0F00083F0F00083F0F00083F0F0008E8
:1000C0003F0F00083F0F00083F0F00083F0F0008D8
:1000D0003F0F0008F50300083F0F00083F0F00081E
:1000E0003F0F00083F0F00083F0F00083F0F0008B8
:1000F0003F0F00083F0F00083F0F00083F0F0008A8
:100100003F0F00083F0F00083F0F00083F0F000897
:100110003F0F00083F0F00083F0F00083F0F000887
:100120003F0F00083F0F00083F0F00083F0F000877
:100130003F0F00083F0F00083F0F00083F0F000867
:100140003F0F00083F0F00083F0F00083F0F000857
:100150003F0F00083F0F00083F0F00083F0F000847
:100160003F0F00083F0F00083F0F00083F0F000837
:100170003F0F00083F0F00083F0F00083F0F000827
:100180003F0F00083F0F000800F002F800F041F8B0
:100190000AA090E8000C82448344AAF10107DA45E2
:1001A00001D100F036F8AFF2090EBAE80F0013F0F3
:1001B000010F18BFFB1A43F001031847D4280000B1
:1001C000F4280000103A24BF78C878C1FAD8520742
:1001D00024BF30C830C144BF04680C6070470000C1
:1001E0000023002400250026103A28BF78C1FBD840
:1001F000520728BF30C148BF0B607047632901F028
:100200003286002070471FB501F09AFE1FBD10B561
:1002100010BD01F063FE1146FFF7F5FF00F00DF889
:1002200001F081FE03B4FFF7F2FF03BC00F0C2F857
:1002300000E0401E0028FCD1704708B500F092FA9B
:1002400040F2FF763C210C231CA20846009600F0E9
:100250003EFC0C2320A250213C20009600F037FCED
:1002600000243C2505EB041264233146204600F0AF
:100270005DFC641CE4B2072CF4D34FF6FF700090D1
:10028000B42378229621502000F013FD4FF6E0733E
:100290001422D221782000F04DFD4FF61F003223AA
:1002A00000901A46FA21642000F0ECFD32231A4631
:1002B000DC211E20009600F086FDFEE74350553AF3
:1002C00053544D3332463430355247543620202073
:1002D00020202020202020007777772E5761766518
:1002E00053686172652E6E657420202020202020C6
:1002F0002020200070B586B00121042001F0A2F872
:100300000121880401F0C6F8324C07220A21204658
:1003100000F054FF07220B21204600F04FFF20156C
:10032000009002208DF8040000248DF806408DF81E
:100330000500294E01258DF807506946304600F02A
:10034000C9FEE80200908DF806508DF80740694616
:10035000304600F0BFFE4FF4E130ADF80C400290A3
:10036000ADF80E40ADF81040ADF814400C201B4C19
:10037000ADF8120002A9204601F063F9012240F213
:100380002551204601F06DFA0121204601F0CAF9FD
:1003900006B070BD08B527208DF8000000208DF84C
:1003A00001008DF8020001208DF80300684600F07E
:1003B000DEFD08BD704770B5084D0446C1B2284641
:1003C00001F0D6F94021284601F063FA0028F9D05F
:1003D000204670BD00080240000002400048004076
:1003E0007047FEE7FEE7FEE7FEE77047704770479D
:1003F00000F066B810B5094C40F22551204601F0D6
:1004000052FA002808D0204601F0B6F90146BDE8AE
:10041000104003A001F0B0BC10BD00000048004037
:100420000A0D5553415254204879706572746572B3
:100430006D696E616C20496E74657272757074734B
:100440002052656365697665206120776F72643A32
:100450002025630A0D000000B0F1807F01D3012048
:10046000704720F07F414FF0E020491E4161184A5B
:10047000F02182F8141D0021816107210161002013
:10048000704710B5044642F22830FFF7E5FF6FF0E1
:10049000040000F0ADFD0F490C6008680028FCD195
:1004A00010BD10B504465A20FFF7D6FF6FF00400C8
:1004B00000F09EFD07490C6008680028FCD110BDC3
:1004C00004480168002902D00168491E0160704794
:1004D0000FE000E0040000202DE9F04188B0012188
:1004E000032000F0AFFF0121080300F0D3FFFF4F0E
:1004F00005220321384600F061FEDFF8F48305226F
:100500000621404600F05AFE05220721404600F031
:1005100055FE02258DF80450002408208DF8064071
:10052000012600908DF807608DF805506946384621
:1005300000F0D0FD8DF80450C0208DF806400090EA
:100540008DF807608DF805506946404600F0C2FD01
:10055000E84D284601F0D8F92820ADF81400ADF890
:1005600008404FF48270ADF80A00ADF810406815ED
:10057000ADF80E40ADF81200ADF80C40ADF81640E5
:1005800002A9284601F0E4F90121284601F06FFA9A
:1005900008B0BDE8F08170B506460024D54D03E0F3
:1005A000641CE4B2C82C0FD80221284601F0F2FAEC
:1005B0000028F5D03146284601F0BFFA002405E0B6
:1005C000641CE4B2C82C01D9002070BD012128466A
:1005D00001F0E0FA0028F3D0284601F0ACFAC4B2EA
:1005E0008021284601F0D6FA0028F9D1204670BDB6
:1005F00070B5BE4C05464FF4807200291146204666
:1006000002D000F0CCFD01E000F0CBFD80212046BF
:1006100000F0C7FD2846FFF7BEFF2046BDE870404A
:10062000802100F0BCBD70B5B04D04464FF4807120
:10063000284600F0B4FD8021284600F0B2FD200AD3
:10064000FFF7A9FFE0B2FFF7A6FF2846BDE870401C
:10065000802100F0A4BD10B50C460021FFF7C8FFB3
:100660002046BDE810400121C2E72DE9FC410121EF
:10067000022000F0E7FE01254FF471708DF8045060
:1006800002269A4F00908DF8056000248DF80640F0
:100690006946384600F01EFD8DF8044010208DF8A4
:1006A000056000908DF806408DF807506946384681
:1006B00000F010FDBDE8FC8141F2883103E0491EE5
:1006C0000229FCD8401E0228FAD870472DE9F041D3
:1006D00005464FF4963600212A20FFF789FF0121B5
:1006E0000020FFF785FF01210020FFF781FF012196
:1006F0000020FFF77DFF0121EF20FFF779FF0021A8
:100700002B20FFF775FF01210020FFF771FF01216A
:100710000020FFF76DFF01210846FFF769FF012167
:100720003F20FFF765FF00212C20FFF761FF6F4F8F
:100730008021384600F035FDB915384600F02FFD10
:1007400000244FEA15284046FFF725FFE8B2FFF7DF
:1007500022FF641CB442F6D33846BDE8F041802144
:1007600000F01DBD10B5FFF780FF604C042120464E
:1007700000F015FDFFF7B0FE8021204600F00FFDD0
:100780004021204600F00BFD0421204600F007FD2B
:100790000520FFF791FF0421204600F002FD05200F
:1007A000FFF78AFF0421204600F0F9FC0520FFF73F
:1007B00083FF8021204600F0F2FC00211120FFF78A
:1007C00017FF0A20FFF778FF00213620FFF743FFCD
:1007D00005213A20FFF73FFF0021B220FFF708FF75
:1007E00001210C20FFF704FF01210C20FFF700FF7F
:1007F00001210020FFF7FCFE01213320FFF7F8FE66
:1008000001213320FFF7F4FE3521B720FFF723FF46
:100810002821BB20FFF71FFF3C21C020FFF71BFF53
:100820000121C220FFF717FF0B21C320FFF713FFA1
:100830002021C420FFF70FFF0F21C620FFF70BFF79
:100840000021D020FFF7D4FE0121A420FFF7D0FE25
:100850000121A120FFF7CCFE0021E020FFF7C8FE18
:100860000121D020FFF7C4FE01210846FFF7C0FE9A
:1008700001210820FFF7BCFE01210F20FFF7B8FE81
:1008800001211120FFF7B4FE01212A20FFF7B0FE5D
:1008900001213620FFF7ACFE01215520FFF7A8FE0D
:1008A00001214420FFF7A4FE01213A20FFF7A0FE1A
:1008B00001210B20FFF79CFE01210620FFF798FE87
:1008C00001211120FFF794FE01212020FFF790FE67
:1008D0000021E120FFF78CFE0121D020FFF788FEE8
:1008E00001210220FFF784FE012105E000040240FF
:1008F00000000240003001400720FFF779FE01218F
:100900000A20FFF775FE01210B20FFF771FE012180
:100910001820FFF76DFE01213420FFF769FE012149
:100920004320FFF765FE01214A20FFF761FE012108
:100930002B20FFF75DFE01211B20FFF759FE01214F
:100940001C20FFF755FE01212220FFF751FE012157
:100950001F20FFF74DFE00212920FFF749FEFF2150
:100960005120FFF778FEB0215520FFF774FEBDE857
:1009700010400020AAE670B50C460546F0281BD2B0
:10098000B4F5A07F18D200212A20FFF731FE012103
:100990000020FFF72DFEE8B20121FFF729FE00211C
:1009A0002B20FFF725FE200A0121FFF721FEE0B2F0
:1009B000BDE8704001211BE670BD10B51446F0285B
:1009C0000CD2B1F5A07F09D2FFF7D5FF00212C2072
:1009D000FFF70EFE2046BDE8104024E610BD2DE9CD
:1009E000F05F984693460C4681468A46F0286CD2C2
:1009F000B4F5A07F69D200212A20FFF7F9FD01217B
:100A00000020FFF7F5FD09F0FF000121FFF7F0FDE1
:100A10004FEA19200121FFF7EBFD09F0FF0001214A
:100A2000FFF7E6FD00212B20FFF7E2FD260A01215A
:100A30003046FFF7DDFDE0B20121FFF7D9FD0121CE
:100A40003046FFF7D5FDE0B20121FFF7D1FD0021CF
:100A50002C20FFF7CDFD002635E0B8F10C0F03D0B8
:100A6000B8F1100F0BD012E0FE490BEB4B0001EB7D
:100A700080003044A0F5805090F8805E07E0FA498D
:100A800001EB0B103044A0F5805090F8005E002779
:100A9000280604D5214648460A9AFFF78EFF641CB3
:100AA0006806A4B2050EA4EB0A01414505D109F17F
:100AB000010054461FFA80F903E07F1CFFB2082FA3
:100AC000E6D3761CF6B24645C7D3BDE8F09F2DE9C4
:100AD000F84F1F46DDF828A016460C460546F028BC
:100AE00022D2B4F5A07F1FD2F020A0EB5709C7F5A2
:100AF000A0783078002817D0A94508D2E019002541
:100B000084B2A04503D200242046FFF7DFFDCDF8D4
:100B100000A032783B4621462846FFF760FF05EBF0
:100B2000570085B2761CE4E7BDE8F88F2DE9F84F51
:100B30001C4690468B469946F02AF5D2B4F5A07F24
:100B4000F2D2CA49002501EB40100090475D002613
:100B5000A8F1100A38060CD55A460F2D02D22146AC
:100B6000404604E004F1080081B21FFA8AF0FFF762
:100B700024FF7806641C070EA4B2A4EB0900082821
:100B800009D0761CF6B2082EE4D36D1CEDB2202DF0
:100B9000CAD20098DAE708F101004C461FFA80F843
:100BA000F3E7C1E72DE9F04715460E46044692B239
:100BB00089B280B2FFF701FF05F101091FFA89F23E
:100BC000B1B2A0B2FFF7F9FEA5F101081FFA88F251
:100BD000B1B2A0B2FFF7F1FE771CAAB2B9B2A0B2CF
:100BE000FFF7EBFE1FFA89F2B9B2A0B2FFF7E5FEFC
:100BF0001FFA88F2B9B2A0B2FFF7DFFE761EAAB2E2
:100C0000B1B2A0B2FFF7D9FE1FFA89F2B1B2A0B219
:100C1000FFF7D3FE1FFA88F2B1B2A0B2BDE8F047E9
:100C2000CBE62DE9FF4F81B01D46DDE90EB99246B6
:100C300006464FF00008F02838D20298B0F5A07FA1
:100C400034D200244FEA5B072EE0281B401E0A2204
:100C5000C0B2012100E05143401EC0B2FBD2BAFB3A
:100C6000F1F00A21B0FBF1F201FB1200B8F1000F24
:100C700005D1691E8C4202DA50B14FF001083030C4
:100C8000C2B207FB046080B25B46CDF8009006E07C
:100C900007FB046080B25B462022CDF800900299E9
:100CA000FFF79DFE641CE4B2AC42CED305B0BDE8B4
:100CB000F08F2DE9F84F06460D4699469246971B50
:100CC000A3EB050000D57F424FF0FF31564501D21E
:100CD000012200E00A460092002800DA4042C0F1FA
:100CE00000084D4500D201218B4607EB0804F02E89
:100CF0001FD24FF4A0718D421BD2BAF1F00F18D25F
:100D0000894516D2294630460A9AFFF756FE6000FA
:100D1000404505DB56450CD00099444431448EB221
:100D2000B842EFDC4D4504D005EB0B003C4485B2E6
:100D3000E8E7F9E62DE9FF5F8046544202200025EE
:100D40000F4600EB4406B8F1F00F3AD2B7F5A07F9A
:100D500037D207EB0509A8EB040B1FFA89F11FFA3C
:100D60008BF0039AFFF729FE08EB040A1FFA89F1BA
:100D70001FFA8AF0039AFFF720FEA7EB05091FFA76
:100D800089F11FFA8AF0039AFFF717FE1FFA89F11B
:100D90001FFA8BF0039AFFF710FE3046AE4208DCD4
:100DA0006D1C00EB4506761CEC4202D1A04200DC33
:100DB0000020A04203DD641C06EB4406761C002CD8
:100DC000C7DDBDE8FF9F2DE9F05F9A46DDF828B04A
:100DD000914688460746F02816D2B8F5A07F13D270
:100DE00000250FE0002408EB050607E03819B1B232
:100DF00080B25A46FFF7E1FD641CA4B24C45F5D31E
:100E00006D1CADB25545EDD35FE62DE9F0410646C8
:100E100088181F46B0F59F7F01D940F23F1085B278
:100E2000F02E0DD2B1F5A07F0AD20C4606E03A466C
:100E300021463046FFF7C1FD641CA4B2AC42F6D394
:100E4000BDE8F0812DE9F0410E4681181F46EF29DB
:100E500000D3EF218DB2F028F2D2B6F5A07FEFD209
:100E600004460CE04A1F0008BE230008AE29000813
:100E70003A4631462046FFF7A0FD641CA4B2AC42BE
:100E8000F6D3DDE72DE9F0411D46DDF81880174661
:100E90000C460646F028D3D2B4F5A07FD0D2434604
:100EA000FFF7D0FF601981B243463A463046FFF75C
:100EB000C9FF43462A4621463046FFF7A6FF6D1C70
:100EC000F019AAB243462146BDE8F04180B29CE742
:100ED000B6E72DE9F05F83460A9891468846F02BE5
:100EE0001FD2B0F5A07F1CD20025A3EB0807A0EB12
:100EF000090000F1010A7F1C11E0002409EB05063E
:100F000009E008EB04001FFA8BF2B1B280B2FFF7E0
:100F100054FD641CA4B2A742F3D86D1CADB2AA451F
:100F2000EBD8D2E50948804709480047FEE7FEE7CD
:100F3000FEE7FEE7FEE7FEE7FEE7FEE7FEE7FEE789
:100F400004480549054A064B704700009B1C0008F1
:100F500089010008900000209006002090020020E7
:100F6000900200202849084328490860704730B59E
:100F70000F23C27801780125FAB1244A126801F1E1
:100F8000E02102F4E062C2F5E062C2F30722C2F19E
:100F90000404D3404278A24084781C4014432201C8
:100FA00081F80024007800F01F018D404009800086
:100FB00000F1E020C0F8005130BD01F01F00854075
:100FC0004809800000F1E020C0F8805130BD104A8F
:100FD000114001430D48001F016070470B4A121D6C
:100FE0000029116801D0014300E08143116070477E
:100FF0004FF0E0210428086903D020F004000861C4
:10100000704740F00400FAE70000FA050CED00E03C
:1010100080FFFF1F714910B5884206D101210846A3
:1010200000F042FA002101204FE06D49884206D1CC
:101030000121022000F038FA0021022045E0694930
:10104000884206D10121042000F02EFA002104205C
:101050003BE06549884206D10121082000F024FACE
:101060000021082031E06149884206D10121102089
:1010700000F01AFA0021102027E05D49884206D1CD
:101080000121202000F010FA002120201DE0594904
:10109000884206D10121402000F006FA00214020BC
:1010A00013E05549884206D10121802000F0FCF967
:1010B0000021802009E0514988420AD1841501218C
:1010C000204600F0F1F900212046BDE8104000F074
:1010D000EBB910BDF0B5002201274FF0030C0B68EF
:1010E00007FA02F52B40AB422CD1066853000CFAEC
:1010F00003F4A64306600E79D0F800E09E4046EA6D
:101100000E0606600E79012E01D0022E12D18668DD
:10111000A64386604E79D0F808E09E4046EA0E0667
:1011200086604668AE43466045688E799640B6B2A2
:1011300035434560C568A543C560CC799C40C3680C
:101140001C43C460521C102AC9D3F0BD4FF6FF7176
:1011500001600021017141718171C171704708B551
:1011600041F480320092C261C1610099C161C169DC
:10117000C069009008BD0246002012690A4200D0F2
:1011800001207047006980B2704702460020526912
:101190000A4200D001207047406980B27047018345
:1011A0007047418370470AB101837047418370479C
:1011B0004161704742694A40426170474B07DB0E0C
:1011C0009A40C90810B500EB8100016A0F249C40C9
:1011D000A1430162016A1143016210BD0000024097
:1011E0000004024000080240000C024000100240CF
:1011F0000014024000180240001C0240002002407F
:10120000EA48016841F001010160E84A0021083222
:1012100011600268E64B1A400260031DE54A1A603D
:10122000026822F480220260E0480C3001607047BE
:10123000DE490022891C0A700870704702460020AF
:10124000510901290CD002290CD0D8497431096800
:1012500002F01F02012393400B4200D0012070478F
:10126000D249F4E7D1497031F1E718B500204FF4C5
:10127000A06400903120FFF7E1FF0099491C009124
:10128000A14201D00028F5D03120FFF7D7FF002878
:1012900000D0012018BDC54A116821F0F80141EACB
:1012A000C00010607047C44908607047BF49002201
:1012B00070310A700A70012802D0042801D105207B
:1012C00008707047BD490860704741EA82115A08AA
:1012D00010B5BB4B029C03EB02421143014341EAB0
:1012E0000460B249091D086010BDB3490866704723
:1012F000800140EA0170AD49843108607047AE4911
:1013000088667047AC49C8647047A84B08331A68B0
:10131000084322F0EC62104318607047A34B083377
:101320001A68084322F078421043186070479F4AB9
:101330000832116821F003010143116070479B4896
:101340000830006800F00C007047984A08321168B5
:1013500021F0F001014311607047944A083211688E
:1013600021F4E051014311607047904A083211683E
:1013700021F4604141EAC0001060704770B58B4BAA
:10138000083319688F4C11F00C0104D06610042941
:1013900003D0082903D004601BE0066019E0834AEB
:1013A000121D1168C1F38055116801F03F0115B19C
:1013B000B6FBF1F101E0B4FBF1F114681268C4F37B
:1013C00088146143C2F30142521C5200B1FBF2F196
:1013D000016019680F2202EA11117B4A545C01680E
:1013E000E14041601C68072505EA9424145D21FA58
:1013F00004F484601B6805EA5333D25CD140C160B9
:1014000070BDC0F30121032908D1684B0833196866
:101410006E4A21F4F81102400A431A6063497031A0
:101420000A68C0F30B0002430A60704763494439FD
:101430000860704761494039086070475E49C1F8EB
:101440005C017047594A30320029116801D00143CC
:1014500000E0814311607047544A3432002911681A
:1014600001D0014300E08143116070474F4A383298
:101470000029116801D0014300E0814311607047E9
:101480004A4A40320029116801D0014300E08143FB
:1014900011607047454A44320029116801D0014368
:1014A00000E0814311607047404A10320029116802
:1014B00001D0014300E08143116070473B4A143280
:1014C0000029116801D0014300E081431160704799
:1014D000364A18320029116801D0014300E08143E7
:1014E00011607047314A20320029116801D0014350
:1014F00000E08143116070472C4A243200291168B2
:1015000001D0014300E0814311607047274A503207
:101510000029116801D0014300E081431160704748
:10152000224A54320029116801D0014300E081436E
:10153000116070471D4A58320029116801D00143DB
:1015400000E0814311607047184A60320029116839
:1015500001D0014300E0814311607047134A6432B7
:101560000029116801D0014300E0814311607047F8
:101570000E4A0D320029117801D0014300E0814369
:101580001170704709487430016841F08071016042
:1015900070470146054A00200C3212680A4200D00A
:1015A0000120704701490E31087070470038024031
:1015B000FFFFF6FE1030002400004742800E474235
:1015C0000000FFFF0024F40008000020FFFCFF0FD4
:1015D000C74910B5884206D101211020FFF78CFFC2
:1015E0000021102028E0C349884202D101214C0487
:1015F00010E0C149884202D101218C040AE0BF49B0
:10160000884202D10121CC0404E0BD4988420AD1BC
:1016100001210C052046FFF765FF2046BDE810407C
:101620000021FFF75FBFB749884209D1012120207F
:10163000FFF762FF00212020BDE81040FFF75CBFEC
:1016400010BD7FB50446008A0D46C98820F440507D
:1016500001432182A08941F20C618843A9882A892B
:1016600011436A8902431143A181A08A20F4407189
:10167000A8890843A0826846FFF780FE9C48844200
:1016800002D0A048844201D1039800E00298A189C9
:10169000090400EBC00101EB0010296801D54900E5
:1016A00000E08900B0FBF1F06422B0FBF2F1090127
:1016B0000B096FF018056B4300EB8300A3891D0431
:1016C0004FF0320306D503EBC000B0FBF2F000F0A0
:1016D000070005E003EB0010B0FBF2F000F00F0094
:1016E000084320817FBD4FF41651016000218180A5
:1016F000C18001810C2242818181704710B5028A2C
:101700004C8822F470630A8822438C88C9880C4371
:1017100022431A43028210BD002101804180818052
:10172000C18070470029818902D041F4005101E055
:1017300021F4005181817047028B02F47F420283C1
:10174000028B0A43028370470029818902D041F449
:10175000004101E0C1F30E01818170470029818AB7
:1017600002D041F4006101E021F400618182704700
:10177000C1F30801818070478088C0F3080070477A
:10178000028A22F00F020282028A0A430282704712
:101790000029818902D041F0020101E021F002011B
:1017A00081817047828922F40062828182890A43A2
:1017B00082817047028A22F020020282028A0A4352
:1017C000028270470029018A02D041F4804101E081
:1017D00021F4804101827047818941F001018181BA
:1017E00070470029818A02D041F0080101E021F010
:1017F000080181827047028BD2B20283028B42EAD7
:101800000121018370470029818A02D041F0200123
:1018100001E021F02001818270470029818A02D0F5
:1018200041F0100101E021F0100181827047828AAD
:1018300022F004028282828A0A438282704700294F
:10184000818A02D041F0020101E021F0020181828F
:101850007047002A828A01D00A4300E08A438282CC
:10186000704710B5C1F3421301F01F040121A140DC
:10187000012B07D0022B07D01430002A026805D0B4
:101880000A4304E00C30F8E71030F6E78A430260C0
:1018900010BD0246002012880A4200D00120704785
:1018A000C9430180704770B501F01F05012600246F
:1018B000C1F3421306FA05F2012B0FD0022B0FD011
:1018C000838A4FEA11210088134206FA01F600EAE2
:1018D000060001D000B10124204670BD8389F0E7E5
:1018E000038AEEE70A0A01219140C943018070474B
:1018F000001001400044004000480040004C0040FF
:101900000050004000140140B64910B588420AD189
:10191000841401212046FFF7EFFD2046BDE810406A
:101920000021FFF7E9BDB049884202D1012104142A
:1019300004E0AE4988420AD10121C4132046FFF7D2
:10194000D1FD2046BDE810400021FFF7CBBD10BD02
:1019500030B502884C8802F441530A88CD8822436E
:101960008C882C4322430C8922434C8922438C8946
:101970002243CC8922431A430280828B22F40062E4
:101980008283098A018230BDF0B502220023858B53
:1019900001244FF24006354085830284858B8E6892
:1019A000022E38D08A8802B10224914A13681B02A1
:1019B00003D5136823F4000313608D4A7C32136847
:1019C0001268C3F388138A4EC2F30272361F366858
:1019D000884F06F03F06B7FBF6F65E43B6FBF2F221
:1019E000CB88B3F5007F2BD06301B2FBF3F202EB9F
:1019F00082028B685200B2FBF3F2521D92B20A23AC
:101A0000B2FBF3F202F00103D21A4FF6FF74C2F3F5
:101A10004F0204EA0323941EFE2C01D3022200236A
:101A2000CC881A43144304840A884B881A438B8851
:101A300089890B431A432A4342F400618183F0BD34
:101A4000120AD4E70021018041808180C180018198
:101A500041818181C181072101827047002101807C
:101A600041808180C180022282608181704700298B
:101A7000018802D041F0400101E021F040010180E5
:101A800070470029818B02D041F4806101E021F48C
:101A9000806181837047028822F40062028002889C
:101AA0000A4302807047B1F5804F018803D021F4CA
:101AB00080410180704741F48041FAE7A1F57E4200
:101AC0000188FF3A02D041F4807101E021F4807175
:101AD000018070470029818802D041F0040101E0B3
:101AE00021F00401818070470029818802D041F0F3
:101AF000100101E021F010018180704730B5828B28
:101B000000234FF240042240828302220284848B0D
:101B10000A884FF48075B2F5007F00D002B92B46D9
:101B20004A888D8889892A4319430A43224342F40B
:101B30000061818330BD80897047818170470029B1
:101B4000018802D041F4005101E021F400510180EC
:101B50007047018841F4805101807047012901D00C
:101B6000008B7047808A7047008A7047002A8288FD
:101B700001D00A4300E08A438280704709090123AB
:101B80008B40002A828899B201D00A4300E08A4340
:101B9000828070470246002012890A4200D001204C
:101BA0007047C9430181704730B501F00F0301252B
:101BB000024605FA03F40020A3B2090905FA01F46C
:101BC0009188A4B2128921401A4202D0002900D083
:101BD000012030BD01F00F0201219140C943018174
:101BE000704700000030014000380040003C0040D9
:101BF0000838024000127A000CB5002254490092C5
:101C00000192086840F4803008604FF4A0630868CF
:101C100000F4003001900098401C0090019810B929
:101C200000989842F3D10868800334D501200190D0
:101C300047484030026842F08052026045480268DE
:101C400042F4804202604248083002680260026842
:101C500042F400420260026842F4A0520260031F94
:101C60003D4A1A600A6842F080720A600A6892016E
:101C7000FCD53A4940F205620A60016821F003018F
:101C80000160016841F0020101600168C1F3810156
:101C90000229FAD10CBD01920CBD314810B5016882
:101CA00041F4700101602A48016841F001010160BE
:101CB000274A00210832116002682A4B1A4002604C
:101CC000031D294A1A60026822F48022026020481B
:101CD0000C300160FFF790FF21494FF00060803920
:101CE000086010BD70B51A4D083528681F4B204993
:101CF00010F00C0004D05E10042803D0082803D094
:101D00000B601BE00E6019E0114A121D1068C0F351
:101D10008054106800F03F0014B1B6FBF0F001E011
:101D2000B3FBF0F013681268C3F388135843C2F38F
:101D30000142521C5200B0FBF2F0086028680C4AC5
:101D4000C0F30310121D105C0A68C2400A6070BD27
:101D5000003802400070004008544007003C024038
:101D600088ED00E0FFFFF6FE103000240024F400B0
:101D700018000020704700000FB4044910B503AAF2
:101D8000029800F07DF810BC5DF814FB0000002004
:101D90002DE9F0410E460446002020622046E1680D
:101DA000884730B3252805D0D4E901219047206A1F
:101DB000401CF2E7E168204600278847050018D05C
:101DC000A5F14100192802D820354FF400673246AA
:101DD000294620462760FEF711FA40B1012804D0B9
:101DE000F61D26F007060836D8E7361DD6E7284642
:101DF000DAE7206ABDE8F08170B50C460546012A95
:101E000005D02878800600D5EA69002302E0012386
:101E100005E05B1C934202D2E05C0028F9D1A8697E
:101E2000E618C01AA861286A184428622846AFF349
:101E3000008004E0D5E9012114F8010B9047B44279
:101E4000F8D32846AFF3008070BD704770477047E5
:101E5000704710B5436913B1AFF3008001E0FFF79D
:101E6000CBFF012010BD127800F124010A7000227E
:101E70004A700122EDE711684FF0FF32E9E70000F8
:101E8000074B70B50D467B4400F011F80446284618
:101E900000F020F810B14FF0FF3070BD204670BD4B
:101EA0002DE5FFFF01694A1C02610878704700B503
:101EB0008FB0CDE901310021059105497944CDE983
:101EC000031011466846FFF763FF0FB000BD000026
:101ED000E5FFFFFF007B00F080007047754600F0D3
:101EE0002BF8AE4605006946534620F007008546AC
:101EF00018B020B5FFF724F8BDE820404FF00006E9
:101F00004FF000074FF000084FF0000B21F00701E1
:101F1000AC46ACE8C009ACE8C009ACE8C009ACE824
:101F2000C0098D46704710B50446AFF300802046C7
:101F3000BDE81040FEF776B9004870472C0000203D
:101F40004FF04070E1EE100A704700000000000002
:101F5000000000000000000000003F400000000002
:101F60000000000030004000300040000000090088
:101F70000BC03D000BC03D00090018C024407FE0AD
:101F8000224031800000180024C01B000D80324028
:101F9000018003801C4027401C8007400040100047
:101FA00060000000000000000000000000000000D1
:101FB0001F80204040200000402020401F80000063
:101FC0000000090006001F80060009000000040050
:101FD00004003F80040004000000001000600000C6
:101FE00000000000000004000400040004000400DD
:101FF0000000000000400000000000000000002081
:1020000001C006003800400000001F802040204032
:1020100020401F800000000010403FC00040000032
:10202000000018C0214022402440184000001080C9
:102030002040244024401B80000002000D001100BD
:102040003FC0014000003C802440244024402380C5
:1020500000001F80244024403440038000003000F2
:10206000200027C03800200000001B8024402440AE
:1020700024401B8000001C0022C0224022401F8000
:102080000000000000000840000000000000000008
:1020900000000460000000000000000004000A00CE
:1020A00011002080404009000900090009000900D2
:1020B000000000004040208011000A0004001800C9
:1020C000200023402400180000001F8020402740EB
:1020D00029401F400000004007C039000F0001C028
:1020E000004020403FC0244024401B8000001F804F
:1020F0002040204020403080000020403FC0204051
:1021000020401F80000020403FC024402E4030C0AF
:10211000000020403FC024402E00300000000F008F
:102120001080204022403380020020403FC0040045
:1021300004003FC02040204020403FC020402040BD
:1021400000000060202020203FC020002000204010
:102150003FC024400B0030C0204020403FC0204002
:102160000040004000C03FC03C0003C03C003FC0F6
:10217000000020403FC00C4023003FC020001F80D3
:102180002040204020401F80000020403FC02440CD
:102190002400180000001F802140214020E01FA0E3
:1021A000000020403FC02440260019C0004018C055
:1021B00024402440224031800000300020403FC0B5
:1021C00020403000000020003F80004000403F8061
:1021D000200020003E0001C0070038002000380029
:1021E00007C03C0007C038000000204039C006008E
:1021F00039C0204000002000384007C0384020008F
:102200000000304021C02640384020C000000000BF
:1022100000007FE0402040200000000070000C0023
:102220000380004000000000402040207FE00000CC
:10223000000000002000400020000000000000100E
:1022400000100010001000100010000000004000FE
:10225000000000000000000002800540054003C0AF
:10226000004020003FC00440044003800000000004
:102270000380044004400640000000000380044046
:1022800024403FC00040000003800540054003405B
:102290000000000004401FC0244024402000000033
:1022A00002E0055005500650042020403FC0044085
:1022B000040003C000400000044027C000400000AC
:1022C000000000100010041027E000000000204073
:1022D0003FC00140070004C00440204020403FC0F0
:1022E00000400040000007C0040007C0040003C015
:1022F0000000044007C00440040003C00040000088
:1023000003800440044003800000041007F00450E0
:10231000044003800000000003800440045007F0E4
:102320000010044007C00240040004000000000048
:1023300006400540054004C00000000004001F8066
:10234000044000400000040007800040044007C033
:1023500000400400070004C00180060004000600DD
:1023600001C0070001C006000000044006C00100D3
:1023700006C0044000000410071004E001800600BD
:1023800004000000044005C00640044000000000B6
:10239000000004007BE0402000000000000000007E
:1023A000FFF000000000000040207BE0040000007F
:1023B000000040008000400020002000400000009D
:1023C000000000000000000000000000000000000D
:1023D000000000001FCC000C000000000000000006
:1023E000080030006000080030006000000002209B
:1023F00003FC1E20022003FC1E200220000000001F
:102400000E1811043FFF10840C78000000000F002C
:1024100010840F3800C00778188400780000007816
:102420000F8410C411240E9800E4008400080800F2
:1024300068007000000000000000000000000000C4
:102440000000000007E0181820044002000000000F
:1024500040022004181807E00000000000000240BD
:10246000024001800FF00180024002400000008025
:10247000008000800FF800800080008000000001D4
:10248000000D000E00000000000000000000000031
:1024900000800080008000800080008000800000BC
:1024A000000C000C00000000000000000000000014
:1024B00000060018006001800600180020000000DF
:1024C00007F0080810041004080807F000000000D6
:1024D000080408041FFC00040004000000000000C1
:1024E0000E0C10141024104411840E0C0000000077
:1024F0000C1810041104110412880C700000000064
:1025000000E00320042408241FFC00240000000035
:102510001F9810841104110410881070000000002E
:1025200007F00888110411041888007000000000EA
:102530001C00100010FC13001C0010000000000024
:102540000E3811441084108411440E38000000002D
:102550000700088C10441044088807F000000000B1
:1025600000000000030C030C00000000000000004D
:102570000000000101060000000000000000000053
:10258000008001400220041008081004000002200E
:10259000022002200220022002200220000000006F
:1025A0001004080804100220014000800000000010
:1025B0000E001200100C106C10800F00000003E0E1
:1025C0000C1813E4142417C4082807D000000004D2
:1025D000003C03C41C40074000E4001C000410043D
:1025E0001FFC1104110411040E880070000003E0A8
:1025F0000C1810041004100410081C100000100423
:102600001FFC100410041004080807F00000100458
:102610001FFC1104110417C4100408180000100452
:102620001FFC1104110017C010000800000003E097
:102630000C181004100410441C7800400000100412
:102640001FFC10840080008010841FFC1004000018
:10265000100410041FFC100410040000000000030C
:102660000001100110011FFE1000100000001004F6
:102670001FFC110403801464181C100400001004D3
:102680001FFC1004000400040004000C00001004EF
:102690001FFC1F0000FC1F001FFC100400001004A2
:1026A0001FFC0C04030000E010181FFC100007F0D2
:1026B0000808100410041004080807F000001004B3
:1026C0001FFC10841080108010800F00000007F0A5
:1026D000081810241024101C080A07F20000100427
:1026E0001FFC1104110011C011300E0C0004000079
:1026F0000E1C11041084108410441C3800001800B3
:10270000100010041FFC100410001800000010003E
:102710001FF810040004000410041FF8100010003B
:102720001E0011E0001C007013801C0010001FC070
:10273000103C00E01F0000E0103C1FC0000010042F
:10274000180C163401C001C01634180C1004100007
:102750001C00130400FC13041C00100000000804FB
:10276000101C1064108413041C04101800000000D6
:10277000000000007FFE4002400240020000000016
:1027800030000C0003800060001C0003000000000B
:102790004002400240027FFE0000000000000000F6
:1027A0000000200040004000400020000000000128
:1027B0000001000100010001000100010001000012
:1027C0004000400020000000000000000000000069
:1027D0000098012401440144014400FC000410005D
:1027E0001FFC008801040104008800700000000044
:1027F000007000880104010401040088000000004A
:10280000007000880104010411081FFC000400008E
:1028100000F8014401440144014400C800000000E4
:10282000010401040FFC1104110411001800000040
:1028300000D601290129012901C90106000010045F
:102840001FFC008401000100010400FC00040000E2
:102850000104190419FC0004000400000000000039
:10286000000300010101190119FE0000000010041D
:102870001FFC0024004001B4010C01040000000012
:10288000100410041FFC00040004000000000104F8
:1028900001FC0104010001FC0104010000FC010431
:1028A00001FC008401000100010400FC00040000A0
:1028B00000F8010401040104010400F80000010112
:1028C00001FF008501040104008800700000000081
:1028D0000070008801040104010501FF00010104EA
:1028E000010401FC008401040100018000000000DB
:1028F00000CC0124012401240124019800000000DF
:102900000100010007F801040104000000000100BB
:1029100001F8000400040004010801FC00040100A7
:1029200001800170000C001001600180010001F0C5
:10293000010C003001C00030010C01F0010000006A
:102940000104018C00740170018C0104000001017C
:1029500001810171000E001801600180010000007A
:102960000184010C013401440184010C00000000C9
:1029700000000000000001003EFC40024002000098
:10298000000000000000FFFF000000000000000049
:10299000400240023EFC0100000000000000000078
:1029A00060008000800040004000200020000811EE
:1029B00023CC017909F90979041BE80F080080008C
:1029C000FF01027C40407C0811E618E60100083057
:1029D000A0AAAAAAA0FEA0AAAAAAA0283000000025
:1029E00082929292929292929292FF000000000044
:1029F0001F11111111FF111111111F000000000012
:102A0000F810101010FE11111111F9010F00014101
:102A100041414141414745495161410101000000A7
:102A20000000000201FE0000000000000000202461
:102A300022212639020CF01310101418000008107F
:102A400060804132041860806018040201000202B4
:102A5000423300003F2040003F20203F00000002A2
:102A600004F80402F2224202FE4222C202000408DA
:102A7000103FC40811E6202F20242A310000020C48
:102A800000EE0181114D21C1010700880600000000
:102A9000B02A0008000000202C000000C40100083B
:102AA000DC2A00082C00002064060000E001000879
:102AB000000000000000000000000000010203040C
:102AC0000102030406070809007A030A0000000057
:0C2AD000000000000102030406070809D2
:040000050800018965
:00000001FF
