:020000040800F2
:10000000C00602201D020008250200082702000881
:10001000290200082B0200082D0200080000000041
:100020000000000000000000000000002F02000897
:100030003102000800000000330200083502000809
:10004000370200081F0B00083702000837020008BB
:10005000370200083702000837020008370200089C
:10006000370200083702000837020008370200088C
:1000700095040008990400081D0500081F050008E4
:10008000370200083702000837020008370200086C
:10009000370200083702000837020008370200085C
:1000A000370200083702000837020008370200084C
:1000B0001D0E00083702000837020008370200084A
:1000C000370200083702000837020008370200082C
:1000D00037020008370200083702000851100008F4
:1000E000370200083702000837020008370200080C
:1000F00037020008370200083702000837020008FC
:1001000037020008370200083702000837020008EB
:1001100037020008370200083702000837020008DB
:1001200021050008370200083702000837020008DE
:1001300037020008370200083702000837020008BB
:1001400037020008370200083702000837020008AB
:10015000370200083702000837020008370200089B
:10016000370200083702000837020008370200088B
:10017000370200083702000837020008370200087B
:10018000370200083702000837020008370200086B
:10019000370200083702000800F002F800F02EF8DD
:1001A0000AA090E8000C82448344AAF10107DA45D2
:1001B00001D100F023F8AFF2090EBAE80F0013F0F6
:1001C000010F18BFFB1A43F0010318478CD8010038
:1001D0009CD801000023002400250026103A28BFE7
:1001E00078C1FBD8520728BF30C148BF0B607047A9
:1001F0001FB501F01CFB1FBD10B510BD00F058F875
:100200001146FFF7F5FF01F0FDF900F076F803B4B1
:10021000FFF7F2FF03BC00F07DF8000009488047BB
:1002200009480047FEE7FEE7FEE7FEE7FEE7FEE7D8
:10023000FEE7FEE7FEE7FEE704480549054A064BF0
:1002400070470000050D000899010008C0C2012098
:10025000C0060220C0020220C00202204FF00002AD
:1002600000B5134694469646203922BFA0E80C50AC
:10027000A0E80C50B1F12001BFF4F7AF090728BF87
:10028000A0E80C5048BF0CC05DF804EB890028BF03
:1002900040F8042B08BF704748BF20F8022B11F02C
:1002A000804F18BF00F8012B7047704770477047A8
:1002B000754600F02BF8AE4605006946534620F01F
:1002C0000700854618B020B5FFF7B6FFBDE820400F
:1002D0004FF000064FF000074FF000084FF0000B02
:1002E000AC46ACE8C009ACE8C009ACE8C009ACE871
:1002F000C00921F007018D46704710B50446AFF3E1
:1003000000802046BDE81040FFF781BF00487047DD
:100310000000002001491820ABBEFEE726000200C5
:100320007047002070477047B0B58CB0CB4C20466A
:1003300000F01EF94FF4804000250B904FF4405020
:100340000995CDE901550A904FF4806008904FF46B
:1003500080700790802006904020CDE90450102046
:10036000039001A9204600F095F900F0AAFB04488B
:100370000090684600F078FB764805700CB0B0BD80
:1003800038000301BFB54FF0C0500121012400F037
:10039000F3FB4FF480304FF4803500F0CDF94FF48B
:1003A00080508DF80E400295ADF80C0002A800F0C8
:1003B000C9F90648019001A800F056FB002000F0A2
:1003C000B7FB012000F0AEFBBFBD00BF010005017F
:1003D0001FB500200C4C6946ADF80C0001904FF49D
:1003E000165000904FF440200290204600F0C2FECC
:1003F000204640F22551012200F096FE20460121C0
:1004000000F0A8FE1FBD00BF0048004080B5FFF708
:10041000DFFFBDE8804000F01DBB0000B0B51B4C05
:1004200001200121A04704200121A047082001212B
:10043000A04710200121A04720200121A0474FF410
:1004400080500121A047124D4FF480400121A84760
:100450004FF480200121A8470120012100F080FBFA
:100460000220012100F07CFB4FF400600121A04735
:100470004FF0005000F06CFB4FF4A06000F062FB06
:10048000012001212A46BDE8B0401047910B000829
:10049000790B0008704700002DE9F0411B4D4FF427
:1004A000007005F57844214600F056F89F4E002173
:1004B0004FF00008304600F0E1F805F52050022129
:1004C000002200F0F3FB4FF46140CE4F7060104803
:1004D00001780131017007F56141F160017802296D
:1004E00009D180F800800B480121017028461021B5
:1004F00000F0EEF9F7600848214680F800804FF4DC
:100500000070BDE8F04100F029B800BF00080140CC
:10051000910000208F0000208E000020704770475F
:10052000B0B50B4C0021002504F1080000F0A6F83E
:100530000220214600F010F80220214600F00EF8BB
:1005400004480570406810B1BDE8B0400047B0BD38
:10055000000402407C0000204860704748607047FB
:10056000002A02680CBF22EA0101114301607047B2
:1005700001684FF6FE721140314A016000210160AE
:1005800041608160C1602D49904234D02D4A904233
:100590002AD0664A904236D02B4A904238D02B4A15
:1005A00090423AD02A4A90423CD02A4A90423ED0C9
:1005B000294A90421AD0294A90421AD0284A904299
:1005C0001BD0284A90421CD0274A90421ED0274A6E
:1005D000904220D0264A904222D0264A904224D0EF
:1005E000254A90420BD0704701F580614FF0704072
:1005F0001FE001F580610F201BE001F58061F02014
:1006000017E001F580614FF4706012E001F5806140
:100610004FF470400DE001F580614FF4702008E068
:1006200001F580614FF4700003E001F580614FF047
:1006300070600A6810430860704700BF0400024001
:100640000800024094040240440002405800024066
:100650006C00024080000240940002400804024006
:100660001C0402403004024044040240580402408A
:100670006C040240800402401C00024010B5026875
:100680004FF6FE73002942F0010408BF02EA03049A
:10069000046010BD2DE9F043026847F6F073D1E91C
:1006A0000258D1E90479D1E90646D1E900CE9A434E
:1006B0002A43D1E90853896A2A433A4342EA0902A4
:1006C000224332431A4311430160C0F80480C0F84A
:1006D00008C0C0F80CE0BDE8F083000010B58CB095
:1006E000124C2046FFF744FF00204FF44051CDE963
:1006F000090180210B90CDE90700CDE905014FF4F8
:100700006140049010200390D14802900848019065
:1007100001A92046FFF7BEFF00F0D3F9054800907D
:10072000684600F0A1F90CB010BD00BF30000240D7
:100730000C3001400D00020101490860704700BF04
:100740001404014010B582791549E2B102680B68C2
:1007500093430B604B6893434B6003790B431C68D6
:1007600022431A6002688B6893438B60CB68934383
:10077000CB60407910280ED1886810438860C86823
:100780001043C86010BD0279006811430A6822EA6C
:100790000000086010BD084301681143016010BDEE
:1007A000000401401448002101804160704700BFEF
:1007B00010B5114C207803281AD8DFE800F01B028E
:1007C000050900F059FF01E000F052FF60600FE002
:1007D0000A484FF461414FF4E132016008484FF498
:1007E000E131007841439A4800F022FF0120607017
:1007F0000020207010BD00BF840000209800002061
:1008000092000020BC0000202DE9F04F91F803B0C9
:100810000BF00F095FEACB6344BF8B7849EA030909
:1008200009880B0625D0824600F1100C00274FF0F6
:1008300001084FF00F0E00235AF8145B082B17D055
:1008400008FA03F60E4210D00EFA07F209FA07F47E
:10085000BBF1280F25EA020242EA0405544603D000
:10086000BBF1480F01D16446266004370133E5E748
:100870000560B1F5807F27D3466800F1140800F1C8
:10088000100C00274FF4807A4FF00F0E0024082C34
:1008900019D00AFA04F303EA01029A4210D10EFABF
:1008A00007F509FA07F2BBF1280F26EA050545EA24
:1008B0000206454603D0BBF1480F01D165462B60C7
:1008C00004370134E3E74660BDE8F08F41617047CB
:1008D00001617047B0B5164C054600F0FCF80028E1
:1008E000FBD02046294600F0F0F900F0F4F800288B
:1008F000FBD000F001F90128FBD0B0BDF8B50C4CDD
:100900000D46064600F0E7F80028FBD00027B74266
:1009100009D0E95D204600F0D8F900F0DCF80028A5
:10092000FBD00137F3E700F0E7F80128FBD0F8BD72
:100930000030014010B54548017A012904BF00216B
:1009400001728279C179914207D0044A8378147880
:10095000234302BF81710320107010BD840000206A
:1009600070B58AB0234C1120A0473620A047224EF4
:10097000A020B0473A20A0475520B0473320204D53
:1009800005218DF824001D48089008AAB220A84728
:10099000B720A0477520B047C320A0471620B04716
:1009A000D620A047A120B047BB20A0473B20B0479E
:1009B0001448049013A0D0E901128089CDE90512F2
:1009C000ADF81C0004AAE0200E21A84711480090B1
:1009D00010A0D0E901128089CDE90112ADF80C0018
:1009E0006A46E1200E21A8472120A0472920A047E0
:1009F0000AB070BD89150008611500080C0C0033A1
:100A0000B9150008F00B110E0D1936334B071414ED
:100A10002C2E0000F00D120B090332444839161633
:100A20002D30000009480021A0F80310704700BFD6
:100A3000B0B5064C064800254FF4E131C4F801502A
:100A4000FFF70CFCE560C4F80550B0BD8C00002039
:100A5000BC000020E0B50348019001A800F004F8B4
:100A60008CBD00BF2700010170B5C2781149A2B149
:100A7000114A0723126845788678047823EA1222FF
:100A80000F23D340C2F10402334005FA02F21A43A5
:100A90000B19120183F8002300E080310078012354
:100AA00000F01F02C0F3421003FA02F241F82020C6
:100AB00070BD00BF00E100E00CED00E010430860F5
:100AC0007047204602210122FFF74ABD2146ADF8BA
:100AD0000400304638472046022100F0EFB84FF4BA
:100AE00080512046FFF7F2BE1021FFF7EFBE2146EE
:100AF000ADF80400284638472046802100F0DEB8D3
:100B00000F464FF4805114468046FFF7DFBE02695E
:100B100022EA010101617047A52000F0CBBD00F081
:100B20007BFB000001490860704700BF10000E42C7
:100B300003490A6822F4387210430860704700BF06
:100B400000700040AE490A6822F4E062FFF7B6BFC9
:100B500002490A6822F00052FFF7B0BF2C10024091
:100B6000044A002911680CBF21EA00000843106004
:100B7000704700BF14100240044A002911680CBFDE
:100B800021EA000008431060704700BF1C100240BB
:100B9000044A002911680CBF21EA000008431060D4
:100BA000704700BF18100240B0B52249234B0C68B3
:100BB0000A68D203204A03D50D68AD0358BF1A4610
:100BC00040F20F2505EA944524016FF4F77458BFED
:100BD00002242C441A4D62430C6804F00C04082CC7
:100BE00008BF134603600C68C4F303142C5DE34094
:100BF00043600C68C4F302242C5D23FA04F484607F
:100C00000C68C4F3C2242C5D0EA523FA04F4C4605E
:100C10008C6A04F00F042C5DB3FBF4F343610DA365
:100C2000896AC1F3031133F81110B2FBF1F10161CC
:100C3000B0BD00BF0410024000093D0000127A0060
:100C40004818000801020406080A0C102020202081
:100C500020202020010002000400060008000A00F5
:100C60000C00100020004000800000010001000185
:100C700000010001028822F4006202800288114310
:100C800001807047002918BF0121028822F040022C
:100C900042EA811101807047002918BF01210288B2
:100CA00022F4005242EA413101807047002A8288D2
:100CB0000CBF22EA0101114381807047008908407E
:100CC00018BF0120704780897047818170470A886A
:100CD000038803F441531A434B881A438B881A4301
:100CE000CB881A430B891A434B891A438B891A43C1
:100CF000CB891A430280828B22F400628283098AA4
:100D000001827047BEB53D483E4B4FF41F04D0F8FA
:100D1000801041F47001C0F88010394951F8042C5A
:100D200042F0010241F8042C0A681A40364B0A606E
:100D300051F8042C1A4041F8042C51F8042C22F4E8
:100D4000802241F8042C314A0B68134002F540021E
:100D50000B6000238B62CB624C608C6944F0805442
:100D60008C612B4C256845F0010525608C6924F0C9
:100D700080548C61274C256845F0900525600293CE
:100D80008DF807300093236823F00703236023685E
:100D900043F0030323600B680B600B6843F40053BC
:100DA0000B600B6843F4A0630B600B681A400A6089
:100DB0000A680292029A0292174A029B1A4302920E
:100DC000029A0A6051F8042C42F0807241F8042C17
:100DD00051F8042C9201FBD50A6822F003020A6044
:100DE0000A6842F002020A600A6802F00C02082A4D
:100DF000FAD14FF000610160BEBD00BF08ED00E018
:100E00000410024000C0FFF8FFFFF6FEFFFF00F7EE
:100E10000C7000400020024000003C0880B54FF0FC
:100E20008040012100F035F860B14FF08040012191
:100E300000F00EF804480178013101700348017890
:100E40000131017080BD00BF900000208D000020A6
:100E5000FFF75DBE002A82890CBF22EA010111431F
:100E6000818170470185828270470268002922F0E3
:100E7000010218BF013202607047002918BF01212A
:100E8000B0F844206FF3DF3242EAC131A0F84410D9
:100E9000704702690A4018BF01228089084018BFC4
:100EA000012010407047000070B5026A644E22F0C5
:100EB000010202620A89036A23F002031A434B8883
:100EC00045681A430B88048BB04202D00C4EB042E6
:100ED0000DD18E8925F4407522F00C023543CE8960
:100EE00035434E8926F0040632438E88324324F07F
:100EF0007304456023430383C9888186026270BD01
:100F0000002C014070B54C4A046802F592339842B7
:100F100018BFB0F1804F35D14D8824F070042C43B8
:100F2000494E40F48065B54203D0CD8824F4407426
:100F30002C43046098428C8884850C88048507D0F3
:100F400002F59634A04203D001248482046806E0AE
:100F50000C7A048601248482984204680DD0B0F192
:100F6000804F0AD0354DA84207D0904205D0344D6D
:100F7000A84202D0334DA84212D14D7A75B144F443
:100F800000640DE02D4DA842C6D09042C4D02C4D37
:100F9000A842C1D02B4DA842BED0C1E724F40064C2
:100FA000B0F1804F07D0254DA84204D0254DA8426E
:100FB00001D090420ED18D7ACE7A24F44054002D87
:100FC00018BF04F58054002E18BF04F50054B0F18A
:100FD000804F04D0904202D0184DA84206D10D7B1C
:100FE00015B144F4804401E024F48044984218BFD1
:100FF000B0F1804F12D14B7B13B144F4004401E0B7
:1010000024F400440460B0F1804F436818BF90425C
:101010000FD1897B59B143F480730AE0074B9842A2
:10102000E9D0074B9842E6D09042E4D0EAE723F4B7
:101030008073436070BD00BF0008004000040040A2
:1010400000340140000C00400014004081867047CD
:10105000B0B52D4C2D4D08212046A847204604212F
:10106000A84720460221A84720462021A84780B350
:101070002046202100F04EF8204640F2255100F095
:101080004CF8204600F0C4F821498870C0B24A7874
:10109000AC2808BF002A17D0DAB10A78CB1C9854C4
:1010A000C878AC2816D10879032813D1501C0870D1
:1010B000C0B20F280DD3002004220880102A12D0BD
:1010C0008B5C01321844F9E7AC20C87040F2011083
:1010D0000880B0BD0020002208800F2AF9D08B18AC
:1010E0000132D870F9E70A7C83B2B2EB132F03D137
:1010F0004A7CC0B28242ECD0002000220F2AE8D005
:101100008B180132D870F9E70048004069110008D7
:1011100064000020C94301807047090A012202FAD5
:1011200001F1C9430180704710B501F01F0301248C
:1011300004FA03F3C1F342141421022C08BF102156
:10114000012C08BF0C21002A42580CBF9A431A43B5
:10115000425010BD002918BF0121828922F400529B
:1011600042EA4131818170470088084018BF012060
:101170007047000070B586B004460D46C8886E46BC
:10118000218A21F4405108434EF6F3112082A089B0
:101190000840A98808432989084369890843A08130
:1011A000A889A18A21F440710843A0823046FFF744
:1011B000FBFC1348844205D01248844202D01248F6
:1011C000844202D106F10C0001E006F1080000683B
:1011D00019210E4B484329688900B0FBF1F06421C6
:1011E000B0FBF1F202FB0300322303EB0010B0FB73
:1011F000F1F000F00F0040EA0210208106B070BD4F
:101200000038014000540140005001409CFFFF0F96
:1012100080886FF35F2070470648BFF34F8F064A00
:10122000016801F4E06111430160BFF34F8F00BF1B
:10123000FDE700BF0CED00E00400FA0580B5FFF704
:10124000EDF800F00FF900F053FA00F008F8FFF79E
:10125000DDF800F0E5FABDE88040FFF793B880B50F
:10126000FFF73CFABDE88040FFF75EB82DE9F84F84
:10127000FFF760FB764EF078062800F2D580DFE8B5
:1012800000F00413161E2A2E55003079002800F0B5
:10129000CF80022800F2CA80D848012100F5806082
:1012A000BDE8F84FFFF712BBD448782101E0D348DE
:1012B000002100F51050FFF7C9FE0320AFE0684998
:1012C000002030710A78012A40F0AC8005220870B5
:1012D000F270BDE8F88FFFF743FB05209FE0B07880
:1012E000002840F0A1800120C44CB070707988B90A
:1012F00050204FF4A0710022F02300F00DF92C20B3
:1013000000F042F920460821FFF7E2FA20461021BA
:10131000FFF7DCFA51480121FFF7B0F904F520503E
:1013200002210122BDE8F84FFFF7C0BC494F8B4CAA
:101330004FF0000B5FFA8BF5EF2D6DD8C5EB051064
:101340004FF4F07105F1020B01EB00184FEA0019A0
:1013500000201FFA80FA4FEA5A00EE28EAD80AEB7A
:1013600008000AEB090138587958C6E90410002032
:1013700004280CD006EB400101300A8AD30A0B8501
:10138000C2F3451302F01F020B840A83F0E7308B8F
:10139000718B728C738D0844B18B0844F18B0844B7
:1013A00081083183318C1144B28C1144F28C114488
:1013B0008A083284328D1A44B38D1A44F38D1A444C
:1013C000254B920803EAC101328541EAC22141EA74
:1013D0009000308200041CD0502052212A465B46E7
:1013E00000EB5A0001EB5A0100F096F82C2000F0B7
:1013F000CBF8307CA047707CA047307CA047707C45
:10140000A047307CA047707CA047307CA047707C10
:10141000A0470AF104009CE7002070700120F070E2
:10142000BDE8F88F307858B1BDE8F88F7B280DD82B
:101430007248012100F58060BDE8F84FFFF748BA17
:101440000620F07001203070BDE8F88F0420E6E738
:101450008C00002058180008E0FF1F0030000240F8
:10146000850000202DE9FC412948904D294F01902D
:1014700001AC28462146B847A5F580664FF4806840
:1014800021463046ADF80480B8474FF48050FFF74E
:101490002EFB28464FF48051FFF71AFA1020FFF771
:1014A00015FB30461021FFF713FA0820FFF70EFB5B
:1014B0000120FFF71CFB4FF480402146ADF80400EB
:1014C00004208DF807002846B8474FF40060FFF766
:1014D0000EFB4FF400502146ADF8040018208DF8A3
:1014E00007002846B8474FF40040FFF700FB2020D4
:1014F000FFF7ECFA8020FFF7E9FA28462146ADF81D
:101500000480B8474FF48070FFF7E0FABDE8FC8133
:1015100002000310090800082DE9F04107462A20BF
:10152000984615460E4600F02FF80C4C380AA04796
:10153000F8B2A047300AA047F0B2A0472B2000F035
:1015400023F8280AA047E8B2A0474FEA1820A0478E
:101550005FFA88F02146BDE8F041084761150008B0
:10156000B0B5264D044608212846FFF7B1F92846B4
:10157000FFF7BAFA2046FFF7ADF928461021BDE87B
:10158000B040FFF7A5B900BFB0B51C4C0546082117
:101590002046FFF79BF920461021FFF799F92046D6
:1015A000FFF7A2FA2846FFF795F920461021BDE87B
:1015B000B040FFF78DB900BF2DE9F0410F4D0E4649
:1015C0000746082190462846FFF780F90C4C28462C
:1015D0001021A0472846FFF787FA3846FFF77AF927
:1015E00028460821A04730464146FFF787F928469C
:1015F00010212246BDE8F041104700BF000801401D
:10160000D1080008FFF71AFEFFF712FAFFF7CAF831
:10161000FEF789FEFEF785FEFFF704FA0348002176
:101620000170FFF723FEFFF7C3F8FAE78E000020F2
:101630002DE9F04106461D48FFF762FA1C4D0320D4
:10164000A847C7F30740A847C7F30720A847F8B241
:10165000A8472CB1FFF760FA06F8010B013CF8E748
:1016600040464FF48051BDE8F041FFF731B900BF6B
:10167000A52000F01FB80000F8B50C4CFFF72FFABA
:101680000B4F9F20B847A520B8470546A520B8476F
:101690000646A520B847074620464FF48051FFF77D
:1016A00017F9300240EA05403844F8BD000C01400B
:1016B000B5160008B0B52C4C054620460221FFF7B0
:1016C000FDFA0028F9D020462946FFF7FEFA074D1B
:1016D00020460121FFF7F2FA18B9681C002D0546D3
:1016E000F6D12046FFF7EFFAC0B2B0BDB03CFFFF25
:1016F000F0B585B007201C4C6E460027ADF81000F1
:1017000017483146039704F5784502904FF40030AE
:101710000190144800902846FFF7D9FA2846002186
:10172000FFF7BAFA28460121FFF7ACFA2046314606
:10173000ADF80070FFF7CBFA20460121FFF7A2FABF
:1017400028460021FFF796FA204602210022FFF7E3
:10175000ADFA204601210022FFF7A8FA05B0F0BD3E
:101760000100000200C004010038004070B588B0DC
:10177000134D144C782000268DF81860CDE90460D4
:10178000286004A92046FFF7BDFB0F486946ADF865
:10179000046000904FF480700390022002906888EB
:1017A000ADF806002046FFF77FFB20460121FFF73A
:1017B0005CFB20460121FFF760FB08B070BD00BF55
:1017C00060000020002C014070000100FEB50020E8
:1017D000ADF80E00ADF808004FF0FA40CDF80A0061
:1017E00002A94FF08040FFF78DFB4FF080400121B0
:1017F0000122FFF737FB4FF0804001210122FFF764
:1018000029FB4FF080400121FFF72FFB0348019097
:1018100001A8FFF729F906B080BD00BF1C00000138
:1018200080B5FFF7A3FFBDE88040FFF7CFBFF1EE23
:10183000100A4FF6FF71C0F2C03120EA010040F0FB
:101840004070E1EE100A704700000000010203043E
:101850000102030406070809000000000000000060
:101860000000000000000000000000000000000078
:101870000000000000000000000000000000000068
:101880000000000000000000000000000000000058
:101890000000000000000000000000000000000048
:101CF0000000000000000000002000200020002064
:101D000000200020002000200020002000200020D3
:101D10000020002000200020000000000000000043
:101D200000000000000000000000000000000000B3
:101D300000000000000000000000000000000000A3
:101D40000000000000000000000000000000000093
:101D50000000000000000000000000000000000083
:101D60000000000000000000000000000000000073
:101D70000000000000000000000000000000000063
:101D80000000000000000000000000000000000053
:101D90000000000000000000000000000000000043
:101DA0000000000000000000000000000000000033
:101DB0000000000000000000000000000000000023
:101DC0000000000000000000000000000000000013
:101DD0000000000000000000000000000000000003
:101DE00000000000000000000000000000000000F3
:101DF00000000000000000000000000000000000E3
:101E000000000000000000000000000000000000D2
:101E100000000000000000000000000000000000C2
:101E200000000000000000000000000000000000B2
:101E300000000000000000000000000000000000A2
:101E40000000000000000000000000000000000092
:101E50000000000000000000000000000000000082
:101E60000000000000000000000000000000000072
:101E70000000000000000000000000000000000062
:101E80000000000000000000000000000000000052
:101E90000000000000000000000000000000000042
:101EA0000000000000000000000000000000000032
:101EB0000000000000000000000000000000000022
:101EC0000000000000000020002000200020002072
:101ED0000020002000200020002000200020002002
:101EE00000200020002000200020002000200020F2
:101EF00000200020002000200020002000200020E2
:101F00000020002000200020002000000000000031
:101F100000000000000000000000000000000000C1
:101F200000000000000000000000000000000000B1
:101F300000000000000000000000000000000000A1
:101F40000000000000000000000000000000000091
:101F50000000000000000000000000000000000081
:101F60000000000000000000000000000000000071
:101F70000000000000000000000000000000000061
:101F80000000000000000000000000000000000051
:101F90000000000000000000000000000000000041
:101FA0000000000000000000000000000000000031
:101FB0000000000000000000000000000000000021
:101FC0000000000000000000000000000000000011
:101FD0000000000000000000000000000000000001
:101FE00000000000000000000000000000000000F1
:101FF00000000000000000000000000000000000E1
:1020000000000000000000000000000000000000D0
:1020100000000000000000000000000000000000C0
:1020200000000000000000000000000000000000B0
:1020300000000000000000000000000000000000A0
:102040000000000000000000000000000000000090
:102050000000000000000000000000000000000080
:102060000000000000000000000000000000000070
:102070000000000000000000000000000000000060
:102080000000000000000000000000000000000050
:1020900000000000000000000000002000200020E0
:1020A0000020002000200020002000200020002030
:1020B00000200020002000200020084108410841A5
:1020C00008410841084108410841084108410841C8
:1020D0000841084108410020002000200020002085
:1020E00000200020002000200020002000200020F0
:1020F0000020002000200000000000000000000080
:1021000000000000000000000000000000000000CF
:1021100000000000000000000000000000000000BF
:1021200000000000000000000000000000000000AF
:10213000000000000000000000000000000000009F
:10214000000000000000000000000000000000008F
:10215000000000000000000000000000000000007F
:10216000000000000000000000000000000000006F
:10217000000000000000000000000000000000005F
:10218000000000000000000000000000000000004F
:10219000000000000000000000000000000000003F
:1021A000000000000000000000000000000000002F
:1021B000000000000000000000000000000000001F
:1021C000000000000000000000000000000000000F
:1021D00000000000000000000000000000000000FF
:1021E00000000000000000000000000000000000EF
:1021F00000000000000000000000000000000000DF
:1022000000000000000000000000000000000000CE
:1022100000000000000000000000000000000000BE
:1022200000000000000000000000000000000000AE
:10223000000000000000000000000000000000009E
:10224000000000000000000000000000000000008E
:10225000000000000000000000000000000000007E
:10226000000000000000000000000000000000006E
:10227000002000200020002000200020002000205E
:102280000020002000200841084108410841084181
:1022900008410841084108410841084108410841F6
:1022A00008410841084108410841084108410841E6
:1022B00008410841084108410841084108410841D6
:1022C0000841084108410841084100200020002041
:1022D00000200020002000200020002000200020FE
:1022E00000000000000000000000000000000000EE
:1022F00000000000000000000000000000000000DE
:1023000000000000000000000000000000000000CD
:1023100000000000000000000000000000000000BD
:1023200000000000000000000000000000000000AD
:10233000000000000000000000000000000000009D
:10234000000000000000000000000000000000008D
:10235000000000000000000000000000000000007D
:10236000000000000000000000000000000000006D
:10237000000000000000000000000000000000005D
:10238000000000000000000000000000000000004D
:10239000000000000000000000000000000000003D
:1023A000000000000000000000000000000000002D
:1023B000000000000000000000000000000000001D
:1023C000000000000000000000000000000000000D
:1023D00000000000000000000000000000000000FD
:1023E00000000000000000000000000000000000ED
:1023F00000000000000000000000000000000000DD
:1024000000000000000000000000000000000000CC
:1024100000000000000000000000000000000000BC
:1024200000000000000000000000000000000000AC
:10243000000000000000000000000000000000009C
:10244000000000000000000000000020002000202C
:102450000020002000200020002008410841084101
:1024600008410841084108410841086108610861C4
:1024700008610861086108610861088108810881B4
:102480000881088108810881088108810881088104
:102490000881088108810861086108610861086194
:1024A0000861086108610841084108410841084184
:1024B00008410841084100200020002000200020A1
:1024C00000200020002000000000000000000000AC
:1024D00000000000000000000000000000000000FC
:1024E00000000000000000000000000000000000EC
:1024F00000000000000000000000000000000000DC
:1025000000000000000000000000000000000000CB
:1025100000000000000000000000000000000000BB
:1025200000000000000000000000000000000000AB
:10253000000000000000000000000000000000009B
:10254000000000000000000000000000000000008B
:10255000000000000000000000000000000000007B
:10256000000000000000000000000000000000006B
:10257000000000000000000000000000000000005B
:10258000000000000000000000000000000000004B
:10259000000000000000000000000000000000003B
:1025A000000000000000000000000000000000002B
:1025B000000000000000000000000000000000001B
:1025C000000000000000000000000000000000000B
:1025D00000000000000000000000000000000000FB
:1025E00000000000000000000000000000000000EB
:1025F00000000000000000000000000000000000DB
:1026000000000000000000000000000000000000CA
:1026100000000000000000000000000000000000BA
:1026200000000020002000200020002000200020CA
:10263000002008410841084108410841086108613B
:102640000861086108610881088108810881108299
:1026500010A210A210A210A210A210C210C210C28A
:1026600010C210C210C210C210C210C210C210C2DA
:1026700010C210C210C210A210A210A210A210A26A
:102680001082088208810881088108610861086158
:1026900008610861084108410841084108410020DB
:1026A000002000200020002000200020002000004A
:1026B000000000000000000000000000000000001A
:1026C000000000000000000000000000000000000A
:1026D00000000000000000000000000000000000FA
:1026E00000000000000000000000000000000000EA
:1026F00000000000000000000000000000000000DA
:1027000000000000000000000000000000000000C9
:1027100000000000000000000000000000000000B9
:1027200000000000000000000000000000000000A9
:102730000000000000000000000000000000000099
:102740000000000000000000000000000000000089
:102750000000000000000000000000000000000079
:102760000000000000000000000000000000000069
:102770000000000000000000000000000000000059
:102780000000000000000000000000000000000049
:102790000000000000000000000000000000000039
:1027A0000000000000000000000000000000000029
:1027B0000000000000000000000000000000000019
:1027C0000000000000000000000000000000000009
:1027D00000000000000000000000000000000000F9
:1027E00000000000000000000000000000000000E9
:1027F0000000000000000000000000000020002099
:10280000002000200020002000200841084108414D
:102810000841084108610861086108810881108247
:10282000108210A210A210C210C210C210E210E258
:102830001102110211021122112211221142114220
:1028400011421143114311431143114311431143E9
:102850001142114211221122112211021102110200
:1028600010E210E210C210C210C210A210A2108218
:1028700010820881088108610861086108410841E7
:1028800008410841084100200020002000200020CD
:1028900000200020000000000000000000000000F8
:1028A0000000000000000000000000000000000028
:1028B0000000000000000000000000000000000018
:1028C0000000000000000000000000000000000008
:1028D00000000000000000000000000000000000F8
:1028E00000000000000000000000000000000000E8
:1028F00000000000000000000000000000000000D8
:1029000000000000000000000000000000000000C7
:1029100000000000000000000000000000000000B7
:1029200000000000000000000000000000000000A7
:102930000000000000000000000000000000000097
:102940000000000000000000000000000000000087
:102950000000000000000000000000000000000077
:102960000000000000000000000000000000000067
:102970000000000000000000000000000000000057
:102980000000000000000000000000000000000047
:102990000000000000000000000000000000000037
:1029A0000000000000000000000000000000000027
:1029B0000000000000000000000000000000000017
:1029C0000000000000000000000000000000000007
:1029D0000000000000000020002000200020002057
:1029E0000020084108410841084108610861086168
:1029F00008610881108210A210A210C210C210E259
:102A000010E2110211021122114219631983198374
:102A100019A319C319C319E31A031A031A031A23B2
:102A20001A231A231A231A431A431A231A231A237E
:102A30001A231A031A0319E319E319C319C311A3BB
:102A4000118311831163114211221102110210E24C
:102A500010E210C210C210A210A2108208810861F8
:102A600008610861086108410841084108410020E7
:102A700000200020002000200020000000000000B6
:102A80000000000000000000000000000000000046
:102A90000000000000000000000000000000000036
:102AA0000000000000000000000000000000000026
:102AB0000000000000000000000000000000000016
:102AC0000000000000000000000000000000000006
:102AD00000000000000000000000000000000000F6
:102AE00000000000000000000000000000000000E6
:102AF00000000000000000000000000000000000D6
:102B000000000000000000000000000000000000C5
:102B100000000000000000000000000000000000B5
:102B200000000000000000000000000000000000A5
:102B30000000000000000000000000000000000095
:102B40000000000000000000000000000000000085
:102B50000000000000000000000000000000000075
:102B60000000000000000000000000000000000065
:102B70000000000000000000000000000000000055
:102B80000000000000000000000000000000000045
:102B90000000000000000000000000000000000035
:102BA0000000000000000000000000000000000025
:102BB00000000020002000200020002008410841E3
:102BC000084108410861086108610881108210A26B
:102BD00010A210C210C210E2110211221142196299
:102BE000198319A319E31A031A231A431A631A83C0
:102BF0001AA31AC31AE31B031B231B231B431B43E8
:102C00001B631B631B641B841B841B641B641B648E
:102C10001B431B431B231B231B031AE31AC31AA3C7
:102C20001A831A631A431A231A0319E319A3118387
:102C3000116311431122110210E210C210C210A23E
:102C400010A21082088108610861086108410841EA
:102C50000841084100200020002000200020000042
:102C60000000000000000000000000000000000064
:102C70000000000000000000000000000000000054
:102C80000000000000000000000000000000000044
:102C90000000000000000000000000000000000034
:102CA0000000000000000000000000000000000024
:102CB0000000000000000000000000000000000014
:102CC0000000000000000000000000000000000004
:102CD00000000000000000000000000000000000F4
:102CE00000000000000000000000000000000000E4
:102CF00000000000000000000000000000000000D4
:102D000000000000000000000000000000000000C3
:102D100000000000000000000000000000000000B3
:102D200000000000000000000000000000000000A3
:102D30000000000000000000000000000000000093
:102D40000000000000000000000000000000000083
:102D50000000000000000000000000000000000073
:102D60000000000000000000000000000000000063
:102D70000000000000000000000000000000000053
:102D80000000000000000000000000000000002023
:102D9000002000200020002008410841084108616F
:102DA000086108610881108210A210C210C210E2EE
:102DB000110211421963198319C319E31A231A4323
:102DC0001A831AC31AE31B231B631BA4244625087A
:102DD000258B25ED267026B1275527772FDA2FDA98
:102DE00037DB37FD3FFE3FFE47FE47FE47FD47DC32
:102DF0004FDC4FDC4F9A4F794ED6467345F13DCFAD
:102E0000354C2CA91BA41B441B241AE31AC31A8398
:102E10001A431A2319E319C31183116311421102D2
:102E200010E210C210C210A210820881086108616D
:102E300008610841084108410020002000200020CE
:102E40000020000000000000000000000000000062
:102E50000000000000000000000000000000000072
:102E60000000000000000000000000000000000062
:102E70000000000000000000000000000000000052
:102E80000000000000000000000000000000000042
:102E90000000000000000000000000000000000032
:102EA0000000000000000000000000000000000022
:102EB0000000000000000000000000000000000012
:102EC0000000000000000000000000000000000002
:102ED00000000000000000000000000000000000F2
:102EE00000000000000000000000000000000000E2
:102EF00000000000000000000000000000000000D2
:102F000000000000000000000000000000000000C1
:102F100000000000000000000000000000000000B1
:102F200000000000000000000000000000000000A1
:102F30000000000000000000000000000000000091
:102F40000000000000000000000000000000000081
:102F50000000000000000000000000000000000071
:102F600000000000000000000020002000200020E1
:102F70000020084108410841086108610861088192
:102F8000108210A210C210E21102112219621983DC
:102F900019C31A031A431A831AC31B031B4323C4FE
:102FA00024A62589264B270D279027F227F327F4FF
:102FB00027F527F627F727F82FFA2FFB2FFB37FCEB
:102FC00037FD37FD3FFE3FFE47FE47FE4FFE4FFEFB
:102FD00057FE57FE5FFE5FFF67FF67FF6FFF6FFFE4
:102FE00077FF77FF7FFF77FD67795E944DD0352BB4
:102FF00023E51B441B041AC31A831A431A0319C37B
:10300000118311631122110210E210C210A210A24A
:1030100008810861086108610841084108410020F1
:103020000020002000200020000000000000000020
:103030000000000000000000000000000000000090
:103040000000000000000000000000000000000080
:103050000000000000000000000000000000000070
:103060000000000000000000000000000000000060
:103070000000000000000000000000000000000050
:103080000000000000000000000000000000000040
:103090000000000000000000000000000000000030
:1030A0000000000000000000000000000000000020
:1030B0000000000000000000000000000000000010
:1030C0000000000000000000000000000000000000
:1030D00000000000000000000000000000000000F0
:1030E00000000000000000000000000000000000E0
:1030F00000000000000000000000000000000000D0
:1031000000000000000000000000000000000000BF
:1031100000000000000000000000000000000000AF
:10312000000000000000000000000000000000009F
:10313000000000000000000000000000000000008F
:103140000000000000200020002000200020084196
:1031500008410841086108610881108210A210C26C
:1031600010E211021142198319A31A031A431A8398
:103170001AE31B232384248625A826AB278E27EF5A
:1031800027EF27EF27F027F027F127F127F227F382
:1031900027F427F627F727F82FF92FFA2FFB37FC0C
:1031A00037FD37FD3FFD3FFE47FE47FE4FFE4FFE1A
:1031B00057FE57FE5FFE5FFE67FE67FE6FFE6FFE07
:1031C00077FE77FE7FFF7FFF87FF87FF8FFF8FFFF1
:1031D00097FF8FDC771755D03D0B1BA41B241AE4F7
:1031E0001A831A4319E319A311831143110210E240
:1031F00010C210A2108208810861086108410841CC
:1032000008410020002000200020002000000000D5
:1032100000000000000000000000000000000000AE
:10322000000000000000000000000000000000009E
:10323000000000000000000000000000000000008E
:10324000000000000000000000000000000000007E
:10325000000000000000000000000000000000006E
:10326000000000000000000000000000000000005E
:10327000000000000000000000000000000000004E
:10328000000000000000000000000000000000003E
:10329000000000000000000000000000000000002E
:1032A000000000000000000000000000000000001E
:1032B000000000000000000000000000000000000E
:1032C00000000000000000000000000000000000FE
:1032D00000000000000000000000000000000000EE
:1032E00000000000000000000000000000000000DE
:1032F00000000000000000000000000000000000CE
:1033000000000000000000000000000000000000BD
:1033100000000000000000000000000000000000AD
:1033200000200020002000200841084108410861D9
:1033300008610881108210A210C210E2110211422D
:10334000198319C31A031A631AC32323236324A6F8
:1033500025E9270C27CE27EF27EF27EF27EF27EFC9
:1033600027EF27EF27F027F027F027F127F227F3A1
:1033700027F427F527F627F72FD82FD92FB92FB9FC
:1033800037B937BA377837783F783F7947BB4FBB83
:103390004FBB57DC5FDD5FDE67FE67FE6FFE6FFED3
:1033A00077FE7FFE7FFE87FE87FE8FFE8FFF97FFF3
:1033B00097FF9FFF9FFFA7FFA7FFA7FE8F796612CA
:1033C0003D0B1B641B041AC31A631A0319C3118330
:1033D0001142110210E210C210A2108208610861AD
:1033E0000861084108410841002000200020002019
:1033F00000000000000000000000000000000000CD
:1034000000000000000000000000000000000000BC
:1034100000000000000000000000000000000000AC
:10342000000000000000000000000000000000009C
:10343000000000000000000000000000000000008C
:10344000000000000000000000000000000000007C
:10345000000000000000000000000000000000006C
:10346000000000000000000000000000000000005C
:10347000000000000000000000000000000000004C
:10348000000000000000000000000000000000003C
:10349000000000000000000000000000000000002C
:1034A000000000000000000000000000000000001C
:1034B000000000000000000000000000000000000C
:1034C00000000000000000000000000000000000FC
:1034D00000000000000000000000000000000000EC
:1034E00000000000000000000000000000000000DC
:1034F000000000000000000000000000002000208C
:103500000020002008410841084108610861088145
:10351000108210A210C211021122196319C31A03DA
:103520001A631AC3232323E42548268B27AE27EFEB
:1035300027EF27EF27EF27EF27EF27EF27EF27EFDB
:1035400027EF27EF27EF27F027AF272E26CD264B93
:10355000260A25A92568250724C61C641C641C446A
:103560001C441C441C241C241C241C241C441C44DB
:103570001C441C641C6424C625282D8B35ED3E2F6D
:103580004E725716677977DC87DE8FFE8FFE97FEC7
:1035900097FE9FFF9FFFA7FFA7FFAFFFAFFFB7FFFC
:1035A000B7FFAFFE86F65DAF2C271B241AC41A6343
:1035B0001A0311C311631122110210C210A210824A
:1035C0000881086108610841084108410020002085
:1035D00000200020000000000000000000000000AB
:1035E00000000000000000000000000000000000DB
:1035F00000000000000000000000000000000000CB
:1036000000000000000000000000000000000000BA
:1036100000000000000000000000000000000000AA
:10362000000000000000000000000000000000009A
:10363000000000000000000000000000000000008A
:10364000000000000000000000000000000000007A
:10365000000000000000000000000000000000006A
:10366000000000000000000000000000000000005A
:10367000000000000000000000000000000000004A
:10368000000000000000000000000000000000003A
:10369000000000000000000000000000000000002A
:1036A000000000000000000000000000000000001A
:1036B000000000000000000000000000000000000A
:1036C00000000000000000000000000000000000FA
:1036D000000000000000000000200020002000206A
:1036E00008410841084108610861108110A210C218
:1036F00010E21122194219A319E31A631AC32323F2
:1037000023E4256826EC27EF27EF27EF27EF27EFA5
:1037100027EF27EF27EF27EF27EF27EF27CE272CDD
:10372000268A25E8256724C5246424241C041BE478
:103730001BC41BA41B841B841B641B641B441B44F1
:103740001B441B241B241B241B241B241B241B4441
:103750001B441B441B641B641B841BA41BA41BC4B1
:103760001BE41C041C241C6424E735AB4E2F5EB301
:103770007F9997DD9FFEA7FEAFFEAFFEB7FFB7FFB5
:10378000BFFFBFFFC7FFC7FFC7FF9F7965AF2C27EC
:103790001B241AC41A6319E311A31143112210E266
:1037A00010C210A20882086108610841084108415E
:1037B0000020002000200020000000000000000089
:1037C00000000000000000000000000000000000F9
:1037D00000000000000000000000000000000000E9
:1037E00000000000000000000000000000000000D9
:1037F00000000000000000000000000000000000C9
:1038000000000000000000000000000000000000B8
:1038100000000000000000000000000000000000A8
:103820000000000000000000000000000000000098
:103830000000000000000000000000000000000088
:103840000000000000000000000000000000000078
:103850000000000000000000000000000000000068
:103860000000000000000000000000000000000058
:103870000000000000000000000000000000000048
:103880000000000000000000000000000000000038
:103890000000000000000000000000000000000028
:1038A0000000000000000000000000000000000018
:1038B00000000000002000200020002008410841F6
:1038C000084108610861108210A210C21102112281
:1038D000196319C31A231AA3230323A4254826EC2A
:1038E00027EE27EF27EF27EF27EF27EF27EF27EF29
:1038F00027EF27EE278D26CB26082546248424444F
:10390000240423C41BA41B641B441B241B041B048E
:103910001AE41AC41AC41AA41AA41AA41AA41AA437
:103920001A841A841A841A841A841A841A841A84A7
:103930001AA41AA41AA41AA41AC41AC41AE41AE4D7
:103940001B041B241B441B641B841BA41BE41C04BE
:103950001C4424A5358B563077169FBCAFFEB7FEAE
:10396000BFFFBFFFC7FFC7FFCFFFCFFFD7FFD7FF07
:10397000AF7965AF23C51B041A831A2311C31163E2
:10398000112210E210C210A21082086108610841E1
:103990000841084100200020002000200000000015
:1039A0000000000000000000000000000000000017
:1039B0000000000000000000000000000000000007
:1039C00000000000000000000000000000000000F7
:1039D00000000000000000000000000000000000E7
:1039E00000000000000000000000000000000000D7
:1039F00000000000000000000000000000000000C7
:103A000000000000000000000000000000000000B6
:103A100000000000000000000000000000000000A6
:103A20000000000000000000000000000000000096
:103A30000000000000000000000000000000000086
:103A40000000000000000000000000000000000076
:103A50000000000000000000000000000000000066
:103A60000000000000000000000000000000000056
:103A70000000000000000000000000000000000046
:103A80000000000000000000000000000000000036
:103A90000020002000200020084108410841086162
:103AA0000861108210A210C211021142198319E399
:103AB0001A6322C323432486264A27CE27EE27EE05
:103AC00027EF27EF27EF27EF27EF27EE27AE26EB8D
:103AD000260825262464242423E423A41B641B44F1
:103AE0001B041AE41AC41AA41AA41A841A841A64A5
:103AF0001A641A641A6412641264126412641264FE
:103B00001264126412641264126412641264126405
:103B100012641264126412641264126412641A64ED
:103B20001A841A841AA41AA41AC41AC41AE41B0404
:103B30001B441B641BA41BE41C241C64356A5E30FC
:103B40008F57B7DDC7FECFFFCFFFD7FFD7FFD7FF18
:103B5000DFFFE7FFDFFE96B544EB1B441AC41A6390
:103B600019E311831143110210C210A210820861DF
:103B70000861084108410841002000200020002081
:103B80000000000000000000000000000000000035
:103B90000000000000000000000000000000000025
:103BA0000000000000000000000000000000000015
:103BB0000000000000000000000000000000000005
:103BC00000000000000000000000000000000000F5
:103BD00000000000000000000000000000000000E5
:103BE00000000000000000000000000000000000D5
:103BF00000000000000000000000000000000000C5
:103C000000000000000000000000000000000000B4
:103C100000000000000000000000000000000000A4
:103C20000000000000000000000000000000000094
:103C30000000000000000000000000000000000084
:103C40000000000000000000000000000000000074
:103C50000000000000000000000000000000000064
:103C60000000000000000000000000000000002034
:103C700000200020002008410841086108611082EE
:103C800010A210C21102194219A31A031A632303C6
:103C900023A42588272C27EE27EE27EE27EE27EEF4
:103CA00027EE27EF27EE278D268A25A724842424B4
:103CB00023E423841B441B241AE41AC41AA41AA460
:103CC0001A841A641A641A64126412641264126305
:103CD00012431263126312631263128312831283FC
:103CE000128312831283128312831283128312832C
:103CF000128312831283128312631263126312639C
:103D00001263126312641264126412641A841A84B5
:103D10001AA41AC41AE41B041B241B641BA41BE46E
:103D20001C2424A54DCD86D5BFBCCFFED7FFDFFF19
:103D3000DFFFE7FFE7FFE7FFEFFFC79B75D023C576
:103D40001AE41A631A0311A31143110210C210A23C
:103D5000108208610861084108410020002000200D
:103D60000020000000000000000000000000000033
:103D70000000000000000000000000000000000043
:103D80000000000000000000000000000000000033
:103D90000000000000000000000000000000000023
:103DA0000000000000000000000000000000000013
:103DB0000000000000000000000000000000000003
:103DC00000000000000000000000000000000000F3
:103DD00000000000000000000000000000000000E3
:103DE00000000000000000000000000000000000D3
:103DF00000000000000000000000000000000000C3
:103E000000000000000000000000000000000000B2
:103E100000000000000000000000000000000000A2
:103E20000000000000000000000000000000000092
:103E30000000000000000000000000000000000082
:103E40000000000000000000000000200020002012
:103E500000200841084108610861108210A210C2C8
:103E60001102194219A31A031A832303240425E912
:103E7000278D27EE27EE27EE27EE27EE27EE27CE1B
:103E8000278D268A25662464240423A423641B2406
:103E90001AE41AC41AA41A841A641A641264126402
:103EA0001264126312631263126312631283128329
:103EB000128312A312A312A312A312C312C312C31A
:103EC0000AC30AC30AE30AE30AE30AE30AC30AC30A
:103ED00012C312C312C312C312C312A312A312A39A
:103EE00012A312A312831283128312831263126429
:103EF000126412641A841A841AA41AA41AC41B0421
:103F00001B241B641BC41C041C654DAC86B4C7BCBD
:103F1000DFDEE7FEE7FFE7FFEFFFEFFFEFFFDFDDAD
:103F20008E522C271B041A831A0311A3114311026A
:103F300010C210A2088208610861084108410020EF
:103F40000020002000200000000000000000000011
:103F50000000000000000000000000000000000061
:103F60000000000000000000000000000000000051
:103F70000000000000000000000000000000000041
:103F80000000000000000000000000000000000031
:103F90000000000000000000000000000000000021
:103FA0000000000000000000000000000000000011
:103FB0000000000000000000000000000000000001
:103FC00000000000000000000000000000000000F1
:103FD00000000000000000000000000000000000E1
:103FE00000000000000000000000000000000000D1
:103FF00000000000000000000000000000000000C1
:1040000000000000000000000000000000000000B0
:1040100000000000000000000000000000000000A0
:1040200000000000000000000020002000200841E7
:10403000084108610861088110A210C211021942EA
:1040400019A31A031A8323232445264A27CE27EED1
:1040500027EE27EE27EE27EE27CE27AE26CB25A785
:104060002484240423A423641B041AE41AA41A84B9
:104070001A641A641A64126412641263126312637B
:104080001283128312A312A312A312C30AC30AE358
:104090000AE30B030B030B230B230B230B230B2331
:1040A0000B430B430B430B430B430B430B430B43A0
:1040B0000B430B430B230B230B230B230B030B0390
:1040C0000B030AE30AE312C312C312C312A312A31F
:1040D00012831283128312831264128412841A844C
:1040E0001AA41AC41AE41B241B641BA41C042485F0
:1040F0005DEEA717DFDDE7DEEFFEEFFEEFFEF7FE7A
:10410000F7FEEFFE9EB53C881B241A831A0311A309
:104110001142110210C210A2088108610861084111
:1041200008410020002000200000000000000000E6
:10413000000000000000000000000000000000007F
:10414000000000000000000000000000000000006F
:10415000000000000000000000000000000000005F
:10416000000000000000000000000000000000004F
:10417000000000000000000000000000000000003F
:10418000000000000000000000000000000000002F
:10419000000000000000000000000000000000001F
:1041A000000000000000000000000000000000000F
:1041B00000000000000000000000000000000000FF
:1041C00000000000000000000000000000000000EF
:1041D00000000000000000000000000000000000DF
:1041E00000000000000000000000000000000000CF
:1041F00000000000000000000000000000000000BF
:10420000000000000020002000200020084108419C
:1042100008610881108210C210E2112219831A036A
:104220001A8323232425266A27CE27CE27CE27CEFE
:1042300027CE27CE27CE276D260824C5242423C4C5
:104240001B641B041AC41AA41A841A641A64124444
:104250001264126312631263128312A312A312C3B5
:104260000AC30AE30AE30B030B030B230B430B43C1
:104270000B430B630B830B830B830B830BA30BA3EE
:104280000BA30BC30BC30BC30BC30BC30BC30BC3DE
:104290000BC30BA30BA30BA30BA30B830B830B83EE
:1042A0000B630B630B430B430B430B230B030B03FE
:1042B00012E312C312C312A312A312831283128336
:1042C000126312641A841A841AA41AE41B241B644D
:1042D0001BC41C242CE77E51CF9BEFDEEFDEF7DE04
:1042E000F7DEF7DEF7DEF7DEA6D53C881B241A835F
:1042F0001A031183112210E210C210820881086192
:10430000084108410020002000200020000000009B
:10431000000000000000000000000000000000009D
:10432000000000000000000000000000000000008D
:10433000000000000000000000000000000000007D
:10434000000000000000000000000000000000006D
:10435000000000000000000000000000000000005D
:10436000000000000000000000000000000000004D
:10437000000000000000000000000000000000003D
:10438000000000000000000000000000000000002D
:10439000000000000000000000000000000000001D
:1043A000000000000000000000000000000000000D
:1043B00000000000000000000000000000000000FD
:1043C00000000000000000000000000000000000ED
:1043D00000000000000000000000000000000000DD
:1043E0000000002000200020084108410861086109
:1043F000108210A210E21122198319E31A63230319
:104400002404264927CD27CE27CE27CE27CE27CE58
:1044100027AE26EB2587246423E423841B241AE497
:104420001AA41A841A6412641244124412631263A6
:10443000128312A312A312C30AC30AE30B030B23B2
:104440000B230B430B630B830B830BA30BA30BC33C
:104450000BE30BE30BE30C030C030C230C230C23E7
:104460000C230C430C430C430C430C430C430C43F4
:104470000C430C430C230C230C230C230C030C03C4
:104480000BE30BE30BC30BC30BA30BA30B830B635C
:104490000B430B430B230B0312E312E312C312A3D0
:1044A00012A3128312831264126412841AA41AC40F
:1044B0001AE41B441B841BE41C655DCDB738EFBDBB
:1044C000EFDDF7DEF7DEF7DDF7DDEFDD96942C2785
:1044D0001B041A6311E31163112210E210A210826F
:1044E0000861086108410841002000200020000008
:1044F00000000000000000000000000000000000BC
:1045000000000000000000000000000000000000AB
:10451000000000000000000000000000000000009B
:10452000000000000000000000000000000000008B
:10453000000000000000000000000000000000007B
:10454000000000000000000000000000000000006B
:10455000000000000000000000000000000000005B
:10456000000000000000000000000000000000004B
:10457000000000000000000000000000000000003B
:10458000000000000000000000000000000000002B
:10459000000000000000000000000000000000001B
:1045A000000000000000000000000000000000000B
:1045B00000000000000000000000000000000020DB
:1045C000002000200020084108410861088110A255
:1045D00010C21102196219C31A4322E323C425E948
:1045E00027AD27CD27CD27CE27CD27CE278D26AAAD
:1045F0002505242423A41B441B041AC41A841A640A
:104600001A4412441243126312631283128312A3D8
:104610000AC30AE30B030B230B430B630B630B83EC
:104620000BA30BC30BC30BE30C030C230C230C4396
:104630000C430C630C630C830C830C830CA30CA342
:104640000CA30CA30CC314E32D662D663DA745E80F
:1046500045E84E094DE94DE93DA73587354624E546
:104660001CC40C630C430C430C230C230C030BE302
:104670000BC30BC30BA30B830B630B430B230B036A
:104680000AE312C312C312A3128312831283128489
:1046900012841AA41AC41B041B641BC41C243D4AA4
:1046A000A6F5E7BCEFDDEFDDF7DDEFDDEFDDEFDCFD
:1046B0008E5223E61AE41A4311C31163110210C289
:1046C00010A2088108610841084100200020002054
:1046D00000200000000000000000000000000000BA
:1046E00000000000000000000000000000000000CA
:1046F00000000000000000000000000000000000BA
:1047000000000000000000000000000000000000A9
:104710000000000000000000000000000000000099
:104720000000000000000000000000000000000089
:104730000000000000000000000000000000000079
:104740000000000000000000000000000000000069
:104750000000000000000000000000000000000059
:104760000000000000000000000000000000000049
:104770000000000000000000000000000000000039
:104780000000000000000000000000000000000029
:1047900000000000000000000000000000200020D9
:1047A00000200841084108610861108210A210E24F
:1047B000114219A31A2322A323632567276C27AD6F
:1047C00027AD27AD27AD27AD278D266924E5240425
:1047D00023A41B241AE41AA41A841A641244124350
:1047E000126312631283128312A30AC30AE30B0338
:1047F0000B230B430B630B830BA30BC30BE30C03C8
:104800000C230C430C430C630C830C830CA30CC3D0
:104810000CC30CC30CE30D030D030D030D23154353
:1048200035E646485ECA66EB66EB66EA66CA5ECA6D
:104830005ECA5EAA5EAA56895689566956694E496D
:104840004E494E293DC7254514E40CA30C830C6347
:104850000C630C430C230C030BE30BC30BA30B8364
:104860000B630B430B2312E312E312C312A3128355
:104870001283128312841A841AC41AE41B441BA4E0
:104880001C0435089EB4E79CEFBCEFBDEFBCEFBC49
:10489000EFBCDFBB6DAE1B641AA41A2311A3114237
:1048A00010E210A21082086108610841084100204E
:1048B00000200020000000000000000000000000B8
:1048C00000000000000000000000000000000000E8
:1048D00000000000000000000000000000000000D8
:1048E00000000000000000000000000000000000C8
:1048F00000000000000000000000000000000000B8
:1049000000000000000000000000000000000000A7
:104910000000000000000000000000000000000097
:104920000000000000000000000000000000000087
:104930000000000000000000000000000000000077
:104940000000000000000000000000000000000067
:104950000000000000000000000000000000000057
:104960000000000000000000000000000000000047
:1049700000000000000000000020002000200020B7
:10498000084108410861088110A210C21102196291
:1049900019E31A83232324A626EB27AD27AD27ADE1
:1049A00027AD27AD278D266924C5240423841B2425
:1049B0001AC41A841A641A4412431243126312630B
:1049C000128312A30AC30AE30B030B230B430B83CB
:1049D0000BA30BC30BE30C030C230C430C630C83E2
:1049E0000CA30CA30CC30CE30CE30D030D030D236C
:1049F0000D230D420D420D621583364656C9672AB6
:104A0000672A672A672A5F295F095F095F0956E9F4
:104A100056E956E856C856C84EC84EA84EA84E8805
:104A20004E8846684668464746273E072DA515032B
:104A30000CE30CC30CA30C830C630C430C230C037E
:104A40000BE30BA30B830B630B430B2312E312C388
:104A500012A312A312831263126412841AA41AE41A
:104A60001B241B841C04350896B3E79BEFBCEFBCEA
:104A7000EFBCEFBCEFBCC7584CEB1B241A6311E32F
:104A80001163110210C210A2088108610841084197
:104A90000020002000200020000000000000000096
:104AA0000000000000000000000000000000000006
:104AB00000000000000000000000000000000000F6
:104AC00000000000000000000000000000000000E6
:104AD00000000000000000000000000000000000D6
:104AE00000000000000000000000000000000000C6
:104AF00000000000000000000000000000000000B6
:104B000000000000000000000000000000000000A5
:104B10000000000000000000000000000000000095
:104B20000000000000000000000000000000000085
:104B30000000000000000000000000000000000075
:104B40000000000000000000000000000000000065
:104B50000000000000000020002000200841084163
:104B600008610861108210A210E2114219A31A43D1
:104B700022C323C4262927AD27AD27AD27AD27ADF6
:104B8000278D26AA24E5240423841B241AC41A840E
:104B90001A641244124412431263128312A30AC30A
:104BA0000AE30B030B230B430B630BA30BC30BE3B6
:104BB0000C030C230C430C830CA30CA30CC30CE3BD
:104BC0000D030D230D230D420D420D620D620D826A
:104BD0000D820DA21E043EA75F49676A67695F499F
:104BE0005F495F495F4857485728572857284F273C
:104BF0004F074F074F074F074EE746E746E746C7C1
:104C000046C746A746A73E873E863E663E463E4688
:104C10002DE51D840D230D030CE30CC30CA30C83A5
:104C20000C630C230C030BE30BA30B830B630B2311
:104C30000B0312E312C312A3128312831284128491
:104C40001AA41AE41B241B841C043509A6D5E79B6F
:104C5000EFBBE7BBE7BBE7BBE7BB967323E61AE412
:104C6000122311A3114210E210A210820861086100
:104C70000841084100200020002000000000000042
:104C80000000000000000000000000000000000024
:104C90000000000000000000000000000000000014
:104CA0000000000000000000000000000000000004
:104CB00000000000000000000000000000000000F4
:104CC00000000000000000000000000000000000E4
:104CD00000000000000000000000000000000000D4
:104CE00000000000000000000000000000000000C4
:104CF00000000000000000000000000000000000B4
:104D000000000000000000000000000000000000A3
:104D10000000000000000000000000000000000093
:104D20000000000000000000000000000000000083
:104D30000000000000200020002008410841086118
:104D4000088110A210C21102196219E31A832343C9
:104D50002506274C278D278D278D278D278D26EB20
:104D60002526240423841B241AC41A841A6412449A
:104D700012431243126312830AA30AC30AE30B030A
:104D80000B430B630B830BC30BE30C030C230C6370
:104D90000C830CA30CC30CE30D030D230D220D4259
:104DA0000D620D620D820DA20DA20DC20DC20DC2CB
:104DB000162346E767895F895F695F685F685768A0
:104DC0005768576757674F474F474F474F474F46BB
:104DD0004F264726472647264726470647063F06CB
:104DE0003EE63EE63EC63EC63EC63EA53685368516
:104DF0003665364526040DA30D620D420D220D02C7
:104E00000CE30CC30C830C630C230C030BE30BA30C
:104E10000B830B430B23130312C312A312831283BE
:104E2000128412841AA41AE41B241BA41C044D6BC4
:104E3000BF37E79BE79BE79BE79BE79BCF795D4C01
:104E40001B441A8311E31163110210C210A20881DE
:104E500008610841084100200020002000000000F7
:104E60000000000000000000000000000000000042
:104E70000000000000000000000000000000000032
:104E80000000000000000000000000000000000022
:104E90000000000000000000000000000000000012
:104EA0000000000000000000000000000000000002
:104EB00000000000000000000000000000000000F2
:104EC00000000000000000000000000000000000E2
:104ED00000000000000000000000000000000000D2
:104EE00000000000000000000000000000000000C2
:104EF00000000000000000000000000000000000B2
:104F000000000000000000000000000000000000A1
:104F100000000020002000200841084108610881AD
:104F200010A210E2112219A31A2322C323E4266A35
:104F30002F8D2F8D278D278D278D272C2587242496
:104F400023A41B241AC41A841A6412441243124361
:104F5000126312830AA30AC30B030B230B430B83B5
:104F60000BA30BC30C030C230C6414A514C514E58C
:104F70001505152515451565156415840DA40DA396
:104F80000DC30DC20DC20DE20DE20E020E2236E57A
:104F90005F885F885F885F885787578757875787FD
:104FA0004F674F664F664F664F6647664766476571
:104FB00047454745474547453F453F453F253F25F1
:104FC0003F253F053705370536E536E536C536C595
:104FD00036A52EA52E852E651E240DC20DA20D828E
:104FE0000D620D420D230CE30CC30C830C630C23E8
:104FF0000C030BC30BA30B630B230B0312E312A3D2
:1050000012831283128412841AA41AE41B441BA470
:10501000142465EDCF59E79AE79AE79AE79AE79A59
:10502000A6B42C0612E4122311A3112210E210A23E
:10503000088108610841084100200020002000008C
:105040000000000000000000000000000000000060
:105050000000000000000000000000000000000050
:105060000000000000000000000000000000000040
:105070000000000000000000000000000000000030
:105080000000000000000000000000000000000020
:105090000000000000000000000000000000000010
:1050A0000000000000000000000000000000000000
:1050B00000000000000000000000000000000000F0
:1050C00000000000000000000000000000000000E0
:1050D00000000000000000000000000000000000D0
:1050E00000000000000000000000000000000000C0
:1050F000002000200020084108410861108210C2F1
:1051000010E2194219C31A63232324C62F2C2F8DB2
:105110002F8D278D278D276D2649248423C41B447A
:105120001AE41A841A64124312431243126312835C
:105130000AA30AC30B030B230B630B830BA30BE321
:1051400014241C861CC7250825281D271D471D67FC
:105150001D661D8615A515A515C515C415E415E410
:1051600016030E030E230E230E221EA357875FA8DD
:1051700057A857A757A7578757874F864F864F86F9
:105180004F664766476647654766476547654765B3
:105190003F653F653F653F643F443F443F443F4474
:1051A00037443744372437243724370437042F044F
:1051B0002EE42EE42EC42EA42EA4268416230DE263
:1051C0000DC20DA20D820D620D420D020CE30CA367
:1051D0000C830C430C030BE30BA30B630B430B037C
:1051E00012E312A312831283128412841AA41AE403
:1051F0001B4413C424A68E92DF7ADF9ADF9ADF9ACB
:10520000DF9ACF78552B1324126311C3114310E298
:1052100010A21082086108410841002000200020EF
:10522000000000000000000000000000000000007E
:10523000000000000000000000000000000000006E
:10524000000000000000000000000000000000005E
:10525000000000000000000000000000000000004E
:10526000000000000000000000000000000000003E
:10527000000000000000000000000000000000002E
:10528000000000000000000000000000000000001E
:10529000000000000000000000000000000000000E
:1052A00000000000000000000000000000000000FE
:1052B00000000000000000000000000000000000EE
:1052C000000000000000000000000000002000209E
:1052D0000020084108410861086110A210C21102B3
:1052E00019821A0322A3238325E82F8C2F8C2F8C5D
:1052F0002F8C276C26EB250523E323641B041AA4BB
:105300001A64124412431243126312830AA30AC39B
:105310000B030B230B630B830BC30C041C6624C809
:105320002D092D292548256825671D871DA61DA641
:105330001DC615C515E515E4160416041624162316
:105340000E430E430E430E632EE55FA857A857A7E2
:10535000578857884F874F874F664F6657894F67E3
:1053600047664766476547455F8A3F453F453F4536
:105370003F45476747663F443744374437444766AD
:1053800037443744374437432F432F432F232F23AA
:105390002F232F032F0326E326E326C326A31E83F2
:1053A0000E420E020E020DC20DA20D820D620D22E2
:1053B0000D030CC30C830C630C230BE30BA30B63D7
:1053C0000B430B0312C312A31283128312641284C1
:1053D0001AC41B0413641404454ABF36DF79DF9AEC
:1053E000DF99DF99DF998E711BA512A41203118337
:1053F000110210C210A20861086108410841002092
:10540000002000200000000000000000000000005C
:10541000000000000000000000000000000000008C
:10542000000000000000000000000000000000007C
:10543000000000000000000000000000000000006C
:10544000000000000000000000000000000000005C
:10545000000000000000000000000000000000004C
:10546000000000000000000000000000000000003C
:10547000000000000000000000000000000000002C
:10548000000000000000000000000000000000001C
:10549000000000000000000000000000000000000C
:1054A000000000000000000000000020002000209C
:1054B000084108410861088110A210C2112219A3F5
:1054C0001A2322E324452ECB2F6C2F6C2F6C276CD4
:1054D000274C25E8242423A41B241AC41A641A4345
:1054E00012431243124312830AA30AC30B030B2372
:1054F0000B630B830BC3142424A8352A354A2D498A
:105500002D692588258825A71DC71DC61DE61DE513
:105510001E05160516241624164416431643166354
:105520000E630E6316834F48578857874F874F8700
:105530004F6757684F664766474647464746474660
:10554000474647453F453F453F453F453F253F256A
:105550003F253F24372437243724372437243F4539
:1055600037442F442F432F4337453F652F432F4365
:105570002F432743272327232703270326E326E355
:105580001EC30E820E420E420E020E020DC20DA26C
:105590000D820D420D020CE30CA30C630C230BE3F4
:1055A0000BA30B630B230B0312C312A3128312630F
:1055B000126412841AC4132413A41C457E50D77994
:1055C000DF79DF79DF79DF79B7163C8812E41223BF
:1055D00011A3112210C210A20881086108410841DC
:1055E000002000200020000000000000000000005B
:1055F00000000000000000000000000000000000AB
:10560000000000000000000000000000000000009A
:10561000000000000000000000000000000000008A
:10562000000000000000000000000000000000007A
:10563000000000000000000000000000000000006A
:10564000000000000000000000000000000000005A
:10565000000000000000000000000000000000004A
:10566000000000000000000000000000000000003A
:10567000000000000000000000000000000000002A
:105680000000000000000000002000200020084171
:1056900008410861088110A210E2194219C31A6377
:1056A000232325062F4C2F6C2F6C2F6C276C26EB99
:1056B000250523E423441AE41A841A4412431243AE
:1056C000124312630A830AC30AE30B230B630B839F
:1056D0000BC3142424C8354B356A356A2D892DA98E
:1056E00025A825C725C71DE61E061E061E251E2544
:1056F000162516441644166416631E641E8516632A
:1057000016631684474757884F684F674F674F4760
:105710004F47474647464746472647264726472698
:105720003F253F253F253F253F253F053F053725A1
:105730003725372437243724372437243724372490
:105740002F242F242F232F232F242F442F432F4365
:1057500027432743376527432742274227221F0233
:105760001F021EE20EA10E810E610E620E220E02BB
:105770000DE20DC20D820D620D220CE30CA30C6331
:105780000C230BE30BA30B630B2312E312C3128353
:105790001283126312841AA41AE4136413E44529D1
:1057A000BF16D779DF79DF79D778CF785D6C13248E
:1057B000126311C3114310E210A20881086108416D
:1057C0000841002000200020000000000000000030
:1057D00000000000000000000000000000000000C9
:1057E00000000000000000000000000000000000B9
:1057F00000000000000000000000000000000000A9
:105800000000000000000000000000000000000098
:105810000000000000000000000000000000000088
:105820000000000000000000000000000000000078
:105830000000000000000000000000000000000068
:105840000000000000000000000000000000000058
:105850000000000000000000000000000000000048
:105860000000000000000020002000200841084146
:105870000861108110A210E2196219E322832363E8
:105880002DC82F6C2F6C2F6C2F6C274C262824448E
:1058900023A41B041AA41A64124312231243126392
:1058A0000A830AA30AE30B030B430B830BC30C030A
:1058B00024A73D4B3D8B358A35AA2DC92DC82DE82F
:1058C00025E7260726061E261E261E451E451E44C3
:1058D000166416641664166416641E851E851663A7
:1058E000168447474F674F474F474F47474747271C
:1058F0004726472647264F4947073F063F063F06AC
:105900004F28574A3F053F05370536E5678D370570
:1059100037053705370447273F0637042F042F0480
:105920002F042F042F242F232F232F232723272334
:105930002743272337452742274227421F421F423A
:105940001F221F221F0216E10EC10EA10E810E6141
:105950000E420E220DE20DC20D820D620D220CE3ED
:105960000CA30C630C230BE30B830B430B2312E3FD
:1059700012A3128312631264128412C4132413A498
:105980001C658671D758D778D778D778D77886505E
:105990001B84128411E3116310E210A208820861D3
:1059A0000841084100200020002000000000000005
:1059B00000000000000000000000000000000000E7
:1059C00000000000000000000000000000000000D7
:1059D00000000000000000000000000000000000C7
:1059E00000000000000000000000000000000000B7
:1059F00000000000000000000000000000000000A7
:105A00000000000000000000000000000000000096
:105A10000000000000000000000000000000000086
:105A20000000000000000000000000000000000076
:105A30000000000000000000000000000000000066
:105A400000000000002000200020084108410861FB
:105A5000108210C2110219621A0322C323E42E8A93
:105A60002F4C2F4C2F4C2F4C272B254623E3234420
:105A70001AE41A841A4412431243124312630AA30B
:105A80000AC30B030B430B630BA30BE31445354A0B
:105A90003DAC3DAB35CA35C92DE92DE82E082607AA
:105AA000262726261E461E451E651E651E65166493
:105AB0002EA71E85166416641664166416641E648A
:105AC00047274F474747472747274F285F6B4707D9
:105AD0004707470646E64F0846E73EE63EE63EE60F
:105AE000470746E73EC536C536C536C536C536C551
:105AF00036C536C536E53EE636E52EE42EE42EE420
:105B00003F0647482F042F042F032F032F2427235A
:105B10002723272327232723272227421F422F65B6
:105B20002F642F6337633F843F64476447654F6545
:105B3000474547253EE536A4264415E30DA20D62F0
:105B40000D220CE30CA30C430C030BC30B830B4380
:105B5000130312C312A31283126312641AA41AE469
:105B6000136413E4558CC737D758D758D758D7582C
:105B7000A6D42C2712C412031163110210C2108282
:105B800008610841084100200020002000000000BA
:105B90000000000000000000000000000000000005
:105BA00000000000000000000000000000000000F5
:105BB00000000000000000000000000000000000E5
:105BC00000000000000000000000000000000000D5
:105BD00000000000000000000000000000000000C5
:105BE00000000000000000000000000000000000B5
:105BF00000000000000000000000000000000000A5
:105C00000000000000000000000000000000000094
:105C10000000000000000000000000000000000084
:105C20000000002000200020084108410861108287
:105C300010C2110219821A2322E324242EEB2F4CC6
:105C40002F4C2F4C2F4C26AA24A523A31B241AA487
:105C50001A6412431223124312630A830AC30AE32B
:105C60000B230B630BA30BC30C0324C745AB45CC21
:105C70003DEB35EA360936092E282E2726272646FB
:105C8000264626661E651E651E651E651E65166413
:105C90001E65166416441644164416441E643F07D7
:105CA0004F49574A47074707470746E7470746E729
:105CB0003EE73EE73EC63EC63EC63EC63EC63EA6A2
:105CC0003EA63EA636A636A636A536A536A536A5E8
:105CD00036A536A536A536A52EC52EC42EC42EC48F
:105CE0002EC42EC42EE42EE42EE42EE44F492703C6
:105CF0002703270327032723272337434764578591
:105D00005FA567A567C567C567C567C667C667C678
:105D10006FC66FC76FA76FA86F886F8967484EC738
:105D2000362515830D030CC30C830C230BE30BA347
:105D30000B630B2312E312A3128312631263128408
:105D400012C4132413C434C8AEF4CF57CF57D75757
:105D5000CF57BF35346812E412231183110210C2E9
:105D60001082086108410841002000200020000046
:105D70000000000000000000000000000000000023
:105D80000000000000000000000000000000000013
:105D90000000000000000000000000000000000003
:105DA00000000000000000000000000000000000F3
:105DB00000000000000000000000000000000000E3
:105DC00000000000000000000000000000000000D3
:105DD00000000000000000000000000000000000C3
:105DE00000000000000000000000000000000000B3
:105DF00000000000000000000000000000000000A3
:105E0000002000200020084108410861108210C2D3
:105E1000112219831A43230324A52F2B2F4C2F4C17
:105E20002F4C2F2C2629244423831AE41A841A4445
:105E300012231243124312630AA30AE30B030B4318
:105E40000B830BC30C030C432D2845EC460B3E0B78
:105E50003E2A362936292E482E47264726662666AC
:105E600026661E651E6536C91E651E651E6516659D
:105E700016441644164426661E65162436E7470760
:105E80004708470846E746E746E746C746C73EC7CE
:105E90003EA73EA73EA73EA63EA63E863E863E863F
:105EA0003E8636863686368636863685368536850D
:105EB000368536852E852E852E852E852EA52EA4FB
:105EC0002EA42EA42EA42EC42EC426C426E426E37B
:105ED00026E326E3370457695F46574557655765FC
:105EE0005F855F855F855FA567A66FC85FC567C56E
:105EF00067C567C667C667A767A76FA86F886F691A
:105F00006F696F4A5EC9360615230CA30C630C2318
:105F10000BC30B830B430B0312C312831263126474
:105F2000126412A4130413841C458E71CF37CF570B
