:020000040800F2
:1000000098090020F1010008C3050008390500081F
:10001000C10500082D040008050C000800000000C0
:100020000000000000000000000000004F07000872
:100030006D040008000000004D070008B10700082B
:100040000B0200080B0200080B0200080B0200085C
:100050000B0200080B0200080B020008F104000864
:100060000B0200082F040008310400080B020008EE
:100070003D0300080B0200080B0200080B020008F9
:100080000B0200080B020008000000006D090008C8
:10009000A90A00080B0200080B0200080B02000866
:1000A0000B0200080B0200080B020008A10B00085D
:1000B0000B020008000000000B0200080000000016
:1000C0000B020008000000000B0200080000000006
:1000D0000000000000000000000000000000000020
:1000E00000000000000000000B02000800000000FB
:1000F0000000000000000000000000000000000000
:100100000B020008000000000000000000000000DA
:1001100000000000000000000000000000000000DF
:1001200000000000000000000000000000000000CF
:1001300000000000000000000000000000000000BF
:100140000000000000000000000000000B0200089A
:1001500000F002F800F03CF80AA090E8000C82449D
:100160008344AAF10107DA4501D100F031F8AFF27A
:10017000090EBAE80F0013F0010F18BFFB1A43F085
:1001800001031847CC180000EC180000103A24BFF7
:1001900078C878C1FAD8520724BF30C830C144BFEC
:1001A00004680C607047000000230024002500262E
:1001B000103A28BF78C1FBD8520728BF30C148BFCA
:1001C0000B6070471FB501F031FC1FBD10B510BDAD
:1001D00000F07AF81146FFF7F5FF00F04FFF00F04E
:1001E00098F803B4FFF7F2FF03BC00F09FF800009B
:1001F0000948804709480047FEE7FEE7FEE7FEE7BB
:10020000FEE7FEE7FEE7FEE7FEE7FEE704480549F6
:10021000054A064B70470000B50700085101000869
:1002200098010020980900209805002098050020DA
:100230004FF000020429C0F0128010F0030C00F00F
:100240001B80CCF1040CBCF1020F18BF00F8012B8D
:10025000A8BF20F8022BA1EB0C0100F00DB85FEA5B
:10026000C17C24BF00F8012B00F8012B48BF00F827
:10027000012B70474FF0000200B513469446964696
:10028000203922BFA0E80C50A0E80C50B1F12001A9
:10029000BFF4F7AF090728BFA0E80C5048BF0CC057
:1002A0005DF804EB890028BF40F8042B08BF7047B5
:1002B00048BF20F8022B11F0804F18BF00F8012B27
:1002C0007047704770477047754600F02BF8AE4690
:1002D00005006946534620F00700854618B020B552
:1002E000FFF794FFBDE820404FF000064FF00007F5
:1002F0004FF000084FF0000BAC46ACE8C009ACE88A
:10030000C009ACE8C009ACE8C00921F007018D467E
:10031000704710B50446AFF300802046BDE810409A
:10032000FFF75FBF004870472000002001491820F8
:10033000ABBEFEE72600020070470000B0B52648BD
:100340000168013101604FF090404FF4807100F07E
:1003500079FD22480078012819D12E4840F2D25266
:10036000418B914211D3017901310171C8B2022848
:100370000DD3E24800210022002401F058F918486A
:10038000012104701748017001E00021017121482A
:10039000817879B10021092919D000EB410201319E
:1003A000138BD48823449CB2E508A3EBD403558572
:1003B000D380F0E7012181700021092907D000EBEB
:1003C00041020131138BC3EBC303D380F5E7022055
:1003D000BDE8B04000F02ABC84000020800100206D
:1003E000200100208301002010B50A4C00201221BA
:1003F000A0704FF480702080A01DFFF719FF04F15A
:1004000018001221FFF736FF04F12A001221FFF72E
:100410000FFF10BD8C000020034800218160C0F850
:1004200002100170704700BF3C010020FEE77047DA
:1004300080B50120022100F087FC90B1012002214B
:1004400000F078FC0748002101F0AEFA012000F02E
:100450000DFC05480A2101600120BDE8804000F044
:100460000FBC80BD003801402000024070470000F2
:1004700010B5072000F010FE1C4CA07805380128AC
:100480001FD811480168B1F5FA6F1CD94FF4FA6111
:100490000160A08A4FF6FE71884238BF0130A08209
:1004A000606A10F1020F38BF0130606200F00EF890
:1004B000A16A6FF00102531A834288BF0A18A26230
:1004C00010BD0020A08210BD4C0100200748008C08
:1004D000052801D2012007E0F9288FBF40F6C4109B
:1004E00040431921B0FBF1F080B270475401002065
:1004F00080B54FF4007000F059FC40B10D48002267
:100500004168C0E901214FF4007000F049FC4FF44C
:10051000005000F04BFC58B1064801680131016001
:10052000FFF7A6FF4FF40050BDE8804000F038BC54
:1005300080BD00BF80000020FEE70000B0B5114C78
:10054000114D4FF400712046A84700F09AF820683A
:10055000012100224FF4005340F480202060204607
:1005600000F075FC2046002101224FF4005300F0FA
:1005700095FC00F092F820464FF400512A46BDE861
:10058000B040104700040048410E00080548012112
:100590000022062903D040F821200131F9E700218B
:1005A00001607047E000002004480021C0F80210FC
:1005B0000180C0F806104181704700BFF80000209C
:1005C000FEE7704700F01F010122800902FA01F1E5
:1005D00070478260826811438160704741F8202033
:1005E000704720460021012270478DF80C5001957C
:1005F0000090204601F07EB802600268114301605D
:10060000704742F820107047022100224FF4807397
:100610003047012005950695ADF81C500021049047
:100620007047204600F0EEBE20460021002200F078
:10063000FEBF2046012100227047204600210022F3
:1006400000F0FCBF0A6822EA000008607047835887
:1006500023EA010181507047002103224FF4807387
:10066000384720460021602200F0C6BF012202FA6E
:1006700001F1026A1143016270471378013313706C
:10068000704720464FF40051284783581943815042
:1006900070472046012101F090B820464FF40071C8
:1006A0002847204600F0E6BF204601F019B80A7836
:1006B00001320A707047204600F09EBEB0B588B087
:1006C0000E4CFFF7EEFF40F2E7300025694602903E
:1006D0000620FFF78AFFFFF79CFF04AAFFF7A1FFA0
:1006E000FFF7A2FFFFF7BDFFFFF7A7FFFFF7D1FF5F
:1006F000FFF7E1FFFFF7D8FF08B0B0BD002C0140C5
:10070000B0B588B0104CFFF7CCFF40F2E7300025C1
:10071000694602900620FFF768FFFFF77AFF04AAF8
:10072000FFF77FFF204600214FF47A7200F07FFF31
:10073000FFF797FFFFF781FFFFF7ABFFFFF7BBFF67
:10074000FFF7B2FF08B0B0BD00040040704770472B
:1007500010B5164C4FF4C060A04740F21150A047AE
:1007600040F21250A04740F21350A04740F21650FA
:10077000A0474FF4A060A04740F20960A04740F2B4
:100780000E60A04740F20B60A04740F20170A04706
:100790004FF4E160A0474FF4C260A04740F21160FF
:1007A000A0470620BDE8104000F0BCBC4D13000877
:1007B00000F052BA6148816901F0060106294BD068
:1007C0008169890448D55E495E4A016002604160E2
:1007D0004260C16841F02001C160C16841F0400140
:1007E000C1608168C907FCD1C16821F02001C160E6
:1007F000C16841F01001C1605349826912F0060FCF
:1008000006D0826902F00602022A03D1BB2200E070
:10081000A5220A808269DF2303EA12224A808269C4
:10082000C2F307428A808269120ECA80C269D2B2BC
:100830000A81C26992B2120A4A818168C907FCD151
:10084000C16821F01001C160C16821F40071C1606C
:10085000C16841F08001C1603C48016841F4700109
:1008600001603B4850F8041C41F0010140F8041CB1
:1008700050F8041C8907FBD50168364A40F203137F
:1008800021F00301016050F8041C1140324A40F885
:10089000041C01681140314A016001681140016087
:1008A0002F49826A0A408262C26A9A432D4BC26211
:1008B000C26A22F48032C262C26A22F00042C2627C
:1008C000026B22F001020263D0F8BC2022F48032D5
:1008D000C0F8BC2000224260C0F8C8200268026054
:1008E000026842F400520260026842F480620260D0
:1008F00002681A400260826A11401B4A81620168E4
:1009000011430160816A816250F8041C41F08071DA
:1009100040F8041C50F8041C8901FBD5016821F043
:1009200003010160016841F00201016001680907EB
:10093000FCD54FF00060002100F0E8BB042002402D
:1009400023016745AB89EFCD00F8FF1F88ED00E07C
:1009500004100240FFFFF2FE0C00FF08FFFFC27709
:10096000F0FFFF3FFFFFC0F70000040810B5364C52
:100970000121204600F0B9FE002863D000F0B8F84D
:10098000324801680131016031480178013101705C
:1009900030480178013101702F4801780131017030
:1009A0002E48017801310170C9B2642944D32C4A20
:1009B00000210170FFF761FE2A4AFFF75EFE2A4A16
:1009C000FFF75BFE294AFFF758FE294AFFF755FE5D
:1009D000284AFFF752FE284AFFF74FFE274AFFF743
:1009E0004CFE274A138801331380264AFFF745FE41
:1009F000427801324270D2B20A2A1DD34170224994
:100A0000FFF755FE21490A8801320A802049FFF785
:100A10004EFE2049FFF74BFE1F49FFF748FE1F49D6
:100A2000FFF745FE1E49FFF742FE1E4909780129DE
:100A300002D041680131416020460121BDE81040EB
:100A400000F0B8BE10BD00BF0020004050010020E3
:100A50008F000020350100202B010020C80000205D
:100A60003401002031010020320100200A01002061
:100A700037010020380100203901002085010020C5
:100A80003E01002094010020820100208C01002002
:100A90008A0100208701002088010020D500002065
:100AA0000B0100208601002010B5104C01212046CA
:100AB00000F01BFE18B12046012100F07BFE20460D
:100AC000022100F012FE18B12046022100F072FE51
:100AD00020464FF4007100F008FE30B120464FF47C
:100AE0000071BDE8104000F065BE10BD004001403F
:100AF000B0B526480088B0F5FA7F02D84FF47A7175
:100B000010E001097C290CD8C0F5FA600F2100EB38
:100B10008000400090FBF1F11D48418388B20B2812
:100B20002FD20A211A4841831A4C8AB2002104F5B7
:100B3000943000F07CFD1848072141F658334FF0FF
:100B4000FF354FF47A72008898424FF47A7338BFB9
:100B5000B0FBF1F3114803600D4801898B4288BF57
:100B60000125294489B2B1F57A7F38BF0A460A2A9D
:100B700098BF0A22028120460021BDE8B04000F063
:100B800056BDB0F57A7FB9D8CEE700BFA4000020EB
:100B900008010020000400402C0100200400002077
:100BA000B0B5154C40F20771204600F00BFF10B3B2
:100BB000204640F2077100F001FF104D2878697857
:100BC000884208D2411C29700D49095C2046BDE8C5
:100BD000B04000F0CBBE204640F2077100F0F2FEBC
:100BE0000028F8D0002007212880A8702046BDE802
:100BF000B04000F0EFBEB0BD00380140D000002092
:100C000008000020FEE70000034800218181818068
:100C10000160C0F8061070478001002002480021E2
:100C20000181416001607047300100200149FFF7F8
:100C300009BD00BF0024014080B5FFF789FD00F029
:100C40009FFB00F065F9FFF779FC00F01BFEBDE8A3
:100C5000804000F0E9BD00000348016811B101685F
:100C600001390160704700BF900100204B4900EB43
:100C7000800051F8202022F00102FFF7AFBC00BF36
:100C8000464900EB800051F8202042F00102FFF7B6
:100C9000A5BC00BF414900EB800051F8202022F0A4
:100CA0002002FFF79BBC00BF70B53C4A00EB800000
:100CB00052F8203023F0010342F8203002EB800389
:100CC0000C689C60CC68DC600C8B5C6052F8203057
:100CD0004C680D69CE6923F47C5323432B43334383
:100CE00042F8203052F820300C7A0D7D23F040037A
:100CF000012C08BF403342F82030012D52F820303B
:100D000023F0800308BF803342F8203052F82030AF
:100D1000497D23F01003002918BF103342F820301A
:100D200070BD00BF1D4A00EB800052F8203019430F
:100D3000FFF767BC800001FA00F002490A6810431F
:100D400008607047040002400022082918D80123D7
:100D50008B4013F48A7F13D010B50A4B820000EB4E
:100D6000800001FA02F21C6843EA8000224018BFAA
:100D700001228068084018BF01200240BDE81040F1
:100D80001046704700000240044900EB800051F813
:100D9000202022F48042FFF721BC00BF080002405F
:100DA00001490860704700BF1404014005494A69C1
:100DB000024018BF01220968084018BF01201040F6
:100DC000704700BF0004014003480021034A8160CE
:100DD0001288016082807047D40000200040000823
:100DE000F0B5D0F820E0446A00254FF00F0C002742
:100DF000082F0ED022FA07F6F60707D00CFA05F3F3
:100E000001FA05F62EEA030343EA060E043501371C
:100E1000EEE7082500264FF00F0C102D0CD022FA1B
:100E200005F3DB0705D00CFA06F701FA06F3BC431D
:100E30001C4304360135F0E7C0F820E04462F0BD01
:100E4000816170470069084018BF012070472DE993
:100E5000F043D0F800E0D0F80C8000264FF0030CEF
:100E60000027102F14D023FA07F4E4070DD00CFA52
:100E700006F502FA06F928EA05042EEA050544EA11
:100E8000090801FA06F445EA040E02360137E8E7DC
:100E9000C0F800E0C0F80C80BDE8F083F0B501298F
:100EA00041684FF6FF7414BF994319434160A24251
:100EB000816815D1C26B00244FF0010C4FF0030E76
:100EC0000027102F21D00CFA07F515EA030618BFEA
:100ED0002A430EFA04F518BF294302340137F0E71C
:100EE00000244FF0030C0026102E04BF8160F0BDDB
:100EF00023FA06F7FF0705D00CFA04F502FA04F707
:100F0000A943394302340136EEE78160C263F0BD84
:100F1000F8B5604C564D002140222046A847554E5A
:100F20002046022101224023B047534FFFF759FBCF
:100F30004023B8474FF09040FFF766FB4FF09040DA
:100F4000FFF78AFB4FF0904002214FF48072A847D0
:100F50002046FFF759FB2046FFF77EFB2046022183
:100F60004FF48072A8472046022100221023B04788
:100F70002046002103221023B847204601211022D9
:100F8000A8474FF0904003210022EF23B0472046AE
:100F9000032100220323B047FFF74BFB4FF48043AC
:100FA000B047FFF71EFB4FF48043B847FFF741FB04
:100FB0004FF48053B047FFF714FB4FF48053B8470A
:100FC0004FF09040012100224FF48063B0474FF072
:100FD0009040002101224FF48063B847FFF729FBBE
:100FE0004FF40043B047FFF7FCFA4FF40043B84713
:100FF0004FF09040012100224FF40063B0474FF0C2
:101000009040002101224FF40063B84704F5805559
:101010000121002240232846B04728460021012212
:101020004023B847FFF705FB4FF48063B047FFF755
:10103000D8FA4FF48063B847FFF7FBFA4FF4006328
:10104000B047FFF7CEFA4FF40063B847FFF7C9FA8D
:101050004FF40053B047FFF7C4FA4FF40073B047A2
:1010600020464FF40041BDE8F840FFF7E9BE00BF5D
:10107000E10D00084F0E00089D0E000800F0BFFCB7
:10108000FFF7DAFD03484FF48041FFF7D9FE00F087
:10109000EDFBFCE70004004800F01F01012202FA0A
:1010A00001F1034A42EAD00020F0030001607047DA
:1010B00080E100E010B5124B1C6804F4E064A4F574
:1010C0004074B4F5A06F31BF230A0E4C1C6002239C
:1010D0009940C3F104030F2424FA03F31A40114387
:1010E000094A090140EA020383F800131C21012385
:1010F00001EAD00100F01F0003FA00F0885010BD93
:101100000CED00E00005FA0500E100E0034A1140A3
:10111000084303490860BFF34F8F704780FFFF1FEC
:1011200008ED00E07F49214B0A6822F440420A6042
:10113000CA6A1A400928CA6237D8DFE800F00509F0
:10114000111315191D212E25C86A20F4803002E0E4
:10115000C86A40F48030C862C86A20F4807023E016
:1011600008681DE0086812E0086840F4804017E055
:10117000086840F480400AE0086840F400400FE04E
:10118000086840F4004002E0086840F4404008600D
:10119000C86A40F00040C86203E0086840F440407C
:1011A0000860C86A40F48070C8627047FFFEFE7F26
:1011B000F0B55C4A01465C4B10681D4600F00C001F
:1011C000082839D110681468956AC0F38340B5F1D6
:1011D000FF3FC4F3C0640646C8BF0236002C18BFE8
:1011E00006463046B5F1FF3FC8BF1130002C08BF9E
:1011F00030460646002D48BF2136002C18BF064653
:101200003046002D48BF3130002C08BF30461568ED
:10121000946AED0303D4464C00FB04F50CE0956A98
:1012200005F00F050135640052BFB3FBF5F43F4CE8
:10123000B4FBF5F404FB00F5146816681068062981
:1012400084BF0020F0BDC4F303143AA7C0F3C2204A
:101250009C463C5D3B4F385C25FA04F424FA00F0D0
:10126000DFE801F00406083B0E1A22002846F0BD14
:101270002046F0BDC6F30220385C24FA00F0F0BD31
:10128000D16AC9052AD4D06AC0032F485CBF49F689
:101290008070C0F2D500F0BDD06A40064FF4004027
:1012A00058BF48F21200F0BDD16A890715D0D06A44
:1012B00000F00300012828460FD0D06A00F0030098
:1012C000022804BF4FF40040F0BDD06A614600F030
:1012D0000300032818BF00210846F0BD1368D16A37
:1012E000C3F38132DFE802F002060A1000290FD4AE
:1012F0004008F0BD00290DD48008F0BD00290BD4B2
:101300000621B0FBF1F0F0BD002907D4C008F0BD04
:10131000032004E0052002E0072000E00920B4FBE0
:10132000F0F0F0BD0410024000127A00006CDC0204
:1013300000093D000000000000000000010203045D
:1013400006070809461A0008003FAB017346FFF77D
:1013500039F99E46094AFFF798B900BF7346FFF76F
:1013600031F99E46054AFFF772B900BF7346FFF791
:1013700029F99E46014AFFF788B900BF00100240D4
:101380000A480B490068B0FBF1F00138B0F1807FEA
:1013900000D3FEE70749F0220723486006480270A1
:1013A00000228A600B600270704700BF00000020BE
:1013B00040420F0010E000E023ED00E01FB5C74CF5
:1013C000FFF76FF940F2E73069460290472000903E
:1013D00000208DF80C000190204600F08BF9FFF7FB
:1013E00063F9132002210022FFF764FE2046012149
:1013F00000F0DCF91FBD00BF016841F08001016011
:101400007047000010B5032900F2EE80DFE801F01C
:10141000028144BF016A21F001010162816921F06A
:10142000030181611168036A19430162016A21F0B5
:1014300002010162D188036A194301626D490144C6
:101440004FEAB121072900F2CF80012303FA01F10D
:1014500011F0E10F00F0C880016A21F0040101627F
:101460009188036A19430162016A21F0080101624F
:101470001189036A1943016250F8041F21F4807135
:1014800001605189036819430160016821F400710A
:10149000016092890168A5E0016A21F4807101620E
:1014A000C16921F00301C1611168036A43EA0121A6
:1014B0000162016A21F400710162D188036A43EA82
:1014C00001214A4B0162191F884240F08D80016A58
:1014D00021F4806101629188046A44EA0121016279
:1014E000016A21F4006101621189046A44EA012160
:1014F0000162186820F4805018605089196841EA28
:1015000000101860186820F40050186090890101DC
:101510005DE0016A21F010010162816921F44071EE
:1015200081611168036A43EA01110162016A21F0D5
:1015300020010162D188036A43EA01110162B949BD
:10154000884247D0944988424ED1016A21F0400137
:1015500001629188036A43EA01110162016A21F084
:10156000800101621189036A43EA011101621F4887
:10157000016821F4806101605189036843EA8101B7
:101580000160016821F400610160918928E0016A2D
:1015900021F480510162C16921F44071C161116877
:1015A000036A43EA01310162016A21F400510162D8
:1015B000D188036A43EA01310C4B0162191F88424A
:1015C00012D1186820F480401860508981011A688F
:1015D000184607E00648016821F4806101605189DE
:1015E000026889001143016010BD00BF042C014056
:1015F0000440014000D4FEBF032917D8DFE801F002
:101600000205080D50F8181F04E050F8181F06E0F6
:1016100050F81C1F21F0700104E050F81C1F21F449
:10162000E041120201600168114301607047032923
:101630009CBF00EB8100426370470000032917D86C
:10164000DFE801F00205080D50F8181F04E050F81B
:10165000181F06E050F81C1F21F0080104E050F8A4
:101660001C1F21F400611202016001681143016036
:101670007047000010B54B49884215D04749884251
:1016800015D04749884215D04349884215D065494D
:10169000884215D04449884215D0B0F1804F18BF18
:1016A00010BD4FF4806410E040F212340DE040F2BF
:1016B00001440AE04FF4816407E040F20B3404E097
:1016C0004FF4447401E040F211342046FFF74EFE1F
:1016D0002046BDE81040FFF741BE00BF002000409B
:1016E000016841F00101016070470069084018BFBE
:1016F0000120704710B50A888262274A904204D0C0
:10170000264C40F48063A34218D1036823F0700391
:1017100003604B880468234303608B880468234379
:10172000036090428B68C3620AD1136823F440734C
:101730001360CB8814682343136026E08B68C36270
:10174000B0F1804F0ED0154B98420BD0144B9842FD
:1017500008D0344B984205D0124B984202D0124B1D
:10176000984214D1036823F440730360CB88046863
:1017700023439042036008D02A4A904205D00A4A87
:10178000904202D0074A904201D1097B016341692E
:1017900041F00101416110BD002C014000040040F6
:1017A000002000400048014000440140C26811434D
:1017B000C1607047C94301617047426C012922F43E
:1017C000004208BF02F5004242647047B0B588B0DD
:1017D000144CFEF766FF632000256946029017202F
:1017E000FEF703FFFEF715FF04AAFEF71AFF2046D7
:1017F00000213222FFF71BFFFEF733FFFEF71DFF2C
:10180000FEF747FFFEF757FFFEF74EFF14200321B8
:101810000122FFF74FFC20460221FFF7C7FF08B067
:10182000B0BD00BF0040014080B5FFF7CFFFFFF71C
:10183000C5FDFEF743FFBDE88040FEF761BF000035
:101840000248002141600180704700BFC8000020AD
:1018500005480021C0F80A10C0E9061101710160B5
:10186000C180C0F80D107047080100202B48017896
:101870000A2938BF7047002101704948802100F0D3
:1018800093B800BFB0B588B0454C204600F072F860
:1018900020464FF4165100F043F820460021002561
:1018A00000F0A3F82046082100F0A4F8204600F03C
:1018B00080F81B2002210022FFF7FCFB1448694638
:1018C00004958DF808500195039040F20110ADF891
:1018D00014000A20069004F1280000904FF44050B4
:1018E00007900120FFF7E0F90120FFF7D3F901206D
:1018F000FFF74AFA01200221FFF714FA0A2000211B
:101900000022FFF7D7FB0120FFF7BAF908B0B0BDFE
:101910001200002001480521017070479401002049
:10192000B0B504461E480D46844204D01D4884428A
:1019300005D1022000E00620FFF73AFC00E000207D
:101940002168090405D400EB5500B0FBF5F080B226
:101950000AE040004FF6F07100EB5500B0FBF5F0E7
:101960000140C0F342000844E060B0BD6FF35F2166
:101970008162704710B50A49884206D009498842F9
:1019800018BF10BD40F2114401E040F20E34204671
:10199000FFF7ECFC2046BDE81040FFF7DFBC00BFBE
:1019A0000038014000440040826822F08002FEF7C7
:1019B00010BE016841F001010160704701F01F0194
:1019C000FEF754BE8A0901F01F011058C84000F00C
:1019D0000100704701F01F020123890903FA02F296
:1019E0000B5823EA02020A507047026822F00402F0
:1019F000FEF702BE026822F00802FEF7FDBD80B5C8
:101A0000FEF7F2FCFFF786FFFFF71AFFFEF7BEFDB9
:101A1000FEF7CAFDFFF71CFFFFF700F9FEF7FCFC1D
:101A2000FFF7D2F9BDE88040FFF7EEB8F1EE100AFB
:101A30004FF6FF71C0F2C03120EA010040F0407063
:101A4000E1EE100A704700000000010203040000EC
:101A5000701A000800000020200000008C0100081F
:101A6000901A00082000002078090000A801000852
:101A700000A24A04E8030000AC030564003F86218D
:101A8000018B7465737431323334353600000000D5
:04000005080001519D
:00000001FF
