:020000040800F2
:1000000088090020F1010008891000083D0A000855
:10001000AD0D0008E105000891190008000000007E
:10002000000000000000000000000000E3120008D3
:100030003F06000800000000E11200084513000818
:100040000B0200080B0200080B0200080B0200085C
:100050000B0200080B0200080B020008AD090008A3
:100060000B0200083D0600080B0200080B02000806
:100070003D0300080B0200080B0200080B020008F9
:100080000B0200080B020008000000000115000828
:100090003D1600080B0200080B0200080B020008C6
:1000A0000B0200080B0200080B02000829190008C7
:1000B0000B020008000000000B0200080000000016
:1000C0000B020008000000000B0200080000000006
:1000D0000000000000000000000000000000000020
:1000E00000000000000000000B02000800000000FB
:1000F0000000000000000000000000000000000000
:100100000B020008000000000000000000000000DA
:1001100000000000000000000000000000000000DF
:1001200000000000000000000000000000000000CF
:1001300000000000000000000000000000000000BF
:100140000000000000000000000000000B0200089A
:1001500000F002F800F03CF80AA090E8000C82449D
:100160008344AAF10107DA4501D100F031F8AFF27A
:10017000090EBAE80F0013F0010F18BFFB1A43F085
:1001800001031847FC2A00001C2B0000103A24BF72
:1001900078C878C1FAD8520724BF30C830C144BFEC
:1001A00004680C607047000000230024002500262E
:1001B000103A28BF78C1FBD8520728BF30C148BFCA
:1001C0000B6070471FB502F04AFD1FBD10B510BD92
:1001D00000F07AF81146FFF7F5FF02F015F800F08D
:1001E00098F803B4FFF7F2FF03BC00F09FF800009B
:1001F0000948804709480047FEE7FEE7FEE7FEE7BB
:10020000FEE7FEE7FEE7FEE7FEE7FEE704480549F6
:10021000054A064B704700004913000851010008C9
:10022000880100208809002088050020880500201A
:100230004FF000020429C0F0128010F0030C00F00F
:100240001B80CCF1040CBCF1020F18BF00F8012B8D
:10025000A8BF20F8022BA1EB0C0100F00DB85FEA5B
:10026000C17C24BF00F8012B00F8012B48BF00F827
:10027000012B70474FF0000200B513469446964696
:10028000203922BFA0E80C50A0E80C50B1F12001A9
:10029000BFF4F7AF090728BFA0E80C5048BF0CC057
:1002A0005DF804EB890028BF40F8042B08BF7047B5
:1002B00048BF20F8022B11F0804F18BF00F8012B27
:1002C0007047704770477047754600F02BF8AE4690
:1002D00005006946534620F00700854618B020B552
:1002E000FFF794FFBDE820404FF000064FF00007F5
:1002F0004FF000084FF0000BAC46ACE8C009ACE88A
:10030000C009ACE8C009ACE8C00921F007018D467E
:10031000704710B50446AFF300802046BDE810409A
:10032000FFF75FBF00487047180000200149182000
:10033000ABBEFEE72600020070470000B0B52648BD
:100340000168013101604FF090404FF4807101F07D
:100350003BFE9C480078012818D1B648418BB1F586
:10036000597F11D3017901310171C8B202280DD32F
:100370001A4800210022002402F081FA18480121C5
:1003800004701848017001E000210171A9488178CA
:1003900079B10021092919D000EB41020131138BF9
:1003A000D48823449CB2E508A3EBD4035585D380BD
:1003B000F0E7012181700021092907D000EB4102FB
:1003C0000131138BC3EBC303D380F5E70220BDE8F3
:1003D000B04001F08BBB00BF7C000020002C01402E
:1003E00018010020730100209248C17811B100214A
:1003F0004170C170704700BF10B500F0F3F80120E4
:100400004FF4202101F05EFB002001F007FB0120EA
:10041000092101F0DFFA1E4C002000210222A04732
:10042000012001210222A047022002210222A0472E
:10043000032003210222A047042005210222A04715
:10044000052006210222A047062007210222A047FC
:10045000072008210222A047082009210222A047E4
:100460000120012101F012FB0120032101F0E0FA3B
:1004700001F002FB01F09EFA01F0F8FA0C200221D3
:10048000002201F00FFF0220BDE8104001F034BB54
:10049000251B000810B5674C00201221A0704FF4F6
:1004A00080702080A01DFFF7C3FE04F11800122108
:1004B000FFF7E0FE04F12A001221FFF7B9FE10BD9C
:1004C000AC4840F2EF71408988421DD340F2C551DB
:1004D00042F2737248436421B0FBF1F047F2BD4130
:1004E000401A904238BF02463C48C72A98BFC722EC
:1004F000C168826064398A4203D2334A0123C160F1
:1005000013700021017070473448017819B92E49E1
:10051000012202700A70C721C0E90211704700BFB2
:100520000F4842F274720188914214D3914840F20C
:100530008A714089884211D30A4942F2107200FB45
:10054000021040F29131B0FBF1F142F2737081423E
:1005500038BF084600E000882049C860704700BFE7
:100560000240000870A8D9FE80B5AE4800680B387C
:10057000582898BFFFF7A4FF18484188142920D3B2
:10058000002141800F490978022905D0012918D19D
:10059000BDE88040FFF794BF81880131818089B236
:1005A000B4290ED3002142F2AB628180C16891422E
:1005B00004D8054A01236431137001E042F27371DB
:1005C000C16080BD70010020CC00002003480021E4
:1005D0008160C0F802100170704700BF2C0100203C
:1005E000FEE7000010B588B00020002401F08EFB6B
:1005F000104869468DF80840183003900E48009066
:100600004FF4806004904FF440500790092006900A
:100610000120ADF814004FF480700190002001F02B
:100620008DFB002001F068FB002001F05BFB08B0AF
:1006300010BD00BF840000204C240140704770476B
:10064000418802888B1A38BF531A9AB2642A84BF31
:10065000012070478088421A38BF0A1A91B20020E0
:10066000642988BF01207047CF48C088B0F53A7F21
:1006700002D3B0F5D96F08D97348008AC1087C2924
:1006800084BF01207047013000E000206E490882DD
:1006900000207047C44A6C48D0F80610D288C28047
:1006A0008160704770B53148314D01882A88013129
:1006B000018089B291420DD3634C0021BA4A018076
:1006C0002046D68850F8061F0680C0F80210FFF7B3
:1006D000B7FF10B10124204670BD40F29940864218
:1006E0000AD8B4F90400632839DC40F25D418E4237
:1006F00014D3052101300DE040F21751B4F9040084
:100700008E4209D310282ADB40F253518E4215D86D
:1007100005210138298021E0002421E00121B6F5DE
:10072000597F88BF022129804FF0030188BF022131
:10073000084400B26428A8BF64200FE040F24C6176
:1007400001228E426FF0020138BF02222A8038BF98
:100750000131084480B20F2898BF0F20A0800124E7
:1007600002B21948002102F08AF8B4E77E010020A5
:1007700000000020AE000020B0B533488178023977
:10078000042917D8418A0131418289B2C82911D37D
:100790000022818A438B048BC58AC0F81220828B89
:1007A000C182838344830583C2831A4422442A443A
:1007B00011440184B0BD00BF02462348002182805D
:1007C000014802F05CB800BF0044014010B50720AA
:1007D00001F05AFD1C4CA078053801281FD811489B
:1007E0000168B1F5FA6F1CD94FF4FA610160A08A73
:1007F0004FF6FE71884238BF0130A082606A10F166
:10080000020F38BF0130606200F00EF8A16A6FF08D
:100810000102531A834288BF0A18A26210BD002049
:10082000A08210BD3C0100200748008C052801D2A1
:10083000012007E0F9288FBF40F6C410404319217A
:10084000B0FBF1F080B270474401002010B5554C68
:100850000020208320811820FFF7AEFF0220A07225
:1008600010BD00BFB0B54F4C002518202583258151
:10087000FFF7A2FF0220C4E90B556561C4E90755E3
:1008800065622560A072B0BD10B5464C606860B36B
:1008900000206060FFF7FEFEA07A023804286BD8C3
:1008A000DFE800F00324435C65002089092861D952
:1008B00041F28731884287BF0120E07201302081F8
:1008C00004F10E00FFF7BCFE002855D1002040F6D1
:1008D000B8012081E089A082B148C088884237D819
:1008E0003C20FFF769FF032036E010BD208909286E
:1008F00040D941F28731884287BF0120E072013040
:10090000208104F10E00FFF79BFEA8BBA448C0881D
:10091000B0F5BA7F30D3002020811E20FFF74CFFB6
:100920000420A072E089E08226E02089092821D9EC
:10093000FFF7B8FE78B3208941F28731884219D990
:10094000974840F6BA01C088884228D30020208109
:100950001E20FFF731FF0620A0720DE02089092834
:1009600008D900F0C9FBFFF77FFE88B904E02089B1
:10097000092805D801302081BDE81040FFF7FCBEF2
:1009800000F0BAFB864840F67A01C0888842F3D866
:10099000FFF75CFFF0E74FF4A020A060ECE7012038
:1009A000E072E9E73C010020AE00002080B54FF482
:1009B000007001F037FA40B10D4800224168C0E9EB
:1009C00001214FF4007001F027FA4FF4005001F0BC
:1009D00029FA58B10648016801310160FFF7F6FEB7
:1009E0004FF40050BDE8804001F016BA80BD00BF52
:1009F0007800002080B507200221002201F052FC7F
:100A00000120092101F0B4FD01200D2101F0B0FD0C
:100A10004FF4007001F000FA4FF4005001F0FCF9BF
:100A20004FF400700021012201F0C8F94FF400508A
:100A300000210122BDE8804001F0C0B9FEE70000BE
:100A4000094A9378834209D38B4205D24FF09040F4
:100A50004FF4806101F0B6BA002090704FF09040E2
:100A60004FF4806101F0ACBA00010020F0B55348AA
:100A7000494CC18824884F1C4189C7804E1CC189BC
:100A800046814D1C418AC5814B1CC18A43824A1C48
:100A90000188C2820131B4F5577F01800CD8BEB203
:100AA000142E1CD3454E1427F7807779012F1CBFD5
:100AB00040F20117B78012E000274760A4F2ED472B
:100AC0007F08F62F0BD8B5B2142D1CD31425458101
:100AD000457A012D1CBF40F20115058113E0374E08
:100AE0000027B760A4F60307B7F5137F0BD8ABB2A6
:100AF000142B1ED31423F381737B012B1CBF40F2F4
:100B00000113B38115E00025A4F6C924B4F5297FAB
:100B1000C5600ED89BB2142B0ED3204B00241C7042
:100B200014234382437C012B1CBF40F20113038238
:100B300002E0224B00241C61194B40F656441B89ED
:100B4000A34209D31D4C214604F1160331F8022FAC
:100B5000632A1DD9FF2218E040F61A34A34208D3B5
:100B6000164B91B29C1C632912D903F11601012284
:100B70000BE040F2A52293420DD8841C89B200F10B
:100B80001603642904D300220146027564200880FC
:100B9000002020801880F0BD9C0000200301002070
:100BA000AE000020054801210022062903D040F8AC
:100BB00021200131F9E7002101607047D8000020B1
:100BC000F8B55B48007802280CD001281AD15B48A0
:100BD000008C80B3642831D87349C870C0F16400B8
:100BE00088702FE05348704D002400786C800128F5
:100BF00013D1514800780F2866D300244FF0000C21
:100C00006C6066E06848002100244FF0000C4181D0
:100C1000C0F80610C0F8021061E000F0A7F86148C3
:100C200040F24B424FF0030C0168914284BF4FF0F9
:100C3000000C03244DE05C48642102E05A484FF464
:100C4000C8414180574840F24C41006888420CD36B
:100C500055484FF480714FF0000C0124A0F80910A2
:100C60004078B0FA80F0430910E04F4A4FF0020C90
:100C70000121A2F809C05170314A1378022B0FBF2D
:100C80000024117000244FF0020C00232D49464D22
:100C900009784A082C492A720E782C490978012EC5
:100CA00008BF0321E97263B12B788BB30026AE71C4
:100CB0004FF4F246022BAE8036D0012B10D1062322
:100CC00033E0234B6B600BE000F050F800244FF052
:100CD000000C002185F809C0AC72E972297200226B
:100CE000314B1C4E5D885F799879A6F803501D79C9
:100CF000DB7903EBC01007EBC515B0714FEA0C10A0
:100D0000757100EB821000EB84000844F071F8BDAF
:100D1000D34B1B68642BE3D300F028F82A7A95F8AC
:100D200009C0AC7AE97ADBE75B23EB71D8E700BF57
:100D3000700100207601002078010020440100208D
:100D40002201002071010020040100200101002087
:100D50000038003F0C00002013480021C0F80210AA
:100D60000180C0F806104181704700BFB0B5B94896
:100D700042F20F710C4C056800208D424FF00001CB
:100D800088BF0121B5F57A7F217103D34FF47A70C2
:100D900000F0A1F96071642000F09DF9E07101207C
:100DA000A071B0BD38010020F0000020FEE7000077
:100DB0002DE9F041A14CA0780A2806D30A204FF46F
:100DC0008041A0709E4801F0FBF82078022800F0D6
:100DD0009A80012848D0002840F0F480FFF7A0FB5B
:100DE000A24800256571A4F80350A581C4F80650F7
:100DF0000570A0480570A0480570A0480570A0487F
:100E00000570A0480570FFF7A7FF9648934EDFF8DE
:100E1000388201276770456005609148C8F8035023
:100E2000C8F800500560307801280DD184484FF48F
:100E30008041357001F0C6F82770A570FFF712FDEC
:100E4000854888F802700770307C012840F0BA802D
:100E500081480121017002204FF4804120707848C0
:100E6000BDE8F04101F0ACB87D4801680131016096
:100E700074484FF6FF710088884204D04FF6EF7037
:100E80007349103008807048764901220025637844
:100E9000A57002700A7040F20112437082806B4AA2
:100EA000168A782E4FF0000638BF0126D289782A9C
:100EB0004FF0000238BF01223240C270674A1678F4
:100EC000012E02BF1570258000231579012D06D152
:100ED000002515710125012B08BF02256570137AC5
:100EE000012B06D1002313728378013B18BF012325
:100EF0008370127C0AB1002222705B4A127812B30E
:100F00000122E27021E04F480188A079012904D133
:100F1000012802D00120A07101E0012858D14C49DC
:100F2000012042F2737208804A490A60617A11B95D
:100F3000494960720870454840F6F8214089884266
:100F40002AD900202DE0E27822B1484A012313700B
:100F500000220A70464A1378022B10D10222227115
:100F60000022C0F80320026042484A600A60012162
:100F700001706079322825D33220228009E022795D
:100F8000012B08BF002A3ED0012A3ED0022AE7D01A
:100F900000206071BDE8F08140F6E321884202D86C
:100FA000012029498871207A3C2824BF3C202072E6
:100FB0002A480178012903D10021A1720170217210
:100FC000007C08B1BDE8F08100202070BDE8F08110
:100FD0000020A072A08950B14FF6F071884222BF64
:100FE0004FF6EF700130A081174801218171174839
:100FF00040F60431408988420ED3207A0028D7D0A9
:101000000120A07113E001202071002001216071F6
:1010100018480170BDE8F08140F6F821884208D3F5
:10102000E079782824BF47F60100E0800020207294
:10103000BEE70020A4F80700BAE700BF7001002057
:1010400000040048004000080A010020AE00002013
:10105000D000002038010020CC000020DC0000205F
:101060003C0100201801002025010020F000002094
:1010700022010020F100002026010020270100208D
:101080002301002024010020704701EB410002FAF7
:1010900000F1072202FA00F05A6822EA0000084331
:1010A0005860B0BD4FF4702000F01CBF00F01F016D
:1010B0000122800902FA01F1704741F820207047AF
:1010C00020460021012270478DF80C5001950090B8
:1010D000204601F037BC0A21B5FBF0F0B0FBF1F17E
:1010E00001EB8101A0EB410001F0A6B804F1006022
:1010F0004FF4004100F066BF07200221002201F0FA
:10110000D1B801EB41001E3802FA00F1072202FAC1
:1011100000F01A6822EA0000084318607047026075
:101120000268114301607047022100224FF480736E
:101130003047012005950695ADF81C50002104901C
:1011400070474FF090404FF4806100F039BF204667
:1011500001F07ABA204601F07DBA01FA00F405FAEE
:1011600000F0704705464FF470200C4600F0BABE00
:10117000204601210022704720460021602201F014
:1011800063BB0A6822EA000008607047835823EABC
:10119000010181507047002103224FF480733847CA
:1011A00020460021002201F071BB306840F00100B0
:1011B00030604FF470202C6000F094BE012202FADF
:1011C00001F1026A1143016270472046012101F0DA
:1011D0001CBC316821F00101316070BD8358194396
:1011E000815070471378013313707047204601F027
:1011F0009FBB204601F066BB0A7801320A70704737
:1012000020460021002201F03ABB0000B0B588B0B2
:101210000E4CFFF7EEFF40F2E730002569460290E2
:101220004720FFF751FFFFF784FF04AAFFF792FF63
:10123000FFF7E6FFFFF7A0FFFFF7B2FFFFF7C5FFDD
:10124000FFF785FFFFF7D2FF08B0B0BD002C0140CB
:10125000B0B588B00E4CFFF7CCFF6320002569467F
:1012600002904720FFF730FFFFF763FF04AAFFF764
:1012700071FFFFF7C5FFFFF77FFFFFF791FFFFF754
:10128000A4FFFFF764FFFFF7B1FF08B0B0BD00BFD8
:1012900000440140B0B588B0104CFFF7AAFF40F2FF
:1012A000E7300025694602904720FFF70DFFFFF762
:1012B00040FF04AAFFF74EFF204600214FF47A7248
:1012C00001F0DDFAFFF758FFFFF76AFFFFF77DFF38
:1012D000FFF73DFFFFF78AFF08B0B0BD00040040F4
:1012E0007047704710B5164C4FF4C060A04740F2ED
:1012F0001150A04740F21250A04740F21350A047AF
:1013000040F21650A0474FF4A060A04740F2096099
:10131000A04740F20E60A04740F20B60A04740F2A9
:101320000170A0474FF4E160A0474FF4C260A047AE
:1013300040F21160A0470620BDE8104000F0EABF6F
:101340003D25000800F0C4BC6148816901F0060138
:1013500006294BD08169890448D55E495E4A0160FF
:10136000026041604260C16841F02001C160C16813
:1013700041F04001C1608168C907FCD1C16821F01A
:101380002001C160C16841F01001C1605349826908
:1013900012F0060F06D0826902F00602022A03D17B
:1013A000BB2200E0A5220A808269DF2303EA122221
:1013B0004A808269C2F307428A808269120ECA801B
:1013C000C269D2B20A81C26992B2120A4A818168A4
:1013D000C907FCD1C16821F01001C160C16821F4C6
:1013E0000071C160C16841F08001C1603C48016882
:1013F00041F4700101603B4850F8041C41F00101C8
:1014000040F8041C50F8041C8907FBD50168364AD3
:1014100040F2031321F00301016050F8041C114055
:10142000324A40F8041C01681140314A01600168E9
:10143000114001602F49826A0A408262C26A9A435F
:101440002D4BC262C26A22F48032C262C26A22F0AA
:101450000042C262026B22F001020263D0F8BC209B
:1014600022F48032C0F8BC2000224260C0F8C820BC
:1014700002680260026842F400520260026842F4AC
:101480008062026002681A400260826A11401B4A50
:101490008162016811430160816A816250F8041C15
:1014A00041F0807140F8041C50F8041C8901FBD500
:1014B000016821F003010160016841F0020101604F
:1014C00001680907FCD54FF00060002100F016BF4D
:1014D0000420024023016745AB89EFCD00F8FF1FD0
:1014E00088ED00E004100240FFFFF2FE0C00FF0850
:1014F000FFFFC277F0FFFF3FFFFFC0F700000408C7
:1015000010B5374C0121204601F017FA002866D0AB
:10151000FFF7ACFAFFF74CFCFFF752FB00F0B2F814
:1015200030480168013101602F48017801310170B4
:101530002E480178013101702D4801780131017088
:101540002C48017801310170C9B2642941D32A4A7B
:1015500000210170FFF746FE284AFFF743FE284AA4
:10156000FFF740FE274AFFF73DFE274AFFF73AFE06
:10157000264AFFF737FE264AFFF734FE254AFFF7D3
:1015800031FE254A138801331380427801324270BC
:10159000D2B20A2A1DD341702049FFF72DFE2049FF
:1015A0000A8801320A801F49FFF726FE1E49FFF70D
:1015B00023FE1E49FFF720FE1D49FFF71DFE1D49B2
:1015C000FFF71AFE1C490978012902D04168013150
:1015D000416020460121BDE8104001F013BA10BD62
:1015E000002000404001002087000020270100204B
:1015F000C8000020C0000020260100202301002098
:101600002401002002010020290100202A010020DD
:101610002B010020750100202E0100207201002006
:101620007C0100207A010020770100207801002051
:10163000CD000020030100207601002010B5104CE1
:101640000121204601F079F918B12046012101F06D
:10165000D9F92046022101F070F918B12046022183
:1016600001F0D0F920464FF4007101F066F930B175
:1016700020464FF40071BDE8104001F0C3B910BD21
:101680000040014070B59D4DE8880130E880A87A9F
:1016900030B14FF090404FF4006100F093FC05E052
:1016A0004FF090404FF4006100F08AFCE87A944CCF
:1016B000022811D001281CD1FFF718FD9148008C99
:1016C00070B364282FD84FF4E17148436421B0FB14
:1016D000F1F000F5E17028E0FFF708FDE9884FF42C
:1016E00061702881032926D30320E8804FF46170BC
:1016F00021E08549002028810860E988022908D86E
:10170000E88004F100604FF4004100F059FC2889A2
:1017100011E0002042F21172914228BFE8800AE0F5
:101720004FF4E17001E04FF47A70E98828810329D1
:1017300024BF0321E98080B200210026C0F57A721F
:10174000204601F09CF8287B90B1E878782824BFE7
:10175000002028736D48007805280ED10020022152
:101760002873687028716A480170FFF7EAFC1EE070
:10177000FFF7E7FCC5F8016019E00328687024BF93
:101780000121297103280ED002280AD00128ECD1AA
:101790004FF090404FF4806100F014FC0020A870DE
:1017A00005E0002000E014202821FFF749F9687BBC
:1017B00020B15848402100F005FC03E05548402185
:1017C00000F0FEFBA87B30B104F100604FF48061B3
:1017D00000F0F6FB05E004F100604FF4806100F0DA
:1017E000F1FBE87B30B104F100604FF4006100F0E0
:1017F000E7FB05E004F100604FF4006100F0E2FB5C
:10180000287C30B104F100604FF4805100F0DAFB25
:1018100005E004F100604FF4805100F0D1FB287E18
:1018200068B13D4840F697014089884214D840018C
:101830001121B0FBF1F041F286210A1A1BE00020D1
:101840000021002285F82000E8836883287004F5D1
:10185000943001F014F847E030496FF4177200FB40
:1018600002110A2291FBF2F148432D4990FBF1F05D
:1018700041F22C5142182B48B2F57A7F28BF4FF421
:101880007A72B2F5967F98BF4FF49672AA8302607F
:10189000E88B012804D800204FF47A7268831AE09C
:1018A000B0F57A7F10D895F82000092811D90020CA
:1018B00091B285F82000688B884203D86422B1FB7E
:1018C000F2F142186A8305E04FF47A706A83E88384
:1018D00001E06A8B92B204F59430002100F0CFFF52
:1018E000287808B901202870E88B0130E88395F842
:1018F0002000013085F8200070BD00BF00010020ED
:1019000000040040440100207C0000202801002049
:10191000F000002000140048AE000020D0BD3500CB
:101920006079FEFF08000020B0B5164C40F2077148
:10193000204601F056F918B3204640F2077101F035
:101940004CF9114DA978E878884208D2411CE97019
:101950000E49095C2046BDE8B04001F01BB92046A5
:1019600040F2077101F03DF90028F8D0002007216E
:10197000E870A5F801002046BDE8B04001F039B993
:10198000B0BD00BF00380140C80000200C0000209E
:10199000FEE7000003480021818181800160C0F8DA
:1019A0000610704770010020BF480021018141608E
:1019B000016070474C48016841F00801016001680E
:1019C0000907FCD4016841F004010160016849077E
:1019D000FCD47047022810D001281CD10E480268A0
:1019E00022F4700202604FF4700202EB01510268AF
:1019F0003FFA81F11143016070470748C26822F441
:101A00004012C2604FF4401202EB0151C26801F46F
:101A100040111143C16070472C2401403249002815
:101A20000A6822F4006218BF02F500620A6070477B
:101A30003B4A0228136823F4C053136010D00128D6
:101A400013D1106820F4604010604FF4604000EB48
:101A50004130116880B2084310604FF4006001E02B
:101A60004FF4805011680843106070471E480168A9
:101A700041F48071016070471B480168C90703D1B8
:101A8000016841F001010160704700BF164A00F093
:101A9000010351B11BB1116841F48011116080073D
:101AA0000ED5106840F4004009E01BB1116821F424
:101AB00080111160800703D5106820F40040106089
:101AC000704700BF012804D002280BD16FF4E0401A
:101AD00001E06FF46020044A136818401060106839
:101AE00008431060704700BF082401400149FFF718
:101AF00048BB00BF00240140C107094903D00A6860
:101B000042F040020A60820703D50A6842F02002D0
:101B10000A60400703D5086840F0800008607047FD
:101B200004240140B0B5194B05280AD800EB800009
:101B30001F25FFF712FB9D6A25EA000020439862EB
:101B40001AE00B280BD800EB80001F251E38FFF78A
:101B500004FB5D6A25EA0000204358620CE010286F
:101B60000AD200EB80001F253C38FFF7F6FA1D6A09
:101B700025EA000020431862092901D8FFF785BA39
:101B8000122901D8FFF7BDFAB0BD00BF0C240140F7
:101B900010B543480078012861D142484088B0F52B
:101BA0003A7F09D340484179642918D341F602614C
:101BB000A0F8031064210BE0B0F59B7F0AD33A48EC
:101BC00001791E2924BF41F60161A0F8031000210C
:101BD000417104E0344800214171A0F803103348FA
:101BE0008288B2F57A6F01D8632A27D82E49CA793C
:101BF0001E2A24BF41F60562CA8000220A7201F142
:101C0000090200214089117040F28971884209D887
:101C100025498A78481C0A2A1FD302220A700A2200
:101C20008A701AE040F62E01884212D81E494A787E
:101C3000881C0A2A24BF0A224A700EE01A4900238F
:101C400040F2CB44A242CB710AD30B7201228A71BB
:101C5000D5E715480021A0F801100021017010BD42
:101C600040F22B439A4209D30B7A01F109021F2B50
:101C7000C7D302238B711E230B72C2E7B2F55A7FC2
:101C800009D94B7A01F108021E2BBAD303238B71B9
:101C90001E234B72B5E700220A720422D7E700BF69
:101CA000700100209C00002022010020AE000020D6
:101CB00080B5FFF717FB00F08DFC00F0EBF9FEF7A5
:101CC0009BFB00F01FFFBDE8804000F0D5BE000088
:101CD0000348016811B1016801390160704700BF14
:101CE00080010020344900EB800051F8202042F0B0
:101CF0000102FFF7E2B900BF2F4900EB800051F865
:101D0000202042F02002FFF7D8B900BF0A4A00EBBA
:101D10008001800002EB81014B6823F001034B60DE
:101D200000234B608B60CB600B610F2101FA00F048
:101D300011680843106070470400024070B51E4AE5
:101D400000EB800052F8203023F0010342F82030ED
:101D500002EB80030C689C60CC68DC600C8B5C60E0
:101D600052F820304C680D69CE6923F47C5323432C
:101D70002B43334342F8203052F820300C7A0D7D4B
:101D800023F04003012C08BF403342F82030012DDE
:101D900052F8203023F0800308BF803342F820300F
:101DA00052F82030497D23F01003002918BF10336A
:101DB00042F8203070BD00BF0800024010B51F4B34
:101DC0001C6884431C605C6884435C609C6884433A
:101DD0009C60DC6884430129DC6004D031B9196857
:101DE0000143196002E0596801435960022A09D091
:101DF000C143012A09D072B99A6810439860D86823
:101E0000084007E09968014301E09A681140996031
:101E1000D9680843D86010BD01490860704700BF09
:101E20001404014005494A69024018BF01220968AB
:101E3000084018BF01201040704700BF0004014057
:101E4000B0B51048144D0068A98841EA0040A86068
:101E50002878012818BFB0BD0020287000F064F871
:101E60000E4C204600F026F8342000F019F8A9683E
:101E7000204600F069F8342000F012F8BDE8B040C8
:101E800000F012B83801002003480021034A8160A5
:101E90001288016082807047CC000020004000085A
:101EA00020490860704700BF2C48016841F080015C
:101EB00001607047B0B50446FFF7F4F800B1B0BD5B
:101EC000264D286840F0020028606C60286840F0C9
:101ED00040002860FFF7E6F8296821F00201296038
:101EE000B0BD00BF70B5441E0025013C45F10006A1
:101EF00000F008F8012801D1002EF6D1012808BF12
:101F0000042070BD07480168C9071CBF0120704745
:101F10000168C9064FBF03200068022101EA500092
:101F2000704700BF0C2002400448C168090603D571
:101F30000349016003490160704700BF042002406B
:101F400023016745AB89EFCD70B5FFF70BF900B101
:101F500070BD024EFFF729F9FFF73BB91020024090
:101F6000F0B5D0F820E0446A00254FF00F0C0027B0
:101F7000082F0ED022FA07F6F60707D00CFA05F361
:101F800001FA05F62EEA030343EA060E043501378B
:101F9000EEE7082500264FF00F0C102D0CD022FA8A
:101FA00005F3DB0705D00CFA06F701FA06F3BC438C
:101FB0001C4304360135F0E7C0F820E04462F0BD70
:101FC00081627047816170470069084018BF012035
:101FD00070472DE9F043D0F800E0D0F80C800026DF
:101FE0004FF0030C0027102F14D023FA07F4E40756
:101FF0000DD00CFA06F502FA06F928EA05042EEAD5
:10200000050544EA090801FA06F445EA040E023619
:102010000137E8E7C0F800E0C0F80C80BDE8F083C5
:10202000F0B5012941684FF6FF7414BF9943194375
:102030004160A242816815D1C26B00244FF0010CAF
:102040004FF0030E0027102F21D00CFA07F515EAE8
:10205000030618BF2A430EFA04F518BF29430234B9
:102060000137F0E700244FF0030C0026102E04BFC8
:102070008160F0BD23FA06F7FF0705D00CFA04F5DE
:1020800002FA04F7A943394302340136EEE78160CE
:10209000C263F0BDF8B5674C584D00214022204680
:1020A000A847574E2046022101224023B047554FF2
:1020B000FFF706F84023B8474FF09040FFF734F899
:1020C0004FF09040FFF767F84FF0904002214FF437
:1020D0008072A8472046FFF727F82046FFF75BF8F5
:1020E000204602214FF48072A84720460221002298
:1020F0001023B0472046002103221023B847204672
:1021000001211022A8474FF0904003210022EF2325
:10211000B0472046032100220323B047FFF728F8E9
:102120004FF48043B047FEF7CBFF4FF48043B847EE
:10213000FFF71EF84FF48053B047FEF7C1FF4FF48E
:102140008053B8474FF09040012100224FF4806344
:10215000B0474FF09040002101224FF48063B84710
:10216000FFF706F84FF40043B047FEF7A9FF4FF41E
:102170000043B8474FF09040012100224FF4006324
:10218000B0474FF09040002101224FF40063B84760
:1021900004F580550121002240232846B0472846F7
:1021A000002101224023B847FEF7E2FF4FF480638D
:1021B000B047FEF785FF4FF48063B847FEF7D8FFBE
:1021C0004FF40063B047FEF77BFF4FF40063B8475E
:1021D0002046002100224FF40053B0472046002142
:1021E00000224FF40073B047FEF704FC20464FF482
:1021F0000041BDE8F840FFF7E5BE00BF611F0008E1
:10220000D31F00082120000800F012FDFFF750FD49
:1022100008484FF48041FFF7D5FEFEF7E5F800F0DF
:102220004FFCFEF731FBFEF79FF9FFF7B1FCFFF71C
:1022300007FEF2E700040048411E08290AD80FF201
:102240000600DFE801F00510121416181A1C1E0013
:1022500006207047452804BF792070474C280CBFE2
:1022600038203F2070475B2070474F207047662022
:1022700070476D2070477D207047072070477F2092
:1022800070476F207047000000F01F01012202FA22
:1022900001F1034A42EAD00020F0030001607047D8
:1022A00080E100E010B5124B1C6804F4E064A4F572
:1022B0004074B4F5A06F31BF230A0E4C1C6002239A
:1022C0009940C3F104030F2424FA03F31A40114385
:1022D000094A090140EA020383F800131C21012383
:1022E00001EAD00100F01F0003FA00F0885010BD91
:1022F0000CED00E00005FA0500E100E0034A1140A2
:10230000084303490860BFF34F8F704780FFFF1FEA
:1023100008ED00E07F49214B0A6822F440420A6040
:10232000CA6A1A400928CA6237D8DFE800F00509EE
:10233000111315191D212E25C86A20F4803002E0E2
:10234000C86A40F48030C862C86A20F4807023E014
:1023500008681DE0086812E0086840F4804017E053
:10236000086840F480400AE0086840F400400FE04C
:10237000086840F4004002E0086840F4404008600B
:10238000C86A40F00040C86203E0086840F440407A
:102390000860C86A40F48070C8627047FFFEFE7F24
:1023A000F0B55C4A01465C4B10681D4600F00C001D
:1023B000082839D110681468956AC0F38340B5F1D4
:1023C000FF3FC4F3C0640646C8BF0236002C18BFE6
:1023D00006463046B5F1FF3FC8BF1130002C08BF9C
:1023E00030460646002D48BF2136002C18BF064651
:1023F0003046002D48BF3130002C08BF30461568EC
:10240000946AED0303D4464C00FB04F50CE0956A96
:1024100005F00F050135640052BFB3FBF5F43F4CE6
:10242000B4FBF5F404FB00F514681668106806297F
:1024300084BF0020F0BDC4F303143AA7C0F3C22048
:102440009C463C5D3B4F385C25FA04F424FA00F0CE
:10245000DFE801F00406083B0E1A22002846F0BD12
:102460002046F0BDC6F30220385C24FA00F0F0BD2F
:10247000D16AC9052AD4D06AC0032F485CBF49F687
:102480008070C0F2D500F0BDD06A40064FF4004025
:1024900058BF48F21200F0BDD16A890715D0D06A42
:1024A00000F00300012828460FD0D06A00F0030096
:1024B000022804BF4FF40040F0BDD06A614600F02E
:1024C0000300032818BF00210846F0BD1368D16A35
:1024D000C3F38132DFE802F002060A1000290FD4AC
:1024E0004008F0BD00290DD48008F0BD00290BD4B0
:1024F0000621B0FBF1F0F0BD002907D4C008F0BD03
:10250000032004E0052002E0072000E00920B4FBDE
:10251000F0F0F0BD0410024000127A00006CDC0202
:1025200000093D000000000000000000010203045B
:1025300006070809782C0008003FAB017346FEF738
:10254000B5FD9E46094AFEF749BE00BF7346FEF739
:10255000ADFD9E46054AFEF719BE00BF7346FEF765
:10256000A5FD9E46014AFEF739BE00BF001002409D
:102570008A08032A2AD80C2303EA81010F23884002
:1025800003FA01F1C943DFE802F0020A121A104A05
:1025900013681940116011680843106070470C4AB5
:1025A0005368194051605168084350607047084AA9
:1025B0009368194091609168084390607047044A9D
:1025C000D3681940D160D1680843D060704700BF1C
:1025D000080001400A484FF47A710068B0FBF1F03E
:1025E0000138B0F1807F00D3FEE70649F0220723CF
:1025F00048600548027000228A600B6002707047D4
:102600000400002010E000E023ED00E01FB5C74CFF
:10261000FEF7EFFD40F2E730694602904720009058
:1026200000208DF80C000190204600F08BF9FEF799
:10263000DDFD132002210022FFF734FE2046012198
:1026400000F0DCF91FBD00BF016841F080010160AE
:102650007047000010B5032900F2EE80DFE801F0BA
:10266000028144BF016A21F001010162816921F008
:10267000030181611168036A19430162016A21F053
:1026800002010162D188036A194301626D49014464
:102690004FEAB121072900F2CF80012303FA01F1AB
:1026A00011F0E10F00F0C880016A21F0040101621D
:1026B0009188036A19430162016A21F008010162ED
:1026C0001189036A1943016250F8041F21F48071D3
:1026D00001605189036819430160016821F40071A8
:1026E000016092890168A5E0016A21F480710162AC
:1026F000C16921F00301C1611168036A43EA012144
:102700000162016A21F400710162D188036A43EA1F
:1027100001214A4B0162191F884240F08D80016AF5
:1027200021F4806101629188046A44EA0121016216
:10273000016A21F4006101621189046A44EA0121FD
:102740000162186820F4805018605089196841EAC5
:1027500000101860186820F400501860908901017A
:102760005DE0016A21F010010162816921F440718C
:1027700081611168036A43EA01110162016A21F073
:1027800020010162D188036A43EA01110162B9495B
:10279000884247D0944988424ED1016A21F04001D5
:1027A00001629188036A43EA01110162016A21F022
:1027B000800101621189036A43EA011101621F4825
:1027C000016821F4806101605189036843EA810155
:1027D0000160016821F400610160918928E0016ACB
:1027E00021F480510162C16921F44071C161116815
:1027F000036A43EA01310162016A21F40051016276
:10280000D188036A43EA01310C4B0162191F8842E7
:1028100012D1186820F480401860508981011A682C
:10282000184607E00648016821F48061016051897B
:10283000026889001143016010BD00BF042C0140F3
:102840000440014000D4FEBF032917D8DFE801F09F
:102850000205080D50F8181F04E050F8181F06E094
:1028600050F81C1F21F0700104E050F81C1F21F4E7
:10287000E0411202016001681143016070470329C1
:102880009CBF00EB8100426370470000032917D80A
:10289000DFE801F00205080D50F8181F04E050F8B9
:1028A000181F06E050F81C1F21F0080104E050F842
:1028B0001C1F21F4006112020160016811430160D4
:1028C0007047000010B54B49884215D047498842EF
:1028D00015D04749884215D04349884215D06549EB
:1028E000884215D04449884215D0B0F1804F18BFB6
:1028F00010BD4FF4806410E040F212340DE040F25D
:1029000001440AE04FF4816407E040F20B3404E034
:102910004FF4447401E040F211342046FFF71EFEEC
:102920002046BDE81040FFF711BE00BF0020004068
:10293000016841F00101016070470069084018BF5B
:102940000120704710B50A888262274A904204D05D
:10295000264C40F48063A34218D1036823F070032F
:1029600003604B880468234303608B880468234317
:10297000036090428B68C3620AD1136823F44073EA
:102980001360CB8814682343136026E08B68C3620E
:10299000B0F1804F0ED0154B98420BD0144B98429B
:1029A00008D0344B984205D0124B984202D0124BBB
:1029B000984214D1036823F440730360CB88046801
:1029C00023439042036008D02A4A904205D00A4A25
:1029D000904202D0074A904201D1097B01634169CC
:1029E00041F00101416110BD002C01400004004094
:1029F000002000400048014000440140C2681143EB
:102A0000C1607047C94301617047426C012922F4DB
:102A1000004208BF02F5004242647047B0B588B07A
:102A2000144CFEF7E6FB6320002569460290172050
:102A3000FEF74AFBFEF77DFB04AAFEF78BFB204660
:102A400000213222FFF71BFFFEF796FBFEF7A8FBE3
:102A5000FEF7BBFBFEF77BFBFEF7C8FB1420032150
:102A60000122FFF71FFC20460221FFF7C7FF08B035
:102A7000B0BD00BF0040014080B5FFF7CFFFFFF7BA
:102A8000C5FDFEF7C3FBFEF7E3FBBDE88040FEF7A4
:102A900001BC00000248002141600180704700BF76
:102AA000C000002005480021C0F80A10C0E9061146
:102AB00001710160C180C0F80D1070470001002055
:102AC00010B520480178642903D3002101704178B2
:102AD00001B110BD0A4A012300214370082B03D025
:102AE000D45C01332144F9E70A23438008BA072163
:102AF000000C10813448BDE8104000F085B800BFDC
:102B00000C00002010B5304C204600F047F820465D
:102B10004FF4165100F018F82046002100F07EF81E
:102B20002046082100F07FF8204600F051F81B20D5
:102B300002210022BDE81040FFF7B4BB0148052187
:102B400001707047C8000020B0B504461E480D460D
:102B5000844204D01D48844205D1022000E00620B2
:102B6000FFF71EFC00E000202168090405D400EBFB
:102B70005500B0FBF5F080B20AE040004FF6F0716E
:102B800000EB5500B0FBF5F00140C0F342000844F3
:102B9000E060B0BD6FF35F218162704710B50A49F4
:102BA000884206D00949884218BF10BD40F211443E
:102BB00001E040F20E342046FFF7D0FC2046BDE88D
:102BC0001040FFF7C3BC00BF003801400044004084
:102BD000016841F001010160704701F01F01FEF73B
:102BE000EDBA8A0901F01F011058C84000F0010039
:102BF000704701F01F020123890903FA02F20B5802
:102C000023EA02020A50704701F01F0201238909DA
:102C100003FA02F20B581A430A507047026822F076
:102C20000402FEF77CBA026822F00802FEF777BAC7
:102C300080B5FDF72FFCFFF781FFFFF72BFFFDF7B6
:102C4000B1FFFEF789F8FFF72DFFFEF7ADFEFDF7A8
:102C5000BDFCFFF719F9BDE88040FEF79BBEF1EE21
:102C6000100A4FF6FF71C0F2C03120EA010040F0B7
:102C70004070E1EE100A70470000000001020304FA
:102C8000A02C000800000020180000008C010008A3
:102C9000B82C00081800002070090000A8010008E6
:102CA0000100000000A24A04E8030000AC03056430
:082CB000003F8621018B0000AA
:04000005080001519D
:00000001FF
