:020000040000FA
:1000000048020020D5000000EF00000009110000A8
:1000100000000000000000000000000000000000E0
:10002000000000000000000000000000F3000000DD
:100030000000000000000000F5000000C5120000F4
:100040001112000019120000211200002D120000F0
:1000500027090000391A0000A11C0000AD1C000097
:10006000F9000000F90000003B12000043120000FC
:100070001F11000027110000211A0000291A00009A
:10008000311A0000F9000000411A0000491A00006E
:10009000511A0000071200000D210000F9000000B5
:1000A00085080000F9000000BD200000C520000008
:1000B000FF110000F111000085090000DB080000BD
:1000C0000348854600F032FB0048004777080000EF
:1000D0004802002009480A4A002100A1814200D9B3
:1000E0000244084802600848804708480047FEE785
:1000F000FEE7FEE7FEE7FEE7FEE700000000002067
:100100000000000008ED00E0CD190000C100000073
:10011000F8B502464A40D40F42004B0052085B0833
:100120009A4202D20246084611464A0023D0C30D25
:100130004A00DDB2120EAD1A202D35DA4902012631
:10014000490AF6058A19002C00D0524220214F1B83
:100150001146B9402A411018C20D9A4221D0002CF4
:1001600017D0012D08DCDA05801AD20F8019D207CA
:10017000DBB200F0DBF8F8BDDA05801A012340009D
:100180001B06C01880185A428018CA0F1043490035
:1001900007E04908C2071143DA05801A80194008B0
:1001A000801800F0BBF8F8BD61000122511A001B55
:1001B000F7E70122D2075140AAE70122D2075040B7
:1001C000A6E770B502464A40D50F40004A00ED0749
:1001D00040085208002814D0002A12D0C40DD30DB4
:1001E00041020120C0055202490A520AE41A0918C4
:1001F00012187D34914201D3641C00E04900002CA8
:1002000001DA002070BD0023914201D3891A034313
:10021000400849000028F7D100290AD0914202D1B4
:100220000121C90705E0914201D2012101E001212C
:10023000C943E005C018401900F070F870BD10B552
:1002400000229623114600F071F810BDC20F410044
:1002500040020123400ADB05D207090EC0187F299E
:1002600001DA00207047962903DC9623591AC8400A
:1002700001E096398840002AF4D04042704770B5BA
:100280000446002903D000202022012310E000288A
:1002900001D00020C043C046C0460DE02546D540F1
:1002A0008D4205D30D469540641B1D46954040196F
:1002B0001546521E002DF1DC214670BDF0B51FB46D
:1002C0000646002082B005464024019100901BE0C4
:1002D000019922460F46304600F04AFA049A059BDF
:1002E000801A994110D310461946224600F030FA80
:1002F000361A8F410197224601200021009F00F00D
:1003000027FA38184D4100902046641E0028DFDC93
:10031000019B00982946324607B0F0BD002904DA57
:10032000401C490001D140084000704770B40024CF
:10033000050C05D11024000402D1002921D011247C
:10034000050E01D100020834050F01D10001241D62
:10035000850F01D18000A41C002801DB4000641C33
:10036000002908D020252E1B0D46F540A14000D0C5
:1003700001212943084301061B1B000ADB1D02D58E
:10038000002070BC7047DB05181880180029F8DAC7
:10039000401C4900F5D170BC400840007047000087
:1003A000F0B507460846584087B0C00F0490480093
:1003B0000E46590040084908BC1A884105D2384603
:1003C00031461E4617460B46024658004008104369
:1003D0004CD0300D039040055900400D490D05905B
:1003E000401A0290402872DA18030121000B090517
:1003F0000843019004980092002805D001995242C8
:100400000020884100920190029840210A1A019927
:10041000009800F09DF905460C466B4607CB00F0AE
:10042000B8F9C0197141039A0E0D0023D717564031
:100430001A467A40164344D0049A002A2DD0029AD4
:10044000012A039A15DC1205C01A914101263605CE
:10045000001C7141D20F059ED207009301920296B3
:100460002A46234600F0B5F907B0F0BD38463146BC
:10047000FAE71605224A0F46B218C01AB741012101
:100480000905001C4F4100187F4111461818794199
:10049000E20F10436D19644113E0E2076D08154344
:1004A0006408C2071443039A01261205C01A914139
:1004B0003605001C7141CE07400830434908C0187A
:1004C00051412A46234600F077F9CDE7FFE704982B
:1004D00001224000C117121A00238B4104983146B3
:1004E000C417381AA141EEE730B40124E407634091
:1004F00030BC55E730B40124E407614030BC4FE71D
:100500000000E0FFF0B51FB488B00B9909980024F3
:1005100048400999C00F490049080991C0070B9943
:100520000090490049080B9109990898A64608438C
:100530001CD00B990A98084318D009980124400050
:10054000420D4800410D099824050003000B20438B
:1005500009900B980003000B20430B9050181C4986
:100560004018002201901446104605E00020014684
:100570000DB0F0BD032801DA034600E003239C46DA
:10058000C11A0AAE0AE05F0008ADED5B4F00F75BF1
:100590007D430027AA187C41491C5B1E6145F2DDA2
:1005A000410004AB5A522104120C0A43240C401C93
:1005B0000828DFDB019802900099704601910090B5
:1005C000059B049A0799069800F003F9D0E700000C
:1005D0000DFCFFFFF0B50C465C4085B0E40FE4076E
:1005E00003944C00002664085900944649080246CA
:1005F0000296224321D062460A431ED06200570D64
:100600004A000E032303550D012402462C492405FC
:10061000781B1B0B360B4018234326436146009082
:100620001C46501AB44103D30098401C009002E0CD
:10063000921800985B41002803DA0020014605B0BB
:10064000F0BD0020012109050746864611E06446F9
:100650001D46141BB54106D36546521BB341744673
:1006600007430C43A646CD07400849082843921883
:100670005B4105460D43EAD11046184313D060464E
:10068000194650407140084306D06046101AB341E5
:1006900006D20122002306E000220123DB0702E04C
:1006A0000122D2435310009874460105381C614161
:1006B000029C039D0019694100F07EF8BFE700002D
:1006C000FD0300004A0009030123090B1B05194320
:1006D0000A4B10B5520D9A4202DA0020014610BDB5
:1006E000064B34339A4203DC9A1A00F041F810BDED
:1006F000034BD21800F02CF810BD0000FF030000DF
:10070000CDFBFFFF10B5002904DB0124E4074042C4
:100710008C412146002B04DB1C460123DB0752429F
:10072000A341994200D1904210BD0000064C012522
:10073000064E05E0E36807CC2B430C3C9847103489
:10074000B442F7D3FFF7C0FCA82E0000C82E00006B
:1007500010B5202A04DB0146203A9140002010BD4C
:10076000914020239C1A0346E3401943904010BD5A
:1007700010B5202A04DB0846203AD040002110BDE5
:100780000B46D340D0402024A21A9140084319467A
:1007900010BD10B5202A06DBCB170846203A1041C1
:1007A000C1170B4306E00B461341D0402024A21A88
:1007B00091400843194610BD10B5002B08DA0024FB
:1007C000401C614192185B411A4301D1400840002E
:1007D00010BDF0B51FB482B005460C0003D008462A
:1007E00001F0C6FE02E001F0C3FE20300246009098
:1007F00021462846FFF7ACFF049B059A04460F46A6
:1008000018431143084314D0184610431BD00098D6
:1008100040210A1A18460599FFF7AAFF05460E4619
:10082000009A05990498FFF793FF084305D001202B
:1008300004E02046394607B0F0BD0020C11705434B
:100840000E432C43374300990E986305401A7905EF
:10085000E40A00220C43FD0A0A3002D500200146BA
:10086000E9E70105101969410C9C0D9D00196941CA
:10087000FFF7A2FFDFE780B501F0A8F801F0D6FD91
:10088000002080BD80B5C046C046C046C04680BD81
:1008900082B0014601A80170007839280ADCFFE720
:1008A00001A80078302805DBFFE701983038694659
:1008B0000870FFE701A8007846280ADCFFE701A8D6
:1008C0000078412805DBFFE7019837386946087052
:1008D000FFE76846007802B0704780B5C046C04662
:1008E00080BD80B582B01C200021019100F0F2FF94
:1008F00001990B2000F0EEFF0199084600F0EAFF95
:1009000002B080BD80B582B01C200121019100F0B1
:10091000E1FF01990B2000F0DDFF0199002000F0BC
:10092000D9FF02B080BD80B5C046C04680BD80B54D
:1009300088B0034607A80290037006AB03931970B2
:1009400005A904910A7000210191405601F006FCAE
:10095000019A029803998056097801F045FC0498A1
:100960000078012806D1FFE7002107A8405601F0D2
:1009700025FC05E0002107A8405601F005FCFFE733
:1009800008B080BD80B5C046C046C046C04680BDE8
:1009900090B002460EA802700DAA117000210091BD
:1009A0000C91DF4A0B920AAA1170099108910791E4
:1009B000069105910491039102913F4901910078BC
:1009C000012820D0FFE70EA8007802281BD0FFE7FF
:1009D0000EA80078042816D0FFE70EA80078062895
:1009E00011D0FFE70EA8007808280CD0FFE70EA86A
:1009F00000780C2807D0FFE70AA9042008700A989D
:100A00000FA9087054E00DA80278C6490868D207FB
:100A1000920D01235B0298438018086000200C901F
:100A2000FFE70C9807280ED8FFE70EA801780C986E
:100A3000820022488058484302A98850FFE70C985A
:100A4000401C0C90EDE700200C90FFE70C98072865
:100A50002AD8FFE7B2480B90FFE701980C9989006C
:100A600040580C998A0002A98958884217D0FFE79C
:100A70000B98411E0B9100280CD0FFE7AA49AB4808
:100A80000860AB4808600C98820002A88058019961
:100A9000885003E00FA90720087009E0DDE7FFE7B1
:100AA0000C98401C0C90D1E70A980FA90870FFE73A
:100AB0000FA8007810B07047000002407C2E0000A4
:100AC00010B5994A994B1360994911604B4C00201D
:100AD0002060136011604A4C206013601160494C23
:100AE0002060136011604849086010BD80B584B073
:100AF000029001A900200870894800900298800C9B
:100B0000002807D0FFE701A904200870019803A975
:100B1000087056E082480090FFE782480068C006EF
:100B2000C00F00280BD0FFE70098411E009100285D
:100B300004D1FFE703A90920087042E0EDE700F0C7
:100B400045F877480090FFE77648006803210840A1
:100B5000022818D0FFE70098411E009100280DD010
:100B6000FFE7714971480860714808606D4908687D
:100B70000222104301229043086003E003A90920E8
:100B800008701EE0E0E702990020087064480090B9
:100B9000FFE764480068C006C00F00280BD0FFE7DD
:100BA0000098411E0091002804D1FFE703A9092005
:100BB000087006E0EDE7FFF783FF019803A90870CE
:100BC000FFE703A8007804B080BDC04610B5564AC0
:100BD000564B1360564911600020C043074C2060FB
:100BE00013601160064C206013601160054C20609A
:100BF000136011600449086010BDC0463000024017
:100C000034000240400002404400024010B582B06F
:100C100001A90870684600220270434B434A1A60DB
:100C2000434A1A600B783F4A11689B071B0F0C243C
:100C3000A143C9181160007802B010BD80B586B01C
:100C4000049003A8017002A90020087034480190A4
:100C50000498800C002807D0FFE702A90420087040
:100C6000029805A9087056E02D480190FFE72D482D
:100C70000068C006C00F00280BD0FFE70198411E96
:100C80000191002804D1FFE705A90920087042E07E
:100C9000EDE723480190FFE7224800680321084060
:100CA000012818D0FFE70198411E019100280DD0BE
:100CB000FFE71D491D4808601D480860194908687C
:100CC0000122104302229043086003E005A9092095
:100CD000087020E0E0E7FFF779FF039804990870B7
:100CE0000F480190FFE70F480068C006C00F0028BA
:100CF0000BD0FFE70198411E0191002804D1FFE7C6
:100D000005A90920087006E0EDE7FFF7D9FE029873
:100D100005A90870FFE705A8007806B080BDC046A9
:100D2000FFFFFF00200002402C0002405A5A000042
:100D3000A5A5000080B586B004AA0292002000900C
:100D4000907190800490C0200E2100F051F9009A1B
:100D5000402003900621019100F0BEF90199029A0A
:100D6000039800F045F906B080BD80B586B004AAAE
:100D7000019200200090907190800490107050704B
:100D8000D0701071C0200E2100F032F90099019A44
:100D9000012050705170D070507140200390062196
:100DA000029100F025F902990398022200F094F9CB
:100DB00006B080BD81B06946087089480078032874
:100DC00010D1FFE768460078382804D1FFE784494E
:100DD0000420087005E082490020087082490870EC
:100DE000FFE744E07E480078042810D1FFE768461A
:100DF0000078302804D1FFE779490520087005E024
:100E000077490020087078490870FFE72EE07448A1
:100E10000078052810D1FFE768460078302804D113
:100E2000FFE76F490620087005E06D490020087053
:100E30006D490870FFE718E069480078062813D16B
:100E4000FFE768460078302807D1FFE764490720AC
:100E5000087008490120087005E061490020087009
:100E600061490870FFE7FFE7FFE7FFE7FFE701B031
:100E70007047C0461E00002082B00190009101988A
:100E800000680099C8400121084002B07047000086
:100E900080B582B001A908701D480078012834D0BF
:100EA000FFE74F480078C007002808D0FFE701A8F7
:100EB0000078FFF7EDFC00011649087024E01548A2
:100EC0000078009001A80078FFF7E2FC0146009846
:100ED000411811480378114AD1540178491C017016
:100EE00000784249097888420DDBFFE70C49012070
:100EF00008703E4800780F2804DCFFE70449012011
:100F00000870FFE7FFE7FFE7FFE702B080BDC046DC
:100F10001C00002033000020320000201F000020B1
:100F20001400002080B582B001A908702C48007818
:100F300000280DD1FFE701A800783A2807D1FFE784
:100F400028493A200870264901200870FFE744E04C
:100F500023480078012826D1FFE701A8007831282E
:100F600007D1FFE71F49012048701D490220087082
:100F700018E001A8007830280DD1FFE719490020BA
:100F8000487017490220087017480078012801D1DD
:100F9000FFE7FFE705E012490020087011490870DB
:100FA000FFE7FFE718E00E480078022813D1FFE7BB
:100FB00001A80078FFF76CFC0A498870084A0320F2
:100FC0001070094A01201070487800018978401893
:100FD00006490870FFE7FFE7FFE702B080BDC046A3
:100FE000350000202F000020340000201D000020CC
:100FF00010B586B00B46014605A80090018004A9F3
:1010000001910B70039200882B4A80180978002206
:10101000029200F01AF900980199029A03880C785C
:10102000A4001B19374C1A510088244A80180978EB
:10103000039A127800F009F9009801990088204A73
:1010400080180978039A527800F0FFF80098019907
:1010500000881C4A80180978039A927800F0F5F805
:10106000009801990088184A80180978039AD27864
:1010700000F0EBF8009801990088144A801809786C
:10108000039A127900F0E1F8009801990088104A5B
:1010900080180978039A527900F0D7F802980399DA
:1010A0008B790C4A1168DB071B0C0124E403A14374
:1010B000C918116006B010BD0C0D0240080D0240A9
:1010C000000D02401C0D0240200D0240240D024084
:1010D0002C0D0240080F024084B0134600910246D6
:1010E000009803A90A8002AA107001A80370007872
:1010F0000988127892008918024A8850002004B0AA
:101100007047C046000C024081B000200090FFE70D
:101110000098002801D1FFE7FAE701B0704780B5D9
:10112000C046C04680BD80B5C046C04680BD80B5C3
:1011300084B000F091FC00F019FD0520032102911C
:1011400000220392FFF7F3FB039901200090800730
:10115000019000F079FE0099019800F075FE039966
:10116000019800F095FE0299039A0620FFF7DFFB35
:1011700004B080BD80B584B00020009000F076FC03
:1011800000F002FD05200321029101220392FFF7E6
:10119000CEFB009903988007019000F055FE03995B
:1011A000019800F051FE0099019800F094FE029918
:1011B000039A0620FFF7BBFB04B080BD80B582B068
:1011C0000848016808480160016808480160012179
:1011D000C90309680191019981F308880068804773
:1011E00002B080BD048000004000002018000020F4
:1011F00080B5C046C04680BD70477047704780B517
:10120000C046C04680BD80B5C046C04680BD704760
:1012100080B5C046C04680BD80B5C046C04680BDD2
:1012200080B5C046C046C046C04680BD80B5C046F9
:10123000C046C046C04680BD704780B5C046C04667
:1012400080BD80B5C046C04680BD83B0029001918C
:10125000684602700078012808D1FFE70198012252
:101260008240029908681043086007E00198012253
:1012700082400299086890430860FFE703B0704716
:1012800080B584B00420029000F05EFB0020009046
:101290000121019100F048F8009903A80170032191
:1012A000417081700821C17000F072FA0198FFF757
:1012B000ADFC0199029800F037F8029800F05EFB4F
:1012C00004B080BD80B5C046C04680BD80B586B044
:1012D00005A904910020039008700420029000F0FA
:1012E00033FB03980121019100F01EF8039800F0F0
:1012F00045FB0399019800F017F80399022000F0CC
:1013000013F80399032000F00FF80399029800F0F6
:101310000BF8039800F00EFA039800F021FA0498F5
:10132000007806B080BD000080B58CB00BAA069294
:1013300010700AA80590017009A90020087000F03B
:1013400001FF059A069811784B1E99411170724958
:101350000968089100780790042800D9D1E007981F
:10136000810001A0405887467D130000BB13000098
:101370001114000051140000A91400000AA80278FA
:10138000EB49086801231A40984380180860FFE77A
:101390000AA8017800200029049007D0FFE7D84868
:1013A0000068C00A012148400490FFE70498C00784
:1013B000002801D0FFE7EBE7A7E0574908680122C2
:1013C0001207104308605849086803221043086058
:1013D0000AA80278ED490868D207920F02239843C1
:1013E00080180860FFE70AA8017800200029039010
:1013F00007D0FFE74D48006880090121484003906D
:10140000FFE70398C007002801D0FFE7EBE77CE087
:101410000AA80278DD490868D207520F04239843CE
:1014200080180860FFE70AA80178002000290290D0
:1014300007D0FFE7B3480068000B01214840029045
:10144000FFE70298C007002801D0FFE7EBE75CE068
:1014500031490868012212071043086030490868C2
:1014600003229203104308600AA80278C74908685B
:10147000D207120F0823984380180860FFE70AA8D4
:10148000017800200029019007D0FFE72548006877
:101490008009012148400190FFE70198C00700281A
:1014A00001D0FFE7EBE730E01B4908680122130495
:1014B000184308601949086810430860142000F0B8
:1014C000E3FE0AA80278B1490868D207D20E1023B9
:1014D000984380180860FFE70AA8017800200029D7
:1014E000009007D0FFE785480068800C0121484044
:1014F0000090FFE70098C007002801D0FFE7EBE766
:1015000003E009A904200870FFE708980249086071
:1015100009A800780CB080BD2020004000240040C5
:101520008C0D0240182000404C1D0240102000404D
:10153000B0B58CB000200B906D4A06A918CA18C12E
:1015400038CA38C16B49059101A908810290019000
:10155000D94800880881D9480088C880D8480088C0
:101560008880D84800884880634800880880874879
:1015700000680006410F04A801700078009004285C
:1015800000D9A8E00098810001A040588746C046D5
:10159000A515000013160000191600003D160000E6
:1015A00045160000F3480068F349084001A909897D
:1015B000884203D1FFE70A980B9029E0ED480068C4
:1015C000ED49084001A9C988884203D1FFE709987D
:1015D0000B901CE0E7480068E749084001A98988AA
:1015E000884203D1FFE708980B900FE0E1480068BC
:1015F000E149084001A94988884203D1FFE70798DB
:101600000B9002E006980B90FFE7FFE7FFE7FFE78C
:1016100064E0AD480B9061E001A800883949096891
:10162000394A1140884204D1FFE705A840880B9051
:1016300003E005A800880B90FFE74FE00120C003FE
:101640000B904BE0A248006803210840032837D1E3
:10165000FFE701A80089EF490968EF4A1140884275
:1016600003D1FFE70A980B9029E001A8C088E94957
:101670000968E94A1140884203D1FFE709980B90B5
:101680001CE001A88088E3490968E34A11408842C8
:1016900003D1FFE708980B900FE001A84088DD49CF
:1016A0000968DD4A1140884203D1FFE707980B9093
:1016B00002E006980B90FFE7FFE7FFE7FFE702E095
:1016C00081480B90FFE70B9981480068C005000F27
:1016D00048430B9002E000200B90FFE70B98B649BF
:1016E00009684905490FC8400B900B980CB0B0BD74
:1016F000682E000000800096200C10003C20004066
:101700000C20004014200040FF03000080B582B090
:1017100000200190FFF70CFF01900198A64909688D
:10172000C904890FC8400190019802B080BDC0462D
:101730000020004080B582B001A90091087000F03F
:1017400001FD009802789C4908685207520D072352
:101750001B02984380180860002002B080BDC0467C
:1017600080B582B001A90091087000F0EBFC0098F0
:101770000278914908689207D20C0323DB02984350
:1017800080180860002002B080BDC04600200040E4
:1017900010B587B0059004A90020087001A9088140
:1017A0000290019072480088088144480088C880EF
:1017B000434800888880434800884880059880789E
:1017C00003283DD1FFE701A8008992490968924AA0
:1017D0001140884205D1FFE70598C07802282ADC2D
:1017E000FFE701A8C0888B4909688B4A11408842ED
:1017F00005D1FFE70598C07802281CDCFFE701A8A7
:10180000808884490968844A1140884205D1FFE7ED
:101810000598C07803280EDCFFE701A840887D49C1
:1018200009687D4A1140884209D1FFE70598C078D0
:10183000072804DBFFE706A90620087037E00CE064
:101840000598C178204848432049884204D3FFE7DF
:1018500006A9062008702AE0FFE7059802781C49CF
:10186000009108689207520C03235C03A043801880
:1018700008600598427808685207D20E1C24A043DD
:10188000801808600598C27808681207D20D0F24E6
:101890006401A043801808600598827808681A409F
:1018A000984380180860049806A90870FFE706A806
:1018B000007807B010BDC046000C1000020C1000EC
:1018C000040C1000060C10000048E801016CDC025A
:1018D0003C20004080B584B0024603A8027002AAF2
:1018E00011700078800600281DD5FFE703A801903D
:1018F0000178DF2211400170017802A802781048B7
:10190000FFF7A3FC01980078032804D1FFE70298B1
:101910000C49087006E00B48027809480321FFF7DC
:1019200094FCFFE707E003A8017802A802780348C7
:10193000FFF78BFCFFE7002004B080BD20200040B3
:10194000242000403D00002081B00146684601701F
:10195000007840000649425A2E4908682E4B1A402A
:101960002E4B184080180860002001B07047C04618
:10197000000C10000C200040FF07000080B586B06E
:1019800005A9087004A9029100200870059803A910
:101990000191087000F0D6FB0198027806490868AA
:1019A0005207120EE02398438018086000F006F8F2
:1019B0000298007806B080BD0020004080B5FFF797
:1019C000B7FD0149086080BD0400002080B50C48C7
:1019D00002880C4908680C4B1A400C4B18408018C0
:1019E00008600B4802880B4908680B4B1A400B4BE8
:1019F000184080180860FFF7E1FF00F093FB80BDFE
:101A0000220C100014200040FF03000000FCFFFF28
:101A1000080C10000C200040FF07000000F8FFFF3A
:101A200080B5C046C04680BD80B5C046C04680BDBA
:101A300080B5C046C04680BD80B500F03DF880BD91
:101A400080B5C046C04680BD80B5C046C04680BD9A
:101A500080B5C046C04680BD81B068460021017097
:101A60000A4A1160007801B07047C04682B001A9EF
:101A700008706846002202700A7801219140C9432B
:101A8000024A1160007802B07047C0461458004006
:101A900083B002AA107001A80021017005490968ED
:101AA000009100991278D140012211400170007814
:101AB00003B070471058004080B50020FFF7E8FFE2
:101AC00001280ED1FFE700F025FBDB490868401C28
:101AD000086004490868401C08600020FFF7C6FF42
:101AE000FFE780BD3800002010B582B001A9088052
:101AF0006846002202700B88044A11680E4C21408F
:101B0000C9181160007802B010BDC04600580040EE
:101B100010B582B001A908806846002202700B88C7
:101B2000044A1168044C2140C9181160007802B0C1
:101B300010BDC046045800400000FFFF81B0684659
:101B4000002101703D4A116801231943116000789A
:101B500001B0704781B0684600210170374A1168B2
:101B6000012399431160007801B0704781B0684645
:101B700000210170314A116801239B0299431160D1
:101B8000007801B07047C04681B0684600210170FE
:101B90002A4A116801239B0219431160007801B0A1
:101BA0007047C046B0B582B0019068460021017010
:101BB00001990B78214A11689B079B0C032424038D
:101BC000A143C918116001994B781168DB079B0D7F
:101BD00001246502A943C918116001998B78116825
:101BE000DB07DB0D2402A143C91811600199CB78F2
:101BF00011685B075B0E7024A143C918116001993D
:101C00000B791168DB071B0F0824A143C918116069
:101C100001994B791168DB075B0F0424A143C918B4
:101C2000116001998B791168DB079B0F0224A14396
:101C3000C9181160007802B0B0BDC0460C58004011
:101C400080B584B002A9019100208871888002903B
:101C5000FFF780FF0198FFF7A5FF04B080BD0000EB
:101C600080B584B002A80021817181800291017049
:101C700041710522C270012282710171817041702F
:101C8000FFF790FF05480190FFF72EFF0198FFF73F
:101C90003FFFFFF753FF04B080BDC04618FC0000B3
:101CA00080B500F009F8C046C04680BD80B5C0468A
:101CB000C046C046C04680BD80B582B05E480021A7
:101CC00001600120800700F017F9002800D1A5E08D
:101CD0000120800700F09EF901A90870574800789C
:101CE00000281FD1FFE756490020087055480078AA
:101CF000002805D1FFE701A80078FFF713F910E0ED
:101D00005048007801280BD1FFE74C4800780028A4
:101D100005D1FFE701A80078FFF74CF8FFE7FFE7E0
:101D2000FFE775E0F8480078012870D1FFE74449E3
:101D300000200870F04901200870F148007802285E
:101D400005DCFFE701A80078FFF7ECF85EE0EC485F
:101D50000078062805DCFFE7E9490878401C087090
:101D600053E0E7480078072815D1FFE701A800787D
:101D700030280CD0FFE7324901200870E14A0021E9
:101D80001170E14A1170800700F05EF852E0DC4902
:101D90000820087038E0DA480078082815D1FFE7F5
:101DA00001A8007830280CD0FFE7254901200870F1
:101DB000D44A00211170D44A1170800700F044F811
:101DC00038E0CF49092008701DE0CD480078282868
:101DD00009DCFFE701A80078FFF75AF8C84908783E
:101DE000401C08700EE0C64800782B2805DCFFE791
:101DF000C3490878401C087003E0C14900200870FE
:101E0000FFE7FFE7FFE7FFE7FFE7FFE7FFE7FFE7A2
:101E100001208007002100F017F8FFE70121880763
:101E200000F06AF8002805D0FFE70121880700F0DC
:101E30000BF8FFE702B080BD100000201E0000205C
:101E4000150000203400002080B584B000910146C8
:101E50000098039102A908700398143009780022B1
:101E60000192FFF7F2F9019804B080BD80B586B009
:101E700000200590049003900290012080070190BB
:101E800000F051F8019802A900F061F806B080BD99
:101E900080B584B0009101460098039102A90870B2
:101EA0000398001D097800220192FFF7CEF90198EE
:101EB00004B080BD80B584B00191014601980391C2
:101EC00002A908700398001D09780122FFF7BDF9E7
:101ED000002004B080BD80B584B001910146019816
:101EE000039102A908700398001D09780122FFF7E9
:101EF000ACF9002004B080BD80B586B001910146E8
:101F00000198059104A9087003AA0292002010709C
:101F1000059810300978FEF7AFFF0146029801706E
:101F2000007806B080BD81B0009000994868012219
:101F300092059043486001B0704781B000900099CD
:101F40004868012292051043486001B0704780B58F
:101F50008CB00A90099108A901200870032007900D
:101F600004200690002004900998002804D1FFE77F
:101F70000BA90420087049E00A99002048600999DB
:101F800048884A7810438A881043097808430A9998
:101F9000486009980078402805D0FFE70998007844
:101FA000C0282CD1FFE709988088C1097F208000D4
:101FB000014006A8405805A901910880099802909F
:101FC0008068FEF73CF90199024602980392C068C6
:101FD00009888840FEF733F901460398FEF7F1F8C7
:101FE000049004983F210906FEF792F8FEF72EF9B7
:101FF0000A9988610A980421FFF75CFFFFE708A9A6
:102000000020087008980BA90870FFE70BA800785B
:102010000CB080BD81B0009000980068C0B201B0E3
:10202000704780B582B0019068460170FFE7019863
:102030000321FFF761FF002801D1FFE7F7E76846BA
:10204000027801990868FF23984380180860FFE729
:1020500001980121FFF750FF002801D1FFE7F7E7C2
:1020600001980121FFF7F0FE002002B080BD0000C2
:1020700080B588B0002003900790069005900490EA
:1020800004A9009140220A704880E1204002079094
:102090000120019040028880FFF738FB009902463A
:1020A0000198069280070290FFF751FF0298FFF710
:1020B00044FF0398D049087008B080BD80B5C04681
:1020C000C04680BD80B5C046C046C046C04680BD43
:1020D00009490020087009490860C7490870C749C4
:1020E0000870C7490870C7490870C2490870C649D6
:1020F0000120C003086070473C0000203800002029
:1021000035000020340000201E00002080B5C046AD
:10211000C04680BD02491E200860E120086070476B
:10212000800F004081B006490868009008680122CD
:102130001207104308600098086001B07047C0465D
:1021400020200040024903480860034808607047A7
:10215000082000405A5A0000A5A5000081B00146A1
:102160006846017000214056002809D4FFE7684600
:1021700001781F2001400120884002490860FFE7E4
:1021800001B0704780E200E081B00146684601700E
:102190000021405600280DD4FFE7684601781F2033
:1021A00001400120884004490860BFF34F8FBFF30E
:1021B0006F8FFFE701B0704780E100E081B001461A
:1021C0006846017000214056002809D4FFE76846A0
:1021D00001781F2001400120884002490860FFE784
:1021E00001B0704700E100E070B582B0024601A87E
:1021F0000270009100214056002816D4FFE7002409
:1022000001A908570322D3431840174A8058095799
:102210008C07E50EFF24AC40A043009CA401E4B26F
:10222000AC402043194088501AE001A908780F24D7
:10223000204008380322D34318400A4A805800251A
:1022400049578D07EE0EFF25B540A843009DAD010F
:10225000EDB2B54028432140083919408850FFE7C6
:1022600002B070BD1CED00E000E400E0BFF34F8F52
:10227000034904480860BFF34F8FFFE700BFFDE745
:102280000CED00E00400FA0580B582B0019016491B
:1022900016480860164900200860164905200860A5
:1022A000FFE70198411E0191002816D0FFE7104971
:1022B00000200860104800681049FDF7E0FF014663
:1022C00001200006401A0090FFE7094800680099C5
:1022D000884201D9FFE7F8E7E3E7064908680122E9
:1022E0009043086002B080BD14E000E0FFFFFF00F3
:1022F00018E000E010E000E004000020A0860100EB
:1023000080B582B00120C0030190FFE73E4800681D
:102310000B49884211D8FFE7FFE73B480068FEF70A
:10232000E5FB002801D0FFE7F7E7FFE7364908683B
:102330000122120280180860E8E702B080BDC046A2
:10234000FEFF010080B582B02848007801284AD1FC
:10235000FFE701A900200870FFE701A800782449E1
:102360000978884225DAFFE7754900200860264889
:10237000006801A90A782549895CFEF75FFC0028FE
:102380000DD1FFE7FFE720480068007801A90A782F
:102390001E49895C884201D0FFE7F4E7FFE7FFE7C9
:1023A0000198401C01A9087017490868401C086082
:1023B000D3E70E49002008700D4908705D48007889
:1023C00001280FD1FFE757490020087056490870CF
:1023D00056490870564908705649087050490120FE
:1023E0000870FFE7FFE702B080BDC0461400002080
:1023F000320000201C0000203500002034000020A6
:102400001E0000201D000020080000201F000020EA
:1024100080B582B00190009101A801780120800769
:10242000FFF7FFFD019802B080BD000080B582B0CB
:1024300000200190FEF724FFFEF764FAFEF795FCFA
:10244000FFF70EFCFFF714FEFFE708200121FEF75F
:102450009FFA002801D0FFE7F7E730480078FF280F
:1024600007D0FFE7FFF74CFF384800F071F8FFF79F
:10247000FDFEFEF77FFEFFE7FFF764FF28480078C8
:1024800001280CD1FFE72749002008702649087071
:10249000264908702649087026490870FFE701217F
:1024A000C8030068244A1040490788421FD1FFE74B
:1024B00022480078002805D1FFE72148006831282C
:1024C00005D8FFE71648007801280FD1FFE7FEF78F
:1024D0002EFEFFF7CBFCFFF7B3FBFEF72BFCFEF75E
:1024E00000FAFEF7F3FEFEF769FEFFE7FFE7134889
:1024F000007801280CD1FFE7124800681249884291
:1025000005D3FFE7FFF7E4FDFFF7FAFEFFE703E07F
:102510000C4900200860FFE7AEE7C046FFFF01005E
:102520001500002035000020340000201E0000208F
:102530001D0000201C0000200000FE2F3C00002099
:102540001000002038000020102700009C2E000002
:102550000FB410B503A9044B044A029800F0E8F840
:1025600010BC08BC04B01847112400000000002073
:102570002021020C01D010211046020A01D0104681
:102580000839020901D01046091F820801D01046FF
:10259000891E420801D0881E7047081A704702E061
:1025A00008C8121F08C1002AFAD1704770470020DE
:1025B00001E001C1121F002AFBD17047F0B51FB422
:1025C00086B00998089A030D0021024314D051489F
:1025D000514A1818504305141198012810981AD020
:1025E000281A401C00264D4F4D4900960191049039
:1025F000002812DA444211E01198012449A301286D
:1026000001D11098C1430698119A84600360C2609A
:1026100041600BB0F0BD4042E4E7044621050020D4
:102620003F4A001C51410391029012E0E00707D09D
:1026300032463B4601990098FDF764FF01910090F6
:1026400032463B4610461946FDF75CFF06460F46EC
:102650006410002CEAD10498039B0028029A09997F
:10266000089806DAFDF74EFF019B009AFDF74AFF36
:1026700005E0FDF7AFFF019B009AFDF7ABFF0446B5
:102680000E460022284BFEF73DF803D80020C04339
:10269000014607E00022254B20463146FDF780FE2B
:1026A000FEF710F8102409E0002C0ADB0A220023B0
:1026B000FDF704FE079B30321A55641E02460A439A
:1026C000F2D11122641C079B121B1C19119B012BB8
:1026D00003D0012308430ED10AE0084304D011209F
:1026E00010900020119077E71098151A6D1E0BE0DE
:1026F0001098824202DD00236D1C03E0824201DA61
:1027000000236D1E002BEED0069811998260C160E7
:1027100030C07EE701FCFFFF104D000000001440B8
:102720000000F03F300000000000F0430000E03FF8
:10273000FFB597B00646002518E2252877D100247A
:102740002746FD49049400E00443761C32780120BA
:10275000203A90400842F7D130782A280ED0022241
:10276000307801463039092916D804990A2359438B
:10277000303940181443761C0490F1E7189802C8C9
:1027800004911890002904DA0120400304434842D0
:10279000049002200443761C30782E2814D10420A3
:1027A00004437078761C2A2809D11898761C80C8B2
:1027B000189009E00A214F43303FC719761C307842
:1027C000014630390929F5D930786C2810D006DC5B
:1027D0004C281AD068280ED06A2817D104E0742833
:1027E00013D07A2812D110E00120400504430CE0F8
:1027F0000121090501E0032109050C43717881429B
:1028000003D1012000052418761C761C3078119025
:1028100066280BD013DC58287DD009DC00287BD03B
:102820004528F6D04628F4D047281AD1A5E118E06B
:10283000632835D0642870D0652812D19DE17028B6
:102840006CD008DC6728F1D069287BD06E280DD0C9
:102850006F2806D1BAE073282ED0752871D0782859
:1028600059D01A9A199990476D1C7EE16002400F69
:10287000022809D003280DD00428189801680DD02B
:102880000D60001D189070E11898EA1701680D603E
:102890004A60F6E7189801680D80F2E70D70F0E7DE
:1028A00018986A4601781172001D18900020507225
:1028B00002A80090012005E0189802C81890002096
:1028C0000091C04361070DD5002101E00199491C29
:1028D0000191B94212DA8142F8DB009A515C002979
:1028E000F4D10BE0002101E00199491C01918142E2
:1028F000FADB019A0099895C0029F5D101990498C5
:102900001A9B471A21463846199A00F097FA0199FE
:10291000401945180BE04FE02CE113E04EE0009821
:1029200000990078491C00911A9A199990470198CA
:10293000401E0190401CF2D1214638461A9B199A3C
:1029400010E137E00A200021009001916002410F60
:10295000022907D0189A01CA1892C217944603296F
:1029600008D00AE01898C01DC108C90005C918910F
:10297000944607E000B2C2179446042902D140B23F
:10298000C1178C4600226146944506DA0A460021AA
:10299000404291418C462D2102E0210504D52B2196
:1029A0006A461173012103E0E10701D02021F7E716
:1029B000029155E00A200AE0102008E01020009063
:1029C0000021042004430191082703E0082000218E
:1029D000019100906002410F022907D0189A01CAA4
:1029E000189200229446032908D008E01898C01DC8
:1029F000C108C90005C91891944603E080B20429B2
:102A000000D1C0B200210291210729D51199702966
:102A100006D0009A1021019B4A401A4305D00EE0CF
:102A200040216A461173012108E06146014306D046
:102A300030216A4611731199517302210291009A53
:102A40000821019B4A401A430AD16146014301D142
:102A5000610705D530216A46117301217F1E02915D
:102A60001199582904D035A10E910DA90D910DE0B1
:102A700037A1F9E76146019B009AFDF71FFC0E9B09
:102A80008C469B5C0D9A521E0D9213706146014359
:102A9000F0D10D9805A9081A20300190600703D5E0
:102AA00001200004844300E001270198874201DDF2
:102AB000381A00E000200199009041180298091886
:102AC0000498401A0490E00306D421461A9B199AF0
:102AD000049800F0B3F94519002706E003A81A9AF4
:102AE000C05D199990476D1C7F1C02988742F5DBE9
:102AF000E0030CD521461A9B199A049800F09EF920
:102B0000451904E01A9A3020199990476D1C0099D4
:102B1000481E00900029F5DC08E00D980D9900781A
:102B2000491C0D911A9A199990476D1C0199481EDC
:102B300001900029F1DC63E10928010030313233D2
:102B400034353637383961626364656600000000E9
:102B500030313233343536373839414243444546D3
:102B60000000000000F05AF94519761C3078002862
:102B700000D0E2E528461BB0F0BD600700D4062770
:102B80001898C01DC108C90048680A680831C30FF9
:102B9000DB071891190001D09CA108E0210501D59F
:102BA0009BA104E0E10701D09AA100E09AA14300B3
:102BB00011985B08109165280CD006DC452809D0D7
:102BC00046281DD0472841D141E0662818D0672803
:102BD0003CD13CE00021112F01DB112000E0781CEA
:102BE0000191009008A911A8FFF7E8FC139905913D
:102BF0000021119A15927F1C12980197009150E0C4
:102C00000120C00703900120019008A9009711A896
:102C1000FFF7D4FC139A149905920022119B00929D
:102C200012981593059A0192002901D0104602E0EE
:102C3000791C40180190381A01D5019804E04042EF
:102C4000401E0090781C0190C01B029043E0012FB1
:102C500000DA01270021112F01DD112000E03846A4
:102C60000191009008A911A8FFF7A8FC13990591FC
:102C7000119A0021129815920091019721070CD406
:102C80000599B94201DB019900E00191012904DDB8
:102C9000159A491E515C302906D0B84201DA011D4F
:102CA00005DA0121029115E00199491EEDE700289E
:102CB00005DC0099411800910199091A03E0019A75
:102CC000411C914200DD01910099401A401C029084
:102CD0000120C0070390200706D402990198814281
:102CE00002DB0020C043029000206946C87707AF8E
:102CF000012103980337C907884224D0022011908C
:102D00002B201290039800280CDA404203902D20CB
:102D1000129007E00A210398FDF7B1FA30317F1EC7
:102D2000039039701199481E11900029F2DC039824
:102D30000028EFD1791E12980870307820210840C1
:102D40004530BF1E387006A8C01BC01D03901098E8
:102D50000078002800D00120019941180298C0177E
:102D60000918039809180498401A401E0490E003BB
:102D700006D421461A9B199A049800F05FF8451969
:102D800010980078002803D01A9A199990476D1C62
:102D9000E00324D521461A9B199A049800F04EF8B6
:102DA00045191CE00098002807DB00990598884227
:102DB00003DD1598405C199901E0199930201A9AA1
:102DC000904700986D1C401C00900298401E029095
:102DD000002804D11A9A2E20199990476D1C019948
:102DE000481E01900029DDDC05E038781A9A7F1C26
:102DF000199990476D1C0399481E03900029F4DC33
:102E000021461A9B199A0498ACE600002D00000098
:102E10002B0000002000000000000000F8B5044670
:102E200000251E461746880404D405E039462020B4
:102E3000B0476D1C641EF9D52846F8BDFFB50446A1
:102E4000002581B01E46C80301D5302700E02027A9
:102E5000880404D505E038460399B0476D1C641E0C
:102E6000F9D5284605B0F0BD00093D0000127A00F2
:102E70000024F4004086510100366E01200000005D
:102E8000170000001B00000050460000E022020076
:102E900018000000F0000000E803000052657365B0
:102EA00074210D0A00000000C82E00000000002060
:102EB000100000009E250000D82E00001000002009
:102EC00038020000AE2500000000000000127A0069
:082ED00000800000000000007A
:04000005000000C136
:00000001FF
