:020000040800F2
:100000003809002005010008471C00084B150008AE
:10001000451C0008BD060008012B00080000000078
:100020000000000000000000000000007B27000826
:100030001507000800000000C52600087D270008FD
:100040001F0100081F0100081F0100081F01000810
:100050001F0100081F0100081F0100081F01000800
:100060001F0100081F0100081F0100081F010008F0
:100070001F0100081F0100081F0100081F010008E0
:100080001F0100081F0100081F0100081F010008D0
:100090001F0100081F0100081F0100081F010008C0
:1000A0001F0100081F0100081F0100081F010008B0
:1000B0001F0100081F0100081F0100081F010008A0
:1000C0001F0100081F0100081F0100081F01000890
:1000D0001F0100081F0100081F0100081F01000880
:1000E0001F0100081F0100081F010008DFF810D0E1
:1000F00000F054FA0048004789340008AFF300804C
:10010000380900200648804706480047FEE7FEE71A
:10011000FEE7FEE7FEE7FEE7FEE7FEE7FEE7FEE7B7
:10012000D1270008ED000008202A04DB203A21FA3C
:1001300002F00021704721FA02F3D040C2F1200200
:10014000914008431946704740EA01039B0703D0DA
:1001500009E008C9121F08C0042AFAD203E011F806
:10016000013B00F8013B521EF9D27047D2B201E0C8
:1001700000F8012B491EFBD270470022F6E710B5AC
:1001800013460A4604461946FFF7F0FF204610BD05
:10019000421C10F8011B0029FBD1801A704730B5B2
:1001A0000B46014600202022012409E021FA02F535
:1001B0009D4205D303FA02F5491B04FA02F52844CF
:1001C000151EA2F10102F1DC30BD2DE9F05F0546FC
:1001D000002092469B4688460646814640241BE006
:1001E0002846414647462246FFF79EFF53465A4659
:1001F000C01A914110D311461846224600F0E0F98A
:100200002D1A67EB01084F4622460120002100F01D
:10021000D7F917EB00094E41201EA4F10104DFDCE1
:10022000484631462A464346BDE8F09F2DE9FE4F39
:10023000804681EA0300C00F0C46009021F0004187
:1002400023F00045B8EB0200A94105D24046214603
:1002500090461C460B46024623F00040104347D010
:10026000270DC7F30A00C3F30A510290401A019008
:1002700040286BDAC3F3130040F4801B00989246C9
:1002800020B10023D2EB030A63EB0B0B0198594614
:10029000C0F14002504600F093F906460D46504624
:1002A0005946019A00F09BF910EB080061410024C7
:1002B00087EA115284EAE7731A4340D0009A62B386
:1002C000019A012A4FEA075215DC001B61EB02017B
:1002D0004FF0004202EA0752CDE90042001C41F50E
:1002E000801132462B4600F09BF903B0BDE8F08F39
:1002F00040462146F9E7001B61EB0201001C41F575
:10030000801300185B412018A2F5001747EB03018A
:1003100040EAD570B6196D4111E06D084FEA360616
:1003200045EAC0754FEA0752001B61EB0201001C51
:1003300041F5801149084FEA300000195141324619
:100340002B4603B0BDE8F04F00F05BB900980122E6
:1003500040000023D0EB020263EBE07300982146DB
:100360004FEAE074B8EB000061EB0401E9E783F0C9
:1003700000435BE781F0004158E72DE9FE4F81EA39
:10038000030404F0004421F0004100944FF0000BFE
:1003900023F0004350EA01045ED052EA03045BD02C
:1003A000C3F30A54C1F30A552C44A4F2F334019464
:1003B000A0FB0254C1F3130141F48011C3F31303F2
:1003C00043F4801301FB024400FB034E840A970AA6
:1003D00044EA815447EA8357A4FB076802958D0AD3
:1003E00005FB07854FEA932C04FB0C542705029D5F
:1003F0004FEA065847EA1637B5EB08056EEB070CCF
:10040000870E920E47EA811742EA8312A7FB020188
:10041000B6EB0B0164EB00042B0D43EA0C335E18C2
:1004200044EB1C50DA465146E7FB0201C5F31304C6
:100430004FEA0B3343EA14534FEA0432019C43EA78
:100440000603A4F10C040294009CCDE900B400F072
:10045000E7F803B0BDE8F08F00200146F9E72DE989
:10046000F04D81EA030404F0004B21F000451446EE
:100470004FF0000A23F0004150EA050220D054EA70
:1004800001021DD0C5F30A570246C5F31303C1F399
:100490001300C1F30A5640F4801543F48013A7EB10
:1004A0000608101BD64608F2FD3873EB050002D390
:1004B00008F1010801E092185B41B8F1000F03DA7E
:1004C00000200146BDE8F08D00204FF48011064663
:1004D00084460EE0171B73EB050705D3121B63EB75
:1004E000050306434CEA010C49084FEA3000921814
:1004F0005B4150EA0107EDD152EA030012D082EAD3
:10050000040083EA0501084305D0101BAB4106D265
:100510000122002306E000224FF0004302E06FF0CA
:10052000010253101AEB06004CEB085110EB0A00C5
:1005300041EB0B01BDE8F04D00F063B8C1F30A5286
:10054000C1F3130140F2FF3341F480119A4202DA01
:1005500000200146704740F233439A42A2F23342F0
:1005600002DC5242FFF7E0BD00F02AB830B5041EAD
:1005700071F1000404DB4FF00044404264EB0101E0
:10058000141E73F1000405DB1C464FF00043524279
:1005900063EB0403994208BF904230BD064C074DFF
:1005A00006E0E06840F0010394E807009847103443
:1005B000AC42F6D3FFF79EFDCC820008EC82000827
:1005C000202A04DB203A00FA02F100207047914013
:1005D000C2F1200320FA03F3194390407047202A08
:1005E00006DBCB17203A41FA02F043EAE07306E05B
:1005F00041FA02F3D040C2F120029140084319466B
:10060000704710B5141E73F1000408DA401C41F164
:10061000000192185B411A4301D120F0010010BD86
:100620002DE9F04D92469B4611B1B1FA81F202E0FC
:10063000B0FA80F220329046FFF7C2FF04460F4620
:1006400040EA0A0041EA0B0153465A46084313D0D8
:10065000114653EA010019D0C8F140025046FFF795
:1006600063FD05460E46504659464246FFF7A8FF31
:10067000084305D0012004E020463946BDE8F08D4E
:100680000020054346EAE0762C4337430A98630589
:10069000E40AA0EB08000022FD0A44EA47540A30AD
:1006A00002D500200146E9E7010510196941DDE99D
:1006B000084500196941BDE8F04DA2E7FEE70000DA
:1006C00010B50B4C01221102204600F027F901223F
:1006D0004021084800F022F901225102204600F092
:1006E0001DF90421044800F04DFE002010BD00005B
:1006F00000080140000C0140A000002001B54FF4AB
:10070000FA7301226946024800F090FC08BD00001F
:10071000480000207047704770B5044600F004F9A7
:100720000546601C02D004480078044400F0FCF840
:10073000401BA042FAD370BD000000202DE9F84F05
:10074000DFF8B891002409F1040A0AF1040B2346EA
:100750000F270BF1040EC9E00125A5402A40AA424B
:100760007DD1674ED1F804C0ACEB0608B44532D059
:1007700014DCBCF1030F3AD009DCBCF1000F2AD025
:10078000BCF1010F1CD0BCF1020F31D11DE0BCF156
:10079000110F17D0BCF1120F2AD119E0B8F5881F3C
:1007A00019D006DCB8F5803F15D0B8F5801F1FD1F1
:1007B00011E0B8F5001F0ED0B8F5041F18D10AE0FB
:1007C000CB6815E0CB681B1D12E0CB6808330FE047
:1007D000CB680C330CE08B682BB1012B4FF0080376
:1007E00003D0456104E0042302E0056100E000233A
:1007F000FF2A01D8064601E000F104064FEA84050D
:1008000001D9A5F12005D6F8008007FA05FC28EAF1
:100810000C0803FA05F548EA0508C6F800804D689B
:10082000ED0062D5374DAE6946F00106AE61AD69A7
:1008300024F0030605F001050095334D06EB050C89
:10084000DCF80850A607360F07FA06F825EA08056F
:10085000DFF8B880404503D14FF0000817E044E0CE
:10086000DFF8AC80404502D14FF001080FE0DFF81F
:10087000A480404502D14FF0020808E0DFF89880DC
:10088000404502D14FF0030801E04FF0040808FA98
:1008900006F848EA0508CCF808804D68D9F80060E9
:1008A000ED034D4601D5164300E096432E604D689A
:1008B000DAF80060AD03554601D5164300E09643D3
:1008C0002E604D68DBF80060ED025D4601D51643F1
:1008D00000E096432E604D68DEF80060AD0275467C
:1008E00001D5164300E096432E60641C0D682A462D
:1008F000E5407FF431AFBDE8F88F0000000401400F
:1009000000001110001002400000014000080140EA
:10091000000C014000100140001401400AB10161C7
:1009200070470904FBE70000014880687047000039
:1009300000000020024881680278114481607047FD
:1009400000000020074810B5016841F01001016067
:10095000032000F067F8002000F006F800F024F80B
:10096000002010BD0020024070B50D4D04464FF42C
:100970007A712878B1FBF0F00A490968B1FBF0F010
:1009800000F002FC48B9102C07D200222146501E6C
:1009900000F028F800206C6070BD012070BD0000E0
:1009A000000000200C0000200C4808B5816941F0CF
:1009B00001018161816901F001010091C16941F08A
:1009C0008051C161C06900F08050009004484168C6
:1009D00021F0E06141F00071416008BD001002406B
:1009E00000000140F0B40E4B1B680C46C3F3022319
:1009F000C3F10705042D00D90425191D072901D2CB
:100A0000002300E0DB1E012606FA05F1491E214005
:100A100099409E40761E16403143F0BC02F096B8D5
:100A20000CED00E0064900F0070208684FF6FF03EE
:100A3000184040EA0220034A104308607047000053
:100A40000CED00E00000FA052DE9F0470F46050027
:100A500061D0434E306800F00700B84209D23068D8
:100A600020F0070038433060306800F00700B842DB
:100A700051D128683B4C810712D5400703D56068E7
:100A800040F4E06060602878000703D5606840F4B7
:100A9000605060606068A96820F0F0000843606002
:100AA0002878C00728D06868012810D0216802285B
:100AB00010D0890700292EDA616821F00301014373
:100AC0006160FFF731FF804641F288390DE021680F
:100AD0008903EFE78901EDE7FFF726FFA0EB0801A7
:100AE000494502D90320BDE8F0876068696800F0D5
:100AF0000C00B0EB810FEFD1306800F00700B84276
:100B00000BD9306820F0070038433060306800F0BF
:100B10000700B84201D00120E5E72878400705D555
:100B20006068E96820F4E0600843606028780007A6
:100B300006D56068296920F4605040EAC100606011
:100B400000F038F86168084AC1F30311515CC840ED
:100B50000649086006480068FFF706FF0020C2E764
:100B60000020024000100240143500080C00002054
:100B7000040000200448054900684968044AC1F39C
:100B80000221515CC84070470C0000200010024058
:100B9000243500080448054900684968044AC1F33F
:100BA000C221515CC84070470C0000200010024078
:100BB0002435000812A185B00FC98DE80F0014A0DC
:100BC000144A006804905168134801F00C03042B88
:100BD00010D0082B0ED1C1F38343C9031DF80300C5
:100BE0000AD5516804AAC1F34041515C0A4A5043F6
:100BF000B0FBF1F005B0704708494843FAE7000040
:100C000002030405060708090A0B0C0D0E0F10104D
:100C1000010200000010024000127A0000093D00AD
:100C20002DE9F84F040070D02078C04DC00749D09E
:100C30006868C0F38100012807D06868C0F38100AC
:100C4000022809D16868C00306D52868800339D511
:100C500060680028E7D035E06068B0F5803F0BD0D1
:100C600010B1B0F5A02F11D0286820F48030286092
:100C7000286820F4802002E0286840F48030286052
:100C8000606890B1FFF750FE06460AE0286840F41D
:100C900080202860F0E700BFFFF746FE801B642835
:100CA00073D828688003F7D50CE0FFF73DFE0646B1
:100CB00005E000BFFFF738FE801B6428F0D82868E5
:100CC0008003F7D420789A4E80074FF001094FF047
:100CD000000839D5686810F00C0F07D06868C0F3B9
:100CE0008100022809D16868C00306D428688007FB
:100CF00014D52069012808D110E02069B0B1C6F8E8
:100D00000090FFF711FE074605E00AE1FFF70CFE31
:100D1000C01B0228C4D828688007F7D528686169F5
:100D200020F0F80040EAC10028600DE0C6F800801D
:100D3000FFF7FAFD074604E0FFF7F6FDC01B0228A7
:100D400023D828688007F7D4207800072CD5794865
:100D5000A169D9B1C0F80090FFF7E6FD074604E0AD
:100D6000FFF7E2FDC01B02280FD8686A8007F7D59D
:100D700071484FF4FA510068B0FBF1F0009000BFE9
:100D80000098411E0091FAD20EE080E0C0F8008089
:100D9000FFF7CAFD074604E0FFF7C6FDC01B0228A7
:100DA00075D8686A8007F7D42078400760D5E8696D
:100DB0000027C00008D4E86940F08050E861E86985
:100DC000012700F0805000905C480168C90513D4E9
:100DD0000168834641F480710160FFF7A5FD8246FA
:100DE00006E000BFFFF7A0FDA0EB0A0064284ED884
:100DF000DBF80000C005F5D5E06801280AD008B18D
:100E0000052813D0286A20F001002862286A20F003
:100E1000040002E0286A40F001002862E06841F224
:100E2000883B98B1FFF780FD82460BE0286A40F0CE
:100E300004002862EEE700BFFFF776FDA0EB0A0191
:100E400059455AD8286A8007F6D50CE0FFF76CFDA3
:100E5000824605E0FFF768FDA0EB0A0159454CD832
:100E6000286A8007F6D41FB1E86920F08050E86155
:100E7000E06988B36968C1F38101022944D002287E
:100E8000C6F8608004D0FFF74FFD044638E034E038
:100E9000FFF74AFD074604E0FFF746FDC01B0228A6
:100EA0002BD828688001F7D4206AB0F5803F05D19F
:100EB0006868A16820F4003008436860D4E908013C
:100EC0000843696821F4741108436860C6F86090AB
:100ED000FFF72AFD044606E025E000BFFFF724FDEA
:100EE000001B022809D828688001F7D51BE000BF45
:100EF000FFF71AFD001B022802D90320BDE8F88F76
:100F000028688001F4D40EE00128F7D06868226ACE
:100F100000F48031914204D1616A00F4701088427B
:100F200001D00120EAE70020E8E7000000100240BD
:100F300000004242800442420C0000200070004049
:100F400070B5040005D00025A56294F8510010B1D9
:100F500006E0012070BD84F85050204600F02EF8C5
:100F6000022084F851002068016821F040010160EE
:100F7000D4E901010843D4E903121143084361692C
:100F80000843218B01F400710843E1690843216A99
:100F90000843A16A084321680860A069042101EAA6
:100FA0001040216848602068C16921F40061C16176
:100FB0006565012084F85100002070BD30B585B012
:100FC0000024009401940294039400681449884218
:100FD00023D11448816941F480518161816901F410
:100FE00080510491816941F00401816180690E4D55
:100FF00000F004000490A020009002200190032043
:10100000039069462846FFF799FB4020CDE900048C
:10101000694628460294FFF791FB05B030BD0000F9
:101020000030014000100240000801402DE9F84F57
:10103000044690F8500000271D46164689460128B0
:101040000DD04FF0010B84F850B0FFF76DFC8046D7
:1010500094F85100BA46012804D002278EE00220FD
:10106000BDE8F88FB9F1000F7DD0002E7BD00320B2
:1010700084F85100C4F854A0C4F83090A686E686DF
:10108000C4F838A0A4F83CA0A4F83EA0C4F844A03A
:10109000C4F840A0A068B0F5004F04D120680168F2
:1010A00041F48041016020680168490603D4016869
:1010B00041F040010160E068B0F5006F606803D066
:1010C00030B3012E24D040E008B1012E1CD1206B9A
:1010D00021680088C86006E020688168890709D512
:1010E000216B0988C160206B801C2063E08E401E4C
:1010F000E08609E0FFF718FCA0EB0800A84202D345
:10110000681C01D031E07DB3E08E0028E4D11FE0FF
:10111000206B21680078087306E0206881688907E1
:1011200009D5216B09780173206B401C2063E08E88
:10113000401EE08609E0FFF7F7FBA0EB0800A8429D
:1011400002D3681C01D010E075B1E08E0028E4D114
:1011500042462946204601F0B6FA08B120206065D3
:10116000A06820B107E008E0FFE7032706E0206859
:10117000C16880680090606D00B1012784F851B0AB
:1011800084F850A038466BE710B5401EB0F1807F60
:1011900001D3012010BD4FF0E02460610F216017E2
:1011A00001F0D4FC0020A06107202061002010BDC8
:1011B00070B590F83C20012A19D0012400F83C4F6A
:1011C0000222427050F83C3C5A689D6822F070063A
:1011D0000A684968324325F0800529435A6050F86F
:1011E0003C2C9160447000210170084670BD0220C3
:1011F00070BD000000B585B0002100910191029101
:10120000039100680F4988421AD10F48816941F063
:10121000100181618069694600F01000049080200F
:1012200000900220019003900848FFF787FA0848D1
:10123000416821F4406141F0E06141F44061416066
:1012400005B000BD00040040001002400010014045
:101250000000014070B5044690F83C000D4601289E
:101260000DD0012684F83C60022084F83D0042B194
:10127000042A18D0082A2AD00C2A4DD139E002209D
:1012800070BD206801F00CFB2068816941F0080105
:1012900081612068816921F0040181612068816990
:1012A0002A69114311E0206801F022FB206881695E
:1012B00041F4006181612068816921F4806181616C
:1012C000206881692A6941EA0221816124E020685D
:1012D00001F03AFB2068C16941F00801C161206852
:1012E000C16921F00401C1612068C1692A69114303
:1012F00011E0206801F054FB2068C16941F40061ED
:10130000C1612068C16921F48061C1612068C1693F
:101310002A6941EA0221C16184F83D60002084F815
:101320003C0070BD10B5040003D094F83D0010B12E
:1013300007E0012010BD002084F83C00204600F0AA
:101340000DF8022084F83D00211D206801F064FAA8
:10135000012084F83D00002010BD000008B50068A1
:101360000649884208D10648C16941F00201C161BD
:10137000C06900F00200009008BD000000040040B9
:101380000010024010B504460068012201F07AFA0C
:1013900009492068884203D1416C41F4004141640D
:1013A0002068816801F00701062903D0016841F037
:1013B00001010160002010BD002C014070B5040047
:1013C00004D094F83900002510B106E0012070BD6A
:1013D00084F83850204600F023F8242084F839009F
:1013E0002068C16821F40051C160204601F0FAFA7A
:1013F0002068016921F4904101612068416921F070
:101400002A0141612068C16841F40051C160E5636F
:10141000202084F8390084F83A00002070BD0000D4
:1014200030B585B0002400940194029403940068C0
:101430001449884223D11448C16941F40031C16183
:10144000C16901F400310491816941F004018161B5
:1014500080690E4D00F004000490042000900220EA
:1014600001900320039069462846FFF767F908209A
:10147000CDE90004694628460294FFF75FF905B0FC
:1014800030BD000000440040001002400008014050
:101490002DE9F843044690F839001F4616460D46DC
:1014A000202850D1A5B19EB194F8380001284AD027
:1014B000012084F838004FF00008C4F83C80212057
:1014C00084F83900FFF730FAA6848146E68426E0E6
:1014D0000120BDE8F883E08C401EE084A0684B4604
:1014E000B0F5805F4FF000024FF08001204600977A
:1014F00003D001F0D3FAE8B90DE001F0CFFAC8B992
:1015000028882168C0F308004860206908B16D1C74
:1015100005E0AD1C03E0216815F8010B4860E08C84
:101520000028D8D14B46002240212046009701F0E8
:10153000B5FA08B10320CCE7202084F8390084F8FC
:1015400038800020C5E70220C3E7FEE72DE9F0411F
:101550000646EF2300211A46084600F059F90122F9
:1015600011020B48FFF7DAF90025370A0024384644
:10157000FFF7C4F8F0B2FFF7C1F8641CA4B2F02C76
:10158000F5D36D1CADB2F02DF0D3BDE8F0810000B5
:101590000008014070B514460B46024600F038F9C9
:1015A000012211020A48FFF7B9F90A4D0022402131
:1015B0002846FFF7B3F9200AFFF7A0F8E0B2FFF7DB
:1015C0009DF82846BDE8704001224021FFF7A6B9EA
:1015D00000080140000C014070B50122154E044680
:1015E000550229463046FFF799F96420FFF794F831
:1015F000002229463046FFF791F96420FFF78CF866
:10160000012229463046FFF789F96420FFF784F864
:1016100009490025F0220C714A800A8004B970251E
:10162000362000F0BDF8284600F0D0F8BDE8704044
:1016300000F004B8000801403400002010B53A2042
:1016400000F0AEF8052000F0C1F8B22000F0A8F8D4
:101650000C2000F0BBF80C2000F0B8F8002000F0DF
:10166000B5F8332000F0B2F8332000F0AFF8B7201F
:1016700000F096F8352000F0A9F8BB2000F090F8B3
:10168000192000F0A3F8C02000F08AF82C2000F008
:101690009DF8C22000F084F8012000F097F8C320E4
:1016A00000F07EF8122000F091F8C42000F078F8E5
:1016B000202000F08BF8C62000F072F80F2000F018
:1016C00085F8D02000F06CF8A42000F07FF8A1206D
:1016D00000F07CF8E02000F063F8D02000F076F80D
:1016E000042000F073F80D2000F070F8112000F0D5
:1016F0006DF8132000F06AF82B2000F067F83F2007
:1017000000F064F8542000F061F84C2000F05EF81E
:10171000182000F05BF80D2000F058F80B2000F0C6
:1017200055F81F2000F052F8232000F04FF8E12078
:1017300000F036F8D02000F049F8042000F046F818
:101740000C2000F043F8112000F040F8132000F0C6
:101750003DF82C2000F03AF83F2000F037F8442004
:1017600000F034F8512000F031F82F2000F02EF86E
:101770001F2000F02BF81F2000F028F8202000F098
:1017800025F8232000F022F8212000F009F811208C
:1017900000F006F8BDE81040292000F001B8000074
:1017A00010B5044600224FF480710648FFF7B6F8E2
:1017B000002240210448FFF7B1F82046BDE8104060
:1017C000FEF79CBF00080140000C014070B50546C3
:1017D000012211020948FFF7A1F8094C002240211B
:1017E0002046FFF79BF82846FEF788FF2046BDE815
:1017F000704001224021FFF791B80000000801402D
:10180000000C0140014908607047000038040040A6
:101810002DE9F04107461C4615460E462A20FFF7E3
:10182000BFFF380AFFF7D2FFF8B2FFF7CFFF280A51
:10183000FFF7CCFFE8B2FFF7C9FF2B20FFF7B0FF9F
:10184000300AFFF7C3FFF0B2FFF7C0FF200AFFF72F
:10185000BDFFE0B2FFF7BAFFBDE8F0412C20FFF773
:101860009FBF00002DE9FF415CA001F04BF9FEF79E
:1018700027FF60A001F046F94FF47A742046FFF785
:10188000C1FF0120FFF7A8FE4FF6FF752846FFF7BE
:101890005DFE60A001F036F9F0212B4600220846DB
:1018A00000F034FE60A001F02DF9674800F060FE02
:1018B000664800F063FE66A001F024F9284600F0B7
:1018C000C3F92046FEF728FF65A001F01BF9B420FC
:1018D00000F0BEFE4FF478464FF6E078CDE9008682
:1018E000634B64A20A211E2000F0D2FD69101F2064
:1018F000CDE900015E4B60A222211E2000F0C8FD50
:101900005E480321CDE900100024CDE902545C4A71
:101910005C4B3A211E2000F027FBCDE900565A4BC4
:101920005AA2B421322000F0E7FC3C20034600908C
:1019300046221921584800F05DFB02250096CDE9AA
:1019400001543A23E1220A217D2000F061FC4FF688
:101950001F070097CDE901543A23E1220A217D2097
:1019600000F078FB0097CDE901543A237D220A214B
:10197000E12000F06FFBCDE900541F231922642100
:10198000962000F0E3F9CDE90054002319226421E8
:10199000B42000F0DBF9CDE900543346192264216C
:1019A000D22000F0D3F9CDE90054434619227D211D
:1019B000A52000F0CBF9CDE900544FF4FC631922C7
:1019C0007D21C32000F0C2F940F6B830FEF7A4FE36
:1019D00004B032A0BDE8F04101F094B84C43445F3C
:1019E00031494E35345F746573742044656D6F0DF5
:1019F0000A0000004C43445F31494E35345F2049B2
:101A00006E697420616E6420436C6561722E2E2EA7
:101A10000D0A00005061696E745F4E6577496D6113
:101A200067650D0A0000000053657420436C656112
:101A30007220616E6420446973706C617920467510
:101A40006E74696F6E0D0A004D150008951500083B
:101A50005061696E745F436C6561720D0A0000002D
:101A600064726177696E672E2E2E0D0A00000000E9
:101A70002000002031323300414243001800002092
:101A8000B000A60C3CDD8E4028000020CEA2D1A9DB
:101A9000B5E7D7D300000000DA65000871756974F6
:101AA0002E2E2E0D0A0000002DE9F04186B00024F4
:101AB00024480094019402940394816941F0200128
:101AC0008161816901F020010491816941F0040183
:101AD0008161816901F004010491816941F0100183
:101AE0008161816901F010010491816941F008016F
:101AF00081618069144F00F008004FF44075049034
:101B0000012229463846FEF709FFDFF8408001220E
:101B100040214046FEF702FF00950226012503966C
:101B2000CDE9015469463846FEF708FE4020CDE96C
:101B30000005CDE9024669464046FEF7FFFD06B0C6
:101B4000BDE8F0810010024000080140000C014097
:101B5000104810B50E4901604FF4827141600021B8
:101B60008160C1604FF400720161C0E90512082272
:101B7000C0E90721416281620A21C162FFF7E0F9F1
:101B8000002803D0BDE81040FEF7C5BD10BD000021
:101B9000003001404800002010B58AB000240794AE
:101BA0001C2168460894FEF7E8FA174815490160B9
:101BB00040F22B11C0E9011440F2E731C0E90314EF
:101BC00080218161FFF7AEFB08B1FEF7A4FD079409
:101BD00007A90D480894FFF7EBFA08B1FEF79BFD43
:101BE0006020CDE90004029404226946064804946A
:101BF000FFF730FB08B1FEF78EFD0348FFF7FAFA56
:101C00000AB010BD00040040A00000200C4810B530
:101C10000A4901604FF4E1314160002181600C22EA
:101C2000C160C0E904128161C161FFF7C7FB0028F0
:101C300003D0BDE81040FEF76EBD10BD004400406B
:101C4000E0000020FEE770470149496808470000AE
:101C5000100000202DE9F05F81462B481E46DDF87C
:101C600028B0838888464B4502D3C188414504D2B9
:101C7000BDE8F05F25A000F045BFB088410700D067
:101C8000012101EBD000203AF188504348433168EC
:101C90004FF0800A0F18002530E0002425E000BF37
:101CA000ABF57F41FF39397804F007022AFA02F0D8
:101CB00001EA000101D009B908E081B108EB050093
:101CC00081B209EB040080B20B9A06E008EB050034
:101CD00081B209EB040080B25A4600F055FCE043A3
:101CE000400700D17F1C641CA4B2B088A042D7D8A2
:101CF0003079400700D07F1C6D1CADB2F088A8423F
:101D0000CBD8BDE8F09F000020010020446562753B
:101D100067203A205061696E745F4472617743684E
:101D2000617220496E7075742065786365656473AF
:101D300020746865206E6F726D616C2064697370C9
:101D40006C61792072616E67650D0A002DE9FF4FA5
:101D50008046834885B00F4684881399444502D352
:101D6000C088B84205D809B07E48BDE8F04F00F001
:101D7000C9BE03200024A0EB420015B20FFA80FA7E
:101D800001297AD0E9E0264661E000BF4FF0010961
:101D900008EB040007EB060B02901FFA8BF1CDF85D
:101DA000009080B24B46089A00F0DEF9A8EB0400E0
:101DB00004901FFA8BF1CDF8009080B20123089AAD
:101DC00000F0D2F93819CDE9009081B2A8EB060BEA
:101DD0001FFA8BF00123089A00F0C6F9381B039014
:101DE00081B2CDF800901FFA8BF00123089A00F021
:101DF000BBF90498A7EB060B1FFA8BF1CDF8009006
:101E000080B20123089A00F0AFF902981FFA8BF113
:101E1000CDF8009080B20123089A00F0A5F903984C
:101E200008EB060B81B2CDF800901FFA8BF001236E
:101E3000089A00F099F90198CDF8009081B21FFA44
:101E40008BF00123089A00F08FF9761C36B2AE426F
:101E50009CDDBAF1000F06DA0AEB8400801D0FFA50
:101E600080FA08E009E0611B0AEB81000A306D1E70
:101E70000FFA80FA2DB2641C24B2AC4283DD09B0A3
:101E8000BDE8F08F08EB0400012607EB050902907E
:101E90001FFA89F1009680B2129B089A00F064F94B
:101EA000A8EB040003901FFA89F1009680B2129B00
:101EB000089A00F059F93819CDE9006081B2A8EB11
:101EC00005091FFA89F0129B089A00F04DF9A7EB5B
:101ED000040B1FFA8BF11FFA89F00096129B089AE7
:101EE00000F042F90398A7EB05091FFA89F1009663
:101EF00080B2129B089A00F037F902981FFA89F114
:101F0000009680B2129B089A00F02EF908EB0509A2
:101F10001FFA8BF11FFA89F00096129B089A00F0C5
:101F200023F90198009681B21FFA89F0129B089A52
:101F300000F01AF9BAF1000F05DA0AEB8400801DEF
:101F40000FFA80FA07E0611B0AEB81000A306D1E70
:101F50000FFA80FA2DB2641C24B2AC4292DD8EE7F7
:101F600020010020448200082DE9F047C2B08246DB
:101F7000DDE94A08DDE94C76CDE900238946821C7B
:101F80001AA102A800F0CEFD02A8FEF701F901F0A7
:101F90008BFA044602A8FEF7FBF8821E02A920462F
:101FA000FEF7D2F802A8FEF7F3F82044002500F867
:101FB000015C02A8FEF7ECF8204410F8030C2E2870
:101FC00005D102A8FEF7E4F8204400F8035C43467C
:101FD000224649465046CDE9006700F059FA2046AE
:101FE00001F02AFA42B0BDE8F0870000252E2A6CE5
:101FF000660000002DE9FF5F1E468A460024DFF8D8
:102000005090DDF838801EE00298002507190099ED
:1020100004FB06F001EB400B12E000BFB9F808101A
:102020000AEB050348468B4209DA4089874206DA03
:102030000BEB4500B9B2028898B200F0A5FA6D1C0E
:10204000B542EBDB641C4445DEDBBDE8FF9F0000CE
:10205000200100202DE9FE4F1646324A1D46938886
:10206000834208D3D3888B4205D39388B34202D3EB
:10207000D288AA4204D2BDE8FE4F2BA000F042BD98
:1020800083468A46321A00D5821B91466A1A002A74
:1020900000DD4A1B90464FF0FF32B34501D20120CC
:1020A00000E010460290AA4500D2012209EB080484
:1020B000002701927F1C0E98FFB2012805D1032052
:1020C000B7FBF0F100FB1170F8B10120DDE90C2342
:1020D00000905146584600F047F800BFB8EB440F57
:1020E00007DCB3451CD0029944440BEB01001FFAF6
:1020F00080FBB9EB440FDDDBAA4511D001994C44BC
:102100000AEB01001FFA80FAD4E7012000904FF695
:10211000FF72514658460D9B00F026F80027DDE778
:10212000BDE8FE8F200100204465627567203A20DB
:102130005061696E745F447261774C696E652049C5
:102140006E70757420657863656564732074686566
:10215000206E6F726D616C20646973706C617920A0
:1021600072616E67650D0A002DE9F05F81462648B1
:102170001C46884683880A9993464B4502D3C288F9
:10218000424504D2BDE8F05F204800F0BBBC012905
:1021900001D0002634E00025681E00EB440718E05B
:1021A00009EB05000026A0EB040A0EE0BAF1000FCF
:1021B0000DD408EB0600001B09D481B21FFA8AF087
:1021C0005A4600F0E1F9761C36B2B742EEDC6D1CDF
:1021D0002DB2AF42E4DCBDE8F09F002509EB060715
:1021E0007F1E09E008EB0500401E81B2B8B25A46D6
:1021F00000F0CAF96D1C2DB2A542F3DB761C36B295
:10220000A642EADBE7E70000200100208882000800
:102210002DE9FE4F82462A480C461F46DDE90D5146
:1022200083880C9E9146534509D3C288A24206D3A7
:1022300083884A464B4502D3C088B84204D2BDE8E1
:10224000FE4F20A000F05EBC0020804661B90FE088
:10225000CDE9006523464A4619465046CDF8088028
:10226000FFF7F8FE641CA4B2BC42F1D3BDE8FE8FB8
:10227000CDE90065234619465046CDF80880FFF7A2
:10228000E9FECDE9006552463B4621461046CDF8B1
:102290000880FFF7DFFECDE900654A462346394650
:1022A0001046CDF80880FFF7D5FECDE900653B4626
:1022B000524619464846CDF80880FFF7CBFED5E7D1
:1022C000200100204465627567203A20496E7075D0
:1022D00074206578636565647320746865206E6F2B
:1022E000726D616C20646973706C61792072616ECB
:1022F00067650D0A000000002DE9F05F1D4690465D
:1023000006468A46DDF828B0B9E07F294FF0000084
:1023100056D8AA884EE053232C68434314F8133050
:102320008B4246D153214843022101EB400004EB8C
:102330000009002739E000242EE000BFABF57F4004
:10234000FF384FEAE47004EB507020F00700A4EB74
:10235000000299F800104FF0800020FA02F001EA24
:10236000000101D009B907E071B10AEB070081B2A1
:10237000301980B20B9A05E00AEB070081B23019E0
:1023800080B25A4600F000F9404804EA00010729EB
:1023900001D109F10109641C2889A042CEDC287A08
:1023A000400701D009F101097F1C6889B842C2DCED
:1023B00002E0401C8242AEDC08F10108E8885DE0E2
:1023C0000127AA8855E053232C68434314F813C00F
:1023D0008C454DD107EB4303E45C98F801309C42F7
:1023E00046D15321484302212A6801EB400002EB09
:1023F0000009002738E000242DE000BFABF57F4046
:10240000FF384FEAE47004EB507020F00700A4EBB3
:10241000000299F800104FF0800020FA02F001EA63
:10242000000101D009B907E071B10AEB070081B2E0
:10243000301980B20B9A05E00AEB070081B230191F
:1024400080B25A4600F0A0F810482040072801D179
:1024500009F10109641C2889A042CFDC287A4007D1
:1024600001D009F101097F1C6889B842C3DC02E090
:10247000401C8242A7DC288908F10208064498F82B
:10248000001000297FF441AFBDE8F09F07000080F5
:102490002DE9FC5F80461B4889460D468188DDF8A2
:1024A00034B01E4617464446A14203D3C188824633
:1024B000A94222D2BDE8FC5F134800F023BBB088DC
:1024C000BAF8043001195046994203D9F1884446BC
:1024D00029448DB2F188C0882944814201D94446FB
:1024E0004D460C99CDE9001B334629462046FFF79F
:1024F000B1FBB0887F1C204484B23A78002ADED138
:10250000BDE8FC9F20010020FC8100082DE9F0417E
:102510000D4C17460D46064620816181A3816082DD
:10252000A182A28A618A09A000F0ECFAE78100206A
:1025300020822FB1B42F03D0A580E680BDE8F081C2
:10254000A680E580FAE70000200100205769647446
:102550006842797465203D2025642C2048656967B0
:10256000687442797465203D2025640D0A000000DE
:1025700001494860704700001000002001490860D0
:10258000704700001000002030B4044624488388BF
:10259000A3423AD3C3888B4237D3C389E3B15A2BC2
:1025A0001CD0B42B20D0B3F5877F37D10B4641899F
:1025B000091B491E89B2048A0CB3012C1BD0022CC2
:1025C00005D0032C2AD10489E31A5B1E9BB24489EF
:1025D000611A491E89B212E02346ECE70389591AB1
:1025E000491E8BB22146E6E703891B1B5B1E44890B
:1025F0009BB2611ADDE70489E31A5B1E9BB2048972
:102600009C4202D34089884203D230BC05A000F02E
:1026100079BA18460D4B1B6830BC184730BC704760
:10262000200100204465627567203A204578636583
:102630006564696E6720646973706C617920626F8C
:10264000756E6461726965730D0A000010000020E8
:1026500010B504000BD05A2C09D0B42C07D0B4F517
:10266000877F04D0BDE8104004A000F04BBA0146BB
:102670000BA000F047FA1248C48110BD4465627592
:1026800067203A20726F74617465203D20302C20E1
:1026900039302C203138302C203237300D0A0000F0
:1026A0004465627567203A2053657420696D6167DF
:1026B0006520526F746174652025640D0A00000066
:1026C00020010020704738B50B46009204460022D6
:1026D000802100F008F8002804D0606D40F0200050
:1026E0006065032038BD2DE9F0411D4617460E46B2
:1026F0000446DDF8188008E0681C06D0FEF714F9DF
:10270000A0EB0800A8420BD255B12068806836EAD9
:10271000000030D00020B842EED10020BDE8F081AA
:102720002068416821F0E00141606068B0F5827F77
:102730000BD1A068B0F5004F02D0B0F5806F04D186
:102740002068016821F040010160A06AB0F5005FD7
:1027500009D12068016821F40051016020680168F6
:1027600041F400510160012084F85100002084F8F8
:1027700050000320D2E70120CDE77047FEF7DAB81A
:1027800030B58FB028216846FDF7F7FC14210AA860
:10279000FDF7F3FC01210804CDE9001000240294A8
:1027A00002250491CDE907504FF4E01009906846E6
:1027B000FEF736FA0F20CDE90A056802CDE90C4094
:1027C00002210AA80E94FEF73FF90FB030BD0000B9
:1027D0000D48016841F00101016041680B4A114058
:1027E000416001680A4A11400160016821F48021BA
:1027F0000160416821F4FE0141604FF41F018160D6
:102800000449C00308607047001002400000FFF850
:10281000FFFFF6FE08ED00E0F0B50268164B174C1E
:10282000174D4FF08047984205D0B84203D0A042E0
:1028300001D0A84203D122F070064A683243984280
:1028400005D0B84203D0A04201D0A84203D122F45F
:102850004074CA6822434C6922F08002224302601D
:102860008A68C2620A688262984201D1096901637A
:1028700001214161F0BD0000002C01400004004036
:102880000008004010B501F01F030121046A9940BF
:102890008C430462016A9A401143016210BD00003A
:1028A00030B5026A22F001020262026A436884695A
:1028B00024F073050C682C4322F002058A682A4331
:1028C0000A4DA8420BD122F00805CA6823F44073D0
:1028D0002A434D6922F004021D438B692B43436058
:1028E000846149684163026230BD0000002C0140F0
:1028F00030B5026A22F010020262026A43688469FB
:102900000D6824F4E64444EA05248D6822F0200290
:1029100042EA05120B4DA8420ED1CD6822F080028A
:1029200042EA05124D6923F4406343EA85038D6949
:1029300022F0400243EA8503436084614968816371
:10294000026230BD002C014030B5026A22F4807270
:102950000262036A4268C46923F4007324F07305B9
:102960000C682C438D6843EA05230C4DA8420ED118
:10297000CD6823F4006343EA05234D6922F44052F5
:1029800042EA05128D6923F4806342EA051242602F
:10299000C4614968C163036230BD0000002C01407E
:1029A00030B5026A22F480520262046A4268C36946
:1029B0000D6823F4E64343EA05238D6824F40054AC
:1029C00044EA0534064DA84204D14D6922F4804200
:1029D00042EA85124260C36149680164046230BD05
:1029E000002C01402DE9F041044600680169E268CD
:1029F00021F44051114301612169A06808436169D4
:102A000008432168CA6841F20C639A430243CA60D2
:102A100020684169A26921F44071114341611E4956
:102A2000206864253226884202D1FEF7B3F801E01F
:102A3000FEF7A0F800EBC00101EB001160686FF039
:102A400018078000B1FBF0F2B2FBF5F2B1FBF0F336
:102A50007A4303EB8202B1FBF0F306EB0212B2FB06
:102A6000F5F2B3FBF5F302F0F00202EB0312B1FB57
:102A7000F0F3B1FBF0F0B0FBF5F0784303EB80002E
:102A800006EB0010B0FBF5F0216800F00F001044D9
:102A90008860BDE8F0810000003801402DE9F04178
:102AA000984617460E460446069D1DE0681C1BD03E
:102AB0002DB1FDF739FFA0EB0800A84214D920681A
:102AC000C16821F4D071C1602068416921F0010121
:102AD0004161202084F8390084F83A00002084F80D
:102AE00038000320BDE8F0812068006836EA000065
:102AF00004D00020B842D9D00020F3E70120F9E744
:102B0000FEE700000FB4054B10B503A9044A029874
:102B100000F0FEF810BC5DF814FB00002134000842
:102B20003C0000200FB4084B10B504A902AA03987A
:102B300000F0EEF8044602A9002000F06CFC2046EC
:102B400010BC5DF814FB0000173400080907090EDB
:102B5000002804DB00F1E02080F80014704700F04A
:102B60000F0000F1E02080F8141D704702E008C853
:102B7000121F08C1002AFAD170477047002001E0F7
:102B800001C1121F002AFBD1704700002DE9FF5F31
:102B900082B00021DDE90430020DDDF840B00343CE
:102BA00018D044F61050A2F2FF3242431514119887
:102BB00001281FD0A5EB0B00401C5FEA000A4FF074
:102BC00000064E4FDFF83891B046504615D5CAF191
:102BD000000413E0119801244AA3012801D16FEAEF
:102BE0000B010298119AC0E90031C0E9024206B017
:102BF000BDE8F09FCBF10000DFE704460021404A2A
:102C0000491842EB0450CDE9001012E0E00707D06C
:102C100032463B4640464946FDF7AFFB8046894673
:102C200032463B4610461946FDF7A7FB06460F46BF
:102C30006410002CEAD1DDE90401DDE90023BAF1DA
:102C4000000F06DAFDF799FB42464B46FDF795FB70
:102C500005E0FDF704FC42464B46FDF700FC044648
:102C60000E460022284BFDF781FC03D84FF0FF30C1
:102C7000014607E00022254B20463146FDF7D6FAF3
:102C8000FDF75CFC102409E0002C0ADB0A2200237B
:102C9000FDF79BFA039B30321A55641E50EA01027D
:102CA000F2D1641C039AC4F111031444119A012A4D
:102CB00003D0012208430DD10AE0084304D00020CC
:102CC0004FF0110B119072E7A3EB0B056D1E0DE099
:102CD0005B4504DD4FF0000205F1010504E003DA75
:102CE0004FF00002A5F10105002AECD002981199DD
:102CF000C0E90231C0E9004579E700000000144056
:102D00000000F03F300000000000F0430000E03F12
:102D10002DE9FF4F95B09A46884606460025EEE11C
:102D2000252877D100242746F94A0121039400E0A1
:102D3000044316F8013F203B01FA03F01042F7D19B
:102D400030782A2811D06FF02F033078A0F13002AC
:102D5000092A16D8039A44F0020402EB820203EB1C
:102D600042021044761C0390EFE758F8042B0392BC
:102D7000002A03DA504244F40054039044F0020461
:102D8000761C30782E2816D116F8010F44F0040472
:102D90002A280DD06FF02F023078A0F13003092BD4
:102DA00009D807EB870302EB4303C718761CF3E748
:102DB00058F8047B761C30786C280FD006DC4C2841
:102DC00017D068280DD06A2814D104E0742810D0D8
:102DD0007A280FD10DE044F400140AE044F4801482
:102DE00001E044F440147278824202D104F5801468
:102DF000761C761C307866280BD013DC582877D0E8
:102E000009DC002875D04528F6D04628F4D047289C
:102E10001AD193E118E0632835D0642879D0652869
:102E200012D18BE1702873D008DC6728F1D06928B3
:102E30006FD06E280DD06F2806D1ACE073282CD04F
:102E4000752874D0782853D05246179990476D1C36
:102E500054E1C4F30250022809D003280DD0D8F859
:102E6000001004280DD00D6008F1040846E1D8F8E0
:102E70000010EA17C1E90052F6E7D8F800100D80FB
:102E8000F2E70D70F0E718F8041B8DF80010002031
:102E90008DF80100EB46012003E058F804BB4FF029
:102EA000FF3061074FF0000102D40DE009F101018C
:102EB0008946B9420FDA8145F8DB1BF80910002971
:102EC000F4D108E009F1010189468142FADB1BF8DF
:102ED00009100029F6D103985346A0EB09072146B3
:102EE0003846179A00F080FA284400EB090507E0FD
:102EF00044E008E10DE01BF8010B5246179990479A
:102F0000B9F10109F7D2534621463846179AF2E043
:102F100039E00A21C4F302524FF0000B0091022A5B
:102F200006D058F8040BC117032A09D00AE023E0A1
:102F300008F1070020F00702F2E80201904605E0E0
:102F400000B2C117042A01D140B2C117002906DA24
:102F50000A460021404261EB02012D2202E02205D7
:102F600004D52B228DF80420012203E0E20701D0D2
:102F70002022F7E7914657E00A2100E010214FF0A8
:102F8000000B00910BE010214FF0000B44F0040403
:102F90000827009103E008204FF0000B0090C4F3D5
:102FA0000252022A05D058F8040B0021032A08D047
:102FB00008E008F1070020F00702F2E8020190465D
:102FC00003E080B2042A00D1C0B24FF0000922070A
:102FD0002AD53278702A07D0DDF800C08CF0100CAA
:102FE0005CEA0B0C05D00EE040228DF80420012293
:102FF00008E050EA010306D030238DF804308DF844
:10300000052002229146009B83F0080353EA0B033C
:103010000AD150EA010201D1620705D530228DF8AC
:1030200004204FF001097F1E3278582A04D039A2BB
:103030000C920CAA02920BE03BA2F9E75B46009AC5
:10304000FDF7C3F80C9B9B5C029A521E0292137010
:1030500050EA0102F2D1029804A9081A00F1200BEB
:10306000600702D524F4803400E001275F4502DDCB
:10307000A7EB0B0000E0002000EB0B010090039891
:103080004944401A0390E00306D453462146179A58
:10309000039800F0A9F90544002706E001A852466C
:1030A000C05D179990476D1C7F1C4F45F6DBE00310
:1030B0000CD553462146179A039800F095F905441C
:1030C00004E030205246179990476D1C0099481E25
:1030D00000900029F5DC08E0029802995246007839
:1030E000491C0291179990476D1CBBF10001ABF18F
:1030F000010BF1DC5BE100F065F90544761C3078EA
:1031000000287FF40DAE19B02846BDE8F08F00000E
:1031100009280100303132333435363738396162AD
:103120006364656600000000303132333435363771
:10313000383941424344454600000000600700D44E
:10314000062708F1070020F00700F0E80223804678
:1031500003F0004C5FEA0C0001D097A009E02005C5
:1031600001D596A005E0E00701D095A001E0AFF2FF
:103170004C001390307823F0004365280CD006DC17
:10318000452809D046281DD047287FD13BE0662836
:1031900018D067287AD136E00021112F01DB1120E9
:1031A00000E0781CCDE9000104A90CA8FFF7EEFCB3
:1031B000DDE90D010C9A4FF0000B07F101091092A7
:1031C00000914EE04FF000400097CDE9011004A9B6
:1031D0000CA8FFF7DBFCDDE90D020C9B0F994FF00B
:1031E000000B91461093009211B9791C00EB010974
:1031F000B7EB090003D4C0F1FF3B07F10109A9EBCC
:103200000700019042E0012F00DA01270021112F71
:1032100001DD112000E03846CDE9000104A90CA829
:10322000FFF7B4FCDDE90D010C9A00914FF0000BA3
:10323000B946109221070FD4009A4A4503DA914605
:1032400001E0A9F10109B9F1010F05DD109AA9F119
:103250000101515C3029F4D0B84202DA10F1040FB8
:1032600003DA0121CDE9011010E0002803DC8344DA
:10327000A9EB000102E0411C494500DD8946A0EBB5
:103280000B00401C01904FF000400290200705D435
:103290000198484502DB4FF0FF30019000208DF887
:1032A0004B0002980DF14B07B0F1004F25D00220E2
:1032B0000C902B200D90029800280CDA40420290CE
:1032C0002D200D9007E00A210298FCF768FF3031AD
:1032D000029007F8011D0C99481E0C900029F2DCA1
:1032E00002980028EFD1791E0D980870307800F010
:1032F000200040F0450007F8020D11A8C01BC01DBA
:1033000002901398007800B1012000EB09010198A8
:1033100001EBE071029801440398401A401E0390AB
:10332000E00306D453462146179A039800F05CF850
:1033300005441398007818B15246179990476D1CB0
:10334000E00323D553462146179A039800F04CF822
:1033500005441BE0BBF1000F07DB0098584504DD76
:103360001098179910F80B0001E017993020524679
:10337000904701980BF1010B401E05F101050190EA
:1033800004D12E205246179990476D1CB9F10001C7
:10339000A9F10109DEDC05E017F8010B5246179987
:1033A00090476D1C0299481E02900029F4DC534698
:1033B0002146179A03989EE62D0000002B0000007E
:1033C000200000002DE9F041044600251E46174666
:1033D000880404D405E039462020B0476D1C641EE3
:1033E000F9D52846BDE8F0812DE9F04104460025D5
:1033F0001E469046C80301D5302700E020278804E8
:1034000004D505E041463846B0476D1C641EF9D529
:103410002846BDE8F0810A68531C0B6010707047A5
:1034200013B54FF6FF73012269460248FEF730F8E4
:1034300000981CBDE000002010B5002821D0114BE1
:103440000022001F196803E0814203D80A46496838
:103450000029F9D152B11368841A9C4204D1006842
:1034600018441060104602E0506000E0186039B166
:1034700002680B1A934203D10B681A440260496830
:10348000416010BD40000020FDF75CFAFFF778F9BD
:10349000FEF70AFBFEF75CFBFEF77EFBFEF7B6FBD2
:1034A000FEF7E0F9FEE70000F0B50B30154D20F017
:1034B00007010024144A0FE003688B420BD38B42B0
:1034C00005D95E1A43184768C3E9006700E04368FE
:1034D000136002C004E0021D10680028ECD12046F1
:1034E000002802D1286808B10020F0BD064A07482C
:1034F0001060074A121A22F00702C0E900240120D6
:103500002860D7E744000020400000203C01002054
:103510003805002000000000000000000102030444
:103520000607080900000000010203040000000073
:10353000000000000000000000101010101000003B
:1035400010000000006C484800000000000000006F
:10355000001414287C287C285050000000103840AB
:103560004038487010100000002050200C700814E3
:10357000080000000000001820205448340000001B
:1035800000101010100000000000000000080810DB
:10359000101010101008080000202010101010103B
:1035A0001020200000107C102828000000000000DF
:1035B0000000101010FE10101000000000000000AD
:1035C000000000181030200000000000007C000007
:1035D000000000000000000000000030300000008B
:1035E0000004040808101020204000000038444463
:1035F00044444444380000000030101010101010F3
:103600007C00000000384404081020447C000000C6
:10361000003844041804044438000000000C14145A
:1036200024447E040E000000003C202038040444A2
:1036300038000000001C204078444444380000005A
:10364000007C4404080808101000000000384444BE
:10365000384444443800000000384444443C0408E2
:10366000700000000000003030000030300000002A
:1036700000000018180000183020000000000C1096
:10368000608060100C000000000000007C007C00E6
:10369000000000000000C02018041820C000000036
:1036A0000000182404081000300000003844444C86
:1036B00054544C40443800000030102828287C44E2
:1036C000EE00000000F8444478444444F800000050
:1036D000003C4440404040443800000000F0484472
:1036E00044444448F000000000FC44507050404402
:1036F000FC000000007E22283828202070000000F6
:10370000003C4440404E44443800000000EE444435
:103710007C444444EE000000007C10101010101097
:103720007C000000003C08080848484830000000C1
:1037300000EE444850704844E6000000007020202D
:10374000202024247C00000000EE6C6C545444447F
:10375000EE00000000EE64645454544CEC00000091
:103760000038444444444444380000000078242491
:10377000243820207000000000384444444444446D
:10378000381C000000F8444444784844E20000003B
:1037900000344C40380404645800000000FE9210CD
:1037A000101010103800000000EE4444444444441B
:1037B0003800000000EE44442828281010000000C3
:1037C00000EE4444545454542800000000C64428D9
:1037D00010102844C600000000EE442828101010E5
:1037E00038000000007C4408101020447C000000D9
:1037F00000382020202020202020380000402020D9
:1038000020101008080800000038080808080808F8
:1038100008083800001010284400000000000000D4
:103820000000000000000000000000FE0010080082
:10383000000000000000000000000038443C444448
:103840003E00000000C0405864444444F8000000BA
:103850000000003C4440404438000000000C0434A8
:103860004C4444443E00000000000038447C40408A
:103870003C000000001C207C202020207C00000058
:10388000000000364C4444443C04380000C040581A
:1038900064444444EE00000000100070101010104A
:1038A0007C00000000100078080808080808700074
:1038B00000C0405C48705048DC0000000030101030
:1038C000101010107C000000000000E85454545404
:1038D000FE000000000000D864444444EE000000F4
:1038E000000000384444444438000000000000D880
:1038F000644444447840E000000000364C444444B2
:103900003C040E000000006C302020207C000000F1
:103910000000003C44380444780000000000207C93
:10392000202020221C000000000000CC4444444C15
:1039300036000000000000EE44442828100000007B
:10394000000000EE4454545428000000000000CC55
:1039500048303048CC000000000000EE4424281815
:10396000101078000000007C481020447C0000000B
:103970000008101010102010101008000010101077
:10398000101010101010000000201010101008105F
:10399000101020000000000000245800000000006B
:1039A0000000000000000000000000000000000017
:1039B0000000000000000000000000000000000007
:1039C00000000000000000000000000000000000F7
:1039D00000000000000000000000000000000000E7
:1039E0000000000000000000000000000000038054
:1039F0000003800003800003800003800003800038
:103A0000038000038000038000010000010000002B
:103A100000000000000380000380000000000000A0
:103A20000000000000000000000000000000000096
:103A30000000000000000000000E70000E70000E7C
:103A40007000042000042000042000042000000076
:103A50000000000000000000000000000000000066
:103A60000000000000000000000000000000000056
:103A700000000000000000000000000000000660E0
:103A8000000660000660000660000660003FF80067
:103A90003FF8000660000CC0003FF8003FF8000C43
:103AA000C0000CC0000CC0000CC0000CC000000026
:103AB0000000000000000000000000000000000006
:103AC00000000001800001800007B0000FF0001826
:103AD00070001870001C00000F800007E00000F06C
:103AE000001830001C30001C70001FE0001BC000DC
:103AF00001800001800001800001800000000000C2
:103B0000000000000000000000000000000007802E
:103B1000000FC0001CE0001860001860001CE000EE
:103B20000FF80007E0001FF0000738000618000635
:103B3000180007380003F00001E00000000000005A
:103B40000000000000000000000000000000000075
:103B500000000000000000000000000003F000076B
:103B6000F0000C60000C00000C00000600000700D4
:103B7000000F9C001DFC0018F0001870000FFC00E6
:103B800007DC000000000000000000000000000052
:103B90000000000000000000000000000000000025
:103BA000000380000380000380000100000100008A
:103BB0000100000100000000000000000000000003
:103BC00000000000000000000000000000000000F5
:103BD00000000000000000000000000000000000E5
:103BE0000000000000000018000038000070000015
:103BF000F00000E00000E00001C00001C00001C0D2
:103C00000001C00001C00001C00000E00000E000B1
:103C10000070000070000038000018000000000074
:103C2000000000000000000000000000000018007C
:103C3000001C00000E00000E00000700000700003E
:103C400003800003800003800003800003800003E2
:103C500080000700000700000F00000E00001C009D
:103C6000001800000000000000000000000000003C
:103C70000000000000000180000180000180001DA4
:103C8000B8001FF80007E00003C00003C000066092
:103C900000066000000000000000000000000000BE
:103CA0000000000000000000000000000000000014
:103CB0000000000000000000000000000000000004
:103CC00000000000018000018000018000018000F0
:103CD0000180003FFC003FFC0001800001800001EA
:103CE0008000018000018000000000000000000052
:103CF00000000000000000000000000000000000C4
:103D000000000000000000000000000000000000B3
:103D100000000000000000000000000000000000A3
:103D20000000000000000000000000E00000C000F3
:103D300001C00001800001800003000003000000BA
:103D40000000000000000000000000000000000073
:103D50000000000000000000000000000000000063
:103D60000000001FF8001FF8000000000000000025
:103D70000000000000000000000000000000000043
:103D80000000000000000000000000000000000033
:103D90000000000000000000000000000000000023
:103DA0000000000000000000000000000000000013
:103DB0000000000000000000000003C00003C0007D
:103DC00003C0000000000000000000000000000030
:103DD000000000000000000000180000180000387B
:103DE0000000300000700000600000600000C000B3
:103DF00000C00001800001800003000003000006F5
:103E000000000600000E00000C00001C000018005E
:103E1000001800000000000000000000000000008A
:103E200000000000000003C00007E0000C30000CA0
:103E30003000181800181800181800181800181862
:103E4000001818001818000C30000C300007E000B3
:103E500003C000000000000000000000000000009F
:103E600000000000000000000000000000000080D2
:103E7000000780001F80001D80000180000180007D
:103E800001800001800001800001800001800001AC
:103E900080000180001FF8001FF8000000000000F3
:103EA0000000000000000000000000000000000012
:103EB00000000000000007C0001FF0003830003094
:103EC000180030180000180000300000600001C029
:103ED000000380000600000C00001800003FF800FE
:103EE0003FF800000000000000000000000000009B
:103EF000000000000000000000000000000003C0FF
:103F0000000FE0000C700000300000300000600086
:103F100003C00003E000007000001800001800005B
:103F200018001838001FF0000FC00000000000004B
:103F30000000000000000000000000000000000081
:103F400000000000000000E00001E00001E00003CC
:103F500060000660000660000C60000C60001860E5
:103F6000003060003FF8003FF80000600003F800F8
:103F700003F8000000000000000000000000000046
:103F800000000000000000000000000000001FF022
:103F9000001FF0001800001800001800001BC000EF
:103FA0001FF0001C3000001800001800001800006E
:103FB00018003030003FF0000FC00000000000008B
:103FC00000000000000000000000000000000000F1
:103FD00000000000000000F80003F8000700000ED9
:103FE00000000C00001800001BC0001FF0001C3077
:103FF000001818001818001818000C38000FF000EE
:1040000003E00000000000000000000000000000CD
:1040100000000000000000000000000000001FF889
:10402000001FF80018180018380000300000300099
:1040300000700000600000600000E00000C00000B0
:10404000C00001C0000180000180000000000000ED
:104050000000000000000000000000000000000060
:1040600000000000000007E0000FF0001C380018FE
:1040700018001818000C300007E00007E0000C30B2
:10408000001818001818001818001C38000FF0004D
:1040900007E0000000000000000000000000000039
:1040A000000000000000000000000000000007C049
:1040B000000FF0001C300018180018180018180025
:1040C0000C38000FF80003D8000018000030000082
:1040D000700000E0001FC0001F0000000000000092
:1040E00000000000000000000000000000000000D0
:1040F00000000000000000000000000000000000C0
:10410000000003C00003C00003C000000000000066
:104110000000000000000000000003C00003C00019
:1041200003C00000000000000000000000000000CC
:10413000000000000000000000000000000000007F
:104140000000000000000000000000F00000F0008F
:1041500000F000000000000000000000000000006F
:10416000E00001C0000180000180000300000200A7
:10417000000000000000000000000000000000003F
:10418000000000000000000000000000001C000013
:104190003C0000F00003C0000F00003C0000F000F5
:1041A000003C00000F000003C00000F000003C00D5
:1041B000001C0000000000000000000000000000E3
:1041C00000000000000000000000000000000000EF
:1041D000000000000000000000000000007FFC0064
:1041E0007FFC000000000000007FFC007FFC00005E
:1041F00000000000000000000000000000000000BF
:1042000000000000000000000000000000000000AE
:1042100000000000000000000000000070000078B6
:1042200000001E000007800001E000007800001E72
:104230000000780001E0000780001E000078000008
:1042400070000000000000000000000000000000FE
:10425000000000000000000000000000000000005E
:104260000007C0000FE00018700018300018300080
:1042700000700000E00003C00003800003000000A5
:104280000000000000070000070000000000000020
:10429000000000000000000000000000000000001E
:1042A00000000000000003E00007F0000E38000CE2
:1042B000180018780018F80019D8001998001998F3
:1042C0000019980018F8001878001800000C000079
:1042D0000E180007F80003E00000000000000000D6
:1042E00000000000000000000000000000000000CE
:1042F000001F80001FC00001C000036000036000B9
:104300000630000630000C30000FF8001FF80018CF
:104310000C00300C00FC7F00FC7F0000000000005F
:10432000000000000000000000000000000000008D
:104330000000000000000000007FE0007FF0001897
:1043400038001818001818001838001FF0001FF85F
:1043500000181C00180C00180C00180C007FF80046
:104360007FF00000000000000000000000000000DE
:10437000000000000000000000000000000000003D
:104380000003EC000FFC001C1C00180C00300C009B
:104390003000003000003000003000003000001815
:1043A0000C001C1C000FF80003F0000000000000CF
:1043B00000000000000000000000000000000000FD
:1043C0000000000000000000007FC0007FF0001827
:1043D0003800181800180C00180C00180C00180CE5
:1043E00000180C00180C001818001838007FF00096
:1043F0007FE000000000000000000000000000005E
:1044000000000000000000000000000000000000AC
:10441000007FF8007FF8001818001818001998009D
:104420001980001F80001F80001980001998001853
:1044300018001818007FF8007FF800000000000046
:10444000000000000000000000000000000000006C
:104450000000000000000000003FFC003FFC000CDA
:104460000C000C0C000CCC000CC0000FC0000FC0E6
:10447000000CC0000CC0000C00000C00003FC0008D
:104480003FC000000000000000000000000000002D
:10449000000000000000000000000000000000001C
:1044A0000003EC000FFC001C1C00180C00300C007A
:1044B00030000030000030FE0030FE00300C0038CC
:1044C0000C001C1C000FFC0003F0000000000000AA
:1044D00000000000000000000000000000000000DC
:1044E0000000000000000000007E7E007E7E0018BC
:1044F00018001818001818001818001FF8001FF8E6
:10450000001818001818001818001818007E7E00EF
:104510007E7E00000000000000000000000000009F
:10452000000000000000000000000000000000008B
:10453000001FF8001FF800018000018000018000CA
:1045400001800001800001800001800001800001E5
:1045500080000180001FF8001FF80000000000002C
:10456000000000000000000000000000000000004B
:1045700000000000000000000007FE0007FE000031
:1045800030000030000030000030000030003030DB
:10459000003030003030003030003060003FE0004C
:1045A0000F8000000000000000000000000000007C
:1045B00000000000000000000000000000000000FB
:1045C000007F3E007F3E0018300018600018C000D9
:1045D0001980001B80001FC0001CE000187000182C
:1045E00030001838007F1F007F1F0000000000000F
:1045F00000000000000000000000000000000000BB
:104600000000000000000000007F80007F80000CA0
:1046100000000C00000C00000C00000C00000C005E
:10462000000C0C000C0C000C0C000C0C007FFC00AF
:104630007FFC0000000000000000000000000000FF
:10464000000000000000000000000000000000006A
:1046500000F00F00F81F00381C003C3C003C3C0000
:10466000366C00366C0033CC0033CC00318C00301B
:104670000C00300C00FE7F00FE7F000000000000F8
:10468000000000000000000000000000000000002A
:1046900000000000000000000078FE0078FE001C12
:1046A00018001E18001F18001B18001B980019D8AE
:1046B0000018D80018F8001878001838007F180083
:1046C0007F18000000000000000000000000000053
:1046D00000000000000000000000000000000000DA
:1046E0000003C0000FF0001C3800181800381C0030
:1046F000300C00300C00300C00300C00381C00185E
:1047000018001C38000FF00003C00000000000007B
:104710000000000000000000000000000000000099
:104720000000000000000000003FF0003FF8000C17
:104730001C000C0C000C0C000C0C000C18000FF8EA
:10474000000FE0000C00000C00000C00003FC00057
:104750003FC000000000000000000000000000005A
:104760000000000000000000000000000000000049
:104770000003C0000FF0001C3800181800381C009F
:10478000300C00300C00300C00300C00381C0018CD
:1047900018001C38000FF00007C00007CC000FFC09
:1047A000000C3800000000000000000000000000C5
:1047B0000000000000000000007FE0007FF0001813
:1047C00038001818001818001838001FF0001FC013
:1047D0000018E0001870001830001838007F1E0024
:1047E0007F0E00000000000000000000000000003C
:1047F00000000000000000000000000000000000B9
:104800000007D8000FF8001C38001818001818000E
:104810001E00000FC00003F00000780018180018F8
:1048200018001C38001FF0001BE000000000000012
:104830000000000000000000000000000000000078
:104840000000000000000000003FFC003FFC0031C1
:104850008C00318C00318C00318C00018000018093
:10486000000180000180000180000180000FF00045
:104870000FF0000000000000000000000000000039
:104880000000000000000000000000000000000028
:10489000007E7E007E7E0018180018180018180090
:1048A0001818001818001818001818001818001800
:1048B00018000C30000FF00003C0000000000000E2
:1048C00000000000000000000000000000000000E8
:1048D0000000000000000000007F7F007F7F0018C4
:1048E0000C000C18000C18000C18000630000630E4
:1048F0000003600003600003600001C00001C0000D
:104900000080000000000000000000000000000027
:104910000000000000000000000000000000000097
:1049200000FE3F80FE3F80300600300600308600EB
:1049300019CC0019CC001B6C001B6C001E7C000EF7
:1049400038000E38000C18000C18000000000000A1
:104950000000000000000000000000000000000057
:104960000000000000000000007E7E007E7E001837
:1049700018000C300006600003C0000180000180B8
:104980000003C0000660000C30001818007E7E0096
:104990007E7E00000000000000000000000000001B
:1049A0000000000000000000000000000000000007
:1049B000007C7E007C7E001818000C300006600031
:1049C00006600003C000018000018000018000013A
:1049D00080000180000FF0000FF0000000000000D8
:1049E00000000000000000000000000000000000C7
:1049F0000000000000000000001FF8001FF8001871
:104A0000180018300018600018C000018000030072
:104A1000000618000C18001818003018003FF800A5
:104A20003FF800000000000000000000000000004F
:104A3000000000000000000000000000000001F085
:104A40000001F00001800001800001800001800071
:104A500001800001800001800001800001800001D0
:104A6000800001800001800001800001800001F0D1
:104A70000001F00000000000000000000000000045
:104A80001800001800001C00000C00000E000006BA
:104A90000000060000030000030000018000018008
:104AA0000000C00000C00000600000600000700056
:104AB000003000003800001800001800000000005E
:104AC00000000000000000000000000000000F8057
:104AD000000F800001800001800001800001800043
:104AE0000180000180000180000180000180000140
:104AF00080000180000180000180000180000F80A3
:104B0000000F800000000000000000000000000016
:104B100000000000800001C00003E00007700006F4
:104B200030000C1800180C001004000000000000F9
:104B30000000000000000000000000000000000075
:104B40000000000000000000000000000000000065
:104B50000000000000000000000000000000000055
:104B60000000000000000000000000000000000045
:104B70000000000000000000000000000000000035
:104B80000000000000000000000000000000000025
:104B900000000000000000000000FFFF00FFFF0019
:104BA00000000003000003800000E000006000003F
:104BB00000000000000000000000000000000000F5
:104BC00000000000000000000000000000000000E5
:104BD00000000000000000000000000000000000D5
:104BE00000000000000000000000000000000000C5
:104BF000000000000000000000000FC0001FE000E7
:104C000000300000300007F0001FF00038300030A6
:104C100030003070001FFC000FBC000000000000DE
:104C20000000000000000000000000000000000084
:104C30000000000000007800007800001800001854
:104C400000001BE0001FF8001C1800180C00180CD6
:104C500000180C00180C00180C001C18007FF8003D
:104C60007BE00000000000000000000000000000E9
:104C70000000000000000000000000000000000034
:104C80000000000000000000000003EC000FFC002A
:104C90001C1C00380C00300C0030000030000038C4
:104CA0000C001C1C000FF80003F0000000000000C6
:104CB00000000000000000000000000000000000F4
:104CC00000000000000000780000780000180000DC
:104CD000180007D8001FF8001838003018003018E6
:104CE000003018003018003018001838001FFE007F
:104CF00007DE0000000000000000000000000000CF
:104D000000000000000000000000000000000000A3
:104D10000000000000000000000007E0001FF80095
:104D2000181800300C003FFC003FFC003000003041
:104D30000000180C001FFC0007F00000000000003D
:104D40000000000000000000000000000000000063
:104D500000000000000001FC0003FC00060000064B
:104D600000003FF8003FF8000600000600000600C3
:104D7000000600000600000600000600003FF000EC
:104D80003FF00000000000000000000000000000F4
:104D90000000000000000000000000000000000013
:104DA0000000000000000000000007DE001FFE0001
:104DB0001838003018003018003018003018003053
:104DC00018001838001FF80007D800001800001855
:104DD000000038000FF0000FC000000000000000CD
:104DE00000000000000078000078000018000018A3
:104DF00000001BE0001FF0001C38001818001818F5
:104E0000001818001818001818001818007E7E00E6
:104E10007E7E000000000000000000000000000096
:104E20000000000000000000000000000000018001
:104E3000000180000000000000001F80001F8000B3
:104E400001800001800001800001800001800001DC
:104E500080000180003FFC003FFC000000000000DB
:104E60000000000000000000000000000000000042
:104E700000000000000000C00000C00000000000B2
:104E800000001FF0001FF000003000003000003074
:104E90000000300000300000300000300000300022
:104EA0000030000030000030000070001FE0001FE4
:104EB00080000000000000000000000000003C0036
:104EC000003C00000C00000C00000CF8000CF80086
:104ED0000CC0000D80000F80000F00000F80000D3F
:104EE000C0000CE0003C7C003C7C000000000000A6
:104EF00000000000000000000000000000000000B2
:104F00000000000000001F80001F800001800001E1
:104F1000800001800001800001800001800001808C
:104F2000000180000180000180000180003FFC0042
:104F30003FFC000000000000000000000000000036
:104F40000000000000000000000000000000000061
:104F500000000000000000000000F77800FFFC00E7
:104F600039CC00318C00318C00318C00318C003117
:104F70008C00318C00FDEF00FDEF00000000000010
:104F80000000000000000000000000000000000021
:104F90000000000000000000000000000000000011
:104FA00000007BE0007FF0001C3800181800181883
:104FB000001818001818001818001818007E7E0035
:104FC0007E7E0000000000000000000000000000E5
:104FD00000000000000000000000000000000000D1
:104FE0000000000000000000000003C0000FF000FF
:104FF0001C3800381C00300C00300C00300C00381D
:105000001C001C38000FF00003C00000000000006E
:105010000000000000000000000000000000000090
:105020000000000000000000000000000000000080
:1050300000007BE0007FF8001C1800180C00180C22
:1050400000180C00180C00180C001C18001FF800A9
:105050001BE0001800001800001800007F00007F0F
:105060000000000000000000000000000000000040
:105070000000000000000000000007DE001FFE002E
:105080001838003018003018003018003018003080
:1050900018001838001FF80007D800001800001882
:1050A0000000180000FE0000FE00000000000000EC
:1050B00000000000000000000000000000000000F0
:1050C00000003E78003EFC0007CC00070000060010
:1050D000000600000600000600000600003FF00089
:1050E0003FF0000000000000000000000000000091
:1050F00000000000000000000000000000000000B0
:105100000000000000000000000007F8000FF80099
:105110001818001818001F80000FF00000F8001881
:1051200018001838001FF0001FE000000000000009
:10513000000000000000000000000000000000006F
:105140000000000000000C00000C00000C00000C2F
:1051500000003FF0003FF0000C00000C00000C00CD
:10516000000C00000C00000C00000C1C0007FC00F0
:1051700003F000000000000000000000000000003C
:10518000000000000000000000000000000000001F
:10519000000000000000000000007878007878002F
:1051A00018180018180018180018180018180018F7
:1051B00018001838000FFE0007DE00000000000095
:1051C00000000000000000000000000000000000DF
:1051D00000000000000000000000000000000000CF
:1051E00000007C3E007C3E001818001818000C30AF
:1051F000000C300006600006600007E00003C000FD
:1052000003C00000000000000000000000000000DB
:10521000000000000000000000000000000000008E
:1052200000000000000000000000783C00783C0016
:105230003118003398003398001AB0001EF0001E99
:10524000F0001C60000C60000C600000000000001A
:10525000000000000000000000000000000000004E
:10526000000000000000000000000000000000003E
:1052700000003E7C003E7C000C300006600003C055
:105280000001800003C0000660000C30003E7C007E
:105290003E7C000000000000000000000000000054
:1052A00000000000000000000000000000000000FE
:1052B000000000000000000000007E1F007E1F00B4
:1052C000180C000C18000C18000630000630000303
:1052D000600003E00001C00000C000018000018008
:1052E000000300003FC0003FC000000000000000BD
:1052F00000000000000000000000000000000000AE
:1053000000001FF8001FF80018300018600000C0EF
:10531000000180000300000618000C18001FF800B0
:105320001FF8000000000000000000000000000066
:10533000000000000000000000000000000000E08D
:105340000001E00001800001800001800001800078
:10535000018000018000038000070000038000013D
:10536000800001800001800001800001800001E0D8
:105370000000E0000000000000000000000000004D
:105380000000000000000180000180000180000199
:105390008000018000018000018000018000018008
:1053A0000001800001800001800001800001800078
:1053B00001800001800001800001800000000000E9
:1053C00000000000000000000000000000000700D6
:1053D0000007800001800001800001800001800042
:1053E00001800001800001C00000E00001C0000158
:1053F00080000180000180000180000180000780A2
:105400000007000000000000000000000000000095
:10541000000000000000000000000000000000008C
:1054200000000000000000000E00001F18003BB844
:105430000031F00000E0000000000000000000006B
:10544000000000000000000000000000000000005C
:105450000000000000000000C4E3000000000000A5
:10546000000000000000000000000000000000003C
:1054700000000000000001C1C00001E3E00003E300
:10548000C00003C7800003C7FFFF078FFFFF078F20
:10549000000F0F1E001E0F3C1E1E1F3C1E3E1F183D
:1054A0001E3C3F001E1C7F001E007F079E70FF07F2
:1054B0009EF0EF0F9E786F0F1E780F0F1E3C0F1E91
:1054C0001E3C0F1E1E1E0F3C1E1E0F3C1E1F0F7C7F
:1054D0001E0F0F781E0E0F001E000F001E000F0083
:1054E0003C000F07FC000F07F80000000000000060
:1054F0000000000000000000000000000000BAC32F
:10550000000000000000000000000000000000009B
:1055100000000000000000000F0000000F0000006D
:105520000F07FFFE0F07FFFE0F00003E1E0000FCEE
:10553000FFF801F0FFF803E01E7807C01E780F8027
:105540003C780F003C780F003C780F003C780F004F
:105550003C7FFFFF78FFFFFF78F00F0078F00F002F
:105560003DE00F001FE00F000FE00F0007C00F002D
:1055700007E00F0007F00F000FF80F001E7C0F0070
:105580003C380F0078000F00F003FF006001FE00C0
:10559000000000000000000000000000000000000B
:1055A00000000000CEA2000000000000000000008B
:1055B00000000000000000000000000000000307E1
:1055C00001E0078701E0070701C00FF779C01EF768
:1055D0007BC01EF77B803CF77BFF78F77BFFF8F7FB
:1055E0007F9EF7FFFF9E67FFFF9E07007F9C0F00D7
:1055F0000F9C1E001F9C1E7FFFBC3E7FF3FC3E00E5
:1056000003FC7E0001F8FE0001F8FE7FE1F8DE7F7A
:10561000E1F81E78E0F01E78EEF01E78FFF01E78BC
:10562000FDF81E79FBFC1EF1F7BC1EF0EF9E1FE09B
:105630000F0F1EC01E0F1E000C0700000000000010
:1056400000000000000000000000C8ED00000000A5
:10565000000000000000000000000000000000004A
:1056600003C0780007807800078078000780F0008A
:105670000F00F000FFFFFFFFFFFFFFFF1E03C01F33
:105680001E03C01E1FE78F3E3DE78F3C3DEF0F7CA2
:105690003DE70F7879E00F0079E00E007FFE0E0005
:1056A0007FFE1F0001E01F0001E01F0001E01F80DE
:1056B00001E01F8001E03F8001FF3FC00FFF7BC082
:1056C000FFF079E0F9E0F1F001E1F0F001E3E0F85A
:1056D00001E7C07C01FF803F01FF001F01EC000ECD
:1056E00000000000000000000000000000000000BA
:1056F000D1C5000000000000000000000000000014
:105700000000000000000000000000007700000022
:10571000FF007FFCF7807FFDE3C001C1E3C001C350
:10572000C1803DC7FFFF39C7FFFF39CF838079DFD5
:10573000838079FF838079DF838071C383807FFFDB
:10574000FFFE7FFFFFFE03C3838007C3838007C381
:1057500083800FC383800FC383801FC3FFFE1DC3DD
:10576000FFFE3DC3838079C38380F1C38380F1C38F
:10577000838061C3838001C3FFFF03C3FFFF1FC397
:1057800080001F8380000000000000000000000077
:10579000000000000000BADA000000000000000075
:1057A00000000000000000000000000000000000F9
:1057B00000000000000000001FFFFFFC1FFFFFFCB7
:1057C0001E03C03C1EC3C73C1FE3C7BC1EF3CF3C37
:1057D0001EFBDF3C1E7BDE3C1E33DC3C1E03C03C5C
:1057E0001FFFFFFC1FFFFFFC1E03C03C0003C000A7
:1057F0000003C0003FFFFFFC3FFFFFFC0003C000B1
:105800000003C0000003C000FFFFFFFFFFFFFFFF1A
:10581000000000001C3870703E78F8F83C7C787C02
:105820007C3C3C3EF83E3C1FF01C180E0000000083
:10583000000000000000000000000000B4CB0000E9
:105840000000000000000000000000000000000058
:105850000000000000000000000000783C0000781C
:105860003C0000783C0000783C0000783C00007868
:105870003C0C3C783C1E3C783C3F3C783CF83C7F00
:10588000FDF03C7FFFE03C783F803C783E003C7878
:105890003C003C783C003C783C003C783C003C7848
:1058A0003C003C783C003C783C0E3C783C0F3C781B
:1058B0003C0F3C79FC0F3C7FFC0F3FFF3C0F3FF05F
:1058C0003E1EFF001FFEF0000FFC00000000000065
:1058D00000000000000000000000000000000000C8
:1058E0000000D7D60000000000000000000000000B
:1058F000000000000000000000038000000780009E
:105900000003C0000003E0000001E0007FFFFFFE95
:105910007FFFFFFE7800001E7800001E7800001E4A
:105920007800001E7BFFFFDE03FFFFC000000FC0FA
:1059300000003F0000007E000001F8000001E000D0
:105940000001E000FFFFFFFFFFFFFFFF0001E0009D
:105950000001E0000001E0000001E0000001E000C3
:105960000001E0000003E0000003C00000FFC000F1
:1059700000FF8000000000000000000000000000A8
:105980000000000000000000CCE500000000000066
:105990000000000000000000000000000000000007
:1059A00000000000000003C03C0003C03C0003C036
:1059B0003C0007803C0007803C0007803C000FFF54
:1059C000FFFF0FFFFFFF1F01FE001F01FF003F0150
:1059D000FF003F03FF007F03FF807F07BF80FF07BB
:1059E000BFC0EF0F3DC0CF0F3DE00F1E3DE00F1ECB
:1059F0003CF00F3C3C780F7C3C7C0FF83C3E0FF7B2
:105A0000FFDF0FE7FFCF0FC03C060F003C000F0089
:105A10003C000F003C000F003C000F003C00000069
:105A20000000000000000000000000000000CFC2E5
:105A30000000000000000000000000000000000066
:105A40000000000000000000000000000000000056
:105A5000FFFFFFFFFFFFFFFF000F8000000F800030
:105A6000000F8000000F8000000F8000000F8000FA
:105A7000000FE000000FF800000FFC00000FBF0057
:105A8000000F9F80000F87E0000F83F0000F80F869
:105A9000000F807C000F8038000F8000000F800016
:105AA000000F8000000F8000000F8000000F8000BA
:105AB000000F8000000F8000000F8000000F8000AA
:105AC00000000000000000000000000000000000D6
:105AD00000000000B6D4000000000000000000003C
