:020000040000FA
:100000001005002065010000391600003D150000B4
:1000100000000000000000000000000000000000E0
:100020000000000000000000000000004916000071
:1000300000000000000000003B1600004B1600000E
:10004000531600003D160000411600005116000036
:100050003F160000A5130000BD130000770100004B
:1000600047160000770100009F130000A113000055
:1000700077010000791200009D1300006D1400004C
:10008000F1130000691400006B140000E913000074
:10009000EB130000ED130000EF1300003F1500000C
:1000A00041150000431600004516000077010000CE
:1000B0007701000077010000770100004F16000073
:1000C00000F002F800F03EF80CA030C80838241800
:1000D0002D18A246671EAB4654465D46AC4201D180
:1000E00000F030F87E460F3E0FCCB6460126334274
:1000F00000D0FB1AA246AB4633431847A8230000A2
:10010000C8230000103A02D378C878C1FAD8520741
:1001100001D330C830C101D504680C6070470000BD
:100120000023002400250026103A01D378C1FBD813
:10013000520700D330C100D50B6070471FB51FBDFB
:1001400010B510BD01F064F81146FFF7F7FF01F09C
:1001500013FB01F07CF803B4FFF7F2FF03BC01F0DE
:1001600083F800000748804707480047FEE7FEE79E
:10017000FEE7FEE7FEE7FEE704480549034A054BB4
:10018000704700004D160000C10000001001002063
:10019000100500201001002070B500252C46AD1A76
:1001A0009C4112DA00252C462D1A8C4102DA00F00F
:1001B000AEFF70BD002440428C41214600F0A7FFF5
:1001C000002440428C41214619E000252C462D1A7E
:1001D0008C410ADA002452429C41234600F097FFEA
:1001E000002440428C41214670BD002452429C4173
:1001F0004042234600248C41214600F088FF002421
:1002000052429C41234670BD01E004C0091F0429ED
:10021000FBD28B0701D50280801CC90700D0027079
:10022000704700290BD0C30702D00270401C491E42
:10023000022904D3830702D50280801C891EE3E7CC
:100240000022EEE70022DFE7002203098B422CD3D5
:10025000030A8B4211D300239C464EE003460B4316
:100260003CD4002243088B4231D303098B421CD378
:10027000030A8B4201D394463FE0C3098B4201D36A
:10028000CB01C01A524183098B4201D38B01C01AA2
:10029000524143098B4201D34B01C01A5241030919
:1002A0008B4201D30B01C01A5241C3088B4201D3C8
:1002B000CB00C01A524183088B4201D38B00C01A75
:1002C000524143088B4201D34B00C01A5241411A9C
:1002D00000D201465241104670475DE0CA0F00D07F
:1002E0004942031000D34042534000229C46030978
:1002F0008B422DD3030A8B4212D3FC22890112BAFE
:10030000030A8B420CD3890192118B4208D38901D5
:1003100092118B4204D389013AD0921100E08909ED
:10032000C3098B4201D3CB01C01A524183098B42CE
:1003300001D38B01C01A524143098B4201D34B01B7
:10034000C01A524103098B4201D30B01C01A52411A
:10035000C3088B4201D3CB00C01A524183088B42A1
:1003600001D38B00C01A5241D9D243088B4201D32A
:100370004B00C01A5241411A00D201466346524115
:100380005B10104601D34042002B00D54942704714
:1003900063465B1000D3404201B50020C046C04612
:1003A00002BD704770477047F0B50C46871A9C41F4
:1003B0000D46861A9D4103D2C01BA141D21963414B
:1003C0000D0D1F0DC94EEC1BAE435CD07F057F0D9C
:1003D0000026002F51D02D05AC46A943DD02012394
:1003E000ED0A1B051D4320231B1B24D41746E740A1
:1003F000381871412F46E740CC199D4028183146E6
:1004000061410C0D27D161449A4013D50023401C53
:10041000594152000ED14008400001224B005205C4
:10042000D34207D305204007C14201D5B04900E0BF
:10043000B0493046F0BD6B00002A00D001229A1866
:100440001F23203C1B1B01D5002302E0E540281898
:1004500071410C0DD7D0012424050919C407CD071B
:1004600040084908E40F28436144002CD5D00024FB
:10047000401C61419A40D0D1CDE76A05520DD9D1D7
:10048000C90FC907D5E79C4D4E00002801D00124B3
:1004900000E0002434195F00002A01D0012600E0AA
:1004A0000026BE19954FAC420CD8AE420AD8B442D1
:1004B00006D001256D05EC42BCD010461946F0BDB2
:1004C0009942FCD000203946F0BDF0B51FB40C466F
:1004D0000F46811A9F412546861A9D4106D2012565
:1004E000ED076F40401ABC4152187B41210D1E0D93
:1004F0008D1BAC467D4D8D437ED075056D0D7CD03A
:100500000D05AE46AC431B031B0B794D52429D417A
:10051000202366469B1B14D31746F7403818002645
:100520000090744160462F460741E41900989D40B1
:100530002818664116D4714671189A4025D50123B2
:1005400020E093182A466A415200002B00D0521C2A
:100550001E23203E9B1B002B61DD3541EE17281822
:100560006641E8D5001876415B1C9A4000D3401CD8
:100570004B05F3181524E34010D3002B52D07146DD
:100580007118D30FC01802D3491C05B0F0BD012368
:10059000DB079A42F9D140084000F6E701225205F4
:1005A000B21801D1002853D00123CC0ADB029943B1
:1005B000891E002A08D1020C03D0020C0004103955
:1005C00002E00246002020390023550B05D112021B
:1005D0000823550B01D152010D23550C01D11201F5
:1005E0001B1DD50C01D192009B1C150D01D1520091
:1005F0005B1C2025EE1A01E02CE022E00546F540C8
:1006000015439840CA1AE10769181305C918002A4A
:10061000BBDA032040070818C10FC9070FE0714675
:100620006118B2E7F10740080843711071444A00AD
:100630000CD001235B059A42A7D2C90FC90700203D
:10064000A3E74905490D26D1002001E00028F4D197
:1006500000219AE7284D6600002801D0012100E022
:10066000002171185F00002A01D0012600E0002659
:10067000BE19224FA94210D8AE420ED8B14208D0BE
:1006800001256D05E94206D01946A80241401046F1
:100690007BE79C4201D0214677E70020394674E78A
:1006A00010B50C465C4005D50124E4076340FFF714
:1006B0000CFF10BDFFF778FE10BD30B40C465C4057
:1006C00004D50124E407634030BC6DE630BCFCE691
:1006D00070B50124E40761400D465D4002D4FFF788
:1006E00063FE70BD6340FFF7F0FE70BDFF070000C2
:1006F0000000F0FF0000F07F0000E0FF0000F87F46
:10070000F0B5F94D0C091E092C402E402F468BB038
:10071000A7437DD0B543FCD0002E7AD0002CFCD06E
:100720000D465D40ED0F2543AC1BFF25AD0464195C
:100730000894C502440DC9022143500DDC02044354
:100740000120C00701430443D2020191200C110C87
:1007500000958C46010423468B430A9161460904A7
:10076000E24D8A430991010A7D444919803909788B
:1007700005464D4301266D18F605751B6943C90CE6
:10078000640B891C4C436418B5012C1B250C2E04EA
:10079000B4434C434D43210C691889090591009DD0
:1007A000E90701D00121C90704912C460199670886
:1007B000CD072F434C08059DE10B4D432D0C2946D9
:1007C0006646754302950D4645432E46029D7D1BA8
:1007D000B44100950D465D4301942C0C2F040D4649
:1007E0005543AE462D0C3D43029503947546049C3B
:1007F0002D04641B049406D2029C039D641C0026F5
:1008000075410395029401AC70CC009F7D1B01E003
:100810003EE162E1B4410904009507910194059914
:10082000A4086143090C0C464443650BE7040C46DD
:1008300066467443A646640B3C4303950294744693
:10084000049DE4042C1B049406D2029C039D641CAA
:10085000002675410395029401AC70CC009F7D1B6E
:10086000B44101940C465C430095650FE7000C46CB
:100870005443A646640F3C43039502947446049D7A
:10088000E4002C1B049406D2029C039D641C0026E9
:1008900075410395029401AC70CC009F7D1BB4415F
:1008A000AE09AF06049DC900AD092F43049DA406FF
:1008B000AD060495079D344369180791059DE10B2A
:1008C0004D432D0C29466646754302950D4645431A
:1008D0002E46029D7D1BB44100950D465D4301945B
:1008E0002C0C2F040D465543AE462D0C3D4302956E
:1008F00003947546049C2D04641B049406D2029C48
:10090000039D641C002675410395029401AC70CCD4
:10091000009F7D1BB44101948C050694079C890AB5
:10092000611800950791019C0599A4086143090C81
:100930000D464543680BEF040D46644665436C0B5A
:100940003C43049FED047D1BAC4602D20025641C91
:100950006841009E019D371B85410846584301951B
:100960000C46460FC5005443600F28436546E4001B
:100970002C1B02D20025401C6E41019D3F1AB5413F
:100980002846BD09800628438446A009BF064E02BA
:100990000699A40676180743079D002068410A9926
:1009A000079019430020099B00906046FF191343EC
:1009B0004041E20F64003A43A4460446D71A8C41F2
:1009C000A04203D90120009020463A46C70F941850
:1009D00040416246D20F2243644664000494009C66
:1009E000BE466400D71AA446044602978C41774657
:1009F000002F01D1A04204D96046401C8446029ACF
:100A00002046C40FA64694184041049A0546D20FCA
:100A1000224364466400D31A8D417146002901D1F6
:100A2000A84202D928461A46641C10430122002815
:100A300000D0164361020020079B891904465C41DF
:100A40000223002C02DB491813466441089DCE0A9C
:100A50002D145D194B056705E10A2C050D19089940
:100A60003E43C9076940002B08D0934006D30022BB
:100A7000761C5141002B01D1760876001C4A002DCE
:100A800043DB154241D0AA433FD030460BB0F0BD06
:100A900006180D464D41174C7642AC411AD39518B5
:100AA0001C465C41134A6D42A24113D301225205F8
:100AB0004C00D4420AD15C00D4420BD04B4002D54A
:100AC00092021143E2E749004908DFE75940C90FA4
:100AD000C90718E000200849D8E7054801420DD1B0
:100AE0000342F7D0F2E700000000FF07781C000087
:100AF0000000F07F0000E0FF0000F87F114859403F
:100B00000143C01241400020C0E70123089A9B0620
:100B10009A4205DC032252078918C90FC907B5E7B5
:100B2000052252078918074A1143D2125140ADE7F6
:100B300070B515461C4602460B4628462146FFF76F
:100B4000DFFD70BDFFFFFF7F30B50346CA02400DD9
:100B50001043164D164C0A1502D02043002A06DB1E
:100B6000AA1A002A12DDD040FF2A0BDC30BD520544
:100B7000520D01D140004008AA1A07D4D04040428B
:100B8000FF2A01DD002030BD0028FCDD4A00002BDB
:100B900001D0012000E00020101801225205D042AF
:100BA000F0D8C817C043604030BD00001E040000EC
:100BB000000000800346CA02400D10B510430A151C
:100BC00004D00124E4072043002A05DB0A4CA21AC2
:100BD00004D4D040FF2A00DD002010BD4A00002BC5
:100BE00001D0012000E00020101801225205D0425F
:100BF000F2D8C817C04310BD1E0400001F22030C0A
:100C000002D10F22000402D0030E03D004E0002022
:100C1000014670470002083A030F01D10001121F7C
:100C2000830F01D18000921E002801DB4000521E7C
:100C3000120551184205C012411810467047C10FE5
:100C4000C90700D04042012292071143D6E7012193
:100C50008907D3E7F0B58B4C0F09254689B0BD4312
:100C60007BD01D092646AE43FAD00E465E40274093
:100C7000F60F3E43254071D024012142FBD0FF24D2
:100C8000AD19A4042D1B039501252D05DB02DB0AFC
:100C9000C9022B43C90A29431E010901040F130F7E
:100CA000050121431701880B820391432D098C46CE
:100CB000A90B1E438A039543B30B9A0396433F093E
:100CC000BA0B9403A74302962E467E430497B6467A
:100CD0004E19D7190C460196544305977E43371B8E
:100CE0007646BF1B3601B646BE0B361900967646D1
:100CF000BC043719009C01D3641C00946400002FCD
:100D000001D001263443029E049F754366467E430C
:100D10000496760034196E0034190094029C019EEA
:100D20001C196643751BAE46069465464519059C1D
:100D300005956C43594375460891691A0191049EC3
:100D400001465143A41B0491611A009C0791E106DE
:100D500005D061090122114302E072E06EE06109F1
:100D6000089D00272C0A2D066918049D7C412A0A3B
:100D70002D066918019D6241AC0DAD026D185441FC
:100D8000079A910D920255196141029A644658439F
:100D90005443069B059A5A43121A131B9A0E9B0141
:100DA0005B187A41010B0005C3185141220A200645
:100DB00044195A419A4200D2491C01204002814202
:100DC00003D315230226F64302E014230326F64339
:100DD0002020C51AA9401746AF40DA400A432046F2
:100DE0000399D8400914731819055118039A384308
:100DF000D2075140AC4009D00122944006D30022D2
:100E0000401C5141002C01D1400840001E4A934231
:100E100012D3012203989206904207DB0520400777
:100E200009181A480143C012414004E0032040075A
:100E30000818C10FC907002009B0F0BD0020F10754
:100E4000FAE705180C464C4111486D42A04115D3F4
:100E500094181A465A410E48644290410ED301201C
:100E60004A004005824209D35A00824206D35940C3
:100E7000C90F084AC90700201143DDE700200649D1
:100E8000DAE700000000FF07FE070000FFFFFF7F1A
:100E90000000E0FF0000F07F0000F87F70B505461D
:100EA0004800440D124B0020002C0AD0634008D0AB
:100EB0009A4206DA6642B24203DD120540195141F8
:100EC00070BD002C08D0002B09D0C90FC907002A1B
:100ED000F6DB084A114370BDC90FC90770BD28462B
:100EE0000A03104302D00020034970BD284670BD9C
:100EF000FF0700000000F07F0000F87F0121C90516
:100F00000123411842001B06D3185B0E0AD0C11002
:100F10000722D206891840075242D14201D5520019
:100F200089187047090208D50146002A03D0C10F6D
:100F3000C9070020704710467047420202D00020C7
:100F400002497047072109050143F4E70000F87FD3
:100F5000F0B5FF252D04C609C209FF2704462E401F
:100F60000137CB093E4348402A402B400746002A20
:100F70006BD0002B69D0AA4267D0AB4265D0002865
:100F800000DA32460125ED0529432C4309022002EF
:100F9000090AD21A4B0C7F24E31A434C000A7C4402
:100FA000E35C7D242404121914145B00A218884207
:100FB00001D3521C00E0400049420C465C4324111E
:100FC0005C43DB016415E318040A5C43C502200D91
:100FD0000C4644436419250A5D432303EC0C0D467B
:100FE000654300030019EB184C42A34201D35B1880
:100FF000401CD4052018002B07D05B00C91804D36F
:10100000401C002901D1400840003F2189048A4248
:1010100009D3002A08DC1106090F04D0032149076F
:101020004018C00FC007F0BD012241001206891808
:101030007F2252069142F6D205214907C84201D5C6
:101040009010F0BDFF20C005F0BD002F00DA324641
:101050001648AA4207D2AB4205D21902090E17D090
:10106000F80FC007F0BDFF2563002D06AB42F9D88D
:101070004900A942F6D8AB4201D1A942F2D0A94217
:1010800001D1002101E061004908D0050843F0BD0D
:101090001102090EFBD0FF200243D005F0BD0A4625
:1010A0000146104654E70000C21400000000C07F53
:1010B0001F22030C02D10F2200041CD0030E01D109
:1010C0000002083A030F01D10001121F830F01D162
:1010D0008000921E002801DB4000521ED2055118EC
:1010E000021251181922904004D3491C002801D142
:1010F0004908490008467047C10FC90700D040425F
:10110000012292071143D3E701218907D0E7FEB5F9
:10111000054610460C46184373D0AE468C46002058
:10112000AD1A01469C4167D36646002701243D461F
:10113000B61A9D4102D313463A46212465467646A7
:101140002F04360C3E432D0CB61A9D4104D3150CCA
:101150001B042B4312041034654676462F06360ACC
:101160003E432D0AB61A9D4104D3150E1B022B4394
:1011700012020834654676462F0736093E432D098C
:10118000B61A9D4104D3150F1B012B431201241DD8
:1011900065467646AF07B6083E43AD08B61A9D4190
:1011A00004D3950F9B002B439200A41C6546764602
:1011B000EF0776083E436D08B61A9D411AD3921880
:1011C0005B41641C16E00018764665464941B71A33
:1011D0009D410191009009D36046B11A98418E4615
:1011E0008446009801990025401C6941DD0752089A
:1011F0002A435B08641EE6D57246634603B0F0BD21
:10120000FFE700200146C046C0462A462346F5E7D0
:10121000754600F025F8AE46050069465346C008FD
:10122000C000854618B020B5FEF7A6FF60BC0027B9
:101230004908B6460026C0C5C0C5C0C5C0C5C0C5A2
:10124000C0C5C0C5C0C5403D49008D46704710B5FA
:101250000446C046C0462046FEF77DFF10BD000094
:1012600000487047B000002001491820ABBEFEE7DF
:10127000260002007047000010B500F0C9F90C48C4
:101280000178491CC9B2017064290BD30021017097
:101290004278521CD2B242700A2A03D34170C1680C
:1012A000491CC1600348016A01221143016210BD5B
:1012B0008C000020002C014030B5304889B002C8B5
:1012C000079107C804AB07C30021684601700320DB
:1012D000019068460172418101730225284C4573D3
:1012E0006946204600F052FA606AFF2109028843ED
:1012F000A90308436062606AFF2109048843A905C5
:1013000008436062606A0002000A090208436062E2
:10131000A16A8020090A09020143A16269462046A8
:1013200000F04AFAE068C007FCD007AA69462046E8
:1013300000F098FA0120694608720D7304AA20464D
:1013400000F090FAE069012149060843E061E06994
:101350000F2189018843012149020843E061E069C6
:10136000032189028843012189020843E061A069C1
:10137000042188430843A06109B030BDD023000098
:101380000024014010B504490020087002480821DB
:101390000A30FEF755FF10BD70000020FEE7FEE7A3
:1013A000FEE700000348026903490A6009684161D9
:1013B00070470000000401406C000020FEE70000C0
:1013C00007481021426B4163026802210A43026010
:1013D000C2690A43C26103492020086070470000C7
:1013E0000004014000E100E0FEE7FEE7FEE7FEE763
:1013F000F8B51A48016A01231943016218490A6DB8
:10140000184802808A6E4280CA6E8280096FC1804D
:1014100001460A390A788D1C002A14D0002466007F
:101420001048A95B805B081887B203213846FEF795
:101430000BFF0C49641C08318853381AE4B2A853D6
:10144000042CECD3F8BD0B7000214A00835A491CD0
:101450005B00C9B2AB520429F7D3F8BD00040040C9
:10146000002401407A000020FEE7FEE7FEE70000CE
:10147000F0B587B000240120022540260096039095
:10148000049401956946059502942B4800F0BAFB37
:10149000802000906946284800F0B4FB680205955A
:1014A00000906946244800F0ADFBA8020090694610
:1014B000214800F0A7FB0620009505900920694609
:1014C000C00600F09FFB10270320009705900394AF
:1014D00069460294184800F095FB05200590E80144
:1014E00000906946144800F08DFB0320019000979E
:1014F000092069460594C00600F084FB2020009076
:1015000009206946C00600F07DFB09206946C00637
:10151000009600F077FB8020009009206946C00605
:1015200000F070FB0194694603480095039400F0B5
:1015300069FB07B0F0BD000000040048FEE7FEE7CD
:10154000FEE7000000B50C490300098800F099F897
:101550000604111111110B11FF20FF39F4309239DB
:10156000814204D305E04B200001814201D30120D8
:1015700000BD002000BD000082000020F8B500245E
:10158000204E012725462046FFF7DCFF01281CD00E
:10159000A0003554801945704580641C2406240E33
:1015A000F1D00520FFF7CEFF1649174A091F002882
:1015B00048881AD01388984206D34B80487801286F
:1015C00002D04F7002200870F8BDA00084460F4979
:1015D000801942880B889A42DFD3438041780129E1
:1015E000DBD0477060463754D7E7084B1B889842DA
:1015F00004D31288904201D20F7000E00D704D703C
:101600004D80F8BDAC000020E2230000E023000084
:10161000084900208200521853885B1C401C0006B9
:101620005380000EF6D00349091F4888401C4880AB
:1016300070470000AC00002070477047FEE7FEE7EF
:10164000FEE7FEE7FEE7FEE7704770477047FEE7FC
:10165000FEE7FEE72021020C01D010211046020A0D
:1016600001D010460839020901D01046091F82082E
:1016700001D01046891E420801D0881E7047081A02
:10168000704730B47446641E2578641CAB4200D2A7
:101690001D46635D5B00E31830BC1847002805DB7E
:1016A000C106C90E0120884001490860704700004A
:1016B00000E100E030B51A48C26B0121C9040A43B9
:1016C000C263C36B4A101343C363C46B8B101C43C8
:1016D000C463C46BCD102C43C463446C4D112C43C4
:1016E0004464046C14430464026C0A430264416C55
:1016F000421511434164C16B01221143C163416C26
:10170000C21411434164416C19434164016C0222CB
:1017100011430164016C04221143016430BD0000D7
:101720000010024010B58AB00020104907910890BF
:10173000059000900190029004900D4902200D4CFC
:10174000039106906946204600F09CFB69462046BE
:1017500000F018FCFFF7AEFFFFF78AFEFFF730FE40
:10176000FFF7AAFD00F0BAFD0AB010BD010010009D
:1017700000366E010010024072B600F023FEFFF743
:10178000D1FF62B6FFF7FAFEFCE7000038B5054668
:1017900000200C4600906946064800F017FA009AAF
:1017A0002146521C284602D000F03EF838BD00F019
:1017B00025F938BD7408000030B58269D20FFCD11C
:1017C000184A4B7B146AE408E4001C4314628269E3
:1017D00001231A438261C268D207D20FFBD00824CA
:1017E00082692240012AFBD082695207D20FFBD1C5
:1017F0000C78C2692025AA4364012243C2614C6867
:10180000C2691825AA43E4002243C2614A89C1691A
:1018100001246403A14352031143C161C169194307
:10182000C16130BD0024014038B50446002000905D
:1018300069460B4800F0CAF90099A26F0805000D2F
:10184000091449B2120B12030243A267A06FFF22D0
:101850001204904309040843A067012038BD00002A
:1018600074080000F8B50546087A0B7B16460C464E
:10187000002806D0686D800880001843686500273E
:101880001BE0286C0009000118432864002707E0CA
:10189000B8000C4A31581258284690477F1CFFB2B6
:1018A000207BB842F4D2F8BDB800064A3158403225
:1018B0001258284690477F1CFFB2207BB842F3D2D3
:1018C000F8BD000010000020426D1F231B029A4348
:1018D00009020A4342657047426D1F239B039A43E6
:1018E00089030A4342657047426D1F231B059A43D3
:1018F00009050A4342657047426D1F239B069A43C0
:1019000089060A4342657047826C520952010A43B4
:1019100082647047826C1F239B019A4389010A43AA
:1019200082647047826C1F231B039A4309030A4396
:1019300082647047826C1F239B049A4389040A4384
:1019400082647047826C1F231B069A4309060A4370
:1019500082647047C26C520952010A43C2647047E4
:10196000C26C1F239B019A4389010A43C2647047DA
:10197000026C1F239B019A4389010A43026470474A
:10198000026C1F231B039A4309030A430264704736
:10199000026C1F239B049A4389040A430264704724
:1019A000026C1F231B069A4309060A430264704710
:1019B000426C520952010A4342647047426C1F2331
:1019C0009B019A4389010A4342647047426C1F237A
:1019D0001B039A4309030A4342647047426C1F2366
:1019E0009B049A4389040A4342647047426C1F2354
:1019F0001B069A4309060A4342647047F8B5044639
:101A00006A480B46856802229543154385608268C3
:101A100001252A4382606648C2694614B243C26106
:101A2000C669182296431643C661026C1F26B6018A
:101A3000B2430926F601324302645A7B066AF6086D
:101A4000F60016430662487B002808D0012808D01B
:101A5000022808D0032808D0042808D008E0012173
:101A600006E0022104E0042102E0062100E0082152
:101A700050480068FEF7E8FB4F498842206B04D8C5
:101A80000002000A0121890703E00002000A012187
:101A9000C907084320630121A06F8902000B0003DE
:101AA0000843A067A06FFF2109048843A067A069CD
:101AB0002843A061E068C007C00FFBD0E06F072299
:101AC00012060121904389060843E067A1690420BA
:101AD00081430143A161214680310B685B07DB0F25
:101AE000FBD1236D9DB2E36F93430522120613438E
:101AF000E367A26982430243A26108684007C00FFE
:101B0000FBD1206D87B22801401BC01BFFF7F4FA00
:101B10002A49FFF71DFA0121C905884206DBFFF7B4
:101B2000EDF90022264BFEF7BBFD05E0FFF7E6F9D5
:101B30000022234BFEF7C1FDFFF706F806B2781B23
:101B4000FFF7DAFA01461F48FFF702FAFFF7D6F966
:101B500000221B4BFEF7A4FDFFF72CF8A16F80B20B
:101B6000090B09030143A167A06FFF210904884302
:101B700031040843A067E069012149038843E0611B
:101B8000E06918218843E061206C1F2189018843A6
:101B90002064206AC008C0002062206B0002000A96
:101BA0002063094860610120F8BD00000014024074
:101BB000002401400C000020001BB7000000604121
:101BC0000000E03F0000604AFEFF000030B50B4B14
:101BD00002461C6901200A4DE405E40F5219002C4D
:101BE00009D01D690402A5431D6112680A601969C4
:101BF0002143196130BD12680A6030BD00200240E7
:101C000000E0FF1FFEB5064608680C461F2241088B
:101C100005E04300C807C00F18434908521E0029B9
:101C2000F7D19040FFF716FD0F27072820682CDC1E
:101C3000054660691F22019069082846009105E069
:101C40004300C807C00F18434908521E0029F7D1A6
:101C50009040FFF7FFFC81003846B76A8840874311
:101C600028461F22009905E04300C807C00F18430B
:101C70004908521E0029F7D19040FFF7EBFC810084
:101C8000019888400743B7622BE06169000A1F2270
:101C9000019141080546009105E04300C807C00FC7
:101CA00018434908521E0029F7D19040FFF7D2FC93
:101CB00081003846F76A8840874328461F220099EA
:101CC00005E04300C807C00F18434908521E002909
:101CD000F7D19040FFF7BEFC810001988840074390
:101CE000F7622568A0681F220190690828460091C4
:101CF00005E04300C807C00F18434908521E0029D9
:101D0000F7D19040FFF7A6FC01460120B769884053
:101D1000874328461F22009905E04300C807C00FEB
:101D200018434908521E0029F7D19040FFF792FC52
:101D30000146019888400743B7612568E0681F2283
:101D4000019069082846009105E04300C807C00FCC
:101D500018434908521E0029F7D19040FFF77AFC3A
:101D60004100032077698840874328461F22009955
:101D700005E04300C807C00F18434908521E002958
:101D8000F7D19040FFF766FC410001988840074377
:101D90007761256820691F22019069082846009113
:101DA00005E04300C807C00F18434908521E002928
:101DB000F7D19040FFF74EFC01460120F7698840BB
:101DC000874328461F22009905E04300C807C00F3B
:101DD00018434908521E0029F7D19040FFF73AFCFA
:101DE0000146019888400743F761256860681F2213
:101DF0000090690828460C4605E04300C807C00F5C
:101E000018434908521E0029F7D19040FFF722FCE1
:101E10004100032037698840874328461F2105E099
:101E20004200E007C00F10436408491E002CF7D1A0
:101E30008840FFF70FFC4100009888400743376156
:101E40000120FEBD30B500F007FA0121084600F080
:101E500025FA0B4C10250DE02068A84320600121D5
:101E6000084600F01BFA206828432060012108463C
:101E700000F014FA20688006C00FEDD030BD0000DD
:101E800000100240F8B5044600680E4601273F05E1
:101E9000B843206020688002C00FFBD131896068A0
:101EA0000322120590430905084360602E4DB06877
:101EB0006910002803D0012803D0022803D0084667
:101EC00002E0284600E029482949FEF7BDF961688B
:101ED0000F221204401E9143000401436160244913
:101EE000F0684942234A411891423CD8224988422D
:101EF00004D3A06880088000A0600EE01F498842DB
:101F000001D3012004E0A84201D3022000E0032015
:101F1000A168890889000143A160A068F56880076D
:101F2000800FC01C124E854031462846FEF78CF9C2
:101F3000A168FF221201914300010143A160690BD6
:101F4000E80432460023FEF727F94103A0680C4A53
:101F5000490810400843A06020683843206020688A
:101F60008002C00FFBD0F8BD00127A00006CDC02CA
:101F700000093D0000990D040048E8010024F40028
:101F8000FF0F0080F0B5A34E0D460446316987B0BF
:101F90000320814301433161E869C1029E48216801
:101FA00001D5014300E081432160E869C1039B48FA
:101FB000216801D5014300E081432160287FC106EB
:101FC00010200029216801DA014300E081432160EB
:101FD000287FC007206802D00121084301E04008A3
:101FE00040002060288CC1058D48216E01D5014339
:101FF00000E081432166288CC007206E02D00121B9
:10200000084301E0400840002066287FC00601D553
:10201000FFF718FF8348834940390A68D20203D585
:1020200022689202D20FF6D00A68D20303D5226842
:102030009203D20FEFD00A68D20603D52268920627
:10204000D20FE8D00968C90703D021688907C90FF2
:10205000E1D0016AC90703D0216E8907C90FDAD020
:10206000016AC90503D5216E8905C90FD3D0297826
:1020700060680722120790430907084360602979C6
:1020800060680F22120690430906084360602969C0
:10209000606807221203904309030843606069697E
:1020A00060680F2212029043090208436060A86929
:1020B0006168C908C90001436160A8685A4F0028D7
:1020C00003D0012803D0022803D0384602E0574845
:1020D00000E0574861680903090F491CFEF7B4F88E
:1020E0000190A0684000400BFEF7B1FD1222D243E0
:1020F000FEF7D4FE03910490A0680005000EFEF7E1
:10210000A6FD039B049AFEF7CBFA03910490A06806
:102110008107890F0120C91C8840FEF790FD0090BF
:1021200002910198FEF793FD039B049AFEF792FD3E
:10213000029B009AFEF7E4FAFEF73CFD0146606858
:10214000C00842073B48520F05D0012A05D0022A99
:1021500004D0032A11D0076001E034490160364AF7
:10216000006810606168354F0905090F0C29616826
:1021700005D34905490F891C09E02D49EEE70905FA
:10218000090F082904D361684905490F491CC84053
:10219000386060682A49000B4007400F07D060682C
:1021A0003B688004800F401CC3400B6001E038682E
:1021B0000860E869C1012348216801D5014300E0B6
:1021C0008143216020491068FEF73EF815494039E7
:1021D000CA68FF231B029A4300020243CA601B49DC
:1021E0003868884201D9032003E01949884207D999
:1021F00002203169890889000143316107B0F0BDCF
:102200001449884201D90120F3E730698008800031
:102210003061F3E7002002400000100000000100E0
:10222000000100004010024000093D0000127A0049
:10223000006CDC02000000200400002008000020E8
:102240000C0000200000000140420F003FE4590450
:102250003FAEEB023F787D017D210D4849010160D1
:10226000FF2191314160282181600B48094A416872
:102270009143114341608168914381600268042168
:102280008A430A43026001680122114301607047DA
:1022900060000020FFFFFF0010E000E010B50C4AD6
:1022A0000D4B1268504301221206121A094809E028
:1022B0008468240E24061C43846084682402240A53
:1022C0009442FAD80C46491E89B2002CF0D110BDB8
:1022D0006000002010E000E0FFFFFF00F8B52C4E8A
:1022E00017202A4DB063F563F06801242043F060A5
:1022F0000D20FFF7D3F930682043306017212548BF
:1023000063228163C263C1682143C1604168702652
:10231000B1432022114341600168214301601E48FE
:1023200001680027090A090201601020FFF7B6F9C9
:102330001A488463C563826A6021B2430A43826299
:10234000026B02239A4302634764026B22430263D7
:10235000436DC2131343436503682343036010486E
:102360008763C563836AB3430B438362016B0223B4
:10237000994301634764016B21430163416D11433C
:102380004165016821430160F8BD0000E7030000DA
:10239000002C01400004004010E400E00008004070
:1023A000004401400648002101704170C160817005
:1023B0008180C180018141618161C170016170478B
:1023C0008C00002010B5FEF7DDFFFFF7EBFF10BD1E
:1023D00004000000050000000600000007000000E7
:1023E0001400DC0580807F7E7D7C7B7A797877762F
:1023F00076757473727171706F6E6E6D6C6C6B6AE2
:102400006A6968686766666564646363626161607F
:10241000605F5F5E5E5D5D5C5C5B5B5A5A595958FC
:102420005857575656555555545453535252525166
:10243000515050504F4F4F4E4E4D4D4D4C4C4C4BBC
:102440004B4B4A4A4A494949484848474747474603
:10245000464645454544444444434343434242423F
:10246000424141418182838485868788898B8C8D16
:102470008E8F919293959697999A9C9D9FA0A2A3D7
:10248000A5A7A8AAACAEB0B2B3B5B7B9BCBEC0C21E
:10249000C5C7C9CCCED1D4D7D9DCDFE2E6E9ECF0B0
:1024A000F3F7FAFEC424000000000020B000000092
:1024B0000401000074250000B0000020600400004A
:1024C00020010000000000000000000000000000EB
:1024D000000000007119000081190000911900002E
:1024E000A1190000B1190000BD190000CD190000AC
:1024F000DD190000ED190000091900001519000090
:102500002519000035190000451900005519000073
:1025100061190000C9180000D9180000E91800006E
:10252000F91800000000000000000000000000009A
:10253000000000000000000000000000000000009B
:10254000000000000000000000000000000000008B
:10255000000000000000000000000000000000007B
:10256000000000000000000000000000000000006B
:042570000000000067
:04000005000000C136
:00000001FF
