:020000040800F2
:1000000090060020C5380008592200085B2200082D
:100010005D2200085F220008612200080000000045
:100020000000000000000000000000006322000843
:10003000652200080000000067220008692200080D
:10004000DF380008DF380008DF380008DF38000834
:10005000DF380008DF380008DF380008DF38000824
:10006000DF380008DF380008DF380008DF38000814
:10007000DF380008DF380008DF380008DF38000804
:10008000DF380008DF380008DF380008DF380008F4
:10009000DF380008DF380008DF380008DF380008E4
:1000A000DF380008DF380008DF380008DF380008D4
:1000B000DF380008DF380008DF380008DF380008C4
:1000C000DF380008DF380008DF380008DF380008B4
:1000D000DF3800086B220008DF380008DF3800082E
:1000E000DF380008DF380008DF380008DF38000894
:1000F000DF380008DF380008DF380008DF38000884
:10010000DF380008DF380008DF380008DF38000873
:10011000DF380008DF380008DF380008DF38000863
:10012000DF380008DF380008DF380008DF38000853
:10013000DF380008DF380008DF380008DF38000843
:10014000DF380008DF380008DF380008DF38000833
:10015000DF380008DF380008DF380008DF38000823
:10016000DF380008DF380008DF380008DF38000813
:10017000DF380008DF38000891220008DF38000867
:10018000DF380008DF38000800F002F800F047F818
:100190000AA090E8000C82448344AAF10107DA45E2
:1001A00001D100F03CF8AFF2090EBAE80F0013F0ED
:1001B000010F18BFFB1A43F0010318471C59000038
:1001C0003C590000103A24BF78C878C1FAD85207C9
:1001D00024BF30C830C144BF04680C6070470000C1
:1001E0000023002400250026103A28BF78C1FBD840
:1001F000520728BF30C148BF0B607047642904F024
:100200009987782904F0D287632905F0C4800020FB
:1002100070471FB505F04EF91FBD10B510BD05F0B4
:100220000FF91146FFF7F5FF00F008F805F02DF97A
:1002300003B4FFF7F2FF03BC01F0F9FF1CB501F0B6
:1002400099FF00F0C2FA4FF47844204601F009FE0D
:100250001F204FF6FF7500902B4631A268216420C5
:1002600001F00FFF32A004F0E7FE41A004F0E4FE2D
:1002700002F0FEFD002830D041A004F0DDFE2B4648
:1002800045A200945A21322001F0FBFE01A803F0A0
:10029000CEFA9DF8060000909DF807309DF80520E5
:1002A0009DF8041041A004F0C7FE46F26801112039
:1002B00005F0F8F80021084601F0B5FD4FF0C04107
:1002C000222008800121414803F0D1FC012003F0E5
:1002D000C7FB012003F0CFFBFEE73DA004F0ACFE1E
:1002E0002B4641A20094CDE71CB50121082004F063
:1002F00081FB8020009001208DF8040000208DF803
:10030000060003218DF805103C4C8DF80700694666
:10031000204604F019F88021204604F07CF81CBD2A
:1003200043616D65726120496E69742E2E00000074
:100330000D0A0D0A57656C636F6D6520746F205749
:1003400061766553686172652053544D333246348B
:1003500020736572696573204D435520426F617249
:1003600064204F70656E323037562D440D0A000000
:100370004F563936353520496E69742E2E0D0A00D8
:100380004F563936353520496E6974206661696C7F
:100390007321210D0A0000004F56393635352049AA
:1003A0006E6974206661696C732121004F5639367D
:1003B00035352049443A3078257820307825782022
:1003C0003078257820307825780D0A00286402409E
:1003D00043616D657261204861766520496E69747C
:1003E0002E2E0D0A0000000043616D6572612048E9
:1003F00061766520496E69742E2E0000000C024063
:1004000070B586B00121022004F0F4FA01218805BC
:1004100004F00EFB924E04220A21304604F008F844
:1004200004220B21304604F003F8F014009002205F
:100430008DF8040001218DF806108DF805100025B7
:100440008DF807506946304603F07EFF3415694643
:100450003046009403F078FF824E304604F00AF8EC
:10046000ADF80C504BF6FF70ADF80E00FE20ADF865
:1004700010002001ADF814007B480290ADF8124046
:100480000121304604F077F802A9304604F00EF856
:100490000121304604F095F806B070BD2DE9F04713
:1004A000724D8146924628680E466E4F01213846AD
:1004B00004F06BF82C68DFF8B88101E0641E2ED3DD
:1004C0004146384604F02AF90028F7D00022494670
:1004D000384604F06EF82C68DFF8988101E0641E5D
:1004E0001DD34146384604F019F90028F7D0F1B27F
:1004F000384604F0CBF82C685E4EB61C01E0641E52
:100500000DD33146384604F009F90028F7D051469A
:10051000384604F0BBF82C6804E0641E02D2FF20C9
:10052000BDE8F0873146384604F0F8F80028F4D0EA
:100530000121384604F033F80020F1E72DE9F74FA8
:100540004A4F924689463868464E1436308840F401
:1005500080603080DFF80C810121404604F015F8FE
:100560003C68434D01E0641E61D32946404604F0D7
:10057000D5F80028F7D000224046009904F019F879
:100580003C68DFF8F0B001E0641E50D359464046A5
:1005900004F0C4F80028F7D009F0FF01404604F049
:1005A00075F83C68DFF8CC9009F1020901E0641E9F
:1005B0003DD34946404604F0B1F80028F7D03088D2
:1005C00040F48060308001214446404603F0E7FF5C
:1005D0000121204603F0D9FFB8463F6801E07F1EA5
:1005E00025D32946204604F099F80028F7D00122A7
:1005F00027462046009903F0DCFFD8F80040454626
:10060000DFF86C8008F1010801E0641E0FD3414659
:10061000384604F083F80028F7D00021384603F06C
:10062000D0FF2C68124D3F3504E0641E02D2FF203B
:10063000BDE8FE8F2946384604F070F80028F4D053
:100640000121384603F0ABFF384604F021F88AF860
:100650000000308840F4806030800020E8E700002F
:100660000004024000580040A08601000000002065
:100670000100030082000700034A02EB011110226F
:10068000A1F5007104F0BEBDBE5400082DE9FC4187
:100690000121182004F0AEF90121084604F0BEF94A
:1006A000DFF884840C220021404603F0C1FE0C22B6
:1006B0000121404603F0BCFE0C220421404603F019
:1006C000B7FE0C220521404603F0B2FE0C220821A1
:1006D000404603F0ADFE0C220921404603F0A8FE7F
:1006E0000C220A21404603F0A3FE0C220B214046B7
:1006F00003F09EFE0C220E21404603F099FE0C22D0
:100700000F21404603F094FE4CF633700090022017
:100710008DF8040003258DF8055000268DF806603D
:1007200001248DF807406946404603F00DFEFF4F57
:100730000C220221384603F07BFE0C2207213846AA
:1007400003F076FE0C220821384603F071FE0C22DD
:100750000921384603F06CFE0C220A21384603F0CA
:1007600067FE0C220B21384603F062FE0C22114674
:10077000384603F05DFE0C220D21384603F058FE8A
:100780000C220E21384603F053FE0C220F2138466E
:1007900003F04EFE4FF6847000906946384603F031
:1007A000D3FD8DF8044080208DF8055000908DF821
:1007B00006608DF807406946404603F0C5FD80217C
:1007C000404603F028FEBDE8FC812DE9FC5F0121D5
:1007D000082004F00FF901278DF804704FF000088D
:1007E00080208DF806804FF00309CF4C00908DF8E3
:1007F00005908DF807706946204603F0A5FD80211D
:10080000204603F008FECA4CFFF740FF641EFDD2ED
:1008100001F073FC4FF4967001F095FC4FF0C0426C
:10082000C44900201080C44B18880C46A0F5134C16
:1008300060804FF4807541F2180A40F2077440F26C
:100840003F16BCF1250C7DD0A0F5104CBCF54A7CC0
:10085000F9D0A0F5134740F2022B203F73D0B0F53A
:10086000134FFBD0A0F5134C4FF40177BCF1310CC2
:100870006AD0A0F5194C40F20558BCF1190C7DD096
:10088000A0F5A85CBCF1050C01D0404577D109204A
:1008900008700021072004F005FE322001F053FC0F
:1008A0004FF48E71122004F0FDFD0121A42004F00C
:1008B000F9FD0F21082004F0F5FD08210A2004F0BD
:1008C000F1FD08210D2004F0EDFD2146302004F05B
:1008D000E9FD0721312004F0E5FD40F203613220FB
:1008E00004F0E0FD4FF4E0673946332004F0DAFD10
:1008F0005946342004F0D6FD0221352004F0D2FD03
:1009000041F60F71362004F0CDFD2146372004F06A
:10091000C9FD0021382004F0C5FD0021392004F074
:10092000C1FD21463A2004F0BDFD00213B2004F02A
:10093000B9FD07213C2004F0B5FD00213D2004F065
:10094000B1FD02E0B1E07CE295E1322001F0FBFB79
:100950000121072004F0A6FD0121172004F0A2FDCB
:10096000322001F0F0FB4FF4BD51102004F09AFD4D
:1009700040F21721112004F095FD01E006E38BE31E
:100980004FF48F71122004F08DFD4FF4706113202D
:1009900004F088FD00212A2004F084FD0A2129208A
:1009A00004F080FD4FF49F71122004F07BFD0021C4
:1009B000502004F077FDEF21512004F073FD002159
:1009C000522004F06FFD3146532004F06BFD4FF4CC
:1009D0001C51602004F066FD0121612004F062FDDD
:1009E00000216A2004F05EFD0021802004F05AFD01
:1009F0000021812004F056FD0021822004F052FDE8
:100A00000021832004F04EFD0021842004F04AFDE3
:100A10000021852004F046FD1321902004F042FDC2
:100A20004FF44071922004F03DFD0521932004F025
:100A300039FD0021952004F035FD0021972004F0B8
:100A400031FD0021982004F02DFD2946012004F0FD
:100A500029FD3946022004F025FD41F23001032032
:100A600004F020FD0021042004F01CFD00210C20D6
:100A700004F018FD00210F2004F014FD00212020B7
:100A800004F010FD0021212004F00CFD212107209D
:100A900004F008FDC82001F056FB6121072004F096
:100AA00001FDC82001F04FFBFEE30F7047F6F00197
:100AB000E52004F0F7FC2946012004F0F3FC4FF494
:100AC000E061022004F0EEFC5146032004F0EAFC51
:100AD0000021042004F0E6FC40F20721082004F085
:100AE000E1FC0021092004F0DDFC00210A2004F0D3
:100AF000D9FC00210C2004F0D5FC00210D2004F0CD
:100B0000D1FC00210F2004F0CDFC0021102004F0C6
:100B1000C9FC0721112004F0C5FC0021122004F0BB
:100B2000C1FC0021132009E0000C0240001002402B
:100B3000FFFF1F00040000200000026004F0B2FC70
:100B40000121072004F0AEFCC82001F0FCFA41F2BC
:100B50009001102004F0A6FC40F22721112004F09F
:100B6000A1FC322001F0EFFA1F21122004F09AFCC0
:100B7000322001F0E8FA4FF4A851132004F092FC5F
:100B80002721292004F08EFC0D212B2004F08AFC63
:100B9000322001F0D8FA0021202004F083FC00214B
:100BA000212004F07FFC0021302004F07BFC214652
:100BB000312004F077FC40F20731322004F072FC5F
:100BC0004FF40071352004F06DFC0821362004F04C
:100BD00069FC0421372004F065FC0021382004F072
:100BE00061FC2146392004F05DFC02213C2004F028
:100BF00059FC41F604513D2004F054FC00215020E2
:100C000004F050FCEF21512004F04CFC0021522054
:100C100004F048FC3146532004F044FC4FF42741D3
:100C2000602004F03FFC0121612004F03BFC002126
:100C30006A2004F037FC0021802004F033FC0021FE
:100C4000812004F02FFC0021822004F02BFC0021E5
:100C5000832004F027FC0021842004F023FC0021E1
:100C6000852004F01FFC1021902004F01BFC4FF4A1
:100C7000C0619220FEE381F8009041F21401E72068
:100C800004F010FC2946012004F00CFC4FF4007124
:100C9000022004F007FC41F23001032004F002FCC2
:100CA0005946082004F0FEFB0021092004F0FAFB5D
:100CB00000210A2004F0F6FB00210C2004F0F2FBD6
:100CC00000210D2004F0EEFB00210F2004F0EAFBD0
:100CD0000021102004F0E6FB0721112004F0E2FBC4
:100CE0000021122004F0DEFB0021132004F0DAFBC7
:100CF000C82001F028FA41F29061102004F0D2FBE4
:100D000040F22721112004F0CDFB322001F01BFA24
:100D10000C21122004F0C6FB322001F014FA4FF42B
:100D20000061132004F0BEFB1121292004F0BAFB5E
:100D30000B212B2004F0B6FB322001F004FA002135
:100D4000202004F0AFFB0021212004F0ABFB0021A8
:100D5000302004F0A7FB4FF483752946312004F0BE
:100D6000A1FB0021322004F09DFB3946352004F020
:100D700099FB41F20A61362004F094FB21463720AA
:100D800004F090FB2946382004F08CFB21463920E2
:100D900004F088FB40F202413C2004F083FB40F663
:100DA0000F413D2004F07EFB0021502004F07AFB2F
:100DB000EF21512004F076FB0021522004F072FB59
:100DC0003146532004F06EFB4FF41C51602004F0B8
:100DD00069FB0121612004F065FB00216A2004F019
:100DE00061FB0021802004F05DFB0021812004F0E4
:100DF00059FB0021822004F055FB0021832004F0E0
:100E000051FB0021842004F04DFB0021852004F0DB
:100E100049FB1021902004F045FB4FF4C061922063
:100E200004F040FB2121072004F03CFB322001F0BC
:100E30008AF96121072004F035FB322001F083F9A3
:100E4000FEE381F800800021084604F02BFB2946D0
:100E5000012004F027FB4FF4E061022004F022FBA4
:100E60005146032004F01EFB0021042004F01AFB6D
:100E70005946082004F016FB0021092004F012FB5B
:100E800000210A2004F00EFB01210C2004F00AFBD3
:100E900000210D2004F006FB00210F2004F002FBCE
:100EA000642001F050F940F20111072004F0FAFA31
:100EB000642001F048F94FF48651102004F0F2FA52
:100EC0000721112004F0EEFA4FF488742146122015
:100ED00004F0E8FA4FF43061132004F0E3FA002143
:100EE000292004F0DFFA44F210012B2004F0DAFA92
:100EF0000021502004F0D6FAEF21512004F0D2FA5C
:100F00000021522004F0CEFA3146532004F0CAFAF0
:100F10004FF41C51602004F0C5FA0121612004F057
:100F2000C1FA00216A2004F0BDFA0021802004F0FB
:100F3000B9FA0021812004F0B5FA0021822004F0E2
:100F4000B1FA0021832004F0ADFA0021842004F0DE
:100F5000A9FA0021852004F0A5FA1021902004F0C0
:100F6000A1FA0021922004F09DFA0121932004F0BF
:100F700099FA2146952004F095FA0021972004F073
:100F800091FA0021982043E30720EDE30D2008703B
:100F90000621282004F086FA0121002004F082FABC
:100FA0000021102004F07EFA47F2EF21012004F026
:100FB00079FA4FF4C061022004F074FA46F6382141
:100FC000032004F06FFA46F67401112004F06AFA67
:100FD00000210F2004F066FA45F208310B2004F0DE
:100FE00061FA03210C2004F05DFA0A210D2004F0BF
:100FF00059FA4FF438510E2004F054FABE211E2045
:1010000004F050FA4FF40041252004F04BFA4FF45D
:10101000F041262004F046FA7821272004F042FA15
:1010200000214E2004F03EFA00214F2004F03AFA4D
:1010300040F6D901122004F035FA0021302004F0E6
:1010400031FA4FF48271312004F02CFA2946322013
:1010500004F028FA40F205352946332004F022FA3C
:101060004146342004F01EFA2946352004F01AFACD
:101070002146362004F016FA691F372004F012FAD0
:101080004FF490513A2004F00DFA4FF400613B20E8
:1010900004F008FA332177E7A0F5094C40F2025931
:1010A00040F2023ABCF1890C1DD0A0F5094CBCF10C
:1010B000990C7DD0A0F5A847083F7AD0A0F58A47C3
:1010C000313F77D0A0F58A47353F74D0472873D099
:1010D000A0F5EE47833F70D06720108018884880C5
:1010E00047286BD0FEE3052008700121002004F0A2
:1010F000D9F9322001F027F84AF6A401032004F0C0
:10110000D1F9322001F01FF800210C2004F0CAF9B7
:10111000322001F018F840F60C010D2004F0C2F95D
:10112000322001F010F84FF42C510E2004F0BAF9DF
:10113000322001F008F8B0211E2004F0B3F932206B
:1011400001F001F842F63F31012004F0ABF9322002
:1011500000F0F9FF4FF4C061022004F0A3F932203F
:1011600000F0F1FF0021102004F09CF9322000F083
:10117000EAFF46F27001112004F094F9322000F0E9
:10118000E2FF0021052004F08DF9322000F0DBFFA2
:101190000021062004F086F9322000F0D4FF4EF63C
:1011A0001C71162004F07EF9322000F0CCFF06E01E
:1011B000CFE08EE131E2D8E2FDE37DE3FCE3032101
:1011C000172004F06FF9322000F0BDFF40F2331118
:1011D000072004F067F9322000F0B5FF00210B2052
:1011E00004F060F9322000F0AEFF00210F2004F07F
:1011F00059F9322000F0A7FF0021412004F052F9F4
:10120000322000F0A0FF0021422004F04BF93220F0
:1012100000F099FF0021482004F044F9322000F04A
:1012200092FF3146492004F03DF9322000F08BFF57
:1012300000214A2004F036F9322000F084FF00211A
:101240004B2004F02FF9322000F07DFF4FF46F4166
:10125000442004F027F9322000F075FF00214520DA
:1012600004F020F9322000F06EFF3146462004F0F1
:1012700019F9322000F067FF2146302004F012F9FE
:10128000322000F060FF3946312004F00BF93220A3
:1012900000F059FF3946322004F004F9322000F002
:1012A00052FF4C46494600E0B4E1332004F0FAF81E
:1012B000322000F048FF40F20751342004F0F2F8E9
:1012C000322000F040FF3946352004F0EBF83220A0
:1012D00000F039FF3946362004F0E4F8322000F0FF
:1012E00032FF2146372004F0DDF8322000F02BFFDA
:1012F000544651463A2004F0D5F8322000F023FF3E
:1013000021463B2004F0CEF8322000F01CFF0021E3
:10131000232004F0C7F8322000F015FF002124201C
:1013200004F0C0F8322000F00EFF4FF400412520F9
:1013300004F0B8F8322000F006FF00214F2004F03E
:10134000B1F800214E2004F0ADF846F2580111200A
:101350001BE6042008700621282004F0A3F80121D0
:10136000002004F09FF84AF6A461032004F09AF8E4
:1013700004210C2004F096F80C210D2004F092F8C2
:101380004FF420510E2004F08DF8B5211E2004F0FA
:1013900089F843F63F31012004F084F84FF4C0612E
:1013A000022004F07FF80021102004F07BF846F6BC
:1013B0003001112004F076F80021052004F072F8C5
:1013C0000021062004F06EF84EF61C71162004F081
:1013D00069F83321072004F065F800210B2004F0A0
:1013E00061F800210F2004F05DF80021412004F095
:1013F00059F80021422004F055F80021482004F05B
:1014000051F83146492004F04DF800214A2004F0FB
:1014100049F800214B2004F045F84FF46F41442077
:1014200004F040F80021452004F03CF83146462005
:1014300004F038F800214E2004F034F800214F2049
:1014400004F030F82146302004F02CF859463120C1
:1014500004F028F83946322004F024F84C46494676
:10146000332004F01FF840F20751342004F01AF83A
:10147000394600E01FE2352004F014F839463620E2
:1014800004F010F82146372004F00CF85446514679
:101490003A2004F007F821463B2004F003F800212D
:1014A000232003F0FFFF0021242003F0FBFF4FF473
:1014B0000041252003F0F6FF4FF4E041262003F021
:1014C000F1FF4BF2EB01202003F0ECFF7C21272001
:1014D0005BE5082008702946012003F0E3FF4FF484
:1014E000E061022003F0DEFF41F23001032003F04F
:1014F000D9FF0021042003F0D5FF40F20721082086
:1015000003F0D0FF0021092003F0CCFF00210A20C6
:1015100003F0C8FF00210C2003F0C4FF00210D20C0
:1015200003F0C0FF00210F2003F0BCFF322000F0C9
:101530000AFE40F20111072003F0B4FF322000F050
:1015400002FE41F2B061102003F0ACFF0121112036
:1015500003F0A8FF0121172003F0A4FF4FF49C71B2
:10156000122003F09FFF4FF40061132003F09AFF55
:101570000921292003F096FF09212A2003F092FF78
:101580000021A42003F08EFF0021502003F08AFFE9
:10159000EF21512003F086FF0021522003F082FF4B
:1015A0003146532003F07EFF4FF41C51602003F0BE
:1015B00079FF0321612003F075FF00216A2003F009
:1015C00071FF0021802003F06DFF0021812003F0D6
:1015D00069FF0021822003F065FF0021832003F0D2
:1015E00061FF0021842003F05DFF0021852003F0CE
:1015F00059FF1321902003F055FF0021922003F0A2
:1016000051FF0321932003F04DFF4FF48871952083
:1016100003F048FF40F27311B6E40720087001217F
:10162000002003F03FFF4FF4C561102003F03AFFA4
:101630000621122003F036FF40F63221132000E08D
:10164000EDE103F02FFF4021112003F02BFF50218B
:10165000152003F027FF1621122003F023FF32206C
:1016600000F071FD45F26061102003F01BFF322095
:1016700000F069FD42F64E21132003F013FF2946C6
:10168000012003F00FFF4FF44071022003F00AFF26
:1016900041F23001032003F005FF5946082003F012
:1016A00001FF00210A2003F0FDFE0021302003F09D
:1016B000F9FE40F20241312003F0F4FE4FF4837151
:1016C000322003F0EFFE4FF4E061332003F0EAFE36
:1016D0004FF48271342003F0E5FE40F201313520F1
:1016E00003F0E0FE2146362003F0DCFE40F2053137
:1016F000372003F0D7FE4FF40271382003F0D2FEFA
:1017000040F60B71392003F0CDFE322000F01BFDB6
:101710000221412003F0C6FE4FF41C51602003F06B
:10172000C1FE0121612003F0BDFE40F2191190209D
:1017300003F0B8FE4FF48571922003F0B3FE04214C
:10174000932003F0AFFE2946A02003F0ABFE322029
:1017500000F0F9FC40F23311072003F0A3FE322021
:1017600000F0F1FC0021A02056E30C20087030218D
:10177000152003F097FE10219A2003F093FE2021FC
:10178000112003F08FFE43F22841102003F08AFE5F
:101790000221122003F086FE41F23801132003F0EB
:1017A00081FE282000F0CFFC1221084603F07AFECB
:1017B000282000F0C8FC43F22041102003F072FE04
:1017C00043F24501132003F06DFE462000F0BBFC00
:1017D0000021302003F066FE40F20241312003F088
:1017E00061FE40F20731322003F05CFE4FF441719C
:1017F000332003F057FE0421342003F053FE40F25F
:101800000141352003F04EFE2146362003F04AFE0A
:1018100040F20531372003F045FE4FF4C264214603
:10182000382003F03FFE2146392003F03BFE2946D5
:10183000012003F037FE4FF44071022003F032FE26
:1018400041F23001032003F02DFE40F6080108208C
:1018500003F028FE08210A2003F024FE4FF41C5157
:10186000602003F01FFE0121612003F01BFE4FF4F6
:101870009F71902003F016FE2946922003F012FE7D
:101880002946932003F00EFE4FF44051A02003F0B0
:1018900009FE1021A32003F005FE0121072003F01B
:1018A00001FE2121072003F0FDFD2321072003F085
:1018B000F9FD33210720B0E0062008700121FF2048
:1018C00003F0F0FD0821F32003F0ECFD2946012090
:1018D00003F0E8FD4FF4E061022003F0E3FD41F284
:1018E000300100E09AE2032003F0DCFD51460820BD
:1018F00003F0D8FD40F20721082003F0D3FD0021BA
:10190000092003F0CFFD00210A2003F0CBFD0021C8
:10191000102003F0C7FD0521112003F0C3FD0021B5
:10192000122003F0BFFD0021132003F0BBFD322085
:1019300000F009FC41F2B021102003F0B3FD322089
:1019400000F001FC0721112003F0ACFD322000F073
:10195000FAFB8B21122003F0A5FD322000F0F3FBEF
:101960004FF4B851132003F09DFD322000F0EBFB43
:101970002221292003F096FD0021302003F092FD62
:101980002146312003F08EFD4146322003F08AFDCE
:1019900040F20711352003F085FD0821362003F0C1
:1019A00081FD0021372003F07DFD5C46594638203B
:1019B00003F078FD01E035E014E14FF48371392044
:1019C00003F070FD21463C2003F06CFD4FF4816173
:1019D0003D2003F067FD322000F0B5FB00215020D0
:1019E00003F060FDEF21512003F05CFD0021522047
:1019F00003F058FD3146532003F054FD4FF42741C6
:101A0000602003F04FFD0121612003F04BFD3321E5
:101A1000902003F047FD0B212B2003F043FD40F203
:101A20003311F9E50A2008700021EA2003F03AFD9D
:101A30002021EB2003F036FD0C21EC2003F032FDD9
:101A4000C421ED2003F02EFD4021E82003F02AFD03
:101A50003821E92003F026FD0121F12003F022FDC9
:101A60001021F22003F01EFDA321272003F01AFD10
:101A70000121402003F016FD0021412003F012FD5A
:101A80000021422003F00EFD1021432003F00AFD47
:101A90000E21442003F006FD2421452003F002FD21
:101AA0000421462003F0FEFC5021472003F0FAFCFD
:101AB0000221482003F0F6FC1321492003F0F2FC38
:101AC00019214A2003F0EEFC19214B2003F0EAFC17
:101AD00016214C2003F0E6FC1B21502003F0E2FC11
:101AE0003121512003F0DEFC2F21522003F0DAFCDB
:101AF0003F21532003F0D6FC3F21542003F0D2FCB9
:101B00003E21552003F0CEFC2F21562003F0CAFCC5
:101B10007B21572003F0C6FC0921582003F0C2FCAA
:101B20000621592003F0BEFC06215A2003F0BAFC1E
:101B30000C215B2003F0B6FC1D215C2003F0B2FCFD
:101B4000CC215D2003F0AEFC18211B2003F0AAFC81
:101B500001211A2003F0A6FC1521242003F0A2FC89
:101B60005021252003F09EFC8B21232003F09AFCBA
:101B70003621182003F096FC0121192003F092FC75
:101B80000021012003F08EFC88211F2003F08AFC35
:101B9000322000F0D8FA80211F2003F083FC32208D
:101BA00000F0D1FA90211F2003F07CFC322000F0DD
:101BB000CAFAD0211F2003F075FC322000F0C3FACE
:101BC0000521172003F06EFC0021362003F06AFC8B
:101BD0003821282003F066FC322000F0B4FA3C21C2
:101BE000282019E10B2008700821422003F05AFC3C
:101BF000B421462003F056FC4321472003F052FC59
:101C00001321482003F04EFC4721492003F04AFCF1
:101C100014214A2003F046FC36214B2003F042FCFD
:101C200003214C2003F03EFC46214D2003F03AFCFA
:101C300005214E2003F036FC10214F2003F032FC2A
:101C40000821502003F02EFC0A21512003F02AFC29
:101C50000021022003F026FC0021032003F022FCD7
:101C60000021042003F01EFCEF21052003F01AFCE4
:101C70000021062003F016FC0021072003F012FCCF
:101C80000121082003F00EFC3F21092003F00AFC8B
:101C90000A2000F058FA0621012003F003FCC821B5
:101CA000162003F0FFFB9521232003F0FBFB952179
:101CB000242003F0F7FBFF21252003F0F3FB022192
:101CC000272003F0EFFB0221282003F0EBFB022189
:101CD000292003F0E7FB02212A2003F0E3FB022185
:101CE0002C2003F0DFFB02212D2003F0DBFB012180
:101CF0003A2003F0D7FB01213B2003F0D3FBF02176
:101D00003C2003F0CFFB00213D2003F0CBFB14204F
:101D100000F019FA3821352003F0C4FB7821362071
:101D200003F0C0FB38213E2003F0BCFB0F21402014
:101D300003F0B8FBF021412003F0B4FB0021382070
:101D400003F0B0FB4921192003F0ACFB0A219320DA
:101D500003F0A8FB0A2000F0F6F92021084603F062
:101D6000A1FB03211D2003F09DFB00211E2003F099
:101D700099FB09211F2003F095FB5321442003F018
:101D800091FB1021452003F08DFB0A2000F0DBF9C8
:101D900004211C2003F086FB142000F0D4F98021DC
:101DA000432003F07FFB052000F0CDF90A211B2022
:101DB00003F078FB282000F0C6F912211B2003F065
:101DC00071FB282000F0BFF97F21902003F06AFB0F
:101DD0000421262003F066FB282000F0B4F924211A
:101DE000262003F05FFB2C21262003F05BFB28203C
:101DF00000F0A9F90821702003F054FB3C212620B3
:101E000003F050FB0221572003F04CFB002155202A
:101E100003F048FB0021572003F044FB322000F080
:101E200092F9BDE8FC9F10B5A0F23F10404284B289
:101E3000CC48007805280BD0202003F033FB214646
:101E4000212003F02FFB4FF0C0412220088010BD5D
:101E50004E2003F027FB2146BDE810404F2003F041
:101E600021BB70B50546BF48002400780A2811D070
:101E70000B280FD000210846FFF7D5FF4FF0C041D7
:101E800022200880B8484FF496310580641C8C42AB
:101E9000FBD370BD0021022003F004FB00210320CE
:101EA00003F000FB0021042003F0FCFAEF210520E1
:101EB00003F0F8FA0021062003F0F4FA00210720CD
:101EC00003F0F0FA0121082003F0ECFA3F21092089
:101ED00003F0E8FAD2E710B5FFF7A5FF4FF0C041D5
:101EE000222008809F4801789F48091F092917D29E
:101EF000DFE801F00505050516160808050001884C
:101F0000008810BD0188C1F3C70201880088C90894
:101F1000C0F38700C90241EA4010104380B210BDEF
:101F200001880088C0F34511C20AC00200EB4110CD
:101F30001044F3E710B51446B0F5A07F09D2F0299C
:101F400007D2FFF770FF2146BDE81040222003F0C2
:101F5000A9BA10BD2DE9F04705469146DDF820A04D
:101F600098460C4610464D4501D9A94685B21846FB
:101F7000444501D9884684B2A9EB0500A8EB0401C9
:101F800000B20EB250B1A6B1B04230DDC0EB460196
:101F90000FB27100404201EB400825E05246214655
:101FA0002846FFF7C7FF641CA4B2A045F6D2BDE8DF
:101FB000F087524621462846FFF7BCFF6D1CADB2A4
:101FC000A945F6D2F3E7524621462846FFF7B2FF6D
:101FD0006D1CADB2002F04DD641CA4B208EB070039
:101FE00001E007EB460007B24D45ECD11AE0C6EB25
:101FF00040010FB27100404201EB400910E052462F
:1020000021462846FFF796FF641CA4B2002F04DD8A
:102010006D1CADB209EB070001E007EB460007B20B
:102020004445ECD1524621462846BDE8F04781E7B9
:102030002DE9FF5F894607469B4611466846FEF735
:102040001BFB0025EA4600241AF8058009EB05066B
:10205000C4F1070128FA01F0C00707EB0400B1B290
:1020600080B201D05A4600E00E9AFFF763FF641C6D
:10207000A4B2082CECD36D1CADB2102DE3D3BDE897
:10208000FF9F2DE9F8439946089F16460D460446E2
:102090004FF49C7816F8012B4B46294620460097B2
:1020A000FFF7C6FF444502D20834A4B207E0E02D92
:1020B0004FF0000402D21035ADB200E000253078B8
:1020C0000028E7D1BDE8F8832DE9FF4115460E460B
:1020D00007461C4625A101A80A9A02F0B9FF2B4623
:1020E00001AA314638460094FFF7CBFFBDE8FF81D7
:1020F0004FF0C04122200880704700B597B0002003
:102100001021CDE9020104900902CDE908010790F0
:102110000FAA00900190CDE90C0206900A9005905C
:1021200014210B90CDE90F10CDE9111013901490EC
:1021300015900E92684601F07CFE0121002001F00E
:102140000DFF17B000BD002240F2754306E00021EC
:10215000491C89B29942FBD3521C92B28242F6D3F7
:102160007047000004000020000002604650533A0F
:102170002564000070B586B00121042002F03AFC0D
:102180000121042002F036FC0121880402F050FCF9
:102190002F4E07220A21304602F04AF907220B216E
:1021A000304602F045F93015009002208DF8040009
:1021B00000248DF806408DF8050001258DF80750A4
:1021C0006946304602F0C0F8E80200908DF80650EB
:1021D0008DF807406946304602F0B6F84FF4E1301A
:1021E000ADF80C400290ADF80E40ADF81040ADF8DF
:1021F00014400C20174CADF8120002A9204602F042
:10220000F8FC0121204602F065FD06B070BD08B55E
:1022100027208DF8000001208DF8010000218DF8A5
:1022200002108DF80300684601F071FB08BD70478D
:1022300070B5084D0446C1B2284602F071FD402138
:10224000284602F0FEFD0028F9D0204670BD0000AF
:1022500000080240004800407047FEE7FEE7FEE746
:10226000FEE7704770477047704710B51D4C40F24D
:102270002551204602F0EFFD002808D0204602F04C
:1022800053FD0146BDE8104017A002F0D5BE10BDB9
:1022900010B5082001F01CFC50B100210846FFF7E2
:1022A000C2FD4FF0C04122200880082001F018FC38
:1022B000102001F00DFC10B1102001F011FC0120E4
:1022C00001F006FC10B1012001F00AFC042001F02D
:1022D000FFFB002804D0BDE81040042001F000BC42
:1022E00010BD0000004800400A0D555341525420D3
:1022F00048797065727465726D696E616C20496EA3
:102300007465727275707473205265636569766561
:10231000206120776F72643A2025630A0D00000067
:102320002DE9F04397B00121172002F063FB012152
:10233000084602F069FBDFF810940D22042148469C
:1023400002F076F80D220621484602F071F8FF4CA3
:102350000D220721204602F06BF8FD4F0D220621C9
:10236000384602F065F80D220A21484602F060F86E
:102370000D220821384602F05BF80D22092138466B
:1023800002F056F8DFF8CC830D220421404602F01B
:102390004FF80D220621204602F04AF80D220521B1
:1023A000404602F045F80D220621404602F040F872
:1023B0004FF482600F9002208DF8400003268DF8C4
:1023C000416001258DF842508DF843500FA94846D1
:1023D00001F0BAFFC0200F900FA9204601F0B4FF12
:1023E0004FF450700F900FA9384601F0ADFF7020E8
:1023F0000F900FA9404601F0A7FF40270FA94846BC
:102400000F9701F0A1FF0024ADF848408020ADF8FF
:102410004440ADF84A00ADF84C70ADF84640ADF818
:102420004E40ADF8504011A801F0CFFA012108202C
:1024300001F02FFB700201F065FA4E208DF8540078
:102440008DF855508DF856508DF8575015A801F05D
:102450005EFA0121880502F0CDFABF4D284601F051
:1024600045FBF8040090BD480190BD48CDE9020449
:102470004FF4A070CDE90404A814CDE90640400053
:1024800008904011099040020A900420CDE90C64A4
:102490000B90694628460E9401F0B0FB17B0BDE8DA
:1024A000F08310B50220401EFDD2002211466020AC
:1024B000FDF7F4FF0220401EFDD2802201216020A2
:1024C000FDF7ECFF0220401EFDD280220221602099
:1024D000FDF7E4FF0220401EFDD20222032160200E
:1024E000FDF7DCFF0220401EFDD200220421602007
:1024F000FDF7D4FF0220401EFDD2032209216020F7
:10250000FDF7CCFF0220401EFDD257220B21602098
:10251000FDF7C4FF0220401EFDD201220E216020E3
:10252000FDF7BCFF0220401EFDD2C0220F2160201B
:10253000FDF7B4FF0220401EFDD250221021602082
:10254000FDF7ACFF0220401EFDD280221121602049
:10255000FDF7A4FF0220401EFDD26322122160205D
:10256000FDF79CFF0220401EFDD2EF2213216020C8
:10257000FDF794FF0220401EFDD23A221421602074
:10258000FDF78CFF0220401EFDD21822152160208D
:10259000FDF784FF0220401EFDD224221621602078
:1025A000FDF77CFF0220401EFDD21822172160207B
:1025B000FDF774FF0220401EFDD204221821602086
:1025C000FDF76CFF0220401EFDD201221921602080
:1025D000FDF764FF0220401EFDD281221A216020F7
:1025E000FDF75CFF0220401EFDD200221E2160206C
:1025F000FDF754FF0220401EFDD23C222421602022
:10260000FDF74CFF0220401EFDD23622252160201E
:10261000FDF744FF0220401EFDD2722226216020D9
:10262000FDF73CFF0220401EFDD20822272160203A
:10263000FDF734FF0220401EFDD208222821602031
:10264000FDF72CFF0220401EFDD21522292160201B
:10265000FDF724FF0220401EFDD200222A21602027
:10266000FDF71CFF0220401EFDD200222B2160201E
:10267000FDF714FF0220401EFDD208222C2160200D
:10268000FDF70CFF0220401EFDD2122232216020F5
:10269000FDF704FF0220401EFDD2002233216020FE
:1026A000FDF7FCFE0220401EFDD23F2234216020B7
:1026B000FDF7F4FE0220401EFDD2002235216020ED
:1026C000FDF7ECFE0220401EFDD23A2236216020AA
:1026D000FDF7E4FE0220401EFDD272223821602068
:1026E000FDF7DCFE0220401EFDD25722392160207A
:1026F000FDF7D4FE0220401EFDD2CA223A216020FE
:10270000FDF7CCFE0220401EFDD204223B216020BA
:10271000FDF7C4FE0220401EFDD299223D2160201B
:10272000FDF7BCFE0220401EFDD202223E216020A9
:10273000FDF7B4FE0220401EFDD2C1223F216020E1
:10274000FDF7ACFE02200DE0000002400004024054
:102750000008024000100240286402402800055092
:1027600000000260401EEED2D02240216020FDF722
:1027700095FE0220401EFDD2412211466020FDF749
:102780008DFE0220401EFDD2C02242216020FDF7B6
:1027900085FE0220401EFDD20A2243216020FDF763
:1027A0007DFE0220401EFDD2F02244216020FDF774
:1027B00075FE0220401EFDD2462245216020FDF715
:1027C0006DFE0220401EFDD2622246216020FDF7F0
:1027D00065FE0220401EFDD22A2247216020FDF71F
:1027E0005DFE0220401EFDD23C2248216020FDF704
:1027F00055FE0220401EFDD2FC224A216020FDF73A
:102800004DFE0220401EFDD2FC224B216020FDF730
:1028100045FE0220401EFDD27F224C216020FDF7A4
:102820003DFE0220401EFDD27F224D216020FDF79B
:1028300035FE0220401EFDD27F224E216020FDF792
:102840002DFE0220401EFDD298224F216020FDF770
:1028500025FE0220401EFDD2982250216020FDF767
:102860001DFE0220401EFDD2002251216020FDF7F6
:1028700015FE0220401EFDD2282252216020FDF7C5
:102880000DFE0220401EFDD2702253216020FDF774
:1028900005FE0220401EFDD2982254216020FDF743
:1028A000FDFD0220401EFDD21A2258216020FDF7B6
:1028B000F5FD0220401EFDD2852259216020FDF742
:1028C000EDFD0220401EFDD2A9225A216020FDF715
:1028D000E5FD0220401EFDD264225B216020FDF751
:1028E000DDFD0220401EFDD284225C216020FDF728
:1028F000D5FD0220401EFDD253225D216020FDF750
:10290000CDFD0220401EFDD20E225E216020FDF78B
:10291000C5FD0220401EFDD2F0225F216020FDF7A0
:10292000BDFD0220401EFDD26021F0220846FDF7C9
:10293000B5FD0220401EFDD2F02261216020FDF78E
:10294000ADFD0220401EFDD2002262216020FDF775
:10295000A5FD0220401EFDD2002263216020FDF76C
:102960009DFD0220401EFDD2022264216020FDF761
:1029700095FD0220401EFDD2202265216020FDF73A
:102980008DFD0220401EFDD2002266216020FDF751
:1029900085FD0220401EFDD20A2269216020FDF73C
:1029A0007DFD0220401EFDD20A226B216020FDF732
:1029B00075FD0220401EFDD204226C216020FDF72F
:1029C0006DFD0220401EFDD255226D216020FDF7D5
:1029D00065FD0220401EFDD200226E216020FDF721
:1029E0005DFD0220401EFDD29D226F216020FDF77B
:1029F00055FD0220401EFDD2212270216020FDF7EE
:102A00004DFD0220401EFDD2782271216020FDF78D
:102A100045FD0220401EFDD20220401EFDD21122A3
:102A200072216020FDF73AFD0220401EFDD20220F7
:102A3000401EFDD2012273216020FDF72FFD0220F0
:102A4000401EFDD2102274216020FDF727FD0220D8
:102A5000401EFDD2102275216020FDF71FFD0220CF
:102A6000401EFDD2012276216020FDF717FD0220D5
:102A7000401EFDD2022277216020FDF70FFD0220CB
:102A8000401EFDD212227A216020FDF707FD0220B0
:102A9000401EFDD208227B216020FDF7FFFC0220B2
:102AA000401EFDD216227C216020FDF7F7FC02209B
:102AB000401EFDD230227D216020FDF7EFFC022078
:102AC000401EFDD25E227E216020FDF7E7FC022041
:102AD000401EFDD272227F216020FDF7DFFC022024
:102AE000401EFDD2822280216020FDF7D7FC02200B
:102AF000401EFDD28E2281216020FDF7CFFC0220F6
:102B0000401EFDD29A2282216020FDF7C7FC0220E0
:102B1000401EFDD2A42283216020FDF7BFFC0220CD
:102B2000401EFDD2AC2284216020FDF7B7FC0220BC
:102B3000401EFDD2B82285216020FDF7AFFC0220A7
:102B4000401EFDD2C32286216020FDF7A7FC022093
:102B5000401EFDD2D62287216020FDF79FFC022077
:102B6000401EFDD2E62288216020FDF797FC02205E
:102B7000401EFDD2F22289216020FDF78FFC022049
:102B8000401EFDD224228A216020FDF787FC02200E
:102B9000401EFDD280228C216020FDF77FFC0220A8
:102BA000401EFDD27D2290216020FDF777FC02209F
:102BB000401EFDD27B2291216020FDF76FFC022098
:102BC000401EFDD202229D216020FDF767FC0220FD
:102BD000401EFDD202229E216020FDF75FFC0220F4
:102BE000401EFDD27A229F216020FDF757FC022073
:102BF000401EFDD27922A0216020FDF74FFC02206B
:102C0000401EFDD21F22A1216020FDF747FC0220BB
:102C1000401EFDD25022A4216020FDF73FFC02207F
:102C2000401EFDD26822A5216020FDF737FC02205E
:102C3000401EFDD24A22A6216020FDF72FFC022073
:102C4000401EFDD2C122A8216020FDF727FC0220F2
:102C5000401EFDD2EF22A9216020FDF71FFC0220BB
:102C6000401EFDD29222AA216020FDF717FC02200F
:102C7000401EFDD20422AB216020FDF70FFC022094
:102C8000401EFDD28022AC216020FDF707FC02200F
:102C9000401EFDD28022AD216020FDF7FFFB022007
:102CA000401EFDD28022AE216020FDF7F7FB0220FE
:102CB000401EFDD28022AF216020FDF7EFFB0220F5
:102CC000401EFDD2F222B2216020FDF7E7FB022078
:102CD000401EFDD22022B3216020FDF7DFFB022041
:102CE000401EFDD22022B4216020FDF7D7FB022038
:102CF000401EFDD20022B5216020FDF7CFFB02204F
:102D0000401EFDD2AF22B6216020FDF7C7FB022096
:102D1000401EFDD2AF22B6216020FDF7BFFB02208E
:102D2000401EFDD2AE22BB216020FDF7B7FB022082
:102D3000401EFDD27F22BC216020FDF7AFFB0220A8
:102D4000401EFDD27F22BD216020FDF7A7FB02209F
:102D5000401EFDD27F22BE216020FDF79FFB022096
:102D6000401EFDD27F22BF216020FDF797FB02208D
:102D7000401EFDD27F22BF216020FDF78FFB022085
:102D8000401EFDD2AA22C0216020FDF787FB022051
:102D9000401EFDD2C022C1216020FDF77FFB022032
:102DA000401EFDD20122C2216020FDF777FB0220E8
:102DB000401EFDD24E22C3216020FDF76FFB022092
:102DC000401EFDD20522C6216020FDF767FB0220D0
:102DD000401EFDD28122C7216020FDF75FFB02204B
:102DE000401EFDD2E022C9216020FDF757FB0220E2
:102DF000401EFDD2E822CA216020FDF74FFB0220D1
:102E0000401EFDD2F022CB216020FDF747FB0220BF
:102E1000401EFDD2D822CC216020FDF73FFB0220CE
:102E2000401EFDD29322CD216020FDF737FB02200A
:102E3000401EFDD210BD1CB50121084601F0DAFD8F
:102E40004FF48070009003208DF8050002208DF86B
:102E5000040000208DF806008DF807006946FE4842
:102E600001F072FA00214FF4800001F026FD1CBD34
:102E700010B5FFF7E0FFFDF7C3FA40F6FF742046F8
:102E800000F016FD802212216020FDF707FB08B13B
:102E9000FF2010BD204600F00BFDFFF702FB632270
:102EA00012216020FDF7FAFA102240216020FDF780
:102EB000F5FA082215216020FDF7F0FAFFF730FA45
:102EC000002010BD802212216020FDF7E7BA10B566
:102ED0000220401EFDD2002211466020FDF7DEFADE
:102EE0000220401EFDD2802201216020FDF7D6FA8B
:102EF0000220401EFDD2802202216020FDF7CEFA82
:102F00000220401EFDD2022203216020FDF7C6FAF6
:102F10000220401EFDD2032204216020FDF7BEFAEC
:102F20000220401EFDD2012209216020FDF7B6FAE1
:102F30000220401EFDD257220B216020FDF7AEFA81
:102F40000220401EFDD261220E216020FDF7A6FA6C
:102F50000220401EFDD240220F216020FDF79EFA84
:102F60000220401EFDD2012211216020FDF796FAB9
:102F70000220401EFDD2622212216020FDF78EFA4F
:102F80000220401EFDD2C72213216020FDF786FAE1
:102F90000220401EFDD23A2214216020FDF77EFA65
:102FA0000220401EFDD2082215216020FDF776FA8E
:102FB0000220401EFDD2242216216020FDF76EFA69
:102FC0000220401EFDD2182217216020FDF766FA6C
:102FD0000220401EFDD2042218216020FDF75EFA77
:102FE0000220401EFDD2012219216020FDF756FA71
:102FF0000220401EFDD281221A216020FDF74EFAE8
:103000000220401EFDD220221E216020FDF746FA3C
:103010000220401EFDD23C2224216020FDF73EFA12
:103020000220401EFDD2362225216020FDF736FA0F
:103030000220401EFDD2722226216020FDF72EFACA
:103040000220401EFDD2082227216020FDF726FA2B
:103050000220401EFDD2082228216020FDF71EFA22
:103060000220401EFDD2152229216020FDF716FA0C
:103070000220401EFDD200222A216020FDF70EFA18
:103080000220401EFDD200222B216020FDF706FA0F
:103090000220401EFDD208222C216020FDF7FEF9FF
:1030A0000220401EFDD2A42232216020FDF7F6F955
:1030B0000220401EFDD2002233216020FDF7EEF9F0
:1030C0000220401EFDD23F2234216020FDF7E6F9A8
:1030D0000220401EFDD2002235216020FDF7DEF9DE
:1030E0000220401EFDD23A2236216020FDF7D6F99B
:1030F0000220401EFDD2722238216020FDF7CEF959
:103100000220401EFDD2572239216020FDF7C6F96A
:103110000220401EFDD2CC223A216020FDF7BEF9EC
:103120000220401EFDD204223B216020FDF7B6F9AB
:103130000220401EFDD299223D216020FDF7AEF90C
:103140000220401EFDD20E223E216020FDF7A6F98E
:103150000220401EFDD2C1223F216020FDF79EF9D2
:103160000220401EFDD2C02240216020FDF796F9CA
:103170000220401EFDD2412211466020FDF78EF94B
:103180000220401EFDD2C02242216020FDF786F9B8
:103190000220401EFDD20A2243216020FDF77EF965
:1031A0000220401EFDD2F02244216020FDF776F976
:1031B0000220401EFDD2462245216020FDF76EF917
:1031C0000220401EFDD2622246216020FDF766F9F2
:1031D0000220401EFDD22A2247216020FDF75EF921
:1031E0000220401EFDD23C2248216020FDF756F906
:1031F0000220401EFDD2FC224A216020FDF74EF93C
:103200000220401EFDD2FC224B216020FDF746F932
:103210000220401EFDD27F224C216020FDF73EF9A6
:103220000220401EFDD27F224D216020FDF736F99D
:103230000220401EFDD27F224E216020FDF72EF994
:103240000220401EFDD298224F216020FDF726F972
:103250000220401EFDD201E00000024098225021D1
:103260006020FDF71BF90220401EFDD200225121F3
:103270006020FDF713F90220401EFDD228225221C2
:103280006020FDF70BF90220401EFDD27022532171
:103290006020FDF703F90220401EFDD29822542140
:1032A0006020FDF7FBF80220401EFDD21A225821B3
:1032B0006020FDF7F3F80220401EFDD2852259213F
:1032C0006020FDF7EBF80220401EFDD2A9225A2112
:1032D0006020FDF7E3F80220401EFDD264225B214E
:1032E0006020FDF7DBF80220401EFDD284225C2125
:1032F0006020FDF7D3F80220401EFDD253225D214D
:103300006020FDF7CBF80220401EFDD20E225E2188
:103310006020FDF7C3F80220401EFDD2F0225F219D
:103320006020FDF7BBF80220401EFDD26021F02294
:103330000846FDF7B3F80220401EFDD2F0226121BD
:103340006020FDF7ABF80220401EFDD20022622172
:103350006020FDF7A3F80220401EFDD20022632169
:103360006020FDF79BF80220401EFDD2022264215E
:103370006020FDF793F80220401EFDD22022652137
:103380006020FDF78BF80220401EFDD2002266214E
:103390006020FDF783F80220401EFDD20A22692139
:1033A0006020FDF77BF80220401EFDD21A226B211F
:1033B0006020FDF773F80220401EFDD204226C212C
:1033C0006020FDF76BF80220401EFDD255226D21D2
:1033D0006020FDF763F80220401EFDD200226E211E
:1033E0006020FDF75BF80220401EFDD29D226F2178
:1033F0006020FDF753F80220401EFDD221227021EB
:103400006020FDF74BF80220401EFDD2782271218A
:103410006020FDF743F80220401EFDD222227221D7
:103420006020FDF73BF80220401EFDD202227321EE
:103430006020FDF733F80220401EFDD210227421D7
:103440006020FDF72BF80220401EFDD210227521CE
:103450006020FDF723F80220401EFDD201227621D4
:103460006020FDF71BF80220401EFDD202227721CA
:103470006020FDF713F80220401EFDD212227A21AF
:103480006020FDF70BF80220401EFDD208227B21B0
:103490006020FDF703F80220401EFDD216227C2199
:1034A0006020FCF7FBFF0220401EFDD230227D2170
:1034B0006020FCF7F3FF0220401EFDD25E227E2139
:1034C0006020FCF7EBFF0220401EFDD272227F211C
:1034D0006020FCF7E3FF0220401EFDD28222802103
:1034E0006020FCF7DBFF0220401EFDD28E228121EE
:1034F0006020FCF7D3FF0220401EFDD29A228221D9
:103500006020FCF7CBFF0220401EFDD2A4228321C5
:103510006020FCF7C3FF0220401EFDD2AC228421B4
:103520006020FCF7BBFF0220401EFDD2B82285219F
:103530006020FCF7B3FF0220401EFDD2C32286218B
:103540006020FCF7ABFF0220401EFDD2D62287216F
:103550006020FCF7A3FF0220401EFDD2E622882156
:103560006020FCF79BFF0220401EFDD2F222892141
:103570006020FCF793FF0220401EFDD224228A2106
:103580006020FCF78BFF0220401EFDD280228C21A0
:103590006020FCF783FF0220401EFDD27D22902197
:1035A0006020FCF77BFF0220401EFDD27B22912190
:1035B0006020FCF773FF0220401EFDD202229D21F5
:1035C0006020FCF76BFF0220401EFDD202229E21EC
:1035D0006020FCF763FF0220401EFDD27A229F216B
:1035E0006020FCF75BFF0220401EFDD27922A02163
:1035F0006020FCF753FF0220401EFDD24022A12193
:103600006020FCF74BFF0220401EFDD25022A42177
:103610006020FCF743FF0220401EFDD26822A52156
:103620006020FCF73BFF0220401EFDD24A22A6216B
:103630006020FCF733FF0220401EFDD2C122A821EA
:103640006020FCF72BFF0220401EFDD2EF22A921B3
:103650006020FCF723FF0220401EFDD29222AA2107
:103660006020FCF71BFF0220401EFDD20422AB218C
:103670006020FCF713FF0220401EFDD28022AC2107
:103680006020FCF70BFF0220401EFDD28022AD21FE
:103690006020FCF703FF0220401EFDD28022AE21F5
:1036A0006020FCF7FBFE0220401EFDD28022AF21ED
:1036B0006020FCF7F3FE0220401EFDD2F222B22170
:1036C0006020FCF7EBFE0220401EFDD22022B32139
:1036D0006020FCF7E3FE0220401EFDD22022B42130
:1036E0006020FCF7DBFE0220401EFDD20022B52147
:1036F0006020FCF7D3FE0220401EFDD2AF22B6218F
:103700006020FCF7CBFE0220401EFDD2AF22B62186
:103710006020FCF7C3FE0220401EFDD2AE22BB217A
:103720006020FCF7BBFE0220401EFDD27F22BC21A0
:103730006020FCF7B3FE0220401EFDD27F22BD2197
:103740006020FCF7ABFE0220401EFDD27F22BE218E
:103750006020FCF7A3FE0220401EFDD27F22BF2185
:103760006020FCF79BFE0220401EFDD27F22BF217D
:103770006020FCF793FE0220401EFDD2AA22C02149
:103780006020FCF78BFE0220401EFDD2C022C1212A
:103790006020FCF783FE0220401EFDD20122C221E0
:1037A0006020FCF77BFE0220401EFDD24E22C3218A
:1037B0006020FCF773FE0220401EFDD20522C621C8
:1037C0006020FCF76BFE0220401EFDD28222C72142
:1037D0006020FCF763FE0220401EFDD2E022C921DA
:1037E0006020FCF75BFE0220401EFDD2E822CA21C9
:1037F0006020FCF753FE0220401EFDD2F022CB21B8
:103800006020FCF74BFE0220401EFDD2D822CC21C6
:103810006020FCF743FE0220401EFDD29322CD2102
:103820006020FCF73BFE0220401EFDD210BD38B5E3
:1038300004466A461C216020FCF780FE9DF80000CB
:1038400020706A461D216020FCF778FE9DF800007C
:1038500060706A460B216020FCF770FE9DF8000046
:10386000A0706A460A216020FCF768FE9DF80000FF
:10387000E07038BD024611216020FCF70FBE024601
:1038800012216020FCF70ABE024612216020FCF7DC
:1038900005BE0A4601466020FCF700BE0246322102
:1038A0006020FCF7FBBD024640216020FCF7F6BD1E
:1038B0004FF47A7302E01946491EFDD2401EFAD237
:1038C000704700000948804709480047FEE7FEE7C7
:1038D000FEE7FEE7FEE7FEE7FEE7FEE7FEE7FEE7C0
:1038E00004480549054A064B704700005B4F000835
:1038F000890100089000002090060020900200201E
:10390000900200202849084328490860704730B5D4
:103910000F23C27801780125FAB1244A126801F117
:10392000E02102F4E062C2F5E062C2F30722C2F1D4
:103930000404D3404278A24084781C4014432201FE
:1039400081F80024007800F01F018D4040098000BC
:1039500000F1E020C0F8005130BD01F01F008540AB
:103960004809800000F1E020C0F8805130BD104AC5
:10397000114001430D48001F016070470B4A121DA2
:103980000029116801D0014300E0814311607047B4
:103990004FF0E0210428086903D020F004000861FA
:1039A000704740F00400FAE70000FA050CED00E073
:1039B00080FFFF1F4C4800210160C1601F2242614F
:1039C0008161C16101624162704730B546490A6850
:1039D00044F201039A430A600A6840F6F2739A437C
:1039E00003884488C588234384882C43234304895F
:1039F0002343448980892343034313430B6030BD31
:103A00000021018041808180C180018141818181CB
:103A1000704701684FEA314233490A6240684FEA11
:103A200030404862704730490028086802D040F0B2
:103A3000040001E020F0040008607047C1780068CD
:103A400061F31F602849886170472749002808688A
:103A500002D040F0080001E020F008000860704744
:103A600021490028086802D040F4804001E020F499
:103A70008040086070471C490028086802D040F068
:103A8000010001E020F00100086070471648806ADC
:103A90007047154A0029D16801D0014302E0C043B4
:103AA00080B20140D160704703460020190B0E4AD6
:103AB000012906D0022906D01169194200D001203F
:103AC00070479168F9E75168F7E70749486170471F
:103AD0000549024600200969114200D001207047C3
:103AE0000149486170470000000005502DE9F0438E
:103AF000016821F0010101600021016041608160E5
:103B0000C160016121214161B849B84A3D251039A0
:103B1000904202D18D60BDE8F083B44A4FF47466E0
:103B20001832904201D18E60F5E7B04A4FF4741715
:103B30003032904201D18F60EDE7AC4A4FF0746CA7
:103B40004832904202D1C1F808C0E4E7A74BA84A26
:103B50006033984201D1CA60DDE7A44CA54B7834AC
:103B6000A04201D1CB60D6E7DFF88082A24C08F1F9
:103B70009008404501D1CC60CDE7DFF870824FF06E
:103B80003D5908F1A808404502D1C1F80C90C2E7A0
:103B90009A49DFF868820839404501D10D60BAE7DB
:103BA000964D1835A84201D10E60B4E7934D3035DB
:103BB000A84201D10F60AEE7904D4835A84202D12E
:103BC000C1F800C0A7E78D4D8C496035091FA84298
:103BD00001D10A609FE7894A7832904201D10B6097
:103BE00099E7864A9032904201D10C6093E7834A6C
:103BF000A83290428FD1C1F800908CE730B50368AD
:103C00007F4ACC6813400A682243D1E905452C431A
:103C10002243CC6922430C6A22434C6A22438C6AB9
:103C200022434C6B22438C6B22431A43026042694D
:103C300022F00703D1E90B2422431A4342610A69A7
:103C400042604A6882608968C16030BD00210160BD
:103C500041608160C160016141618161C161016256
:103C600041628162C16201634163816370470029DF
:103C7000016802D041F0010101E021F00101016081
:103C800070470029016802D041F4004101E021F4AD
:103C90000041016070470029016802D041F0200115
:103CA00001E021F0200101607047416070474068E9
:103CB00080B27047002A026802D042F4002201E07C
:103CC00022F400220260016170470029016802D0DD
:103CD00041F4802101E021F48021016070470AB1A4
:103CE00001617047C16070470146002009680903FF
:103CF00000D501207047014600200968C90700D09F
:103D000001207047406900F03800704702463B4B85
:103D100000209A4202D2354A103A01E0374A103A5E
:103D20008B0001D5526800E01268364B1A400A42F7
:103D300000D001207047314A904202D22B481038FF
:103D400001E02E4810382F4A8B0001EA020101D50C
:103D5000C1607047816070470B0607D5436912B197
:103D600043F0800301E023F080034361802908D001
:103D7000002A026801F01E0101D00A4300E08A43D4
:103D80000260704730B51D4A0024904202D2174AA3
:103D9000103A01E0194A103A1B4B194205D01E2374
:103DA00003EAD12503682B4002E0406900F080035C
:103DB000880001D5506800E01068124A104008429F
:103DC00001D003B10124204630BD0C4A904202D2FA
:103DD0000648103801E0094810380A4A8B0001EA09
:103DE000020101D5C16070478160704710600240D8
:103DF0003D000020400F002000003D2010640240E4
:103E00003F801CF07D0F7D0F3C0F3C0F8100A1F126
:103E1000C04140B143F2D20008606FF0704048608A
:103E2000C1F8040170474FF0204243F2DB001060FC
:103E3000F3E710B5D0E901121143D0E903231A4387
:103E400011434269114382691143C2691143026AF5
:103E50001143426A1143826A1143C26A1143026BE1
:103E6000114302689200A2F1C042116081680829E2
:103E700007D101688900A1F1C0410A6842F04002FF
:103E80000A60416BD1E9002342EA03128B688C89F6
:103E90001B0243EA04431A430B8A42EA03520B7D96
:103EA000896942EA03620A4301688900A1F1C041BD
:103EB0004A60C16AB1F5804F08D000686FF0704168
:103EC0008000A0F1C040C0F8041110BD816BD1E9A1
:103ED000002342EA03128B680C8A1B0243EA045354
:103EE0001A430B7D896942EA036200680A43800035
:103EF000A0F1C040C0F8042110BD10B5002102227D
:103F0000C0E900128160C160016141618161D2023A
:103F1000C161C0E908125200C0E90A210163436B84
:103F20000F221A60436B5A60446BFF23A360446BFB
:103F3000E260446B2261446B6261446BA161846BFB
:103F40002260846B6260846BA360836BDA60836B36
:103F50001A61836B5A61806B816110BD8000A0F192
:103F6000C0400029016802D041F0010101E0C54ACA
:103F700011400160704710B5182340244FF02041D4
:103F80004FF0FC32102805D041F8803F4C608A6029
:103F9000CA6010BD0B664C668A66CA6610BD30B535
:103FA000D0E901121143D0E903231A4311434269B6
:103FB00041EA4221826941EA423141F00804C16983
:103FC000D1E9002342EA03220B89097B1B0443EA5F
:103FD00001610A43016AD1E9003543EA05230D89ED
:103FE000097B2D0445EA01610B4301684FF0204035
:103FF000102904D040F8804F8260C36030BD046651
:104000008266C36630BD102101600021416081607D
:10401000C160016141618161C269FC211160C269B5
:104020005160C2699160C269D160026A1160026A1E
:104030005160026A9160006AC16070474FF020428F
:1040400051B1102804D052F8800F40F004000AE06B
:10405000106E40F004000AE08A49C91E102804D0FE
:1040600052F8800F084010607047106E08401066CC
:1040700070474FF0204251B1102804D052F8800F01
:1040800040F040000AE0106E40F040000AE07D4938
:104090003F39102804D052F8800F08401060704754
:1040A000106E0840106670474FF02041102802D073
:1040B000D1F894007047486F70474FF020401821A6
:1040C00040F8A01F002141604FF0FC318160C160C9
:1040D0000161704710B5D0E9001241EA42218268BF
:1040E000102343EA423211434FF0204242F8A01F0E
:1040F000C168D1E9003443EA04230C89097B240414
:1041000044EA01610B4393600169D1E9003443EA59
:1041100004230C89097B240444EA01610B43D36026
:104120004069D0E9001341EA03210389007B1B04A5
:1041300043EA00600143116110BD0021016041604C
:104140008160C268FC211160C2685160C2689160E0
:10415000C268D160026911600269516002699160B0
:104160000269D1604269116042695160426991609F
:104170004069C16070474FF02041002851F8A00FFE
:1041800002D040F0040002E03E4AD21E1040086017
:10419000704710B54FF480744FF0204372B110286F
:1041A00004D0A04205D153F8840F04E0586E0843B0
:1041B0000DE053F8A40F0843186010BD102804D078
:1041C000A04206D153F8840F05E0586E8843586624
:1041D00010BD53F8A40F8843EEE7034600204FF0CC
:1041E0002042102B08D0B3F5807F07D0D2F8A4204E
:1041F0000A4200D001207047526EF9E7D2F88420BD
:10420000F6E74FF02042102807D0B0F5807F08D0A5
:1042100052F8A40F884310607047506E8843506670
:10422000704752F8840FF5E7034600204FF0204214
:10423000102B0CD0B3F5807F0BD0D2F8A4200A420B
:1042400002EAD10102D0002900D001207047526E4D
:10425000F5E7D2F88420F2E74FF02042102808D08A
:10426000B0F5807F0AD052F8A40F20EAD100106088
:104270007047506E20EAD1005066704752F8840FA4
:10428000F3E70000FEFF0F00714910B5884206D128
:104290000121084600F0E0FB002101204FE06D49BC
:1042A000884206D10121022000F0D6FB0021022025
:1042B00045E06949884206D10121042000F0CCFB89
:1042C000002104203BE06549884206D101210820F5
:1042D00000F0C2FB0021082031E06149884206D18C
:1042E0000121102000F0B8FB0021102027E05D49DB
:1042F000884206D10121202000F0AEFB00212020C1
:104300001DE05949884206D10121402000F0A4FB5C
:104310000021402013E05549884206D10121802028
:1043200000F09AFB0021802009E0514988420AD11F
:1043300084150121204600F08FFB00212046BDE8B6
:10434000104000F089BB10BDF0B5002201274FF0EE
:10435000030C0B6807FA02F52B40AB422CD1066820
:1043600053000CFA03F4A64306600E79D0F800E07F
:104370009E4046EA0E0606600E79012E01D0022EFE
:1043800012D18668A64386604E79D0F808E09E4038
:1043900046EA0E0686604668AE43466045688E79FA
:1043A0009640B6B235434560C568A543C560CC7933
:1043B0009C40C3681C43C460521C102AC9D3F0BD82
:1043C0004FF6FF7101600021017141718171C1716E
:1043D000704708B541F480320092C261C161009912
:1043E000C161C169C069009008BD02460020126920
:1043F0000A4200D001207047006980B2704702462F
:10440000002052690A4200D001207047406980B202
:10441000704701837047418370470AB10183704739
:10442000418370474161704742694A404261704729
:104430004B07DB0E9A40C90810B500EB8100016AFA
:104440000F249C40A1430162016A1143016210BD27
:10445000000002400004024000080240000C02403C
:10446000001002400014024000180240001C0240EC
:1044700000200240C94910B5884202D101214C05F3
:104480000AE0C749884202D101218C0504E0C549F0
:1044900088420AD10121CC05204600F0FBFA2046D3
:1044A000BDE81040002100F0F5BA10BD7FB504460C
:1044B00080880D4620F03F06684600F037FABA497A
:1044C0000298B0FBF1F189B20E43A680228822F057
:1044D00001022280B54B2A689A421BD85200B0FBD9
:1044E000F2F080B2042800D20420491C2184A08369
:1044F000208840F00100208020884FF6F5310840E8
:10450000A9886A89114301432180A8892989084320
:1045100020817FBDEB88A3F53F46FF3E0BD002EB29
:10452000C20303EB0212B0FBF2F080B240F4804011
:10453000020506D007E002EB4202B0FBF2F080B2C7
:10454000F6E740F001004FF4967251434FF47A724F
:10455000B1FBF2F140F40040C7E741F2883101605D
:10456000002181804BF6FF72C280018141814FF4AE
:104570008041818170470029018802D041F001010A
:1045800001E021F00101018070470029018802D07B
:1045900041F4807101E021F48071018070470029AD
:1045A000018802D041F4007101E021F40071018022
:1045B000704712B141F0010101E001F0FE010182FA
:1045C00070470029018802D041F4806101E021F4A4
:1045D000806101807047828901F0FE0122F0FE02B5
:1045E0001143818170470029818902D041F0010186
:1045F00001E021F00101818170470029018802D08A
:1046000041F0400101E021F04001018070470029A4
:10461000018802D041F4004101E0C1F30E010180A4
:1046200070470029018803D021F080010180704784
:1046300041F08001FAE7B1F5804F818B02D021F47F
:10464000804101E041F4804181837047B1F5006F02
:10465000018803D021F400610180704741F40061BA
:10466000FAE7B1F5005F018803D021F40051018021
:10467000704741F40051FAE70029018802D041F067
:10468000100101E021F010010180704701827047A4
:10469000008AC0B270470029018802D041F48051DD
:1046A00001E021F4805101807047B1F5006F01886D
:1046B00003D021F400610180704741F40061FAE702
:1046C0000029018802D041F0200101E021F0200101
:1046D00001807047008B000A70470029818802D052
:1046E00041F4006101E021F40061818070470029FC
:1046F000818802D041F4805101E021F48051818011
:10470000704708B508440090008808BD002A8288D8
:1047100001D00A4300E08A438280704703460020AC
:104720009A8A1B8B42EA034222F07F42914300D1D6
:1047300001207047818A008B41EA004121F07F40CF
:1047400070470CB50246002000920A0F21F07F410D
:10475000019202D0009A143202E0009A090C183239
:10476000009212680A4200D001200CBDC943818228
:10477000704710B5034600209A884FF4E06404EABD
:1047800011449B8A224021F07F410B4202D0002A33
:1047900000D0012010BDC943818270470054004001
:1047A00000580040005C004040420F00A08601001D
:1047B000EA48016841F001010160E84A002108323D
:1047C00011600268E64B1A400260031DE54A1A6058
:1047D000026822F480220260E0480C3001607047D9
:1047E000DE490022891C0A700870704702460020CA
:1047F000510901290CD002290CD0D849743109681B
:1048000002F01F02012393400B4200D001207047A9
:10481000D249F4E7D1497031F1E718B500204FF4DF
:10482000A06400903120FFF7E1FF0099491C00913E
:10483000A14201D00028F5D03120FFF7D7FF002892
:1048400000D0012018BDC54A116821F0F80141EAE5
:10485000C00010607047C44908607047BF4900221B
:1048600070310A700A70012802D0042801D1052095
:1048700008707047BD490860704741EA82115A08C4
:1048800010B5BB4B029C03EB02421143014341EACA
:104890000460B249091D086010BDB349086670473D
:1048A000800140EA0170AD49843108607047AE492B
:1048B00088667047AC49C8647047A84B08331A68CB
:1048C000084322F0EC62104318607047A34B083392
:1048D0001A68084322F078421043186070479F4AD4
:1048E0000832116821F003010143116070479B48B1
:1048F0000830006800F00C007047984A08321168D0
:1049000021F0F001014311607047944A08321168A8
:1049100021F4E051014311607047904A0832116858
:1049200021F4604141EAC0001060704770B58B4BC4
:10493000083319688F4C11F00C0104D0661004295B
:1049400003D0082903D004601BE0066019E0834A05
:10495000121D1168C1F38055116801F03F0115B1B6
:10496000B6FBF1F101E0B4FBF1F114681268C4F395
:1049700088146143C2F30142521C5200B1FBF2F1B0
:10498000016019680F2202EA11117B4A545C016828
:10499000E14041601C68072505EA9424145D21FA72
:1049A00004F484601B6805EA5333D25CD140C160D3
:1049B00070BDC0F30121032908D1684B0833196881
:1049C0006E4A21F4F81102400A431A6063497031BB
:1049D0000A68C0F30B0002430A6070476349443918
:1049E0000860704761494039086070475E49C1F806
:1049F0005C017047594A30320029116801D00143E7
:104A000000E0814311607047544A34320029116834
:104A100001D0014300E08143116070474F4A3832B2
:104A20000029116801D0014300E081431160704703
:104A30004A4A40320029116801D0014300E0814315
:104A400011607047454A44320029116801D0014382
:104A500000E0814311607047404A1032002911681C
:104A600001D0014300E08143116070473B4A14329A
:104A70000029116801D0014300E0814311607047B3
:104A8000364A18320029116801D0014300E0814301
:104A900011607047314A20320029116801D001436A
:104AA00000E08143116070472C4A243200291168CC
:104AB00001D0014300E0814311607047274A503222
:104AC0000029116801D0014300E081431160704763
:104AD000224A54320029116801D0014300E0814389
:104AE000116070471D4A58320029116801D00143F6
:104AF00000E0814311607047184A60320029116854
:104B000001D0014300E0814311607047134A6432D1
:104B10000029116801D0014300E081431160704712
:104B20000E4A0D320029117801D0014300E0814383
:104B30001170704709487430016841F0807101605C
:104B400070470146054A00200C3212680A4200D024
:104B50000120704701490E3108707047003802404B
:104B6000FFFFF6FE1030002400004742800E47424F
:104B70000000FFFF0024F4000C000020FFFCFF0FEA
:104B8000C74910B5884206D101211020FFF78CFFDC
:104B90000021102028E0C349884202D101214C04A1
:104BA00010E0C149884202D101218C040AE0BF49CA
:104BB000884202D10121CC0404E0BD4988420AD1D7
:104BC00001210C052046FFF765FF2046BDE8104097
:104BD0000021FFF75FBFB749884209D1012120209A
:104BE000FFF762FF00212020BDE81040FFF75CBF07
:104BF00010BD7FB50446008A0D46C98820F4405098
:104C000001432182A08941F20C618843A9882A8945
:104C100011436A8902431143A181A08A20F44071A3
:104C2000A8890843A0826846FFF780FE9C4884421A
:104C300002D0A048844201D1039800E00298A189E3
:104C4000090400EBC00101EB0010296801D54900FF
:104C500000E08900B0FBF1F06422B0FBF2F1090141
:104C60000B096FF018056B4300EB8300A3891D044B
:104C70004FF0320306D503EBC000B0FBF2F000F0BA
:104C8000070005E003EB0010B0FBF2F000F00F00AE
:104C9000084320817FBD4FF41651016000218180BF
:104CA000C18001810C2242818181704710B5028A46
:104CB0004C8822F470630A8822438C88C9880C438C
:104CC00022431A43028210BD00210180418081806D
:104CD000C18070470029818902D041F4005101E070
:104CE00021F4005181817047028B02F47F420283DC
:104CF000028B0A43028370470029818902D041F464
:104D0000004101E0C1F30E01818170470029818AD1
:104D100002D041F4006101E021F40061818270471A
:104D2000C1F30801818070478088C0F30800704794
:104D3000028A22F00F020282028A0A43028270472C
:104D40000029818902D041F0020101E021F0020135
:104D500081817047828922F40062828182890A43BC
:104D600082817047028A22F020020282028A0A436C
:104D7000028270470029018A02D041F4804101E09B
:104D800021F4804101827047818941F001018181D4
:104D900070470029818A02D041F0080101E021F02A
:104DA000080181827047028BD2B20283028B42EAF1
:104DB0000121018370470029818A02D041F020013E
:104DC00001E021F02001818270470029818A02D010
:104DD00041F0100101E021F0100181827047828AC8
:104DE00022F004028282828A0A438282704700296A
:104DF000818A02D041F0020101E021F002018182AA
:104E00007047002A828A01D00A4300E08A438282E6
:104E1000704710B5C1F3421301F01F040121A140F6
:104E2000012B07D0022B07D01430002A026805D0CE
:104E30000A4304E00C30F8E71030F6E78A430260DA
:104E400010BD0246002012880A4200D0012070479F
:104E5000C9430180704770B501F01F050126002489
:104E6000C1F3421306FA05F2012B0FD0022B0FD02B
:104E7000838A4FEA11210088134206FA01F600EAFC
:104E8000060001D000B10124204670BD8389F0E7FF
:104E9000038AEEE70A0A01219140C9430180704765
:104EA000001001400044004000480040004C004019
:104EB00000500040001401400CB5002254490092FB
:104EC0000192086840F4803008604FF4A0630868DD
:104ED00000F4003001900098401C0090019810B937
:104EE00000989842F3D10868800334D501200190DE
:104EF00047484030026842F08052026045480268EC
:104F000042F480420260424808300268026002684F
:104F100042F400420260026842F4A0520260031FA1
:104F20003D4A1A600A6842F080720A600A6892017B
:104F3000FCD53A4940F205620A60016821F003019C
:104F40000160016841F0020101600168C1F3810163
:104F50000229FAD10CBD01920CBD314810B501688F
:104F600041F4700101602A48016841F001010160CB
:104F7000274A00210832116002682A4B1A40026059
:104F8000031D294A1A60026822F480220260204828
:104F90000C300160FFF790FF21494FF0006080392D
:104FA000086010BD70B51A4D083528681F4B2049A0
:104FB00010F00C0004D05E10042803D0082803D0A1
:104FC0000B601BE00E6019E0114A121D1068C0F35F
:104FD0008054106800F03F0014B1B6FBF0F001E01F
:104FE000B3FBF0F013681268C3F388135843C2F39D
:104FF0000142521C5200B0FBF2F0086028680C4AD3
:10500000C0F30310121D105C0A68C2400A6070BD34
:10501000003802400070004008544007003C024045
:1050200088ED00E0FFFFF6FE103000240024F400BD
:105030001C000020704700000FB4044910B503AAFB
:10504000029800F0B5F910BC5DF814FB08000020D0
:105050000FB41CB5074B06AA7B446946009005981F
:1050600000F077F90020694600F086F91CBC5DF875
:1050700014FB00001D0300002DE9F0410E4604461C
:10508000002020622046E168884730B3252805D0FB
:10509000D4E901219047206A401CF2E7E1682046EC
:1050A00000278847050018D0A5F14100192802D82B
:1050B00020354FF400673246294620462760FBF72B
:1050C0009DF840B1012804D0F61D26F007060836E9
:1050D000D8E7361DD6E72846DAE7206ABDE8F08132
:1050E00070B50C460546012A05D02878800600D503
:1050F000EA69002302E0012305E05B1C934202D22F
:10510000E05C0028F9D1A869E618C01AA861286AED
:10511000184428622846AFF3008004E0D5E9012155
:1051200014F8010B9047B442F8D32846AFF300803F
:1051300070BD00002DE9F041064600241068752975
:10514000314616A510D0AFF30080002802DA4042A5
:1051500013A507E031688A0701D512A502E04907C7
:1051600004D511A5012401E0AFF3008000210A223B
:1051700006F1240709E0B0FBF2FCB0FBF2F302FBFE
:105180001C00303078541846491C0028F3D12346BF
:105190002A463046BDE8F04100F07DB8000000002E
:1051A0002D0000002B0000002000000070B5044618
:1051B0000D4621461068AFF300802188090502D50D
:1051C0000F4A7A4402E00E4A7A440E32002104F17A
:1051D000240305E000F00F060009965D5E54491CAB
:1051E0000028F7D120780023000704D5702D02D0C5
:1051F00009B1022311322046BDE8704000F04BB8DF
:10520000E8080000032A40F2308010F0030C00F0A0
:10521000158011F8013BBCF1020F624498BF11F8F0
:1052200001CB00F8013B38BF11F8013BA2F10402A9
:1052300098BF00F801CB38BF00F8013B11F0030321
:1052400000F0C880083AC0F0088051F8043B083AE2
:1052500051F804CBA0E80810F5E7121D5CBF51F827
:10526000043B40F8043BAFF30080D20724BF11F8A1
:10527000013B11F801CB48BF11F8012B24BF00F806
:10528000013B00F801CB48BF00F8012B7047704785
:105290007047704770472DE9F0470D469946924692
:1052A000044600F124080168880604D5E06921F06D
:1052B0001001216000E00120A84201DD471B00E051
:1052C0000027A1697A1902EB0900081AA061207869
:1052D000C00602D42046AFF30080002608E0D4E9DF
:1052E00001211AF806009047206A401C761C2062B3
:1052F0004E45F4DB2078C0060AD52046AFF3008087
:1053000006E0D4E9012130209047206A401C206249
:10531000381EA7F10107F4DC07E0D4E9012118F8F1
:1053200005009047206A401C2062281EA5F1010557
:10533000F3DC2046AFF300802078000602D502207F
:10534000BDE8F0870120FBE701694A1C026108788B
:10535000704700B58FB0CDE90131002105910549B5
:105360007944CDE9031011466846FFF785FE0FB07A
:1053700000BD0000E5FFFFFF0A6802F8010B0A60AC
:10538000704710B5436913B1AFF3008001E0FFF738
:10539000A7FE012010BD127800F124010A7000223E
:1053A0004A700122EDE711684FF0FF32E9E7000093
:1053B000074B70B50D467B44FFF7CBFF04462846EC
:1053C00000F03AF810B14FF0FF3070BD204670BDCC
:1053D00077CEFFFF10B5203AC0F00B80B1E818502F
:1053E000203AA0E81850B1E81850A0E81850BFF4CF
:1053F000F5AF5FEA027C24BFB1E81850A0E818506E
:1054000044BF18C918C0BDE810405FEA827C24BFC1
:1054100051F8043B40F8043B08BF7047D20728BF4F
:1054200031F8023B48BF11F8012B28BF20F8023B9E
:1054300048BF00F8012B7047007B00F080007047E8
:10544000754600F02BF8AE4605006946534620F03D
:105450000700854618B020B5FEF742FABDE82040A7
:105460004FF000064FF000074FF000084FF0000B20
:1054700021F00701AC46ACE8C009ACE8C009ACE8D3
:10548000C009ACE8C0098D46704710B50446AFF3BB
:1054900000802046BDE81040FAF7CABE00487047B9
:1054A000300000204FF0C04210800148018070475A
:1054B000000002604FF04070E1EE100A70470000FB
:1054C00000000000000000000000000000000000DC
:1054D00000183C3C3C1818001818000000000000A0
:1054E000006666660000000000000000000000008A
:1054F0000036367F3636367F36360000000000181C
:10550000183C666030180C06663C18180000000055
:1055100070D8DA760C18306E5B1B0E0000000000AD
:1055200000386C6C38606F66663B0000000000005D
:105530000018181800000000000000000000000023
:10554000000C1818303030303018180C00000000F3
:10555000003018180C0C0C0C0C181830000000004F
:10556000000000361C7F1C36000000000000000018
:1055700000000018187E181800000000000000004D
:1055800000000000000000001C1C0C1800000000BF
:1055900000000000007E000000000000000000008D
:1055A00000000000000000001C1C000000000000C3
:1055B0000006060C0C181830306060000000000077
:1055C000001E333737333B3B331E00000000000022
:1055D000000C1C7C0C0C0C0C0C0C000000000000DF
:1055E000003C6666060C1830607E0000000000007B
:1055F000003C6666061C0666663C00000000000073
:10560000003030363636667F0606000000000000A7
:10561000007E6060607C06060C78000000000000E0
:10562000001C18307C666666663C000000000000C6
:10563000007E060C0C18183030300000000000000E
:10564000003C6666763C6E66663C0000000000002A
:10565000003C666666663E0C1838000000000000DC
:105660000000001C1C0000001C1C000000000000CA
:105670000000001C1C0000001C1C0C180000000096
:1056800000060C18306030180C0600000000000006
:10569000000000007E007E0000000000000000000E
:1056A000006030180C060C1830600000000000008C
:1056B000003C66660C181800181800000000000076
:1056C000007EC3C3CFDBDBCFC07F00000000000043
:1056D00000183C6666667E66666600000000000094
:1056E000007C6666667C6666667C000000000000E2
:1056F000003C666660606066663C0000000000007A
:1057000000786C66666666666C78000000000000D3
:10571000007E6060607C6060607E000000000000D1
:10572000007E6060607C60606060000000000000DF
:10573000003C666660606E66663E00000000000029
:1057400000666666667E66666666000000000000AB
:10575000003C181818181818183C00000000000029
:105760000006060606060666663C0000000000000D
:105770000066666C6C786C6C666600000000000069
:105780000060606060606060607E0000000000009B
:10579000006363776B6B6B63636300000000000062
:1057A000006363737B6F6763636300000000000046
:1057B000003C666666666666663C000000000000A7
:1057C000007C6666667C606060600000000000002F
:1057D000003C666666666666663C0C060000000075
:1057E000007C6666667C6C666666000000000000F1
:1057F000003C666030180C06663C000000000000AB
:10580000007E18181818181818180000000000005A
:105810000066666666666666663C0000000000001C
:1058200000666666666666663C180000000000005A
:10583000006363636B6B6B3636360000000000005C
:105840000066663418182C666666000000000000CA
:1058500000666666663C1818181800000000000014
:10586000007E06060C183060607E0000000000001C
:10587000003C303030303030303030303C000000D0
:10588000006060303018180C0C06060000000000A4
:10589000003C0C0C0C0C0C0C0C0C0C0C3C00001800
:1058A0003C66000000000000000000000000000056
:1058B000000000000000000000000000FF000000E9
:1058C0000018181800000000000000000000000090
:1058D0000000003C06063E66663E00000000000038
:1058E0000060607C66666666667C00000000000002
:1058F0000000003C66606060663C00000000000044
:105900000006063E66666666663E00000000000011
:105910000000003C66667E60603C00000000000005
:10592000001E3030307E303030300000000000008B
:105930000000003E66666666663E06067C00000065
:105940000060607C666666666666000000000000B7
:105950001818007818181818187E000000000000A9
:105960000C0C003C0C0C0C0C0C0C0C0C780000000B
:1059700000606066666C786C66660000000000007F
:105980000078181818181818187E00000000000079
:105990000000007E6B6B6B6B6B630000000000000F
:1059A0000000007C66666666666600000000000017
:1059B0000000003C66666666663C00000000000071
:1059C0000000007C66666666667C606060000000C1
:1059D0000000003E66666666663E0606060000003B
:1059E000000000666E7060606060000000000000F3
:1059F0000000003E60603C06067C000000000000E5
:105A00000030307E30303030301E000000000000AA
:105A10000000006666666666663E000000000000E4
:105A200000000066666666663C1800000000000024
:105A3000000000636B6B6B6B3636000000000000EB
:105A400000000066663C183C66660000000000002E
:105A50000000006666666666663C0C18F000000092
:105A60000000007E060C1830607E00000000000080
:105A7000000C1818183060301818180C00000000BE
:105A800000181818181818181818181818000000F6
:105A900000301818180C060C1818183000000000F8
:105AA0000071DB8E000000000000000000003031BB
:105AB0003233343536373839414243444546403035
:105AC00058003031323334353637383961626364E7
:105AD0006566403078000000F85A00080000002099
