:020000040001F9
:1000000088050020650101000F11010009110100A0
:1000100000000000000000000000000000000000E0
:100020000000000000000000000000001F1101009F
:10003000000000000000000011110100211101006A
:10004000A71201001311010017110100A5120100F0
:1000500015110100770101008D10010077010100E9
:100060001D11010077010100891001008B100100B2
:1000700077010100F90F0100391001009B10010008
:100080007701010097100100991001008F10010005
:100090009110010093100100951001000B11010057
:1000A0000D110100191101001B11010025110100A2
:1000B000770101007701010077010100991101002A
:1000C00000F002F800F03EF80CA030C80838241800
:1000D0002D18A246671EAB4654465D46AC4201D180
:1000E00000F030F87E460F3E0FCCB6460126334274
:1000F00000D0FB1AA246AB4633431847801C0000D1
:10010000A01C0000103A02D378C878C1FAD8520770
:1001100001D330C830C101D504680C6070470000BD
:100120000023002400250026103A01D378C1FBD813
:10013000520700D330C100D50B6070471FB51FBDFB
:1001400010B510BD00F025FF1146FFF7F7FF01F0D5
:1001500087F900F03DFF03B4FFF7F2FF03BC00F0A6
:1001600043FF00000748804707480047FEE7FEE7D7
:10017000FEE7FEE7FEE7FEE704480549034A054BB4
:100180007047000023110100C10001008801002018
:10019000880500208801002070B500252C46AD1A86
:1001A0009C4112DA00252C462D1A8C4102DA00F00F
:1001B0006FFE70BD002440428C41214600F068FE75
:1001C000002440428C41214619E000252C462D1A7E
:1001D0008C410ADA002452429C41234600F058FE2A
:1001E000002440428C41214670BD002452429C4173
:1001F0004042234600248C41214600F049FE002461
:1002000052429C41234670BD01E004C0091F0429ED
:10021000FBD28B0701D50280801CC90700D0027079
:10022000704700290BD0C30702D00270401C491E42
:10023000022904D3830702D50280801C891EE3E7CC
:100240000022EEE70022DFE7002203098B422CD3D5
:10025000030A8B4211D300239C464EE003460B4316
:100260003CD4002243088B4231D303098B421CD378
:10027000030A8B4201D394463FE0C3098B4201D36A
:10028000CB01C01A524183098B4201D38B01C01AA2
:10029000524143098B4201D34B01C01A5241030919
:1002A0008B4201D30B01C01A5241C3088B4201D3C8
:1002B000CB00C01A524183088B4201D38B00C01A75
:1002C000524143088B4201D34B00C01A5241411A9C
:1002D00000D201465241104670475DE0CA0F00D07F
:1002E0004942031000D34042534000229C46030978
:1002F0008B422DD3030A8B4212D3FC22890112BAFE
:10030000030A8B420CD3890192118B4208D38901D5
:1003100092118B4204D389013AD0921100E08909ED
:10032000C3098B4201D3CB01C01A524183098B42CE
:1003300001D38B01C01A524143098B4201D34B01B7
:10034000C01A524103098B4201D30B01C01A52411A
:10035000C3088B4201D3CB00C01A524183088B42A1
:1003600001D38B00C01A5241D9D243088B4201D32A
:100370004B00C01A5241411A00D201466346524115
:100380005B10104601D34042002B00D54942704714
:1003900063465B1000D3404201B50020C046C04612
:1003A00002BD704770477047F0B50C46871A9C41F4
:1003B0000D46861A9D4103D2C01BA141D21963414B
:1003C0000D0D1F0DC94EEC1BAE435CD07F057F0D9C
:1003D0000026002F51D02D05AC46A943DD02012394
:1003E000ED0A1B051D4320231B1B24D41746E740A1
:1003F000381871412F46E740CC199D4028183146E6
:1004000061410C0D27D161449A4013D50023401C53
:10041000594152000ED14008400001224B005205C4
:10042000D34207D305204007C14201D5B04900E0BF
:10043000B0493046F0BD6B00002A00D001229A1866
:100440001F23203C1B1B01D5002302E0E540281898
:1004500071410C0DD7D0012424050919C407CD071B
:1004600040084908E40F28436144002CD5D00024FB
:10047000401C61419A40D0D1CDE76A05520DD9D1D7
:10048000C90FC907D5E79C4D4E00002801D00124B3
:1004900000E0002434195F00002A01D0012600E0AA
:1004A0000026BE19954FAC420CD8AE420AD8B442D1
:1004B00006D001256D05EC42BCD010461946F0BDB2
:1004C0009942FCD000203946F0BDF0B51FB40C466F
:1004D0000F46811A9F412546861A9D4106D2012565
:1004E000ED076F40401ABC4152187B41210D1E0D93
:1004F0008D1BAC467D4D8D437ED075056D0D7CD03A
:100500000D05AE46AC431B031B0B794D52429D417A
:10051000202366469B1B14D31746F7403818002645
:100520000090744160462F460741E41900989D40B1
:100530002818664116D4714671189A4025D50123B2
:1005400020E093182A466A415200002B00D0521C2A
:100550001E23203E9B1B002B61DD3541EE17281822
:100560006641E8D5001876415B1C9A4000D3401CD8
:100570004B05F3181524E34010D3002B52D07146DD
:100580007118D30FC01802D3491C05B0F0BD012368
:10059000DB079A42F9D140084000F6E701225205F4
:1005A000B21801D1002853D00123CC0ADB029943B1
:1005B000891E002A08D1020C03D0020C0004103955
:1005C00002E00246002020390023550B05D112021B
:1005D0000823550B01D152010D23550C01D11201F5
:1005E0001B1DD50C01D192009B1C150D01D1520091
:1005F0005B1C2025EE1A01E02CE022E00546F540C8
:1006000015439840CA1AE10769181305C918002A4A
:10061000BBDA032040070818C10FC9070FE0714675
:100620006118B2E7F10740080843711071444A00AD
:100630000CD001235B059A42A7D2C90FC90700203D
:10064000A3E74905490D26D1002001E00028F4D197
:1006500000219AE7284D6600002801D0012100E022
:10066000002171185F00002A01D0012600E0002659
:10067000BE19224FA94210D8AE420ED8B14208D0BE
:1006800001256D05E94206D01946A80241401046F1
:100690007BE79C4201D0214677E70020394674E78A
:1006A00010B50C465C4005D50124E4076340FFF714
:1006B0000CFF10BDFFF778FE10BD30B40C465C4057
:1006C00004D50124E407634030BC6DE630BCFCE691
:1006D00070B50124E40761400D465D4002D4FFF788
:1006E00063FE70BD6340FFF7F0FE70BDFF070000C2
:1006F0000000F0FF0000F07F0000E0FF0000F87F46
:10070000F0B5F94D0C091E092C402E402F468BB038
:10071000A7437DD0B543FCD0002E7AD0002CFCD06E
:100720000D465D40ED0F2543AC1BFF25AD0464195C
:100730000894C502440DC9022143500DDC02044354
:100740000120C00701430443D2020191200C110C87
:1007500000958C46010423468B430A9161460904A7
:10076000E24D8A430991010A7D444919803909788B
:1007700005464D4301266D18F605751B6943C90CE6
:10078000640B891C4C436418B5012C1B250C2E04EA
:10079000B4434C434D43210C691889090591009DD0
:1007A000E90701D00121C90704912C460199670886
:1007B000CD072F434C08059DE10B4D432D0C2946D9
:1007C0006646754302950D4645432E46029D7D1BA8
:1007D000B44100950D465D4301942C0C2F040D4649
:1007E0005543AE462D0C3D43029503947546049C3B
:1007F0002D04641B049406D2029C039D641C0026F5
:1008000075410395029401AC70CC009F7D1B01E003
:100810003EE162E1B4410904009507910194059914
:10082000A4086143090C0C464443650BE7040C46DD
:1008300066467443A646640B3C4303950294744693
:10084000049DE4042C1B049406D2029C039D641CAA
:10085000002675410395029401AC70CC009F7D1B6E
:10086000B44101940C465C430095650FE7000C46CB
:100870005443A646640F3C43039502947446049D7A
:10088000E4002C1B049406D2029C039D641C0026E9
:1008900075410395029401AC70CC009F7D1BB4415F
:1008A000AE09AF06049DC900AD092F43049DA406FF
:1008B000AD060495079D344369180791059DE10B2A
:1008C0004D432D0C29466646754302950D4645431A
:1008D0002E46029D7D1BB44100950D465D4301945B
:1008E0002C0C2F040D465543AE462D0C3D4302956E
:1008F00003947546049C2D04641B049406D2029C48
:10090000039D641C002675410395029401AC70CCD4
:10091000009F7D1BB44101948C050694079C890AB5
:10092000611800950791019C0599A4086143090C81
:100930000D464543680BEF040D46644665436C0B5A
:100940003C43049FED047D1BAC4602D20025641C91
:100950006841009E019D371B85410846584301951B
:100960000C46460FC5005443600F28436546E4001B
:100970002C1B02D20025401C6E41019D3F1AB5413F
:100980002846BD09800628438446A009BF064E02BA
:100990000699A40676180743079D002068410A9926
:1009A000079019430020099B00906046FF191343EC
:1009B0004041E20F64003A43A4460446D71A8C41F2
:1009C000A04203D90120009020463A46C70F941850
:1009D00040416246D20F2243644664000494009C66
:1009E000BE466400D71AA446044602978C41774657
:1009F000002F01D1A04204D96046401C8446029ACF
:100A00002046C40FA64694184041049A0546D20FCA
:100A1000224364466400D31A8D417146002901D1F6
:100A2000A84202D928461A46641C10430122002815
:100A300000D0164361020020079B891904465C41DF
:100A40000223002C02DB491813466441089DCE0A9C
:100A50002D145D194B056705E10A2C050D19089940
:100A60003E43C9076940002B08D0934006D30022BB
:100A7000761C5141002B01D1760876001C4A002DCE
:100A800043DB154241D0AA433FD030460BB0F0BD06
:100A900006180D464D41174C7642AC411AD39518B5
:100AA0001C465C41134A6D42A24113D301225205F8
:100AB0004C00D4420AD15C00D4420BD04B4002D54A
:100AC00092021143E2E749004908DFE75940C90FA4
:100AD000C90718E000200849D8E7054801420DD1B0
:100AE0000342F7D0F2E700000000FF079015000076
:100AF0000000F07F0000E0FF0000F87F114859403F
:100B00000143C01241400020C0E70123089A9B0620
:100B10009A4205DC032252078918C90FC907B5E7B5
:100B2000052252078918074A1143D2125140ADE7F6
:100B300070B515461C4602460B4628462146FFF76F
:100B4000DFFD70BDFFFFFF7F0346CA02400D10B5F9
:100B500010430A1504D00124E4072043002A05DBD2
:100B60000A4CA21A04D4D040FF2A00DD002010BD98
:100B70004A00002B01D0012000E0002010180122C3
:100B80005205D042F2D8C817C04310BD1E04000061
:100B90001F22030C02D10F22000402D0030E03D047
:100BA00004E00020014670470002083A030F01D11B
:100BB0000001121F830F01D18000921E002801DB6B
:100BC0004000521E120551184205C012411810462D
:100BD0007047C10FC90700D040420122920711435C
:100BE000D6E701218907D3E7F0B58B4C0F092546DD
:100BF00089B0BD437BD01D092646AE43FAD00E46D0
:100C00005E402740F60F3E43254071D0240121422B
:100C1000FBD0FF24AD19A4042D1B039501252D0540
:100C2000DB02DB0AC9022B43C90A29431E01090161
:100C3000040F130F050121431701880B8203914311
:100C40002D098C46A90B1E438A039543B30B9A03C7
:100C500096433F09BA0B9403A74302962E467E4360
:100C60000497B6464E19D7190C460196544305977A
:100C70007E43371B7646BF1B3601B646BE0B361980
:100C800000967646BC043719009C01D3641C00947E
:100C90006400002F01D001263443029E049F754357
:100CA00066467E430496760034196E00341900942B
:100CB000029C019E1C196643751BAE460694654650
:100CC0004519059C05956C43594375460891691A69
:100CD0000191049E01465143A41B0491611A009C9A
:100CE0000791E10605D061090122114302E072E09B
:100CF0006EE06109089D00272C0A2D066918049DE5
:100D00007C412A0A2D066918019D6241AC0DAD0295
:100D10006D185441079A910D920255196141029A3A
:100D2000644658435443069B059A5A43121A131BB0
:100D30009A0E9B015B187A41010B0005C3185141C3
:100D4000220A200644195A419A4200D2491C012025
:100D50004002814203D315230226F64302E0142306
:100D60000326F6432020C51AA9401746AF40DA40B3
:100D70000A4320460399D8400914731819055118DD
:100D8000039A3843D2075140AC4009D00122944025
:100D900006D30022401C5141002C01D140084000E4
:100DA0001E4A934212D3012203989206904207DB17
:100DB0000520400709181A480143C012414004E0C9
:100DC000032040070818C10FC907002009B0F0BD73
:100DD0000020F107FAE705180C464C4111486D4216
:100DE000A04115D394181A465A410E4864429041C6
:100DF0000ED301204A004005824209D35A008242A4
:100E000006D35940C90F084AC90700201143DDE73E
:100E100000200649DAE700000000FF07FE07000097
:100E2000FFFFFF7F0000E0FF0000F07F0000F87F81
:100E300070B505464800440D124B0020002C0AD026
:100E4000634008D09A4206DA6642B24203DD1205D8
:100E50004019514170BD002C08D0002B09D0C90F9A
:100E6000C907002AF6DB084A114370BDC90FC9073C
:100E700070BD28460A03104302D00020034970BD0C
:100E8000284670BDFF0700000000F07F0000F87FDB
:100E9000FEB5054610460C46184373D0AE468C4648
:100EA0000020AD1A01469C4167D366460027012405
:100EB0003D46B61A9D4102D313463A462124654663
:100EC00076462F04360C3E432D0CB61A9D4104D3B2
:100ED000150C1B042B4312041034654676462F066E
:100EE000360A3E432D0AB61A9D4104D3150E1B0245
:100EF0002B4312020834654676462F0736093E43D7
:100F00002D09B61A9D4104D3150F1B012B43120165
:100F1000241D65467646AF07B6083E43AD08B61AAF
:100F20009D4104D3950F9B002B439200A41C654662
:100F30007646EF0776083E436D08B61A9D411AD3F0
:100F400092185B41641C16E00018764665464941DC
:100F5000B71A9D410191009009D36046B11A98419A
:100F60008E468446009801990025401C6941DD07A2
:100F700052082A435B08641EE6D57246634603B0F6
:100F8000F0BDFFE700200146C046C0462A46234682
:100F9000F5E7754600F024F8AE460500694653466D
:100FA000C008C000854618B020B5FFF7E5F860BC62
:100FB00000274908B6460026C0C5C0C5C0C5C0C583
:100FC000C0C5C0C5C0C5C0C5403D49008D467047BD
:100FD00010B50446C046C0462046FFF7BCF810BD19
:100FE000004870472801002001491820ABBEFEE7E9
:100FF000260002007047000000B50D4B1878401C19
:10100000C0B2187064280DD3002018705978491C9C
:10101000C9B259700A2905D3587000F007FE586804
:10102000401C58600348016A01221143016200BD5F
:10103000DC000020002C0140FEE7000010B50C2170
:101040000F48FFF7FDF807210E48FFF7F9F80D49A3
:10105000AC2008700020487002228A70094A0121E1
:10106000083A117007496422091F0A7078224A70F1
:101070008870C870091F48708870C87010BD000063
:101080001C01002014010020FEE7FEE7FEE7FEE75A
:10109000FEE7FEE7FEE7FEE7FEE7FEE700B587B006
:1010A00000200490029001200390022001900590FE
:1010B000402000906946064800F00CFA01208002AA
:1010C000009009206946C00600F004FA07B000BD90
:1010D0000004004800B587B00020049002900390FF
:1010E000059001200190022000906946024800F01E
:1010F000F1F907B000BD00000008004810B5FFF787
:10110000E9FFFFF7CBFF10BDFEE7FEE7FEE7704704
:101110007047FEE7FEE7FEE7FEE7FEE7FEE7704703
:101120007047704700B51A48816BC903CA0F194947
:1011300020D0026C01231B041A4302644A78012A5E
:1011400018D10A78072A0ED3826AD203FCD500226E
:101150004A700A70026B1A430263C26801239B0340
:101160001A43C26006E00B4B083B5B689B5C436024
:10117000521C0A70826B5205D20F08D0026C0123F8
:101180009B021A4302640068C87000F04DF800BD6D
:1011900000380140FC000020FEE700000348002169
:1011A0008170C1700171417170470000FC00002026
:1011B0000F48104902888A4200D301800E494A79BB
:1011C000012A13D100224A710280084608380068BB
:1011D000C179DD290AD1017ADD2907D1407ADD28DC
:1011E00004D10649012008700549087070470000C5
:1011F000EC000020B80B0000FC00002007010020DC
:101200000401002007480346083B82781B68C17828
:1012100099548178491C81700179C27889180171CB
:1012200070470000FC000020144900B58A78084689
:10123000C078130000F04FF80C070A0D0F0F0F0FC6
:101240000F0F0F0F121FAC2805D000BD022802D0CF
:1012500011E000280FD1FFF7D5FF00BD074A083A7B
:101260001268D0720A79824205D1012048710020AB
:101270008870087100BDFFF791FF00BDFC000020E1
:101280000549002008704870034804490838016087
:101290000349416070470000FC0000201C01002051
:1012A00014010020FEE7FEE72021020C01D01021EE
:1012B0001046020A01D010460839020901D0104632
:1012C000091F820801D01046891E420801D0881EDD
:1012D0007047081A704730B47446641E2578641C41
:1012E000AB4200D21D46635D5B00E31830BC18477B
:1012F0000B48C16B012212041143C163C16B520040
:101300001143C163C16B52001143C163416C12119F
:1013100011434164416CC2141143416470470000A1
:101320000010024010B58AB000200F4907910890C4
:10133000059000900190029004900C4902200C4C02
:10134000039106906946204600F004FA694620465B
:1013500000F080FAFFF7CCFFFFF7D0FE00F096FC1C
:1013600000F076FC0AB010BD0100100000366E01DE
:1013700000100240F8B5294C1F26A07861780002C1
:101380000843E178F60209040843606020780128E8
:1013900033D1234D686C6F15B843686400F082F850
:1013A000204841698906C90F36D04168FA03914344
:1013B00041604168090E0906314341600268F1212C
:1013C000120A12020A4302604168C901C909416058
:1013D0004168090E09063143416061688268816095
:1013E0000268F021120A12020A43026000F048F873
:1013F000686C3843686400202070E07801280BD1C5
:10140000B078012808D1BFF34F8F08490648C8605B
:10141000BFF34F8F00BFFDE7F8BD000004010020BF
:1014200000100240002002400400FA0500ED00E038
:1014300009490020486008701F22C870D202137842
:101440000C2B01D84B7000E048705278012A01D86B
:1014500002480078887070470401002001F80000FD
:1014600072B600F041FCFFF75DFF62B677200349DA
:101470004860FFF79DFEFFF77DFFFAE70038014067
:10148000074900204A699206D20F06D08B6A0022D3
:101490008A6249698906C90F00D10120704700009E
:1014A00000200240084900204A699206D20F09D163
:1014B000064A8B6A8A62064A8B6A8A624969890689
:1014C000C90F00D0012070470020024033221100D4
:1014D00088776655FEB5064608680C461F22410807
:1014E00005E04300C807C00F18434908521E0029F1
:1014F000F7D19040FFF7D8FE0F27072820682CDC93
:10150000054660691F22019069082846009105E0A0
:101510004300C807C00F18434908521E0029F7D1DD
:101520009040FFF7C1FE81003846B76A8840874384
:1015300028461F22009905E04300C807C00F184342
:101540004908521E0029F7D19040FFF7ADFE8100F7
:10155000019888400743B7622BE06169000A1F22A7
:10156000019141080546009105E04300C807C00FFE
:1015700018434908521E0029F7D19040FFF794FE06
:1015800081003846F76A8840874328461F22009921
:1015900005E04300C807C00F18434908521E002940
:1015A000F7D19040FFF780FE810001988840074303
:1015B000F7622568A0681F220190690828460091FB
:1015C00005E04300C807C00F18434908521E002910
:1015D000F7D19040FFF768FE01460120B7698840C7
:1015E000874328461F22009905E04300C807C00F23
:1015F00018434908521E0029F7D19040FFF754FEC6
:101600000146019888400743B7612568E0681F22BA
:10161000019069082846009105E04300C807C00F03
:1016200018434908521E0029F7D19040FFF73CFEAD
:101630004100032077698840874328461F2200998C
:1016400005E04300C807C00F18434908521E00298F
:10165000F7D19040FFF728FE4100019888400743EA
:101660007761256820691F2201906908284600914A
:1016700005E04300C807C00F18434908521E00295F
:10168000F7D19040FFF710FE01460120F76988402E
:10169000874328461F22009905E04300C807C00F72
:1016A00018434908521E0029F7D19040FFF7FCFD6E
:1016B0000146019888400743F761256860681F224A
:1016C0000090690828460C4605E04300C807C00F93
:1016D00018434908521E0029F7D19040FFF7E4FD56
:1016E0004100032037698840874328461F2105E0D1
:1016F0004200E007C00F10436408491E002CF7D1D8
:101700008840FFF7D1FD41000098884007433761CA
:101710000120FEBD30B500F007FA0121084600F0B7
:1017200025FA0B4C10250DE02068A843206001210C
:10173000084600F01BFA2068284320600121084673
:1017400000F014FA20688006C00FEDD030BD000014
:1017500000100240F8B5044600680E4601273F0518
:10176000B843206020688002C00FFBD131896068D7
:101770000322120590430905084360602E4DB068AE
:101780006910002803D0012803D0022803D008469E
:1017900002E0284600E029482949FEF755FD616826
:1017A0000F221204401E914300040143616024494A
:1017B000F0684942234A411891423CD82249884264
:1017C00004D3A06880088000A0600EE01F49884212
:1017D00001D3012004E0A84201D3022000E003204D
:1017E000A168890889000143A160A068F5688007A5
:1017F000800FC01C124E854031462846FEF724FD5E
:10180000A168FF221201914300010143A160690B0D
:10181000E80432460023FEF7BFFC4103A0680C4AEF
:10182000490810400843A0602068384320602068C1
:101830008002C00FFBD0F8BD00127A00006CDC0201
:1018400000093D0000990D040048E8010024F4005F
:10185000FF0F0080F0B5A34E0D460446316987B0F6
:101860000320814301433161E869C1029E48216838
:1018700001D5014300E081432160E869C1039B4831
:10188000216801D5014300E081432160287FC10622
:1018900010200029216801DA014300E08143216022
:1018A000287FC007206802D00121084301E04008DA
:1018B00040002060288CC1058D48216E01D5014370
:1018C00000E081432166288CC007206E02D00121F0
:1018D000084301E0400840002066287FC00601D58B
:1018E000FFF718FF8348834940390A68D20203D5BD
:1018F00022689202D20FF6D00A68D20303D522687A
:101900009203D20FEFD00A68D20603D5226892065E
:10191000D20FE8D00968C90703D021688907C90F29
:10192000E1D0016AC90703D0216E8907C90FDAD057
:10193000016AC90503D5216E8905C90FD3D029785D
:1019400060680722120790430907084360602979FD
:1019500060680F22120690430906084360602969F7
:1019600060680722120390430903084360606969B5
:1019700060680F2212029043090208436060A86960
:101980006168C908C90001436160A8685A4F00280E
:1019900003D0012803D0022803D0384602E057487C
:1019A00000E0574861680903090F491CFEF74CFC29
:1019B0000190A0684000400BFFF713F91222D243B8
:1019C000FFF736FA03910490A0680005000EFFF7B8
:1019D00008F9039B049AFEF763FE03910490A06844
:1019E0008107890F0120C91C8840FFF7F2F8009099
:1019F00002910198FFF7F5F8039B049AFFF7F4F8BA
:101A0000029B009AFEF77CFEFFF79EF80146606895
:101A1000C00842073B48520F05D0012A05D0022AD0
:101A200004D0032A11D0076001E034490160364A2E
:101A3000006810606168354F0905090F0C2961685D
:101A400005D34905490F891C09E02D49EEE7090531
:101A5000090F082904D361684905490F491CC8408A
:101A6000386060682A49000B4007400F07D0606863
:101A70003B688004800F401CC3400B6001E0386865
:101A80000860E869C1012348216801D5014300E0ED
:101A90008143216020491068FEF7D6FB1549403983
:101AA000CA68FF231B029A4300020243CA601B4913
:101AB0003868884201D9032003E01949884207D9D0
:101AC00002203169890889000143316107B0F0BD06
:101AD0001449884201D90120F3E730698008800069
:101AE0003061F3E700200240000010000000010018
:101AF000000100004010024000093D0000127A0081
:101B0000006CDC02C0000020C4000020C8000020DF
:101B1000CC0000200000000140420F003FE45904C7
:101B20003FAEEB023F787D017D210D484901016008
:101B3000FF2191314160282181600B48094A4168A9
:101B4000914311434160816891438160026804219F
:101B50008A430A4302600168012211430160704711
:101B6000D0000020FFFFFF0010E000E010B50C4A9D
:101B70000D4B1268504301221206121A094809E05F
:101B80008468240E24061C43846084682402240A8A
:101B90009442FAD80C46491E89B2002CF0D110BDEF
:101BA000D000002010E000E0FFFFFF00F8B5044681
:101BB000C0680D460126F603B043E060E068771088
:101BC000B843E0600968204600F024F869682020E6
:101BD0000129E1681CD08143E160E968E0680422E2
:101BE000904389000843E0602869E168890889001A
:101BF0000143E160A968E06818229043C9000843E6
:101C0000E060E0683043E060E0683843E060F8BDE1
:101C10000143E1E710B5044A0446126848088018F9
:101C2000FEF712FBA06010BDCC000020064807495B
:101C30008278002A04D00022827088018860704770
:101C4000012282700220F9E7DC0000200008004831
:101C500008481721064A8163C263C26801210A430A
:101C6000C260054B42141A6002680A430260704762
:101C7000E7030000002C014000E100E002480021E1
:101C80000170417041607047DC00002010B586B0E3
:101C9000E120400200900020084C01900490029046
:101CA000039069462046FFF781FFE06A211508434B
:101CB000E06248040249086006B010BD00380140E7
:101CC00000E100E010B50749002048800870091DB8
:101CD00008808870091D08808870FFF7D1FAFFF727
:101CE0005DFA10BDE400002010B5FFF7C7FFFFF755
:101CF000E9FFFFF7A3F9FFF79BFB10BD80807F7E14
:101D00007D7C7B7A79787776767574737271717071
:101D10006F6E6E6D6C6C6B6A6A6968686766666523
:101D20006464636362616160605F5F5E5E5D5D5CB1
:101D30005C5B5B5A5A595958585757565655555522
:101D40005454535352525251515050504F4F4F4E82
:101D50004E4D4D4D4C4C4C4B4B4B4A4A4A494949D0
:101D60004848484747474746464645454544444412
:101D70004443434343424242424141419C1D01008E
:101D8000C00000205C00000004010100F81D0100FB
:101D90001C0100206C040000200101000000000074
:101DA0000000000000000000000000000000000033
:101DB0000000000000000000000000000000000023
:101DC0000000000000000000000000000000000013
:101DD0000000000000000000000000000000000003
:101DE00000000000000000000000000000000000F3
:081DF0000000000000000000EB
:04000005000100C135
:00000001FF
