:020000040800F2
:10000000F8A201208D02000895020008970200085E
:10001000990200089B0200089D02000800000000F1
:100020000000000000000000000000009F02000827
:10003000A102000800000000A3020008A5020008B9
:10004000A7020008B1120008A7020008A7020008D2
:10005000A7020008A7020008A7020008A7020008DC
:10006000A7020008A7020008A7020008A7020008CC
:100070005D0A0008610A0008750A0008770A00088E
:10008000A7020008A7020008A7020008A7020008AC
:10009000A7020008A7020008A7020008A70200089C
:1000A000A7020008A7020008A7020008A70200088C
:1000B0006D1B0008A7020008A7020008A70200089D
:1000C000A7020008A7020008A7020008A70200086C
:1000D000A7020008A7020008A7020008251F0008C1
:1000E000A7020008A7020008A7020008A70200084C
:1000F000A7020008A7020008A7020008A70200083C
:10010000A7020008A7020008A7020008A70200082B
:10011000A7020008A7020008A7020008A70200081B
:10012000790A0008A7020008A7020008A702000831
:10013000A7020008A7020008A7020008A7020008FB
:10014000A7020008A7020008A7020008A7020008EB
:10015000A7020008A7020008A7020008A7020008DB
:10016000A7020008A7020008A7020008A7020008CB
:10017000A7020008A7020008A7020008A7020008BB
:10018000A7020008A7020008A7020008A7020008AB
:10019000A7020008A702000800F002F800F066F8C5
:1001A0000AA090E8000C82448344AAF10107DA45D2
:1001B00001D100F05BF8AFF2090EBAE80F0013F0BE
:1001C000010F18BFFB1A43F0010318472812020061
:1001D0004812020010F8013B0A4413F0030408BF60
:1001E00010F8014B1D1108BF10F8015B641E05D00B
:1001F00010F8016B641E01F8016BF9D1002D15D0C8
:1002000010F8014B03F00C030C2BA1EB04040ABF04
:1002100010F8013BA4EB8314A4EB032405F10103C4
:1002200014F8016B5B1E01F8016BF9D5914238BFE0
:1002300010F8013BD1D3704700230024002500268D
:10024000103A28BF78C1FBD8520728BF30C148BF39
:100250000B6070471FB503F0D3FA9DE8030000F070
:10026000C7F800F037F81FBD10B510BD00F036F923
:100270001146FFF7EFFF03F085F900F073F903B4BF
:10028000FFF7F2FF03BC00F023F9000009488047A4
:1002900009480047FEE7FEE7FEE7FEE7FEE7FEE768
:1002A000FEE7FEE7FEE7FEE704480549054A064B80
:1002B00070470000BD1A000899010008F81E0020D0
:1002C000F8A20120F89E0120F89E01207047704797
:1002D0007047000070B5064C7C44064D7D4403E039
:1002E000206820448047241DAC42F9D170BD000035
:1002F000381102003811020000487047CC1E00205F
:1003000070B5064600F058F8056806F10B0020F0BD
:100310000704B4429CBF002070BD2B466A68BAB186
:100320001068A04210D304F1080188423CBF506815
:10033000586007D35168101941601168091B0160AA
:1003400058601460101D70BD13465268002AE7D132
:100350002146284600F038F80028DED170BD70B57F
:100360000446051F00F028F80068002C14BF4468FC
:1003700070BD002C18BFAC423CBF20466468F8D367
:1003800001680A18AA4218BF456003D12A680546C9
:100390001144016028684119A1421CBF6C6070BD06
:1003A0006168696021680844286070BD00F05BB82E
:1003B00000487047981E002000487047A01E00208B
:1003C000704770477047704738B504460A460020AA
:1003D0006946AFF30080002808BF38BD0246009987
:1003E000204600F0A5F8012038BD012000F0E7B854
:1003F000F8B5AFF30080054600200C46102000BF82
:100400000646A819A0420DD9324669460020AFF32E
:100410000080070008BF00F0D2F80098A04218BF83
:100420000546C419FFF7C8FF05600746F01D20F018
:1004300007004619284600F00AF8B44208BFF8BD84
:10044000A21B31463868BDE8F84000F071B80021C1
:100450000160C0E90110704710207047002801D0EA
:1004600000F036B8704710B500F00DF8016919B109
:1004700000220261884701E08068804700F07BF835
:1004800010B500F078F870B500F04EF80468054635
:10049000A4B92020FFF734FF040011D0094900203F
:1004A0002C60C4E900010849A160207320616061EB
:1004B0000649A06109B100F089F8E061204670BDED
:1004C00000F059F80000000081040008000000005E
:1004D00001491820ABBEFEE7260002007546FFF773
:1004E00067FFAE4605006946534620F00700854683
:1004F00018B020B5FFF7D8FEBDE820404FF0000649
:100500004FF000074FF000084FF0000B21F00701FB
:10051000AC46ACE8C009ACE8C009ACE8C009ACE83E
:10052000C0098D467047000000487047D41E002067
:10053000034640688C46002818BF88423CBF0346EB
:100540004068F8D318681844884207D00CF10300BB
:1005500020F00700001D411A521A0146081D0A60CA
:10056000FFF7FDBE10B50446AFF300802046BDE89E
:100570001040FFF784BE10B5002000F04DF8FFF7E3
:1005800073FEBDE810400120FFF7A2BF70B505461D
:100590000C460A2000E06D1C00F036F835B12878D2
:1005A0000028F8D102E0641C00F02EF814B1207885
:1005B0000028F8D1BDE870400A2000F025B810B539
:1005C00000F032F8BDE81040FFF748BF10B58820B2
:1005D000FFF796FE002801D00021017010BD802990
:1005E00002D808B1017809B100207047012100F854
:1005F000081B704718B100F10802914201D0002099
:10060000704700210170704708B569468DF80000F9
:100610000320ABBE08BD704710B500F02DF8BDE853
:100620001040FFF71BBF000010B5012805D00021C6
:1006300003A0FFF7ABFF012010BD09A1F8E7000000
:1006400053494752544D454D3A204F7574206F66BB
:100650002068656170206D656D6F72790000000023
:100660003A2048656170206D656D6F727920636F07
:10067000727275707465640010B5002102A0FFF7F6
:1006800085FF012010BD0000534947414252543AB2
:100690002041626E6F726D616C207465726D696E5F
:1006A0006174696F6E00000008B50146002000907B
:1006B000034800900098084400900098008808BD06
:1006C000006C004008B500220092044A0092009A93
:1006D00002440092009A116008BD0000006C0040C6
:1006E00010B50121084600F063FE0121042000F04E
:1006F0005FFE0121082000F05BFE0121102000F0C8
:1007000057FE0121202000F053FE4FF000700C49ED
:1007100048604FF011300B4908600B4908600B49E5
:1007200048600B4908600020064908310860064906
:100730000C3108600549C86005490C31086010BDDE
:100740000000014004080140000C0140001001407D
:1007500000140140002070477047000008B50121D7
:100760000C2000F025FE0220ADF8000003208DF8DB
:10077000020010208DF803006946064800F0ADFB2A
:100780004FF48060ADF800006946034800F0A5FB17
:1007900008BD0000000C01400008014000B58DB00C
:1007A0000121022000F0E4FD1B4800F093F9002035
:1007B00002900390102004900020059040200690A5
:1007C00080200790400008908000099000200A9047
:1007D0004FF440500B904FF480400C9002A90E480B
:1007E00000F0A8FA012202210B4800F069F9382034
:1007F0008DF8040000208DF8050003208DF8060018
:1008000001208DF8070001A800F01AFD002003491F
:1008100008700DB000BD0000080402400C0000206C
:100820000EB501214FF0C05000F0B2FD4FF4803002
:1008300000F0DCFA4FF48030019000208DF80800C1
:1008400010208DF8090001208DF80A0001A800F0A1
:10085000D3FA01208DF8000000208DF8010005205A
:100860008DF8020001208DF80300684600F0E8FCD6
:10087000002000F04BFD012000F042FD0EBD000005
:100880001CB501A9002000F03BFF6946002000F0E4
:1008900011FF9DF80400C0EB00108000C0EB0010B9
:1008A00084009DF80500C0EB001004EB80049DF867
:1008B000060004449DF80300C11700EB917140F25B
:1008C0006D1310FB03F202EBA1029DF80110491E0B
:1008D0000E4B33F8111011449DF802201144491EAB
:1008E00001EB4101C900C1EB01118900C1EB01110C
:1008F00004EB81049DF80300002803DC9DF801004F
:10090000022801DD0248044420461CBD4A38000884
:100910008051010030B585B000240121080700F0A6
:1009200037FD0121C80600F033FD012000F0E2FC94
:100930000420FFF7B9FE054645F2AA50854233D0A0
:100940000124012000F044FD00BF612000F0D2FD31
:100950000128FAD1400200F0F1FC012000F03EFD38
:10096000002000F067FE00F073FE01281CD17D20FE
:1009700003904FF4A07004900020029002A800F0B1
:10098000E7FE0020019001A900F0ECFD094800906D
:100990006946002000F00EFF00F082FE45F2AA51E9
:1009A0000420FFF78FFE00BF00F068FF204605B06F
:1009B00030BD0000010101000149086070470000DE
:1009C0001000002000B585B00121092000F0F0FCE6
:1009D0000121880400F0DCFC4FF40060ADF8000059
:1009E00004208DF803006946174800F076FA4FF4AA
:1009F0008060ADF8000003208DF8020018208DF80B
:100A000003006946104800F068FA4FF41650019050
:100A10000020ADF80800ADF80A00ADF80C00ADF804
:100A200010000C20ADF80E0001A9084801F06AFB87
:100A3000012240F22551054801F026FB012103481F
:100A400001F047FB05B000BD000C0140004800402C
:100A500010B5FFF7B7FF00F0E3FB10BD70470000D3
:100A600010B500F08FFF00200149087010BD000094
:100A7000080000207047704710B500210B4800F0B7
:100A800003F90A490839022000F016F80749083925
:100A9000022000F013F8002005490870054800689E
:100AA00010B104480068804710BD000008040240EF
:100AB0000C0000201000002048607047486070471C
:100AC0001AB103680B43036002E003688B430360C1
:100AD0007047000001684FF6FE721140016000216E
:100AE000016041608160C1606549884208D1644904
:100AF0000839496841F00F01614A083A5160BEE087
:100B00005F491431884208D15D490839496841F08C
:100B1000F0015B4A083A5160B1E0594928318842F6
:100B200008D157490839496841F47061544A083A74
:100B30005160A4E052493C31884208D150490839FB
:100B4000496841F470414E4A083A516097E04C4977
:100B50005031884208D14A490839496841F4702126
:100B6000474A083A51608AE045496431884208D1D1
:100B700043490839496841F47001414A083A5160D3
:100B80007DE03F497831884208D13D4908394968BC
:100B900041F070613A4A083A516070E038498C314E
:100BA000884208D136490839496841F07041344AD1
:100BB000083A516063E03349884206D1011F096851
:100BC00041F00F01021F116059E02E491431884293
:100BD00008D12C49091F096841F0F001294A121F68
:100BE00011604CE027492831884208D12549091F66
:100BF000096841F47061234A121F11603FE02149E6
:100C00003C31884208D11F49091F096841F47041ED
:100C10001C4A121F116032E01A495031884208D133
:100C20001849091F096841F47021164A121F116002
:100C300025E014496431884208D11249091F096826
:100C400041F470010F4A121F116018E00D4978310C
:100C5000884208D10B49091F096841F07061094AAF
:100C6000121F11600BE007498C31884207D10549FA
:100C7000091F096841F07041024A121F1160704754
:100C8000080002400804024021B1026842F001025B
:100C9000026004E002684FF6FE731A40026070477B
:100CA00010B50121084600F063FB1E48FFF712FF54
:100CB0001D481E49086000204860C8600861802007
:100CC000486100208861C8610862886288604FF4CA
:100CD00040504862134800F02DF812481430FFF7D6
:100CE000F9FE11481249086000204860C860086198
:100CF0008020486100208861C861086288621020F5
:100D00008860400248620748143000F013F8002160
:100D10000448FFF7B9FF002102481430FFF7B4FF81
:100D200010BD0000440002400C3800402C1E002082
:100D3000581E002010B50022026847F6F0739A434F
:100D40000C6A8B6823430C6923434C6923438C69E9
:100D50002343CC6923434C6A23438C6A23431A43BD
:100D60000260CB6843600B6883604B68C36010BD52
:100D700000B58DB00121084600F0FAFA1948FFF7D6
:100D8000A9FE194802900020039010200490002032
:100D90000590069080200790400008908000099000
:100DA00000200A904FF440500B9000200C9002A9B4
:100DB0000C48FFF7BFFF012202210A48FFF780FE1F
:100DC0000D208DF8040000208DF8050002208DF81C
:100DD000060001208DF8070001A800F031FA0DB0DF
:100DE00000BD0000300002400C30014001490860A5
:100DF0007047000014040140002123498279002A31
:100E00003AD00A46126803689A430B461A600A1DD4
:100E1000126803689A430B1D1A60027911440A682C
:100E200003681A430A60184A0832126803689A4332
:100E3000154B08331A601A1D126803689A43124B47
:100E40000C331A604279102A0ED11A1F12680368F7
:100E50001A430D4B08331A601A1D126803681A43AF
:100E6000094B0C331A600DE00749427911440A68B6
:100E700003681A430A6005E0027911440A680368AE
:100E80009A430A6070470000000401400549096860
:100E900021F01001034A11601146096801431160F5
:100EA00070470000002002400549096821F08001D8
:100EB000034A116011460968014311607047000040
:100EC0000020024030B503460C46002002E0255CBD
:100ED0001D54401C9042FAD330BD2DE9F04102462A
:100EE00000250026002000230024002791F803C0DD
:100EF0000CF00F0591F803C00CF0100CBCF1000FC2
:100F000003D091F802C04CEA050591F800C0BCF18D
:100F1000000F31D0146800202BE04FF0010C0CFAC8
:100F200000F3B1F800C00CEA03069E4220D1830012
:100F30004FF00F0C0CFA03F7BC4305FA03FC4CEA24
:100F4000040491F803C0BCF1280F06D14FF0010C46
:100F50000CFA00FCC2F814C00AE091F803C0BCF11E
:100F6000480F05D14FF0010C0CFA00FCC2F810C07C
:100F7000401C0828D1D31460B1F800C0BCF1FF0FA9
:100F800034DD546800202EE000F1080C4FF0010819
:100F900008FA0CF3B1F800C00CEA03069E4221D116
:100FA00083004FF00F0C0CFA03F7BC4305FA03FC67
:100FB0004CEA040491F803C0BCF1280F05D100F1FC
:100FC000080C08FA0CF8C2F8148091F803C0BCF1C0
:100FD000480F07D100F1080C4FF0010808FA0CF88F
:100FE000C2F81080401C0828CED35460BDE8F081C0
:100FF000416170470161704710B500F02BFF00F0B0
:1010000091F802F055FA00F007F800200149087045
:1010100010BD00000800002000B58DB0782002F05F
:10102000B3FB112002F07CFA362002F079FAA020FE
:1010300002F058FA3A2002F073FA552002F052FA00
:101040002CA103C9CDE90B010BAA0521B22002F0A6
:101050007BFAB72002F064FA752002F043FAC3204D
:1010600002F05EFA162002F03DFAD62002F058FA9D
:10107000A12002F037FABB2002F052FA3B2002F026
:1010800031FA1EA090E80E00C068CDE90823079150
:101090000A9007AA0E21E02002F056FA1BA3D3E91A
:1010A00001021968DB68CDE90523CDE9031003AA25
:1010B0000E21E12002F048FA18A00068029002AA6E
:1010C00004212A2002F040FA15A00068019001AA2C
:1010D00004212B2002F038FA212002F021FA2920E5
:1010E00002F01EFA2C2002F01BFA2C2002F018FA53
:1010F0000DB000BD0C0C003333000000F00B110EDE
:101100000D1936334B0714142C2E0000F00D120B62
:1011100009033244483916162D30000000500140B2
:10112000000000F000B585B002F0F2FA1021194875
:10113000FFF760FF4FF44040ADF800004FF48270BD
:10114000ADF802000020ADF804000220ADF8060062
:101150000120ADF808000020ADF80A00ADF80C0041
:10116000ADF80E000720ADF8100069460A4800F0FF
:10117000EAFB0121084800F031FC0021064800F09C
:10118000C2FB0121044800F0B2FBFFF7F1FD05B0FE
:1011900000BD0000000801400030014010B50446C9
:1011A00000BF02210B4800F0C3FB0028F9D0214604
:1011B000084800F0C6FB00BF0221064800F0B8FB5B
:1011C0000028F9D000BF8021024800F0B1FB0128BF
:1011D000F9D010BD0030014070B505460E4600BF85
:1011E00002210E4800F0A4FB0028F9D000240BE0F7
:1011F000315D0A4800F0A5FB00BF0221074800F05E
:1012000097FB0028F9D0641CAC42F1DB00BF8021C1
:10121000024800F08DFB0128F9D070BD003001407C
:1012200008B527208DF8000000208DF8010001206E
:101230008DF802008DF80300684600F001F808BD43
:1012400070B5002100230F22C47804B3154C246824
:1012500004F4E064C4F5E064210AC1F10403CA4067
:10126000447804FA03F184781440214309010E4CB8
:101270000678A155047804F01F050124AC400578D8
:101280006D11AD0005F1E025C5F8004109E00478D5
:1012900004F01F050124AC40044D0678761145F892
:1012A000264070BD0CED00E000E400E080E100E0CD
:1012B00000BF00BF00BF00BF00BFBFF34F8F00BF24
:1012C00000BF00BF0948006800F4E0600849084317
:1012D000001D0649086000BF00BF00BFBFF34F8F6D
:1012E00000BF00BF00BF00BF00BFFDE70CED00E086
:1012F0000000FA05014908627047000000000E4234
:10130000014908617047000000000E4201460020BC
:10131000034A106820F438700843106070470000DA
:101320000070004001460020034A506820F4E0604D
:101330000843506070470000001002400549096AE8
:1013400021F44071034A11621146096A0143116296
:10135000704700000010024001460020034AD06A96
:1013600020F000500843D062704700000010024097
:1013700029B1064A52690243044B5A6104E0034A08
:1013800052698243014B5A617047000000100240CD
:1013900029B1064AD2690243044BDA6104E0034AE8
:1013A000D2698243014BDA617047000000100240AD
:1013B00029B1064A92690243044B9A6104E0034A48
:1013C00092698243014B9A6170470000001002400D
:1013D00001490860704700008004424201490860EA
:1013E000704700003C044242F0B5002100BF0022DB
:1013F00000250024384E7668384F06EA0702364E3C
:10140000766806F4803502F000661EB9022606EB07
:10141000924204E04FF4F876C6EB9246721C1DB976
:101420002F4E02FB06F30BE02B4E766806F40036D7
:101430001EB12B4E02FB06F302E02A4E02FB06F31E
:10144000254E766806F00C0121B1042905D0082943
:1014500008D105E0234E066007E0224E066004E056
:10146000036002E01F4E066000BF00BF1A4E7668A0
:1014700006F0F00109091C4E745C0668E6404660FF
:10148000154E766806F4E061090A174E745C4668EA
:10149000E6408660104E766806F46051C90A124E26
:1014A000745C4668E640C6600B4EF66A06F00F01B3
:1014B0000E4E745C4668B6FBF4F64661064EF66A5C
:1014C00006F4F871090901F00F06094F37F81640C4
:1014D000B3FBF4F60661F0BD0010024000003C08CA
:1014E00000093D0000127A000A3800081A38000886
:1014F0002A38000810B501460022002300204A11B6
:10150000012A02D1094C236806E0022A02D1074CC5
:10151000236A01E0054C636A01F01F020124944034
:101520001C400CB1012000E0002010BD0010024062
:10153000014600BF080900EB8000420001F00F00E7
:101540001044C0B270470146002204E0501CC2B2F1
:10155000A1F10A00C1B20A29F8DA100741EA1060C5
:10156000704700002DE9F04105460C460026002793
:101570004DB92E48006800F0400000B102E00020A4
:10158000E07000BF0DE02948006800F0400020B185
:101590002078FFF7CDFF064602E00020E07000BF94
:1015A00000BF55B120780004617840EA0120A1789D
:1015B0000843E17840EA014611E02078FFF7C3FFD5
:1015C0004FEA00486078FFF7BEFF48EA0028A0789D
:1015D000FFF7B9FF48EA0008E07848EA0046CA2069
:1015E00012491C3108605320086000F031F808B936
:1015F000002713E00E4830400C490839086000F01D
:101600004FF80A48006800F0200030B900F036F9C1
:1016100008B9002702E0012700E00127FF20034965
:101620001C3108603846BDE8F08100000828004001
:101630007F7F7F0018B1FF21044A116004E0CA21B6
:10164000024A1160532111607047000024280040B5
:1016500008B50022009200200021104A126802F012
:101660004002CAB980220D4B1A6000BF0B4A1268B3
:1016700002F04001009A521C0092009AB2F5005FFD
:1016800001D00029F2D0054A126802F040020AB1E6
:10169000012002E0002000E0012008BD0C280040ED
:1016A0000348006820F0800001490860704700008E
:1016B0000C28004070B506460C4600250E48006810
:1016C0000E4900EA0105280CE070C5F304206070A3
:1016D00005F03F00A070C5F3423020705EB9E0789D
:1016E000FFF726FFE0706078FFF722FF6070A078B8
:1016F000FFF71EFFA07070BD042800403FFFFF00F1
:1017000070B506460C4600250F4800680F4900EAF0
:101710000105C5F305402070C5F30620607005F093
:101720007F00A07005F48000000CE0705EB92078A6
:10173000FFF7FEFE20706078FFF7FAFE6070A07879
:10174000FFF7F6FEA07070BD002800407F7F7F008D
:1017500030B504460025CA201549086053200860AA
:10176000FFF776FF00B91DE011481C38006820F033
:1017700040000F491C39086008460068216808438A
:101780000B491C3908600A491439A06808600846EA
:101790000068A18840EA0140054914390860FFF754
:1017A0007FFF0125FF2002490860284630BD000068
:1017B000242800402DE9F04105460C46002600276C
:1017C0004DB9607800F01000102804D1607820F046
:1017D00010000A30607005B908E06078FFF7A8FED5
:1017E0000646A078FFF7A4FE064600BF55B1E07894
:1017F0000004617840EA0120A1780843217840EA9A
:10180000413611E0E078FFF79EFE4FEA004860782D
:10181000FFF799FE48EA0028A078FFF794FE48EA0F
:101820000008207848EA4036CA2012490860532050
:101830000860FFF70DFF08B9002714E00E4830409C
:101840000C4920390860FFF72BFF0A481C38006854
:1018500000F0200030B900F011F808B9002702E0CC
:10186000012700E00127FF20024908603846BDE853
:10187000F0810000242800403FFFFF0008B500224F
:10188000009200200021CA22134B1A6053221A60D2
:10189000114A183A126822F020020F4B183B1A60C6
:1018A00000BF0D4A183A126802F02001009A521C3B
:1018B0000092009AB2F5004F01D00029F1D0064AFB
:1018C000183A126802F020020AB1012000E000205C
:1018D000FF22014B1A6008BD2428004002884FF205
:1018E000FF731A40028002880A430280704721B1C8
:1018F000028842F04002028004E002884FF6BF7383
:101900001A400280704721B1028842F400520280DE
:1019100004E002884DF6FF731A40028070471AB146
:1019200083880B43838002E083888B4383807047E6
:101930000246002013890B400BB1012000E000207B
:1019400070478181704710B50022028802F441522D
:101950000B884C8823438C882343CC8823430C89F1
:1019600023434C8923438C892343CC8923431A4343
:101970000280838B4FF2FF74234083830B8A0382A0
:1019800010BD000010B500BF02211148FFF7D0FFC5
:101990000028F9D000210F48FFF776F90022022134
:1019A0000B48FFF7BCFF0A48808910210A48FFF75F
:1019B00021FB084930394815FFF77EF805493039D1
:1019C0004815FFF77BF800210148FFF787FF10BD9E
:1019D00000300140300002400008014021B18288FF
:1019E00042F00402828004E082884FF6FB731A40C2
:1019F000828070470EB5002002900190009025482B
:101A0000006820F00700234908600846006840F09D
:101A100003000860204840681F4948600846406845
:101A200040F4005048600846406840F4A0604860B8
:101A30000846406819490840174948600846406808
:101A400002900298029016490298084302901249A7
:101A5000029848600846006840F08070086000BF47
:101A60000D48006800F000700028F9D00A4840686E
:101A700020F00300084948600846406840F0020032
:101A8000486000BF0448406800F00C000828F9D105
:101A90000EBD00000020024000100240FFFFC0F712
:101AA00000003C08042807D14FF0E021096941F00B
:101AB00004014FF0E02211617047000010B5244886
:101AC000006840F47000224908602248006840F035
:101AD000010020490860084640681F4908401D4928
:101AE0004860084600681D4908401A4908600846D1
:101AF000006820F4802008600846406818490840C3
:101B0000144948600020C86208634FF41F008860D1
:101B10000846C06940F08050C8611248C06840F073
:101B200001001049C8600B48C06920F08050094985
:101B3000C8610D48006840F090000B490860FFF74D
:101B400059FF4FF0006002498039086010BD000065
:101B500088ED00E00010024000C0FFF8FFFFF6FE35
:101B6000FFFF00F7007000400020024010B5012187
:101B7000880700F067F868B10121880700F010F8C5
:101B800005480068401C04490860012103480068BA
:101B900000F0BAFD10BD0000180000201400002065
:101BA00002698A43026170471AB183890B438381BA
:101BB00002E083898B43838170470185828270476D
:101BC0001FB54FF4A060FFF7ADFB01210846FFF7FA
:101BD000DFFB4FF4FA40ADF804000020ADF8000040
:101BE000ADF80600ADF8020069464FF0804000F005
:101BF00075F8012211469007FFF7DFFF0122114619
:101C00009007FFF7D1FF0121880700F001F81FBD01
:101C100021B1026842F00102026003E0026822F092
:101C200001020260704731B1B0F8442042F4004232
:101C3000A0F8442005E0B0F84420C2F30E02A0F85A
:101C40004420704730B50246002000230024156967
:101C500005EA0103958905EA010413B10CB10120DD
:101C600000E0002030BD000030B500240022002339
:101C7000056A25F001050562026A4368048B4FF688
:101C80008F752C404FF6FC752C400D882C4322F0AC
:101C900002020D892A434D882A430E4DA84202D0E4
:101CA0000D4DA8420FD122F008024D892A4322F09F
:101CB00004028D882A4323F4807323F400738D89F2
:101CC0002B43CD892B4343600483CD8885860262F4
:101CD00030BD0000002C0140003401400A460021C4
:101CE00001684D4B98420ED04C4B98420BD0B0F14E
:101CF000804F08D04A4B984205D04A4B984202D0B8
:101D0000494B984203D121F0700153881943474B46
:101D1000984206D0464B984203D021F44071D388B4
:101D20001943016093888385138803853A4B984251
:101D300002D03A4B984201D1137A03860123838261
:101D40000168354B98420ED0344B98420BD0B0F11D
:101D5000804F08D0324B984205D0324B984202D087
:101D6000314B984206D1537A13B141F4006101E03E
:101D700021F40061B0F1804F08D0294B984205D082
:101D8000284B984202D0284B98420DD1937A13B138
:101D900041F4805101E021F48051D37A13B141F430
:101DA000005101E021F40051B0F1804F05D01C4BEF
:101DB000984202D01B4B984206D1137B13B141F4D9
:101DC000804101E021F48041134B98420BD0134B2A
:101DD000984208D0B0F1804F05D0114B984202D004
:101DE000104B984206D1537B13B141F4004101E0FE
:101DF00021F4004101604168B0F1804F02D0094BED
:101E0000984206D1937B13B141F4807101E021F433
:101E10008071416070470000002C01400034014097
:101E20000004004000080040000C0040001000408A
:101E30000014004008B51C208DF8000000208DF82B
:101E400001008DF8020001208DF803006846FFF7BD
:101E5000F7F908BD00B589B0012140F60500FFF78C
:101E6000A7FA4FF00050FFF777FA4FF48070ADF803
:101E7000000018208DF8030003208DF80200694649
:101E80002048FFF72AF878201F49088000201F49C2
:101E90000880ADF81400ADF816001B480088ADF8B6
:101EA00018000020ADF81A008DF81C0005A918488C
:101EB000FFF714FF7020ADF804000120ADF8060014
:101EC0000020ADF8080011480088ADF80A00022093
:101ED000ADF80C000020ADF80E004FF48070ADF8A6
:101EE00010000020ADF8120001A90948FFF7BCFE60
:101EF00001210748FFF78CFE01210548FFF793FEFB
:101F000009B000BD000801400400002006000020C8
:101F1000002C01408186704710B5FFF751FEFFF796
:101F200089FF10BD70B50F2500260821444800F038
:101F3000DCF80421424800F0D8F80221404800F0C3
:101F4000D4F820213E4800F0D0F8002877D0202196
:101F50003B4800F081F840F22551394800F085F8FF
:101F6000374800F029F93749087008460078AC284E
:101F700013D13548007880B9002034490870012019
:101F800031490870AC203249304A127888542F48C1
:101F90000078401C2D49087051E02B48007800283B
:101FA0004DD0284800782A49284A12788854084693
:101FB0000078AC2803D10846407803280ED00020D2
:101FC0002249087020490870002404E000202049BC
:101FD0000855601CC4B2AC42F8DB04E01B48007832
:101FE000401C1A49087019480078A84227DB0020D5
:101FF0001649087014490870012405E01448005D72
:10200000304486B2601CC4B20C2CF7DD1048407B13
:10201000B0EB162F0AD1F0B20D49897B884205D169
:102020000B490C48006800F076FB08E0002404E04F
:10203000002007490855601CC4B2AC42F8DB70BDF3
:1020400000480040090000200B0000200A0000208A
:10205000841E00201400002001F40072B2F5007FFD
:1020600000D100BFCA430280704710B50022002390
:1020700040F66A14A14200D100BF0A120124944024
:10208000A3B2DC43048010BDF0B503460024002653
:102090000025002040F66A17B94200D100BF18465B
:1020A000C1F3421401F01F06012707FA06F5012CBF
:1020B00001D10C3004E0022C01D1103000E01430CA
:1020C0001AB107682F43076002E00768AF43076053
:1020D000F0BD21B1828942F40052828104E08289FC
:1020E0004DF6FF731A408281704702460020B1F519
:1020F000007F00D100BF13880B400BB1012000E02E
:10210000002070472DE9F04786B005460F460024B1
:10211000A24600BF00BF0026B88900B100BF2E460E
:102120002C8A4CF6FF700440F88804432C82AC895A
:102130004EF6F3100440B88839890843798908437A
:102140000443AC81AC8A4FF6FF400440B889044395
:10215000AC826846FFF748F91448864205D0144817
:10216000864202D01348864202D1DDF80CA001E07D
:10217000DDF808A00AEBCA0000EB0A1039688900F4
:10218000B0FBF1F86420B8FBF0F0040120096421F1
:1021900001FB1089322000EB0910B0FBF1F000F0D8
:1021A0000F0004432C8106B0BDE8F08700380140E1
:1021B000005001400054014001468888C0F30800E7
:1021C0007047000010B506480068007B20B904483D
:1021D000006800F007F800E000BF00BF10BD00007D
:1021E000340000202DE9F0470446208B401C80B2CB
:1021F0002083218D884201DB00202083E08B401C5E
:1022000080B2E083A18B88423ADA608B401C608305
:10221000A58CB4F9200000280DDA0026208BA18CB3
:102220004843B4F92010471AB4F920000544F02DB2
:1022300012D9F02510E0B4F920004600208BA18CC3
:1022400000FB01F7B4F92000C0F1F000A84203D26E
:10225000B4F92000C0F1F005618BC1EB0111A06859
:1022600000EB411000EB060804F1340000EB4709D5
:102270002A464146484600F007F80120A07301E0D5
:102280000020A073BDE8F08770B504460D461646E1
:1022900032462946204601F0CFF870BD70B505469C
:1022A0000C462046FEF788FB70BD0000011D002291
:1022B00041F8042900BF08460B49016000218160F4
:1022C000818301824FF6FF7101834183042180F8ED
:1022D000C013002141828182EF21C182002101735C
:1022E0004173C173704700006CFA010810B50446D1
:1022F00094F86E10204600F001F810BD70B5044649
:102300000D4694F86E00A84200D170BD29462046C3
:1023100000F0FCF8204600F05FFA102D71D2DFE8E3
:1023200005F0DC080F3E6CDC71757D81939FB8BCB5
:10233000CFD80120A4F84E000220A4F85000CDE030
:10234000606A20F480506062606A20F480406062BD
:1023500094F86E00032815D06FF001004834E08037
:10236000FF20A07214F84809042803DA94F8480002
:10237000002803DC012084F8530003E094F84800AF
:1023800084F85300B4F95000002803DD0820A4F8B5
:10239000500003E06FF00700A4F850009EE0606A70
:1023A00020F480506062606A20F48040606294F89B
:1023B0006E00022814D002204834E080FF202073F1
:1023C00014F84809042803DA94F84800002803DCCC
:1023D000012084F8530003E094F8480084F8530087
:1023E000B4F95000002803DD0220A4F8500003E0F7
:1023F0006FF00100A4F8500070E0FF2084F8560050
:102400006CE06AE0FF2084F85A0067E0FF2084F85F
:102410005B0094F8940084F85D005FE0FF2084F88E
:102420005E005BE0606A20F480506062606A20F4C5
:10243000804060620120A4F84E000220A4F8500001
:10244000FF2084F85F0049E094F86E000B2803D168
:1024500094F86D0084F86E00FF2084F868003DE079
:10246000FF2084F8630094F84C0028B14FF46661B3
:10247000204600F043F80BE04FF46661204600F080
:102480003DF894F86D00092802D1022084F86D000F
:1024900024E0FF2084F8610020E0FF2084F866003B
:1024A00094F86700022805D142F2C831204600F0B6
:1024B00025F804E04FF46661204600F01FF80DE0B7
:1024C000FF204E34E07601202080022060804E3CC8
:1024D00004E0FF2084F86B0000E000BF00BF94F828
:1024E0006E0020B194F86E0084F86D0002E00220C6
:1024F00084F86D0084F86E5000BF06E7022280F871
:102500004520C26AC2630164704700002DE9F047AC
:1025100004468A46BAF1030F01D1012700E00027E3
:1025200094F84600B84274D0012F03D1FEF7A8F901
:102530002063B9E0606A20F4007000F5007060620A
:10254000FEF79EF980460026606FA8EB000558480C
:1025500095FBF0F5002D15DD06E0701C0646A8423F
:1025600001D2072E00D30CE004F1780000EB8600C6
:1025700090ED000ADFED4F0AB4EEE00AF1EE10FA3A
:10258000EBD900BF4EB3072E1AD2304615E004F146
:10259000780101EB800191ED000A821B04F17801C2
:1025A00001EB820181ED000A9FED430A04F17801FD
:1025B00001EB800181ED000A401C0728E7DB0CE0FD
:1025C000002008E09FED3C0A04F1780101EB800156
:1025D00081ED000A401C0728F4DBAD1B072D49DB09
:1025E000A81F072834DA04E0411C0846072900DB4D
:1025F0000CE004F1780101EB800191ED000ADFEDC0
:102600002D0AB4EEE00AF1EE10FAEDD900BF014652
:1026100016E04BE004F1780202EB810292ED000A31
:102620000B1A04F1780202EB830282ED000A9FED9F
:10263000220A04F1780202EB810282ED000A491CB1
:102640000729E7DB1A4A616F02FB001262670FE09D
:102650002846002108E09FED180A04F1780202EBF9
:10266000810282ED000A491C0729F4DBC4F874805A
:102670002D1A00BF206BA8EB000900EE109AB8EEEF
:10268000C00A9FED0E1AC0EE010A04F1780000EBBB
:10269000850090ED000A30EE800A04F1780000EB2E
:1026A000850080ED000A00BF84F84670BDE8F08721
:1026B000805101000AD7233C000000000000704256
:1026C0000021453040F81D1C40F8211C8170C1706C
:1026D00001218173002101714173C173417401753E
:1026E000417581754176817601778177C17780F870
:1026F000211080F82310022180F82810002180F892
:102700002910417045387047826A0A448262C26A61
:102710000A44C262704710B50A4690F82410C1F30B
:10272000400149B900F11403002102E0545C5C54FB
:10273000491C0D29FAD300BF416A21F00101491C4F
:10274000416210BD10B50446204600F075F80446FD
:10275000204600F04DF8204600F04AF8204600F0F0
:1027600047F8204600F044F8606A20F002006062FA
:10277000606A20F0010060622822144904F17000B0
:10278000FEF7A0FBFEF7C6F818B91149206F884282
:102790001AD00F482067606A20F4007000F50070BE
:1027A0006062002008E09FED0B0A04F1780101EB64
:1027B000800181ED000A401C0728F4DBFEF760F879
:1027C0006067002184F89410204610BD00D00308F3
:1027D000AA55AA55000000000146086904E001223C
:1027E00002730022427380680028F8D1704700000D
:1027F0002DE9F04104464FF4727000F06DF8064682
:1028000035462846FFF752FD05460A482860002055
:10281000A87300BF2E463746206908B9276107E034
:10282000206900E0806881680029FBD1876000BFD3
:10283000BDE8F081A8FA010870B5064600BF002087
:10284000306000BF00BF4FF4165000F041F87060D8
:102850004FF4165000F03CF8B060182000F03CF83F
:102860000446254648F2C84000F032F8286028683F
:10287000686048F2C84128680844A8606868E86051
:10288000081F286129696868006861F31E0069688B
:1028900008606868006820F00040696808600020EF
:1028A000287500BF2C46F560064908600846006898
:1028B000054908600020306104493046FFF7EEFC0E
:1028C000304670BD2C00002030000020C5210008DB
:1028D00010B500F001F810BD10B5040007D10124B7
:1028E00005E0FDF709FD006800B90448804720466F
:1028F000FDF706FD0028F4D010BD0000AD03000870
:10290000FE48006FFE494860FC48016FFC48C16109
:10291000FA48016FFA484163F848016FF848C1640A
:10292000F648416FF6484166F448416FF448C16784
:10293000F248416FF248C0F89410F048416FF048F7
:10294000C0F8AC10ED48816FED48C0F8C410EB48FA
:10295000816FEB48C0F8DC10E848816FE848C0F8A8
:10296000F410E648816FE648C0F80C11E348C16FE7
:10297000E348C0F82411E148C16FE148C0F83C11B8
:10298000DE48C16FDE48C0F85411DC48C16FDC4836
:10299000C0F86C11D948D0F88010D948C0F884111B
:1029A000D648D0F88010D648C0F89C11D348D0F84B
:1029B0008010D348C0F8B411D048D0F88010D04867
:1029C000C0F8CC11CD48D0F88410CD48C0F8E4113F
:1029D000CA48D0F88410CA48C0F8FC11C748D0F8DB
:1029E0008410C748C0F81412C448D0F88410C448F2
:1029F000C0F82C12C148D0F88810C148C0F8441261
:102A0000BE48D0F88810BE48C0F85C12BB48D0F869
:102A10008810BB48C0F87412B848D0F88810B8487D
:102A2000C0F88C12B548D0F88C10B548C0F8A41284
:102A3000B248D0F88C10B248C0F8BC12AF48D0F8F9
:102A40008C10AF48C0F8D412AC48D0F88C10AC4809
:102A5000C0F8EC12A948D0F89010A948C0F80413A7
:102A6000A648D0F89010A648C0F81C13A348D0F888
:102A70009010A348C0F83413A048D0F89010A04894
:102A8000C0F84C139D48D0F894109D48C0F86413CA
:102A90009A48D0F894109A48C0F87C139748D0F818
:102AA00094109748C0F894139448D0F89410944820
:102AB000C0F8AC139148D0F898109148C0F8C413EE
:102AC0008E48D0F898108E48C0F8DC138B48D0F8A8
:102AD00098108B48C0F8F4138848D0F898108848AC
:102AE000C0F80C148548D0F89C108548C0F8241410
:102AF0008248D0F89C108248C0F83C147F48D0F837
:102B00009C107F48C0F854147C48D0F89C107C4836
:102B1000C0F86C14794800687A49486077480168C1
:102B20007848C16175480168764841637348016817
:102B30007448C16471484168724841666F48416891
:102B40007048C1676D4841686E48C0F894106B4882
:102B500041686C48C0F8AC10684881686948C0F8A2
:102B6000C410664881686748C0F8DC106348816813
:102B70006448C0F8F410614881686248C0F80C11DC
:102B80005E48C1685F48C0F824115C48C1685D4870
:102B9000C0F83C115948C1685A48C0F85411574808
:102BA000C1685848C0F86C11544801695548C0F8CC
:102BB0008411524801695348C0F89C114F4801697B
:102BC0005048C0F8B4114D4801694E48C0F8CC11C6
:102BD0004A4841694B48C0F8E411484841694948AE
:102BE000C0F8FC11454841694648C0F814124348F2
:102BF00041694448C0F82C12404881694148C0F8F6
:102C000044123E4881693F48C0F85C123B488169E4
:102C10003C48C0F87412394881693A48C0F88C12AF
:102C20003648C1693748C0F8A4123448C1693548EC
:102C3000C0F8BC123148C1693248C0F8D4122F48DC
:102C4000C1693048C0F8EC122C48016A2D48C0F820
:102C500004132A48016A2B48C0F81C132748016A4C
:102C60002848C0F834132548016A2648C0F84C1398
:102C70002248416A2348C0F864132048416A214829
:102C8000C0F87C131D48416A1E48C0F894131B48C5
:102C9000416A1C48C0F8AC131848816A1948C0F84A
:102CA000C4131648816A1748C0F8DC131348816AB8
:102CB0001448C0F8F4131148816A1248C0F80C1483
:102CC0000E48C16A0F48C0F824140C48C16A0D4868
:102CD000C0F83C140948C16A0A48C0F854140748AF
:102CE000C16A0848C0F86C140448006C0649486082
:102CF0000248016C0448C161004807E03800002028
:102D0000D800002058050020D8090020016CFE489A
:102D10004163FE48016CFC48C164FC48416CFA48C0
:102D20004166FA48416CF848C167F848416CF6487A
:102D3000C0F89410F548416CF348C0F8AC10F34863
:102D4000816CF148C0F8C410F048816CEE48C0F8BE
:102D5000DC10EE48816CEC48C0F8F410EB48816C54
:102D6000E948C0F80C11E948C16CE748C0F82411E3
:102D7000E648C16CE448C0F83C11E448C16CE24844
:102D8000C0F85411E148C16CDF48C0F86C11DF484D
:102D9000016DDD48C0F88411DC48016DDA48C0F8E7
:102DA0009C11DA48016DD848C0F8B411D748016DBC
:102DB000D548C0F8CC11D548416DD348C0F8E411CE
:102DC000D248416DD048C0F8FC11D048416DCE4882
:102DD000C0F81412CD48416DCB48C0F82C12CB4836
:102DE000816DC948C0F84412C848816DC648C0F812
:102DF0005C12C648816DC448C0F87412C348816D26
:102E0000C148C0F88C12C148C16DBF48C0F8A412B7
:102E1000BE48C16DBC48C0F8BC12BC48C16DBA48C0
:102E2000C0F8D412B948C16DB748C0F8EC12B74821
:102E3000016EB548C0F80413B448016EB248C0F83A
:102E40001C13B248016EB048C0F83413AF48016E8D
:102E5000AD48C0F84C13AD48416EAB48C0F86413A0
:102E6000AA48416EA848C0F87C13A848416EA648FD
:102E7000C0F89413A548416EA348C0F8AC13A3480A
:102E8000816EA148C0F8C413A048816E9E48C0F866
:102E9000DC139E48816E9C48C0F8F4139B48816EF9
:102EA0009948C0F80C149948C16E9748C0F824148A
:102EB0009648C16E9448C0F83C149448C16E92483C
:102EC000C0F854149148C16E8F48C0F86C148F48F4
:102ED00000688F4948608D4841688D48C1618B48C2
:102EE00081688B4841638948C1688948C1648748C3
:102EF000016987484166854841698548C1678348BB
:102F000081698348C0F894108048C1698048C0F83E
:102F1000AC107E48016A7E48C0F8C4107B48416A04
:102F20007B48C0F8DC107948816A7948C0F8F41011
:102F30007648C16A7648C0F80C1174480068754933
:102F40004860724841687348C161704800687249BE
:102F500048606E4841687048C1616C48C06B6F49F9
:102F600048606A48C16B6D48C1616848C16B6B4875
:102F700041636648C16B6948C1646448C16B674876
:102F800041666248C16B6548C1676048C16B634870
:102F9000C0F894105D48C16B6048C0F8AC105B4845
:102FA000C16B5E48C0F8C4105848C16B5B48C0F89C
:102FB000DC10564800685A494860544841685848EF
:102FC000C16152488168564841635048C1685448BD
:102FD000C1644E480169524841664C4841695048B5
:102FE000C1674A4881694E48C0F894104748C16992
:102FF0004B48C0F8AC104548016A4948C0F8C410B5
:103000004248416A4648C0F8DC104048816A44485A
:10301000C0F8F4103D48C16A4148C0F80C113B4863
:10302000006840494860394841683E48C1613748B6
:1030300081683C4841633548C1683A48C1643348B7
:10304000016938484166314841693648C1672F48AF
:1030500081693448C0F894102C48C1693148C0F8DF
:10306000AC102A48016A2F48C0F8C4102748416AAA
:103070002C48C0F8DC102548816A2A48C0F8F410B2
:103080002248C16A2748C0F80C1120480068264928
:1030900048601E4841682448C1611C488168224834
:1030A00041631A48C1682048C164184801691E4834
:1030B0004166164841691C48C167144881691A482D
:1030C000C0F894101148C1691748C0F8AC100F48F7
:1030D000016A1548C0F8C4100C48416A1248C0F88B
:1030E000DC100A48816A1048C0F8F4100748C16A29
:1030F0000D48C0F80C11054800680C4948600348A9
:1031000041680A48C16113E0D80900203800002056
:10311000580E0020780F002098100020B8110020D1
:10312000D8120020F81300201815002038160020AF
:10313000B9488168B9484163B748C168B748C164B4
:10314000B5480169B5484166B3484169B348C167AC
:10315000B1488169B148C0F89410AF48C169AF481F
:10316000C0F8AC10AC48016AAC48C0F8C410AA481A
:10317000416AAA48C0F8DC10A748816AA748C0F88D
:10318000F410A548C16AA548C0F80C11A24800680F
:10319000A3494860A0484168A148C1619E48816830
:1031A0009F4841639C48C1689D48C1649A48016931
:1031B0009B484166984841699948C167964881692A
:1031C0009748C0F894109448C1699548C0F8AC106D
:1031D0009148016A9248C0F8C4108F48416A9048EB
:1031E000C0F8DC108C48816A8D48C0F8F4108A4819
:1031F000C16A8B48C0F80C1187480068894948604B
:10320000854841688748C161834881688548416332
:103210008148C1688348C1647F480169814841662B
:103220007D4841697F48C1677B4881697D48C0F816
:1032300094107948C1697B48C0F8AC107648016A9F
:103240007848C0F8C4107448416A7648C0F8DC1069
:103250007148816A7348C0F8F4106F48C16A7148B8
:10326000C0F80C116C4800686F4948606A484168B2
:103270006D48C161684881686B4841636648C168B0
:103280006948C164644801696748416662484169A8
:103290006548C167604881696348C0F894105E481A
:1032A000C1696148C0F8AC105B48016A5E48C0F86B
:1032B000C4105948416A5C48C0F8DC105648816A1D
:1032C0005948C0F8F4105448C16A5748C0F80C1166
:1032D00051480068554948604F4841685348C161AA
:1032E0004D488168514841634B48C1684F48C164AB
:1032F000494801694D484166474841694B48C167A3
:10330000454881694948C0F894104348C169474815
:10331000C0F8AC104048016A4448C0F8C4103E48A8
:10332000416A4248C0F8DC103B48816A3F48C0F817
:10333000F4103948C16A3D48C0F80C11364800689D
:103340003B494860344841683948C1613248816826
:10335000374841633048C1683548C1642E48016927
:10336000334841662C4841693148C1672A48816920
:103370002F48C0F894102848C1692D48C0F8AC10F7
:103380002548016A2A48C0F8C4102348416A2848E1
:10339000C0F8DC102048816A2548C0F8F4101E48A7
:1033A000C16A2348C0F80C111B48006821494860D5
:1033B000194841681F48C161174881681D48416329
:1033C0001548C1681B48C164134801691948416622
:1033D000114841691748C1670F4881691548C0F80D
:1033E00094100D48C1691348C0F8AC100A48016A2E
:1033F0001048C0F8C4100848416A0E48C0F8DC10F4
:103400000548816A0B48C0F8F4100348C16A0948AE
:10341000C0F80C117047000038000020381600205A
:10342000581700207818002098190020B81A00209A
:10343000D81B0020F81C00202DE9F04104460D4661
:103440001646002700E07F1C0B4800780028FAD1C0
:103450004EF660208742F6D80120074908700748D9
:103460000460001F0560001F06600121001FFDF7BA
:103470000BFCBDE8F08100000C00002014040240A9
:1034800038B5044600200090200A8DF80000E0B214
:103490008DF80100002507E09DF801109DF800005F
:1034A00000F034F8681C85B2B5F5614FF4DB38BD27
:1034B00010B501210A48FDF79DFD012000F064F9D7
:1034C00001210748FDF794FD022000F05DF901217C
:1034D0000348FDF78FFD012000F056F910BD0000F4
:1034E000000C014010B5044608210748FDF782FD95
:1034F00010210548FDF77CFD2046FDF74FFE102109
:103500000148FDF777FD10BD0008014070B5054684
:103510000C462846FFF7E6FF2046FFF7E3FF70BDA5
:1035200010B5044608210748FDF762FD1021054843
:10353000FDF75EFD2046FDF731FE10210148FDF745
:1035400059FD10BD0008014070B506460C461546F1
:1035500010210B48FDF74CFD08210948FDF748FDF7
:103560003046FDF71BFE08210548FDF743FD2946BF
:103570002046FDF731FE10210148FDF73BFD70BDEF
:10358000000801401020FDF781FC8020FDF78CFC35
:10359000FDF7A6F800F04AF8FDF72EFD0020FFF732
:1035A0006FFFFDF7DBF8FEF7B7FCFDF751FAFDF70B
:1035B000F5F89820FFF790F90546FFF7C3F80546A0
:1035C00014480560FDF7C8F8FDF72AF9FDF7C2F8C1
:1035D00020B910480068FFF773F803E00D48006851
:1035E000FEF784FE00200C4908600C4908600C4975
:1035F0000860002404E00B49085DFFF773FF641CBA
:10360000B4F5E13FF7D303E078210748FEF782FCE9
:10361000FAE7000014000020200000201C00002019
:103620002400002064380008002C014010B500F090
:1036300033F84FF480511548FDF7DCFC00201449A5
:1036400008804FF482704880002088800220C88063
:10365000012008814002488100208881C88107201C
:1036600008820C48FEF76FF901210A48FEF73FF97E
:10367000002202210748FEF752F9002201210548E5
:10368000FEF74DF9FDF70CFB10BD0000000C0140EA
:10369000181E00200038004008B501218803FDF7FE
:1036A00077FE01210920FDF783FE4FF40050ADF8AD
:1036B000000003208DF8020018208DF803006946F1
:1036C0001248FDF70AFC4FF40040ADF80000182046
:1036D0008DF8030069460D48FDF7FFFB4FF480406D
:1036E000ADF8000004208DF8030069460748FDF797
:1036F000F4FB4FF48050ADF8000010208DF803006B
:1037000069460248FDF7E9FB08BD0000000C0140D6
:1037100008B501210520FDF74BFE01210803FDF747
:1037200047FE2020ADF8000003208DF8020018208D
:103730008DF8030069461248FDF7CFFB8020ADF8F5
:10374000000069460E48FDF7C8FB1020ADF80000E8
:103750008DF8030069460A48FDF7BFFB10208DF87D
:1037600003000820ADF8000069460548FDF7B5FBE9
:103770000120ADF8000069460248FDF7AEFB08BD28
:1037800000080140000C014010B504460420FEF77B
:1037900089F9194800681949B0FBF1F04FF47A71C2
:1037A00048434FF0E02148610020886108460069E5
:1037B00040F001000861002010E04FF0E0210969AD
:1037C00021F480314FF0E022116100BF4FF0E02181
:1037D000096901F480310029F8D0401CA042ECDBDB
:1037E0004FF0E020006920F001004FF0E021086177
:1037F0000020886110BD00000000002040420F0042
:103800004FF04070E1EE100A704700000000010226
:103810000304010203040607080901020406080A5A
:103820000C10202020202020202001000200040075
:10383000060008000A000C00100020004000800074
:103840000001000100010001000100001F003B0019
:103850005A0078009700B500D400F3001101300140
:103860004E016D01296629663A0831C721052104F8
:10387000294639E818E42966294629662125318731
:1038800029662145298629A7298729862986298706
:103890002986216631C72146214529862966298640
:1038A00031C83A092946316731A83187318731A8B3
:1038B0002987298731A8424A3A09216621664A8B1D
:1038C0003A2929C829A7214639E831C831C831A782
:1038D0004A6A424A296639E93A0931C839E831A8C1
:1038E000296731A72987424A3A092966298629A7E3
:1038F00031C7424A29663A093A092987426A422968
:10390000422931A731E852EC3A29298752CC52ECAE
:10391000424A4A6A3A2929A73A2931C831E852CCA1
:10392000426B31C83A094A8B4A8B3A2A424A426A68
:1039300031C83A0952CC52AC4A6B4A6B424A424AAD
:1039400052AC4A8B4AAB4ACB426A52CC3A294AAB78
:103950004AAC3A294ACC52EC636E428B5B2D428BC7
:10396000532D532D5B4E426B530D5B0D426A636FBB
:103970005B2E5B0D5B4F6BB0741273D1743274129B
:10398000847463906BF24B4F63F263D26BF284D515
:103990005B6F74128CF57C537432951574117C72C4
:1039A000ADD86BAF73D0847273AF84726B8F5B2DA5
:1039B00052CC632D4A6A52AB4A6A52AB5AAB5ACBCD
:1039C000528A6B4D5ACC6B4E84317BF0738F6B4EA9
:1039D0004A6A39E842294A6A4A4A4A6A52CC52AB90
:1039E0004A8B52CC52AC526B4209318742095ACCB5
:1039F000528B4A295ACB420842084A6942074A690F
:103A00005AEB39E739C73A084249422839C739E7FA
:103A100039E831C731A72965296539E8296539C7EA
:103A20004208424941E8318639A74A28420839E725
:103A300039C731863186318639C741E839C73165A2
:103A40002965318631A7210421252125294531A762
:103A50002946210531A739C72966296621053186FE
:103A6000296629662966298629662966296629879D
:103A700029A7298629662146298631C831C8298681
:103A8000214521253187318831A831872967294689
:103A9000298731C829872987218731C8298729A7FC
:103AA0002166424A298731A739E82966212631C88B
:103AB000424A39E9212631C83A0931C83A0942292E
:103AC00039E931A7422931A731C73A093A0831C744
:103AD00031C83A2929874249424931E83A293A0806
:103AE0003A083A0831C84A8B5B0D424A31E831E85E
:103AF000424A424A3A09424A4A6B31C831A852AC5A
:103B000052CC3A0931E8424A4A8B424A4A8B4A8BA4
:103B100039E93A09424A4A8B424A422A424A52CC3D
:103B20005AED3A0952CC426A426A426A4A8B3A4991
:103B30005B0D4ACC5B2D5B2D4AAC5B2E4ACC530D02
:103B400052EC6BD0845231E85B2D636E4AAC638FCC
:103B50004AAC52ED638F636F73F17C1273F26BD1D9
:103B60007C337C5342ED6BF26C126C128D166BF150
:103B70007C73745374127C937C737C9384B47C72D6
:103B80007C5284737C119D157C116BAF5B2D634D52
:103B90005AEC52AB4A6A52AB42294A494A6A5AEC39
:103BA0005ACB6B4D73AF6B6E632D4A6A4209422943
:103BB00042094A4A4A4A4A8A52CC52CB4A8B424A22
:103BC0004A6A634E6B6E526B4A4A52AB4A4A42088B
:103BD000422942084228420842084208422839E75E
:103BE000318639C7422942284249422939E739E713
:103BF00039E839C731A631A631C7420831C739C7BC
:103C000039C739C739C7318639C74A28422839C721
:103C100031862965318631863165296539A74208A3
:103C200039A621042105212529862145190421458C
:103C30002946294618E42145296631A7298631C736
:103C4000296621252966296621462146216629877C
:103C500029A729A729A72987296629A731C829A71C
:103C600021462966318731A839C83187294621463E
:103C700031A73A09298729A729A731C83208426AFA
:103C800029A729A729A72967298739E931A731A7B2
:103C900031A831C831A83A093A0931A831A7424AB6
:103CA000424A31C8424A298631C7424A3A0831C895
:103CB0003A0939E831C7424A426A422931E839E8CB
:103CC00039E84A6A42494A8A52EC3A2939E831C805
:103CD000424A3A0929A73A094AAB5B0D52CC426ADB
:103CE000426A3A09426B426A426A3A294A8B52EC6A
:103CF000426A424A3A29424A424A4A8B424A422A44
:103D000052AC4A8B4A8B3A29424A4AAB52EC424A5D
:103D100052ED530D3A2A5B2D4AAB52EC428B741193
:103D20005B4E4AAB4AAB426A530D426A52ED636E38
:103D30004ACC638F636F7C536BD14AED73F18CB4C3
:103D40006BB17C7363B184B5743374327C746BF182
:103D5000639084B474326BF17C7374118CB49D35B0
:103D6000847295157C5294F473D05B4D634D634D12
:103D70005B0C5AEC424952AB528A52CB5AEC6B4D17
:103D80005ACB528A84116B6E632D5ACC52AB52AB14
:103D90004A4A4A6A5AEC3A094A6A52AB52AB52CB87
:103DA0004A6A52CB528B41E9420952AB420839C7A9
:103DB00052AB42294A6942084A494A6952AA4A69A9
:103DC00031A642284A49420839E839E839C731C79B
:103DD00039C731A639C739E839E831A639C731C7FB
:103DE00039C739C7420839E739A739C739E739A68A
:103DF000318639C739E739E739A62965316639A7E8
:103E000031A629452145294631C72966214531A7D3
:103E100031872966296631A7298631A72145298658
:103E20002145294629662966214621462966298693
:103E30002986298639E831C82966214631A731A764
:103E4000298731C72946318739C831A7296729878A
:103E500031A831C8216631E831C8298731E8530DCE
:103E60003A29216631A7296729674A6A3A0939E858
:103E7000298731C8422A4229422939E829873A0943
:103E8000424A31A739E839E83A2931E8298639E840
:103E9000424939E831C73A083A09422931A739E895
:103EA00031C8426A424A4AAB424921664A8B424A79
:103EB0003A093A29424A426A424A4AAB426A31E8DE
:103EC0004A8B4ACC52CC426B426A3A294AAB5B0DD0
:103ED0004A6B3A09426A424A426B52CC4A6B39E910
:103EE0004A8B52ED4AAB4AAB424A530C4A8B426A68
:103EF000426B52CC424A426A52EC5B2D5B2E530D10
:103F000052ED4ACC638F636F52CC636F7C324A8B25
:103F10005B2E741173F16BD073F174327C5384B4E3
:103F200063707C538D1684D57C737C736C127432F1
:103F30005B4F951584B47C528CF47C5284939D36EF
:103F40007C527C3273D06BCF5B2D634E73F0634E2B
:103F50005B0C73AF6B6E6B4E5ACB52AB528B632DB7
:103F600062EC630C94726B4E5ACC52AB5AEC5AEC26
:103F7000528B52AB4A8A4209630D632D52AB52AB4E
:103F80004A6A52CC42294A2A4209630D52AB41E89F
:103F9000528A39E84A69318652AA528A42074A4906
:103FA00039E74207424939C739C739E839E739C7DC
:103FB00039C731A731A73A083A082966420839C7F4
:103FC00039E839E84208420831A6318641E739C765
:103FD000318639E74A4939C731A631A631862945A4
:103FE000316539E72145296639E831A7294631A7E6
:103FF00031872966212529862966298621052946B2
:104000002145296629862966296629662966296641
:104010002166214631A731A7298629662987298764
:1040200029662146212531A731C82987298731C82A
:1040300031C8298729A72987216629A729A73A29CD
:1040400031C8424A298739E829A731C829A73A291E
:1040500039E831E83A0931E83A29422931E831E8CA
:104060003A0931C82987424A3A29296629A73A09D3
:104070003A0931E831E831A731C83A0931A73A297C
:1040800031A73A2931C8426A424931C74A8B3A4975
:104090003A29426A4A8B5B2D426A31C829A83A29DB
:1040A00052ED4A8B3A093A294AAB4AAB4AAB52CC59
:1040B0003A2931C84A8B52CC4A8B4A8B426A4AAB66
:1040C00052CC3A09634E634E426A4AAB3A493A4A85
:1040D000426B52EC4ACC4AAB6BD0636E5B2E3A2AF1
:1040E000532D63AF7C11530D4AAC638F636E52CC7A
:1040F00074114ACC3A4A9D36A577741284949D3641
:104100005B4F7C5384D57C7384D57C7384B47C52A0
:1041100095369D3673F18CB48CD484938CB37C31FA
:10412000638F741152EC5B4D5B2D5B4D73D06BAFA5
:10413000634D6B6E7BF06B8E5AEC5AEC528A630CBB
:104140006B4D7BCF94B3632D4A6A4A6A5ACB5AECC3
:104150004A6A4A8A4A8A4A8A634D632D52AB52ECB4
:1041600052AB52AB4A6A528B4A4A7BD08C51526A4C
:104170004208422939E831A75ACB4228296539E754
:1041800039C74208422839E739E8422842284228FC
:1041900042293A08294539C7420831C74A694208C5
:1041A00039C731A6318639A731A639C74A494208ED
:1041B00031663165420831652925318639C731A616
:1041C000318639C72125214539E831872125214507
:1041D000214529662125298631A739E8298629869E
:1041E0002946296629A729862986298729872966B4
:1041F000214621462986296629872987296631A7EC
:1042000031C72166296631A831A72966296639C8D0
:1042100031C829663A0929A7298732083A093A0993
:10422000216631E8298731E829A729A731C83A0949
:1042300031C831E831E829A729A731C831C831E8A8
:10424000424A4A8B31C73A2931C729A7424A4249D3
:1042500031C83A08424A31C73A093A0931E8426A54
:1042600031E83A0931E831C742494AAB3A093A499B
:10427000428A3A293A2952CC4A8B426A4AAB4AAB23
:10428000426A31C831E83A49530C52CC426A426A18
:10429000424A3A29424A4A8B426A4A8B4A8B4A8BA3
:1042A0004A8B31C85B0D52EC4AAB426A52EC426A0F
:1042B00052ED5B2D4AAB4ACC5B4E5B4E530D5B2EF1
:1042C00063AF5B4E5B0D5B0D6BAF4ACC52CC84731E
:1042D00084935B2E5B4F73F18CB4847374127C53A4
:1042E00074128CD57C737C529D5674326BD09515AC
:1042F000A5979D5684937C5273F07C727411634E23
:104300006BCF741052CC6BCF73D052EC5B0C7C3102
:104310006B8E4A8A6B8E632D5AEC632D52CB630CE5
:104320006B6E7BF07C105AEC52AB5ACC632D632D34
:104330004A6A4A6A52CB52AB4AAB4A8A52AB5AECEF
:1043400052CB3A08528B5ACC42295AEC73AF526A7C
:1043500039E84A4942084A694A493186422852AAFC
:104360004207528A39E739C73A08420839E8420811
:10437000422839E831A639C739E739C7420839E850
:1043800039C731A631863186318639A6420839E7E8
:1043900031862965316631A639C739C739C739C76A
:1043A00031A6316631A7190421252145296631C777
:1043B000214518E452AB528B3A0839E82966298620
:1043C000296631A731A72986298629872987298641
:1043D000296629862987214631A731A7214531C77A
:1043E000424931C731A731872987298731A731C889
:1043F00031A829873A0931E831A739E83A494A8B87
:104400002987216631A731E831E831C83A2931C816
:1044100029A731E831C831C82987298731C83A0925
:1044200042294A6A3A0831C731A73A08424A3A094A
:1044300039E83A294A8A31C8426A39E831E8426A99
:1044400042494249426A31E83A084AAB31E84A8B6C
:104450004A8B3A494A8B3A293A29426A52EC4AAB8A
:104460003209424A4AAB426A4ACB428A3A294AABAB
:104470004A8B426A3A49424942294A8B4A8A4A6AE5
:1044800052CB426A4AAB428B428A4ACB638E4AABDA
:1044900052EC5B4E5B2D320932095B6E5B4E636EF4
:1044A0005B2E530D4ACC52ED5B2D530D638F6BAFDA
:1044B0004ACC73F1636F74116BF1532E6BD07C7324
:1044C000849484B47C937C9395157C32636FA59718
:1044D0008CB38CF49D56847273F073F0634E634D0D
:1044E00074106B8F73F07C3173D05B2D4AAB8451A9
:1044F0006B8F4A8B73CF636E5AEC52CB422952AB0F
:10450000634D738E738E52CB528A528A52AB52AB2A
:104510004A8A5ACC426A5B0C52AB5AEC52CB4A6A7A
:1045200052CB52AB52AB5AEC4A6A39E842094208C4
:1045300039E8420839E84A4931A629654A69528A68
:104540003A084A4939C74208422839E7318639C70B
:104550003A0839C7422839E731A631C6298631C61B
:1045600039C739E739C731A631A63186318531A639
:1045700039C639C6318639C74208420739C731A61C
:10458000318631862145212531A731A72145214595
:104590002145296631A7318721452986294631875A
:1045A0002946296631A729862966298629872987E8
:1045B00029A731C729A721463A083A09214531A739
:1045C0004249296631872946296639C839E931A81F
:1045D00031A731C829872987216629A729A73A2920
:1045E00031C8426A39E84A8B426A214631C839E803
:1045F0003A2931E829873A0931E831C8424A424A22
:1046000031C829663A0829A739E83A2929A731C7C4
:10461000424A426A422929874A8A29A729A73A2970
:10462000424A426A426A52CB3208426A31E84A8BB5
:10463000424A5B2D3A2932083A0932094AAC52ED16
:104640003A2A4A8B5B4D426A426A3A49428A530C83
:104650004A8A29A74A8A4AAB3A293A084A8B6B8F79
:1046600073D04AAB5B0D52EC3A29530D5B0D428B74
:104670003A4A5B2D636E52EC52ED4ACC428B532D7D
:10468000638F4ACC5B2E5B2E4ACC73F07C3273F185
:10469000638F7411638F5B4E6BD0741174116BD088
:1046A00084B484B47411849374317C729D768CF4D8
:1046B000951574315B0D84937C315B2D6BAF7C3130
:1046C0007C1084729D3573F0634E6BAF52EC7410A6
:1046D000636E636E6BAF6B8E6B4E632D4A4952AB4C
:1046E000528A42496B6E5AEC5B0C5AEC52AB4A8AC6
:1046F0004A4A52CB52EC634D4A6A634D7C10634D7B
:104700006B8E5B0C422939E84A4A4A6A422942299F
:104710004A6A5B0C39E842294A494A4931C7296546
:1047200039E742284228528A52AA422831A639E75C
:10473000422839E7422831A631863A08296531C630
:1047400031A631A639C631A639E739E72965318660
:1047500039E731A642282965212431A6420739C606
:10476000318639C631A72986214521252966298622
:1047700021452125212529662125212531C739E813
:1047800029A729662986216631C71905298631A7F7
:1047900029A73A09422929872125296631A72966AF
:1047A000216631C83A08298631C729863A08424924
:1047B00021463A09216631C831C7216631C731C85F
:1047C00029863A2952CC4A8B3A2931E831C831E856
:1047D00032083A0952CC31E829A731C83A093A09D6
:1047E00031C83A4931C729A74A8A42493A29424A37
:1047F00031E8428A3A2931E8426A2987426A3A080E
:104800004249424931E832083A293A494A8B31E86B
:10481000424A3A09424A428A424A3A093A09424AD3
:10482000424A32084AAB3A493229530C428A530C65
:104830003A29426A4AAB4A8A4A8B4A8A4AAB52ECC4
:1048400052EC426A5B0D52EC52EC4ACB530C6BAF0C
:104850004AAB5B4E6BD05B4E530D4ACC530D530DA0
:104860004ACC5B4E5B6E530D428B5B4E6BD06BD074
:10487000532D74316BD0530D5B6E84B47C52743104
:104880008CF46BF08CB37C5294F47C318452ADB7D1
:1048900094D46BCF8CB3530C52EC638E7C316BAFE2
:1048A00094F47C1184938CB37C314AAB73F08472A2
:1048B0006B6E634E5AEC632D5B0C52AB4A6A52AB83
:1048C0005ACB5ACB5B0C5B0C4A6A42295AEC4249E0
:1048D0004AAA4A6A52CB4A8A4AAA52CB4AAA5B0CD3
:1048E0003A283A284A4A422942294A6A39E852ABC8
:1048F00052AB39E839E842494A49318639C74A4911
:1049000039C742083A0842084A49424942284208FF
:1049100031C631A6420831C6318631C64208422826
:1049200039E739C739C639E74208420739E739C795
:1049300031A6318631A62945318639E731A64207AD
:10494000294431A631A7298629661904296621251B
:1049500021452166298631A72966296631E8422941
:1049600039E829A72146296631A729864A6A4229BA
:1049700029872146296629A729A731A739E839E8D7
:1049800031A729A731C731E82145296639E831C760
:104990002987214531C7214531C831E8296631A72A
:1049A00031C7298731E831C829A729A729A731C8E4
:1049B00031C831C83A093A49426A31E8298729C7DA
:1049C00031C83A0931C721663A0932083A29424AC0
:1049D00029A731E84249428A426A428A31C7424A9B
:1049E0003208426A3A2942493A2931E8426A4A8BF6
:1049F00052EC424A31E84A8B426A31C83A094A8B42
:104A00004A8B3A293A29532C3A293208426A2166BC
:104A10004ACB6BAF426A424A4AAB52EC4A8A3A29C5
:104A20004249426A5B4D5B2D4A8B3A4952EC4ACC73
:104A3000530D530D5B4E5B2D530D4ACC5B2D638F95
:104A4000532D5B4E42AB636F5B6E5B6E5B4E638F51
:104A50005B2D6BF063B06BD074327411741184935E
:104A6000849374117C5274317C52849394F48472D4
:104A700094F48C938472638E530C52EC5B4D6BAF49
:104A80007C318492847284727C516BCFA57673F0F2
:104A900052CC6B6E632D634D5AEC528B4A8A4A6A34
:104AA000528A5ACB5B0C4A8A29865AEC632D4A6A91
:104AB0003A0852AB42493A08424952CB52CB52CB08
:104AC0003A283A29424939E839C739E831864A6AE9
:104AD0005ACB528A4A494A494A4931A739C74A49B1
:104AE00039E8420839E74208422839C739C742281D
:104AF00042284228420839E739C739E739E739E718
:104B000039C731C639E739C731A639C64207422805
:104B1000422839E739C63185318639C631A631A6F2
:104B20002965318629662986298621252986212518
:104B30002966298631C729862966296631A73A0858
:104B400039E82986212539E839E831A74A6A31C789
:104B500029A72987216631C731E839E83A0839E8B9
:104B600031C831C8296639E82987298631C831C852
:104B700031C829864249298631E83A0829A731C730
:104B800031C7298731E831C831E831E831E831E807
:104B900031C829A731E831C83A293A293A293A09CE
:104BA0003A094AAB4AAB3A093A292986214529A74D
:104BB00031C74A8B3A293A094AAB426A31C83A08A6
:104BC0004249426A428A4AAB3A4931E8426A428BD8
:104BD00052EC426A424A52CC426A29C83209426ABD
:104BE000428B4AAB4ACC52EC426A4ACC530D638E9C
:104BF000428B4AAB4AAB426A426A4AAB52CC52EC55
:104C00005B0D5B0D4AAB5B4D4ACC426A5B2D3209B2
:104C1000636E4ACC4ACC530D5B4E530D5B4E63AF73
:104C20005B6E5B6E6BB06BF0638F6BD073F06BD0B1
:104C30006BD084936BF07C7284935B6E63D07C92B8
:104C40006BF07431743184728CB37C5294F47C5167
:104C50008CF48CB37C317C317C3174105B2D84728C
:104C60008472A5768472638F84528C9394F44AABD9
:104C700052EC52EC634D6BAF634D4A8A52AA52AB71
:104C800052AB5AEC52CB632C4A8A5AEC4A8A4A6A93
:104C9000424952CB424952CB52CB426A4A8A4AAB32
:104CA00052CB3A2842493A083A084A6A39E8424916
:104CB0004A6A42494A6A3A083A0831C739E74249DA
:104CC0004229422839E742283A07318631A642482C
:104CD00052894A4939E739E739E739E739E731C6CF
:104CE00039C639E742083A0739E631A631A631C656
:104CF0003185296531C631A6318531A639C6296588
:104D000031A631A6212529662166298629A729866B
:104D1000296631A72986214529662986214529A7A3
:104D200031C721452146422931C829863A08214602
:104D300031A739E831C831A7298731C831E8298737
:104D400031C84AAB31A731A74A8A31C829873A0806
:104D500029874229426A424931E829A731E831C707
:104D600021463A093A093A293A29424A424A3A2915
:104D700031E829A73A4929A729A731E83A0931C8D2
:104D8000216631E83A083A084A8A426A3A293A08DA
:104D900031C73A293A0931C74A8A424931E83A29A2
:104DA000428A4249428A426A3A29426A426A3A0936
:104DB000426A426A4AAB4AAB424A3A4A426B3A2991
:104DC0003A2952ED4ACC3A2952EC5B6E3208638E96
:104DD000428B426A4ACB4ACB4AAB426A426A52ECA5
:104DE00052EC424A428A5B2D4ACC4ACB638E428ABD
:104DF0006BAF4AAB42AB530D638F5B4E5B4E5B6E4A
:104E0000532D63AF532D530D52ED6BD07431638F1F
:104E10005B4E63AF638F74117C72745284937C52C7
:104E20005B6E6BD073F074108CB36BAF7C728CD3F1
:104E300073F0741194F48CD494F4951473D08CF4AE
:104E40008CD38CD384727411847284727410428AED
:104E50005B2D4A8A5B0C73CF6B6E4A6A5AEB632CEC
:104E60005B0C52CB52CB6B6E6B6E422842494A8A26
:104E7000632D52CB3A2852CB52CB426A4AAA4249BE
:104E800052CB3A08422942294A6A5AEC42494249DD
:104E90003A0839E84A6A39E83A083A0839E84228CB
:104EA0004249422842084A48420739E73A0742281D
:104EB0004A694207318631A639E739E739E739C708
:104EC0003A07424831C642074A48422839E731C6C4
:104ED00031C639C631A531A6318531A539E7294416
:104EE00039E731A621452986190431C7298631E8D9
:104EF000216629A72986216629A731C72166298627
:104F000029A7216629663A08298629663A29298629
:104F100031A7296631A72987296631A731A72986B4
:104F200031E852CC3A2931C74A8A31E8298629A783
:104F300021453A283A083A0831C7298631C729A7B6
:104F400021453A2931C831C832083A29424A3A291A
:104F50003A0931E831E831E83A2929A729A731E8A7
:104F600031C829A729A729863A084A8A52EC4ACB90
:104F700031E821864A8A42493A2952CC29A752CBA4
:104F80003A293A08426A3A493208428A428A3A2918
:104F9000424A426A3A293A4A426A4AAC52CC3A4AAE
:104FA0003A294ACC3A293A294ACC52EC3A4A3A4A66
:104FB000636E4AAB3A294A8B52ED4ACC426A4A8B1D
:104FC0004AAB424A530C530D428A4AAB532D636E8F
:104FD00063AF4ACC530D530D5B6E5B8F638F5B6E7B
:104FE000532D6BD06BD074115B6E52EC532D638FCD
:104FF0007C727C726BF06BD063D07C727C726C10B4
:1050000074316BF063AF6BAF743174107C318CD43E
:1050100063AF7C318CB38CB36BD074118CB394F4CC
:105020008CD47C527C52A5967C3163AF84516BAF9B
:1050300052CB52CB52EB5B0C5B2D52AB634D632CCE
:105040005B0C5AEB52CB4A6A4A8A3A285AEC632DD7
:10505000636D52CB4A8A42494A8A636D6BAE3A28E5
:10506000428A4AAA42284228422852AA4229424950
:1050700042494A8A4A6A422942494A8A42293A08A6
:1050800042493A0842284A483A074248422839E702
:10509000420739E731A631A639E73A073A0739E737
:1050A0003A07422831A63A074228420739C631A6B4
:1050B00031C639C6318531A631A531A642072965E9
:1050C0003A0731A529A629A6190429A7298631E876
:1050D000214529A62986298631C731C729862986EF
:1050E00029862986296631A731C8298631C72166D4
:1050F00031A72986298731E831C831A731A731A7DF
:1051000031A739E8424931E8298631E831C7298693
:1051100031C729A631A7214539E839E8296631A7E1
:1051200039E831C731C831C831E83A093A293A2952
:105130003A0931E83A2931C831E831C83A294A8B6D
:10514000424A3A493A2931E831C731E83A293A29FD
:105150003A093A084A8A3A293A49426A3A294ACBEC
:10516000424931E84AAB4ACB3A293A493A4A4AAB32
:105170004A8B3A293A49426A4A8B426A3A4A426A17
:10518000428B428B3A4A428B42AB4AAB5B2D638FD8
:105190004AAB4ACC4AAC3A4A426A52CC4ACC4AABB5
:1051A0005B0D636E4AAB52EC52EC530D428B638E37
:1051B000532D4ACC5B6E530C530D5B6E6BD063AFBB
:1051C0005B4E6BD0532D636E5B4E638F6BD0638FE2
:1051D0006BF0532D7C72741163AF74316BD063D05C
:1051E0007C725B6E530C7C7274107C3163AF849262
:1051F00084727C3163AF953574316BD09D7684B306
:105200007C5284938CB38CF45B2D530C6BAF6BCFBF
:1052100052CB52CB5B0C426A5AEC634D73CF52CBEC
:105220005AEC632C424942294A6A5B0C5B0C73AF0F
:105230005B2C52CB5B0C4A8A4A8A5B2C5B4D4269E1
:10524000428A52CB422842293A084A6942494A8A4C
:105250004A8A5AEC3A08422942494A8A4A6942280B
:10526000424942284228424839C64228422831A6AB
:1052700042073A0739E739E73A0742083A0739E778
:1052800039E739E73A0739E631A62985298531A674
:1052900031A5296531C639C631C639C63A0731A6A6
:1052A00039C6298529A72986216629A63A0831C742
:1052B00021662166298629A72986298629A7298684
:1052C0002166298629862987424931A721662145F9
:1052D00031C839E831C83A0831E831A731C731A7B8
:1052E000298731A73A2931C7298631E831E831E8E1
:1052F0003A28298629A729663A083A0829A73A08A8
:105300003A0831C73A09320932093A093A293A29A1
:10531000320831E84AAB31E829C731E83A493A293D
:1053200029A729C73A083A493A4942493A0829C7B8
:1053300031E83A293A2929A7426A29C74AAB3A49AA
:10534000428A3A294AAB530C426A428A3A29426A53
:10535000428A426A4AAB428A4AAB426B3209426A8B
:1053600052EC4A8B428B42AB4ACC428B3A2A63AF17
:1053700021A75B4E6B8F428B3A294A8B4A8B424A5C
:105380004AAC5B2D426A530C5B2D636E428B5B6EA5
:10539000530D42AB5B4E530D532D5B4E63AF63AF6A
:1053A0005B6E6BD0638F5B6E5B2E6BD074315B4E2C
:1053B0006BF05B8F6BD06BF07C7284B37C927C72F1
:1053C0006BF042AB42AB7C31743163AF530D7C72F6
:1053D0009515847284B3B639B6398CF48D157C5228
:1053E0006BD06BF08492638E5B4E5B2D4AAB530C9B
:1053F000530C4AAB5B0C42496B6E73CF73CF4A8A36
:105400005B0C5B0C424952AA634D634D4AAA6B8EFA
:10541000634D5B0C52EB52EB4AAA3A283A084AAA6F
:1054200042493A0842494A6A42494A8A42494A8AB2
:1054300042494A8A39E84249422842494A8A42292D
:1054400042493A083A084A4939C742283A0731A638
:105450004A4942483A07420742284228420739E768
:1054600039E73A0739E739C631A531A539E7424866
:105470004A68424839E731C631C639E639E742273A
:1054800031A631A52986214531E831C74AAB31C75C
:1054900029A7216529A731C72166216531C729A719
:1054A0002165298631C72145424939E831A731C7ED
:1054B00039E831A7422931C7296629A731C829A768
:1054C00031A742493A2821663A2931C729A64249DB
:1054D00029A7216629A73A083A08296639E8422906
:1054E00031A731C831C831C831C831E831E831E8B5
:1054F00031C829C731E83A29428A320931C83A0904
:1055000031E8320831E83A0832083A493A49320873
:105510003A293A0829C731E83A493A293A49426AC8
:105520003A29426A3A294AAB428A5B0D3A4931E844
:10553000424A5B2D428A32084AAB5B2E4AAB4AABE9
:10554000530D4AAB4ACC428B4AEC4ACC4AAC4ACCCB
:1055500042AB4AAB4ACC428B4ACC5B0D4ACC4A8B1D
:1055600052EC5B4E5B4E5B2D428B4ACC4ACC6BD0EF
:1055700063AF426A4AEC532D5B6E5B4E5B4E5B6ED3
:105580005B4E6BD0530D74117C5274116BD05B6EFB
:1055900084B3743174116BF07C927C9284B38CF47C
:1055A00074316C10638F5B6E7C726BCF63AF95351B
:1055B000A597B619B619ADD8C69B9D566BF084B3A6
:1055C00084935B4E638F6BAF84B36BD05B4D52CBD8
:1055D0004AAB5B0C4AAB4A8A73F073AF632D424906
:1055E0005B0C4A8A5B0C4A8A634D4A8A52AB632D34
:1055F0006B8E634D52CB52CB52EB4ACB4A8A634DF2
:10560000424931E84A6A4A8A422842283A084249CD
:1056100042284A6A42495AEC4249424952AA4249FE
:105620003A0831A639C74A89420742283A0739C69B
:10563000528A4A4839C739E742284248420839E77E
:105640003A0742483A07422742283A0739E73A07D9
:105650004227422739E731A631C639E631C64A69C1
:1056600031A639C631C729A62986214531C731E877
:10567000214529A631C729A6298631C731E82166E7
:10568000214529A7192431E74A8A6B8E31E831C7B1
:10569000296631C7296631C73A0831C7298631A73B
:1056A00031C731E73A08296631A739E829862986C2
:1056B0003A083A29298631C742293A0829874A8A6D
:1056C0003A0839E831C8218631E831C831C831C8D3
:1056D000426A424A296631C8424A3A293A093A0995
:1056E0003A094AAB4229320842493A2931C829C706
:1056F00031E84ACB2986426A29A7428A3A084ACB2E
:105700002986428A4AAB32084A8B424A426A636E11
:1057100031E952CC3A2A3A29426A4ACC5B4E52ECE1
:105720003A29428B52EC428B7C313209426A5B4E01
:10573000636E3A6A3A4A532D4ACC5B4E5B4E3A4A04
:10574000428B4AAC5B4E5B2E52ED52ED4ACC5B4E27
:105750004AEC5B4E4AAC5B2D638E530C638F42ABBD
:105760005B6E532D6BD073F05B2E532D7C32741116
:105770007C726BF07431743174118CF47C928CF403
:1057800095356BF063AF534E74117C727C728CD480
:105790008CF4ADB8B6198CD484B39D5674316BD0EB
:1057A00084B35B2D5B2D4ACB5B6D63AE5B4D530CBD
:1057B00052CB52CB4AAB52CC5B0D73AF632D5AEC3C
:1057C000422952CB4A6A634D5ACC5AEC634D528BF4
:1057D000424952CB4A8A5AEC52EC3A2931E84249C2
:1057E0004AAB4AAB3A0831E84A8B4A8A4A8B4A6A42
:1057F00052CC4249422939E839E852AB39E84229CA
:10580000528B4A8A42284207424842284A484A89DB
:1058100042283A07422831A631A64228422831C6FA
:1058200031C639C64228424842484A6939E731A65A
:1058300039E731A639E739C731A631A6422852895E
:105840004228298531C7298629A62145216629862E
:105850001925298631C729A62145216529A629862A
:10586000298629A731A731A74249424931A729668C
:1058700031C731C73A0839E831C731C742294A6AC6
:1058800042693A0831C742293A0831C731C73A0854
:1058900042294229422931A739E831A729A73A08E4
:1058A0003A083A293A0931E83A2929A72987296685
:1058B0003A29426A3A2931C83A093A29424A426A9F
:1058C0003A293A29424931C831E839E83A09424986
:1058D0003A29428A31E8426A320832083A0829A74E
:1058E000530C428A426B5B2D3A29426A3A2A426A39
:1058F0005B2D5B2E424A4AAB52ED428B426A4AAB69
:105900004AAB530D428B4AEC741152EC530D42AB2F
:105910005B4E42AB3A6A530D428B42AB42AB4ACC30
:10592000532D63AF5B2E4AAC530D426B636F530D27
:1059300052EC4AAC63AF5B4E4ACC63AF534D5B8EC7
:1059400063AF63AF6BD07C3273F0636E63AF6BAFEA
:105950006BD0638F6BF08CD47C7284B38CF484B383
:1059600063AF5B6E63AF63B06BF08CD49515953508
:105970009D76B5F8A5979514849363AF6BCF74119A
:10598000636E6BAF5B6E428A5B4D6BAF52EC428ACB
:105990004ACB634D5B2D5B0C632D632D5ACC632D7D
:1059A00052AB4A6A4A8B632D5AEC5ACC52CC4249CC
:1059B0004A6A5B0D52AB4A8B4A8A52CC4A8A4229C8
:1059C0003A09426A4AAB3A093A2931E83A094A6B3C
:1059D00052EC52AB4A4A4A4A4A6A5AEC4A8A4A6AE2
:1059E0005AEC5AEC52AA4248420831C639E74A6991
:1059F0004A484A483A0731A639E74A694A693A07A4
:105A000039C731A639E74A6942284208420831A617
:105A100031A639E731A639E73A0739E731A63185AA
:105A200031A631C62986216531C729A7298629A62D
:105A3000298629A729A731C72986216631C731E7D9
:105A400029A7298631E729A631C731A729862986C2
:105A500031C731A731A731C731E73A084249424936
:105A60003A0831C731A742693A2831A73A083A08BB
:105A700039E842494A8B298731A7296631E831A79D
:105A80003A0942293A0939E831E831A7424A3A2924
:105A90003A293A09422931C83A29424A3A09424A3E
:105AA000426A426A3A093A09424A3A293A0942495B
:105AB00042494AAB3A493A084AAB3A49426A29C78D
:105AC000638E31E84A8B636E2987426A52EC4AAB97
:105AD000636E3A29424A4ACC5B2D428B3A294ACC22
