:020000040800F2
:10000000E84A002005010008CB200008C31A0008B8
:10001000C9200008D90900081D30000800000000B0
:100020000000000000000000000000007D2C00081F
:10003000190B000800000000692B00087F2C000845
:100040001F0100081F0100081F0100081F01000810
:100050001F0100081F0100081F0100081F01000800
:100060001F0100081F0100081F0100081F010008F0
:100070001F0100081F0100081F0100081F010008E0
:100080001F0100081F0100081F0100081F010008D0
:100090001F0100081F0100081F0100081F010008C0
:1000A0001F010008D52C00081F0100081F010008CF
:1000B0001F0100081F0100081F0100081F010008A0
:1000C0001F0100081F0100081F0100081F01000890
:1000D0001F0100081F0100081F0100081F01000880
:1000E0001F0100081F0100081F010008DFF810D0E1
:1000F00000F060FC004800470D410008AFF30080AD
:10010000E84A00200648804706480047FEE7FEE729
:10011000FEE7FEE7FEE7FEE7FEE7FEE7FEE7FEE7B7
:10012000D32C0008ED000008202A04DB203A21FA35
:1001300002F00021704721FA02F3D040C2F1200200
:10014000914008431946704740EA01039B0703D0DA
:1001500009E008C9121F08C0042AFAD203E011F806
:10016000013B00F8013B521EF9D27047D2B201E0C8
:1001700000F8012B491EFBD270470022F6E710B5AC
:1001800013460A4604461946FFF7F0FF204610BD05
:10019000F0B480EA0102D40F4200B2EB410F02D268
:1001A0000246084611464A0042D0C30DDDB2C1F3F3
:1001B000C752AD1A202D35DAC1F3160141F4000201
:1001C00004B15242C5F1200602FA06F12A41104458
:1001D000B3EBD05F23D0C4B1012DA0EBC35009DC39
:1001E000F0BC4FF0004202EAC352DBB200F500005F
:1001F00000F025BB400000F1807000EBC350A0F17F
:10020000807040EAD170490009E0490841EAC071B4
:10021000A0EBC35000F50000400800EBC350F0BC59
:1002200000F004BB6142012202EB4101001BF6E732
:10023000F0BC704781F00041AAE780F00040A7E7DA
:1002400080EA010210B502F00043400022D04A00CB
:100250001FD0010E01EB1261C0F35600C2F356022B
:1002600040F4000042F40002A0FB022000047F39A9
:10027000140400D0401C50EA124001D44000491E32
:10028000C2B20C0604EBD010401C4008802A02D0F9
:1002900003E0002010BD20F00100002900DA00205A
:1002A000184310BD30B480EA010202F0004530F07E
:1002B000004221F0004013D090B1C30DD40DC2F321
:1002C0001601C0F31600E41A41F4000140F40002E4
:1002D0007D34914201D3641C00E04900002C02DA15
:1002E00030BC002070474FF400000023914201D33E
:1002F000891A034340084FEA4101F7D151B19142B5
:1003000002D14FF0004105E002D24FF0010101E0BF
:100310006FF0010103EBC450284430BC00F086BAF2
:10032000420005D0C0F3C7525242914201DC002086
:10033000704700EBC15070472DE9FE4F804681EABF
:100340000300C00F0C46009021F0004123F000454F
:10035000B8EB0200A94105D24046214690461C4612
:100360000B46024623F00040104347D0270DC7F349
:100370000A00C3F30A510290401A019040286BDA38
:10038000C3F3130040F4801B0098924620B1002371
:10039000D2EB030A63EB0B0B01985946C0F1400204
:1003A000504600F022FA06460D4650465946019A3C
:1003B00000F02AFA10EB08006141002487EA11528C
:1003C00084EAE7731A4340D0009A62B3019A012A83
:1003D0004FEA075215DC001B61EB02014FF00042AF
:1003E00002EA0752CDE90042001C41F58011324675
:1003F0002B4600F061FA03B0BDE8F08F404621467D
:10040000F9E7001B61EB0201001C41F580130018A5
:100410005B412018A2F5001747EB030140EAD570B5
:10042000B6196D4111E06D084FEA360645EAC07510
:100430004FEA0752001B61EB0201001C41F58011DD
:1004400049084FEA30000019514132462B4603B0AB
:10045000BDE8F04F00F021BA0098012240000023CF
:10046000D0EB020263EBE073009821464FEAE074A0
:10047000B8EB000061EB0401E9E783F000435BE7C0
:1004800081F0004158E72DE9FE4F81EA030404F0B2
:10049000004421F0004100944FF0000B23F0004392
:1004A00050EA01045ED052EA03045BD0C3F30A545D
:1004B000C1F30A552C44A4F2F3340194A0FB025476
:1004C000C1F3130141F48011C3F3130343F4801308
:1004D00001FB024400FB034E840A970A44EA81545C
:1004E00047EA8357A4FB076802958D0A05FB078539
:1004F0004FEA932C04FB0C542705029D4FEA065843
:1005000047EA1637B5EB08056EEB070C870E920E1F
:1005100047EA811742EA8312A7FB0201B6EB0B01FF
:1005200064EB00042B0D43EA0C335E1844EB1C50C3
:10053000DA465146E7FB0201C5F313044FEA0B33D9
:1005400043EA14534FEA0432019C43EA0603A4F140
:100550000C040294009CCDE900B400F0ADF903B0A6
:10056000BDE8F08F00200146F9E72DE9F04D81EA62
:10057000030404F0004B21F0004514464FF0000A3C
:1005800023F0004150EA050220D054EA01021DD0B8
:10059000C5F30A570246C5F31303C1F31300C1F3B1
:1005A0000A5640F4801543F48013A7EB0608101B8D
:1005B000D64608F2FD3873EB050002D308F10108B6
:1005C00001E092185B41B8F1000F03DA0020014608
:1005D000BDE8F08D00204FF48011064684460EE001
:1005E000171B73EB050705D3121B63EB05030643CB
:1005F0004CEA010C49084FEA300092185B4150EA7E
:100600000107EDD152EA030012D082EA040083EA26
:100610000501084305D0101BAB4106D2012200237F
:1006200006E000224FF0004302E06FF00102531099
:100630001AEB06004CEB085110EB0A0041EB0B01E2
:10064000BDE8F04D00F029B9C10F80EAE070084420
:10065000CA079623002100F0F2B896230022114623
:1006600000F0EDB80EB5C10F80EAE0700844CA078B
:10067000002140F233438DE80E000A460B4600F09D
:100680001BF903B000BD00F0004220F00040C10D96
:10069000C0F3160040F400007F2901DA0020704703
:1006A000962903DCC1F19601C84001E096398840E3
:1006B000002AF4D04042704770B5C1F30A5201F0ED
:1006C00000450024C1F3130140F2FF3341F48011CF
:1006D0009A4201DA002070BD40F233439A42A2F2FE
:1006E000334203DC5242FFF71FFD00E090402C43F1
:1006F000F1D0404270BD00F0004230F000400AD01E
:10070000C10D01F56071C0F3160042EA0151C20843
:1007100040071143704700200146704701F0004335
:1007200030B421F0004150EA010206D00A0DA2F5D2
:100730006072C1F31301002A02DC30BC0020704754
:10074000440F44EAC104C100E01830BC00EBC250C1
:1007500000F06CB800210720ABBE704730B50B46E7
:10076000014600202022012409E021FA02F59D42E1
:1007700005D303FA02F5491B04FA02F52844151EB5
:10078000A2F10102F1DC30BD2DE9F05F0546002049
:1007900092469B4688460646814640241BE02846F2
:1007A000414647462246FFF7BFFC53465A46C01A09
:1007B000914110D311461846224600F016F82D1A22
:1007C00067EB01084F4622460120002100F00DF89A
:1007D00017EB00094E41201EA4F10104DFDC48465E
:1007E00031462A464346BDE8F09F202A04DB203AE2
:1007F00000FA02F1002070479140C2F1200320FA74
:1008000003F3194390407047202A06DBCB17203AA8
:1008100041FA02F043EAE07306E041FA02F3D04005
:10082000C2F1200291400843194670470029A8BF31
:100830007047401C490008BF20F00100704710B409
:10084000B0FA80FC00FA0CF050EA010404BF10BCBE
:10085000704749B1CCF1200421FA04F411FA0CF1EB
:1008600018BF012121430843A3EB0C01CB1D4FEA24
:1008700000614FEA102042BF002010BC704700EB1F
:10088000C35010440029A4BF10BC7047401C49004D
:1008900008BF20F0010010BC704710B5141E73F1A2
:1008A000000408DA401C41F1000192185B411A4330
:1008B00001D120F0010010BD2DE9F04D92469B467C
:1008C00011B1B1FA81F202E0B0FA80F22032904622
:1008D000FFF78BFF04460F4640EA0A0041EA0B018E
:1008E00053465A46084313D0114653EA010019D023
:1008F000C8F140025046FFF717FC05460E46504629
:1009000059464246FFF771FF084305D0012004E035
:1009100020463946BDE8F08D0020054346EAE076E2
:100920002C4337430A986305E40AA0EB0800002231
:10093000FD0A44EA47540A3002D500200146E9E79F
:10094000010510196941DDE9084500196941BDE853
:10095000F04DA2E7C1F30A52C1F3130140F2FF3395
:1009600041F480119A4202DA00200146704740F2B9
:1009700033439A42A2F2334202DC5242FFF7D4BB25
:10098000FFF733BF30B5041E71F1000404DB4FF0F4
:100990000044404264EB0101141E73F1000405DBC6
:1009A0001C464FF00043524263EB0403994208BFD8
:1009B000904230BD064C074D06E0E06840F0010370
:1009C00094E8070098471034AC42F6D3FFF792FB47
:1009D000585A0008785A0008FEE700002DE9F04157
:1009E00001F046F9882001F009F901F091F92C2075
:1009F00001F004F901F08CF9062001F0FFF801F094
:100A000087F901F05DF90A2000F0AAF801F030F949
:100A1000892001F0F3F801F053F90A2000F0A0F862
:100A200001F026F9892001F0E9F801F071F90020C0
:100A300001F0B2F8304C607001F044F8002001F091
:100A4000ABF8A07001F03EF8002001F0A5F801F02D
:100A500039F8002001F0A0F8E07001F033F8002030
:100A600001F09AF8207101F02DF8002001F094F8BF
:100A700001F028F801F024F9A078FFF7EEFD054613
:100A800060780002FFF7E9FD2946FFF781FB1B496B
:100A9000FFF7D6FB1A4E3146FFF704FCFFF72BFE9B
:100AA000184A194BFFF7E9FCFFF738FE0546A0602E
:100AB0002079FFF7D2FD0746E0780002FFF7CDFD71
:100AC0003946FFF765FB3146FFF7ECFB0F4E314629
:100AD000FFF7B6FB0E49E0608D4209D80D498D4203
:100AE00006DC10F1FF4F03D2B04201DC002000E031
:100AF00001202070BDE8F0812400002000002F4379
:100B000000FF7F47CDCCCCCCCC6C47400000C84226
:100B1000000020C200001643704700F021B8704763
:100B200002484FF08041008888637047160000201B
:100B30001FB500220192029202220091039269469F
:100B400000F020F81FBD1FB500220292022203927E
:100B50000122CDE90012694600F014F81FBD000023
:100B600070B5044600F010F90546601C02D0044838
:100B70000078044400F008F9401BA042FAD370BD8D
:100B8000040000202DE9F84FDFF8B891002409F1A6
:100B9000040A0AF1040B23460F270BF1040EC9E0E7
:100BA0000125A5402A40AA427DD1674ED1F804C054
:100BB000ACEB0608B44532D014DCBCF1030F3AD0DC
:100BC00009DCBCF1000F2AD0BCF1010F1CD0BCF134
:100BD000020F31D11DE0BCF1110F17D0BCF1120F83
:100BE0002AD119E0B8F5881F19D006DCB8F5803F86
:100BF00015D0B8F5801F1FD111E0B8F5001F0ED039
:100C0000B8F5041F18D10AE0CB6815E0CB681B1DAE
:100C100012E0CB6808330FE0CB680C330CE08B6834
:100C20002BB1012B4FF0080303D0456104E00423EE
:100C300002E0056100E00023FF2A01D8064601E03A
:100C400000F104064FEA840501D9A5F12005D6F884
:100C5000008007FA05FC28EA0C0803FA05F548EAC3
:100C60000508C6F800804D68ED0062D5374DAE69C5
:100C700046F00106AE61AD6924F0030605F00105FA
:100C80000095334D06EB050CDCF80850A607360F2F
:100C900007FA06F825EA0805DFF8B880404503D1D1
:100CA0004FF0000817E044E0DFF8AC80404502D187
:100CB0004FF001080FE0DFF8A480404502D14FF06B
:100CC000020808E0DFF89880404502D14FF00308A1
:100CD00001E04FF0040808FA06F848EA0508CCF8E5
:100CE00008804D68D9F80060ED034D4601D51643E4
:100CF00000E096432E604D68DAF80060AD0355467B
:100D000001D5164300E096432E604D68DBF8006085
:100D1000ED025D4601D5164300E096432E604D6816
:100D2000DEF80060AD02754601D5164300E096433B
:100D30002E60641C0D682A46E5407FF431AFBDE8A3
:100D4000F88F000000040140000011100010024064
:100D50000000014000080140000C0140001001406B
:100D6000001401408068084000D001207047C2682C
:100D700021EA02030A4043EA0241016170470AB1D5
:100D8000016170470904FBE7014880687047000073
:100D90000400002002488168027811448160704795
:100DA00004000020074810B5016841F010010160FF
:100DB000032000F075F8002000F006F800F024F899
:100DC000002010BD0020024070B50D4D04464FF4C8
:100DD0007A712878B1FBF0F00A490968B1FBF0F0AC
:100DE00000F037FC48B9102C07D200222146501ED3
:100DF00000F036F800206C6070BD012070BD00006E
:100E000004000020000000200C4808B5816941F072
:100E100001018161816901F001010091C16941F025
:100E20008051C161C06900F0805000900448416861
:100E300021F0E06141F00071416008BD0010024006
:100E400000000140002809DB00F01F020121914051
:100E50004009800000F1E020C0F800117047000058
:100E6000F0B40E4B1B680C46C3F30223C3F1070515
:100E7000042D00D90425191D072901D2002300E003
:100E8000DB1E012606FA05F1491E214099409E40CD
:100E9000761E16403143F0BC02F0D2B80CED00E0F3
:100EA000064900F0070208684FF6FF03184040EAC1
:100EB0000220034A10430860704700000CED00E078
:100EC0000000FA052DE9F0470F46050061D0434EBA
:100ED000306800F00700B84209D2306820F00700FF
:100EE00038433060306800F00700B84251D12868BC
:100EF0003B4C810712D5400703D5606840F4E060A1
:100F000060602878000703D5606840F46050606036
:100F10006068A96820F0F000084360602878C00786
:100F200028D06868012810D02168022810D08907CD
:100F300000292EDA616821F0030101436160FFF7A7
:100F400023FF804641F288390DE021688903EFE7ED
:100F50008901EDE7FFF718FFA0EB0801494502D929
:100F60000320BDE8F0876068696800F00C00B0EB12
:100F7000810FEFD1306800F00700B8420BD930681C
:100F800020F0070038433060306800F00700B842B6
:100F900001D00120E5E72878400705D56068E968B9
:100FA00020F4E060084360602878000706D5606898
:100FB000296920F4605040EAC100606000F038F810
:100FC0006168084AC1F30311515CC84006490860D2
:100FD00006480068FFF7F8FE0020C2E70020024044
:100FE000001002402C4600080000002008000020ED
:100FF0000448054900684968044AC1F30221515C6C
:10100000C840704700000020001002403C46000825
:101010000448054900684968044AC1F3C221515C8B
:10102000C840704700000020001002403C46000805
:1010300012A185B00FC98DE80F0014A0144A0068F2
:1010400004905168134801F00C03042B10D0082BB6
:101050000ED1C1F38343C9031DF803000AD55168BB
:1010600004AAC1F34041515C0A4A5043B0FBF1F07D
:1010700005B0704708494843FAE700000203040539
:10108000060708090A0B0C0D0E0F101001020000D4
:101090000010024000127A0000093D002DE9F84FCF
:1010A000040070D02078C04DC00749D06868C0F3F4
:1010B0008100012807D06868C0F38100022809D1A7
:1010C0006868C00306D52868800339D560680028A1
:1010D000E7D035E06068B0F5803F0BD010B1B0F5D7
:1010E000A02F11D0286820F480302860286820F4D0
:1010F000802002E0286840F480302860606890B169
:10110000FFF742FE06460AE0286840F48020286087
:10111000F0E700BFFFF738FE801B642873D828680B
:101120008003F7D50CE0FFF72FFE064605E000BF71
:10113000FFF72AFE801B6428F0D828688003F7D4C4
:1011400020789A4E80074FF001094FF0000839D5FA
:10115000686810F00C0F07D06868C0F3810002289F
:1011600009D16868C00306D42868800714D52069AF
:10117000012808D110E02069B0B1C6F80090FFF74F
:1011800003FE074605E00AE1FFF7FEFDC01B02284B
:10119000C4D828688007F7D52868616920F0F8006E
:1011A00040EAC10028600DE0C6F80080FFF7ECFDC2
:1011B000074604E0FFF7E8FDC01B022823D8286893
:1011C0008007F7D4207800072CD57948A169D9B1D8
:1011D000C0F80090FFF7D8FD074604E0FFF7D4FD04
:1011E000C01B02280FD8686A8007F7D571484FF4F2
:1011F000FA510068B0FBF1F0009000BF0098411E6A
:101200000091FAD20EE080E0C0F80080FFF7BCFD4C
:10121000074604E0FFF7B8FDC01B022875D8686ACE
:101220008007F7D42078400760D5E8690027C00020
:1012300008D4E86940F08050E861E869012700F0CF
:10124000805000905C480168C90513D4016883464A
:1012500041F480710160FFF797FD824606E000BF10
:10126000FFF792FDA0EB0A0064284ED8DBF80000DF
:10127000C005F5D5E06801280AD008B1052813D0CB
:10128000286A20F001002862286A20F0040002E0A9
:10129000286A40F001002862E06841F2883B98B17A
:1012A000FFF772FD82460BE0286A40F004002862D6
:1012B000EEE700BFFFF768FDA0EB0A0159455AD8D9
:1012C000286A8007F6D50CE0FFF75EFD824605E050
:1012D000FFF75AFDA0EB0A0159454CD8286A800750
:1012E000F6D41FB1E86920F08050E861E06988B366
:1012F0006968C1F38101022944D00228C6F86080E0
:1013000004D0FFF741FD044638E034E0FFF73CFD30
:10131000074604E0FFF738FDC01B02282BD82868D9
:101320008001F7D4206AB0F5803F05D16868A168D4
:1013300020F4003008436860D4E908010843696874
:1013400021F4741108436860C6F86090FFF71CFD33
:10135000044606E025E000BFFFF716FD001B02284B
:1013600009D828688001F7D51BE000BFFFF70CFD06
:10137000001B022802D90320BDE8F88F28688001ED
:10138000F4D40EE00128F7D06868226A00F48031B6
:10139000914204D1616A00F47010884201D00120AA
:1013A000EAE70020E8E700000010024000004242A7
:1013B00080044242000000200070004070B504002C
:1013C00009D0606A002540B125616561A56294F885
:1013D000510040B10CE0012070BD6068B0F5827F23
:1013E000F4D0E561F2E784F85050204600F03FF871
:1013F000022084F851002068016821F0400101605A
:10140000A088218900F4827001F404410843A18975
:1014100001F400610843217C01F002010843217DB1
:1014200001F001010843218B01F400710843217F81
:1014300001F03801084394F8201001F080010843BE
:10144000218D01F40051084321680860A06904213E
:1014500001EA1040216848602068C16921F40061F8
:10146000C1616565012084F85100002070BD70479E
:101470002DE9F84F044690F8500000270A9E1D46BB
:1014800092468B464FF0010901280ED0012084F8C6
:101490005000FFF779FC804694F8510061680128FC
:1014A0000CD0B1F5827F07D102E00220BDE8F88FB1
:1014B000A16809B9042801D00227C2E0BBF1000FDE
:1014C00027D0BAF1000F24D01DB394F8510004289E
:1014D00002D0052084F8510000206065C4F838A0CF
:1014E000E587A587C4F830B0E586A58620646064EA
:1014F00020680168490603D4016841F04001016099
:10150000E068B0F5006F606805D0E8B3012D46D003
:101510007FE0012795E008B1012D39D1206B2168CA
:101520000088C860206B801C2063E08E401EE0862F
:101530002EE02068816889070FD5E18E69B1B9F185
:10154000010F0AD1216B0988C160206B801C2063C8
:10155000E08E401EE0864FF0000920688168C907D0
:101560000CD0E18F51B1C068A16B0880A06B801CCA
:10157000A063E08F401EE0874FF00109FFF704FCF5
:10158000A0EB0800B04200E009E001D3701C50D18C
:10159000E08E0028CDD1E08F0028CAD13FE0206B3B
:1015A000216800780873206B401C2063E08E401E89
:1015B000E0862EE02068816889070FD5E18E69B149
:1015C000B9F1010F0AD1216B09780173206B401C1E
:1015D0002063E08E401EE0864FF00009206881689D
:1015E000C9070CD0E18F51B1C068A16B0870A06B26
:1015F000401CA063E08F401EE0874FF00109FFF719
:10160000C3FBA0EB0800B04202D3701C01D010E075
:101610007EB1E08E0028CDD1E08F0028CAD14246AD
:101620003146204601F0BEFA28B10127202060652E
:1016300007E0032705E0A06818B92068C168806842
:101640000090012084F85100002084F850003846B2
:101650002CE710B5401EB0F1807F01D3012010BDF2
:101660004FF0E02460610F21601701F0E9FC0020D9
:10167000A06107202061002010BD10B5040003D038
:1016800094F83D0010B107E0012010BD002084F85F
:101690003C00204600F01EF8022084F83D00211D89
:1016A000206801F047FB012084F8460084F83E00E2
:1016B00084F83F0084F8400084F8410084F8420038
:1016C00084F8430084F8440084F8450084F83D0021
:1016D000002010BD7047000090F83D10012901D096
:1016E00001207047022180F83D100168CA6842F06D
:1016F0000102CA6000680B49884208D0B0F1804FEF
:1017000005D00949884202D00849884204D181683D
:1017100001F00701062903D0016841F001010160D1
:1017200000207047002C01400004004000080040E9
:1017300070B5044690F83C000D4601280AD00120FF
:1017400084F83C0042B1042A18D0082A2AD00C2A76
:101750004DD139E0022070BD206801F02FFB2068D8
:10176000816941F0080181612068816921F00401EB
:101770008161206881692A69114311E0206801F0C4
:1017800045FB2068816941F40061816120688169BD
:1017900021F480618161206881692A6941EA02211E
:1017A000816124E0206801F05DFB2068C16941F09F
:1017B0000801C1612068C16921F00401C16120688C
:1017C000C1692A69114311E0206801F077FB2068A4
:1017D000C16941F40061C1612068C16921F480617F
:1017E000C1612068C1692A6941EA0221C161002002
:1017F00084F83C0070BD10B5040003D094F83D009F
:1018000010B107E0012010BD002084F83C00204604
:1018100000F01EF8022084F83D00211D206801F030
:1018200089FA012084F8460084F83E0084F83F00DD
:1018300084F8400084F8410084F8420084F84300B2
:1018400084F8440084F8450084F83D00002010BD71
:101850007047000010B50446022249B104290ED099
:10186000082913D094F84100012816D0012010BD9A
:1018700094F83E000128F9D184F83E200FE094F856
:101880003F000128F2D184F83F2008E094F840009E
:101890000128EBD184F8402001E084F841200122A6
:1018A000206801F07DFA0F492068884203D1426C1C
:1018B00042F4004242642068884208D0B0F1804F70
:1018C00005D00949884202D00849884204D181687C
:1018D00001F00701062903D0016841F00101016010
:1018E000002010BD002C0140000400400008004012
:1018F00070B5040004D094F83900002510B106E05A
:10190000012070BD84F83850204600F022F82420D1
:1019100084F839002068C16821F40051C160204674
:1019200001F0EEFA2068016921F49041016120681C
:10193000416921F02A0141612068C16841F40051E8
:10194000C160E563202084F8390084F83A00002063
:1019500070BD70472DE9F84F044690F83A009A465A
:1019600016460D46202851D1EDB1E6B194F8380065
:1019700001284BD0012084F838000027E76322209B
:1019800084F83A00FFF700FAA6858146E685A0684C
:101990004FF48058404501D1206938B12E460025CA
:1019A00084F8387027E00120BDE8F88F0026F7E7BB
:1019B0004B46002220212046CDF800A001F0FCFA81
:1019C00008B10320F0E726B1A06840451BD038B12C
:1019D00008E020684068C0F3080025F8020B07E023
:1019E000206980B12068406800F07F0006F8010B94
:1019F000E08D401EE085E08D0028D9D1202084F8BC
:101A00003A000020D0E720684068EFE70220CBE7EB
:101A10002DE9F843044690F839001F4616460D4656
:101A200020284CD1C5B1BEB194F83800012846D069
:101A3000012084F838004FF00008C4F83C802120D1
:101A400084F83900FFF7A0F9A6848146E684A068EF
:101A5000B0F5805F03D004E00120BDE8F883206981
:101A600028B12E465FF0000584F838800EE000268D
:101A7000FAE78021204601F09FFAA0B9AEB116F82E
:101A8000010B21684860E08C401EE084E08C4B46EE
:101A90004FF0000200970028EBD14FF040012046A4
:101AA00001F08AFA30B10320D7E735F8020BC0F312
:101AB0000800E6E7202084F839000020CDE7022066
:101AC000CBE7FEE710B5104C002240212046FFF77F
:101AD00056F980212046FFF736F800228021204663
:101AE000FFF74DF9052002F0EBF8012240212046D6
:101AF000FFF745F9052002F0E3F820460022BDE893
:101B000010404021FFF73BB9000C014010B50F4CCD
:101B1000012280212046FFF732F901224021204690
:101B2000FFF72DF980212046FFF70DF840212046D0
:101B3000FFF709F8012280212046FFF720F920460F
:101B40000122BDE810404021FFF719B9000C014007
:101B500010B5104C002240212046FFF710F98021DB
:101B60002046FEF7F0FF012280212046FFF707F90B
:101B7000052002F0A5F8012240212046FFF7FFF8DA
:101B8000052002F09DF820460022BDE810404021CB
:101B9000FFF7F5B8000C01402DE9F041164E07465D
:101BA000002480213046FEF7C3FF0025002240219B
:101BB0003046FFF7E4F8052002F082F801224021C8
:101BC0003046FFF7DCF86006040E80213046FFF750
:101BD000C9F808B1641CE4B2052002F071F86D1C6C
:101BE000EDB2082DE2D327B1FFF76CFF2046BDE828
:101BF000F081FFF7ADFFF9E7000C014070B51A4C1A
:101C00001A4D802160702846FEF79DFF002240217A
:101C10002846FFF7B4F8002020706078000601D550
:101C2000012200E0002280212846FFF7A8F8607812
:101C300040006070052002F043F801224021284650
:101C4000FFF79DF8052002F03BF8002240212846CE
:101C5000FFF795F8052002F033F82078401CC0B259
:101C600020700828D9D370BD14000020000C01405A
:101C700010B5124C80212046FEF765FF012280211D
:101C80002046FFF77CF8012240212046FFF777F835
:101C9000052002F015F8002280212046FFF76FF89A
:101CA000052002F00DF8002240212046FFF767F8DA
:101CB000BDE81040052002F003B80000000C014010
:101CC00010B5124C80212046FEF73DFF0022402136
:101CD0002046FFF754F8002280212046FFF74FF8F6
:101CE000052001F0EDFF012240212046FFF747F8D3
:101CF000052001F0E5FF012280212046FFF73FF893
:101D0000BDE81040052001F0DBBF0000000C0140E1
:101D100070B5164D002480212846FEF709FF0122E8
:101D200080212846FFF72BF8052001F0C9FF01228A
:101D300040212846FFF723F8052001F0C1FF40F6B7
:101D4000C41606E0641CB44203D9FFF7B9FF0120B2
:101D500070BD80212846FFF705F80028F2D1002247
:101D600040212846FFF70BF8002070BD000C014011
:101D7000054801780548012903D000220421FEF717
:101D8000FEBF0122FAE7000018000020000C01400D
:101D90002DE9F04186B000254E48022401950394B8
:101DA000816941F010018161816901F010010491A4
:101DB000816941F020018161816901F02001049174
:101DC000816941F004018161816901F0040104919C
:101DD000816941F00801816180693F4F00F008008E
:101DE000012604906946009602943846FEF7CAFE22
:101DF0000420CDE90006DFF8E480694602954046FC
:101E0000FEF7C0FE4026694640460096FEF7BAFE41
:101E10008020009069464046FEF7B4FE0022402133
:101E20003846FEF7ACFF002208213846FEF7A7FF30
:101E3000002210213846FEF7A2FF69463846009678
:101E4000FEF7A0FE0820009069463846FEF79AFE8D
:101E50001020009069463846FEF794FEE602002204
:101E600031464046FEF78BFF694640460096FEF736
:101E700089FE0194694638460094FEF783FE0320EC
:101E8000CDE902502002CDE9000469463846FEF74C
:101E900079FE6002CDE9000569463846FEF772FE1C
:101EA000A020CDE9000469463846FEF76BFE4FF4EA
:101EB0002040CDE9000469464046FEF763FE60031A
:101EC000CDE9000569464046FEF75CFE06B0BDE878
:101ED000F08100000010024000080140000C0140A9
:101EE000144808B5816941F48051816180691249C3
:101EF00000F4805000901148022201604FF482717A
:101F0000416000218160C0E9031201224261520256
:101F100082610822C0E90721416281620A21C1620F
:101F2000FFF74CFA002803D0BDE80840FEF7F7BDE4
:101F300008BD00000010024000300140B000002049
:101F4000144808B5C16941F48041C161C0691249B2
:101F500000F4804000901148022201604FF4827129
:101F6000416000218160C0E90312012242615202F6
:101F700082611022C0E90721416281620A21C162A7
:101F8000FFF71CFA002803D0BDE80840FEF7C7BDE4
:101F900008BD000000100240003800400801002089
:101FA000144800B5816993B041F400618161806992
:101FB00040F2E73100F4006012900F4800901F20BB
:101FC00001900020CDE9020104900590069068463A
:101FD000FFF753FB08B1FEF7A2FD002211461920BE
:101FE000FEF73EFF1920FEF72DFF6846FFF774FB52
:101FF00013B000BD00100240002C014010B59AB093
:102000001C2112A8FEF7B9F81948C16941F0010175
:10201000C161C069002400F0010019904FF08040B8
:1020200000901F20CDE9010440F2E730CDE9030420
:1020300068460694FFF721FB08B1FEF770FD68467D
:10204000FFF7D9FB08B1FEF76AFD6020CDE9120465
:102050001494042212A968461694FFF769FB08B18C
:10206000FEF75DFD04216846FFF7F4FB1AB010BDD2
:1020700000100240114808B5816941F48041816136
:1020800080690F4900F4804000900E480C220160E6
:102090004FF4E13141604FF4805181600021C16013
:1020A000C0E904128161C161FFF722FC002803D05E
:1020B000BDE80840FEF733BD08BD00000010024037
:1020C0000038014060010020FEE7704770B5152020
:1020D00000F028F9002000F00BF97F2000F008F94B
:1020E000752000F01FF9002000F002F97F2000F0B9
:1020F000FFF85C2000F016F900244FF400450020A2
:1021000000F0F6F8641CA4B2AC42F8D370BD000035
:102110002DE9F04781461C4690460E461520089F43
:1021200000F000F9304600F0E3F8601EC0B200F0A5
:10213000DFF8752000F0F6F8404600F0D9F8781E78
:10214000C0B200F0D5F85C2000F0ECF80025A61B2A
:10215000A7EB080711E0002406FB05F808E000BF24
:1021600004EB480119F8010000F0C2F8641CA4B2A5
:10217000B4EB460FF4DB6D1CADB2AF42EBDCBDE857
:10218000F087000010B5114C012208212046FEF70F
:10219000F6FD6420FEF7C1FC002208212046FEF770
:1021A000EEFD6420FEF7B9FC012208212046FEF76F
:1021B000E6FD6420FEF7B1FC00F00AF8C820FEF747
:1021C000ACFCBDE81040AF2000F0ACB80008014006
:1021D00010B5FD2000F0A6F8122000F089F8FD20CF
:1021E00000F0A0F8B12000F083F8AE2000F09AF8DB
:1021F000A42000F097F8152000F094F8002000F0DB
:1022000077F87F2000F074F8752000F08BF800203C
:1022100000F06EF87F2000F06BF8B32000F082F839
:10222000F12000F065F8CA2000F07CF87F2000F073
:102230005FF8A02000F076F8742000F059F8A12093
:1022400000F070F8002000F053F8A22000F06AF8C7
:10225000002000F04DF8AB2000F064F8012000F001
:1022600061F8B42000F05EF8A02000F041F8B5203D
:1022700000F03EF8552000F03BF8C12000F052F885
:10228000C82000F035F8802000F032F8C02000F0BF
:102290002FF8C72000F046F80F2000F029F8B120F1
:1022A00000F040F8322000F023F8B22000F03AF8B5
:1022B000A42000F01DF8002000F01AF8002000F023
:1022C00017F8BB2000F02EF8172000F011F8B62008
:1022D00000F028F8012000F00BF8BE2000F022F8F2
:1022E000052000F005F8BDE81040A62000F01AB85F
:1022F00070B50B4C0546012240212046FEF73FFDFC
:10230000002210212046FEF73AFD284600F02EFC60
:102310002046BDE8704001221021FEF730BD0000CC
:102320000008014070B50B4C0546002240212046B4
:10233000FEF725FD002210212046FEF720FD28464D
:1023400000F014FC2046BDE8704001221021FEF789
:1023500016BD0000000801402DE9FF41DFF80081B3
:10236000D8F80000FEF7C7F900244FF4784503269B
:102370003C4FCDE90254CDE9007602460B460221DE
:10238000204600F0F5F9D8F80400FEF7B4F9CDE9DD
:102390000254CDE9007602460B461821002000F0D9
:1023A000E7F931480068FEF7A6F9CDE90254CDE916
:1023B000007602460B462E21002000F0D9F92B486A
:1023C0000068FEF798F9CDE90254CDE9007602469F
:1023D0000B463921002000F0CBF9D8F80C00FEF7AD
:1023E0008AF9CDE90254CDE9007602460B46442134
:1023F000002000F0BDF9D8F81000FEF77CF9CDE917
:102400000254CDE9007602460B465421002000F02C
:10241000AFF9D8F81400FEF76EF9CDE90254CDE912
:10242000007602460B466421002000F0A1F9D8F89E
:102430001800FEF760F9CDE90254CDE900760246B6
:102440000B467421002000F093F980200346009091
:102450000748002240214068FFF75AFEBDE8FF818F
:1024600050000020380000202C0000203000002008
:102470001C0000207CB5FFF785FE4FF4FA70FEF7D4
:102480006FFBFFF723FE4FF4005001F089FE304E42
:102490000028706058D000242346802240210094F8
:1024A00000F04CFA412000F003FB706800F064FA81
:1024B0001F250021274B28A20846CDE9004500F042
:1024C000FFF9244B26A216210020CDE9004500F09B
:1024D000F7F9204B24A22C210020CDE9004500F083
:1024E000EFF9234B23A244210020CDE9004500F061
:1024F000E7F91F4B21A254210020CDE9004500F04F
:10250000DFF91B4B1FA264210020CDE9004500F03C
:10251000D7F9174B1DA274210020CDE9004500F02A
:10252000CFF9802000220090402311467068FFF709
:10253000EFFD18A000F074FD002000F049F8BDE8A0
:102540007C40C820FEF7E9BA17A000F069FDFEE75D
:102550001C000020400000205620203A000000000F
:102560004320203A000000005426483A00000000B2
:1025700038000020542D4D4F53203A00542D504325
:1025800042203A0056494E2020203A00524546202B
:1025900020203A0044726177696E673A706167651E
:1025A00020300D0A000000004661696C65642074EB
:1025B0006F206170706C7920666F7220626C61634D
:1025C0006B206D656D6F72792E2E2E0D0A00000046
:1025D00070B52849CA8A022A0BD0042A09D0102AC9
:1025E0001BD0412A18D1002200F00F04C0F30325AC
:1025F0003CE00022C4B20CE0002305E002FB003006
:102600000D685B1C9BB22C54488A9842F6D8521C29
:1026100092B2888A9042EFD870BD002211E0002368
:102620000AE000BF02FB04340E6800F00F0040EA2D
:1026300000155B1C35559BB24C8A9C42F2D8521C4B
:1026400092B28B8A9342EAD870BD002009E05343CE
:102650000E6803EB4003F5545B1C0E68401C80B20F
:10266000F4544B8A8342F2D8521C92B2888A904228
:10267000EBD870BDA00100202DE9F05F81462B480A
:102680001E46DDF82CB0838888464B4502D3C188AE
:10269000414504D2BDE8F05F25A000F0C1BCB08880
:1026A000410700D0012101EBD000203AF1885043CE
:1026B000484331684FF0800A0F18002530E00024AD
:1026C00025E000BFABF57F41FF39397804F0070200
:1026D0002AFA02F001EA000101D009B908E081B14B
:1026E00008EB050081B209EB040080B20A9A06E00B
:1026F00008EB050081B209EB040080B25A4600F0F5
:1027000041F9E043400700D17F1C641CA4B2B088AB
:10271000A042D7D83079400700D07F1C6D1CADB2E5
:10272000F088A842CBD8BDE8F09F0000A0010020AF
:1027300044656275673A205061696E745F447261E6
:10274000774368617220496E70757420657863659F
:1027500065647320746865206E6F726D616C2064AF
:102760006973706C61792072616E67650D0A000093
:102770002DE9FF5FADF5067D00244FF48079164604
:1027800098462546494642A8959FFDF7F6FC4946DE
:1027900002A8FDF7F2FC42A8839030464146FDF7BF
:1027A0008BFF3549869A83468B88934203D3CA8828
:1027B00087998A4206D231A000F032FC0DF50A7DDD
:1027C000BDE8F09F4FF00A090DF1080A5FB3FDF76D
:1027D00049FF32464346FDF753FEFDF79FFFFEB229
:1027E000DFF8D88004E04146FDF72AFD761EF6B2F8
:1027F000002EF8D1FDF747FFF9B24A4653460BE0E9
:1028000090FBF2F602FB1606303690FBF2F01E55F6
:10281000641C491E24B2C9B20029F1D12E200AF845
:102820000400641C24B258464A4651460AE000BFE0
:1028300090FBF2F302FB130390FBF2F030330B55E5
:10284000641C24B20028F3D142A8002C08DD0A1928
:1028500012F8012C42556D1C641E2DB224B2F4E70F
:10286000DDE99610CDE90001DDE98601949B839AAC
:1028700000F026F8A2E70000A00100204465627580
:10288000673A205061696E745F4469734E756D20BC
:10289000496E70757420657863656564732074682B
:1028A00065206E6F726D616C20646973706C617904
:1028B0002072616E67650D0A000000000000204173
:1028C0002DE9FC5F80461B4889460D4681884446B9
:1028D000DDF834B01E461746A14203D3C1888246B4
:1028E000A94222D2BDE8FC5F134800F099BBB08832
:1028F000BAF804300119994203D9F18844462944B1
:102900008DB2F188BAF806002944814201D94446C3
:102910004D460C983346CDE900B029462046FFF7D6
:10292000ABFEB0887F1C204484B23A78002ADED106
:10293000BDE8FC9FA00100209059000870B50D4C27
:10294000049E0025206021816281A6810220E08210
:102950004E074FEAD10000D0401C6082A282E38182
:10296000258223B1B42B02D0A280E18070BDA1806A
:10297000E28070BDA001002001490860704700009E
:10298000A0010020F0B43F4CA388834234D3E388F5
:102990008B4231D32346E7891E895D89CFB15A2FF7
:1029A0001AD0B42F1CD0B7F5877F3DD10B46281A1B
:1029B000401E80B2218AD9B1012916D0022904D043
:1029C000032931D1F11A491E8BB2281A401E80B258
:1029D0000EE003460846EDE7711A491E8BB2E9E79F
:1029E000301A401E83B2681AE2E7F11A491E8BB210
:1029F0009E4201D3854203D2F0BC23A000F010BB5D
:102A00002049E68A4D8A0968022E0FD0042E1ED076
:102A1000102E28D0412E07D1454305EB4300130A61
:102A20000B542168401C0A54F0BC7047454305EB29
:102A3000D3058020002A4C5D03F0070220FA02F043
:102A400002D020434855EFE784434C55ECE745431B
:102A500005EB930492079B07085D5B0FC025DD40E3
:102A6000A843120E0AE0454305EB53041207DB07A7
:102A7000085D5B0FF025DD40A843120EDA400243EB
:102A80000A55D1E7A001002044656275673A2045E8
:102A90007863656564696E6720646973706C6179D9
:102AA00020626F756E6461726965730D0A000000C3
:102AB000174910B50A8902280DD0042813D0102810
:102AC00017D041281ED013A000F0AAFABDE810408C
:102AD0001BA000F0A5BAC8820D4852070089C008A3
:102AE0000CE0488210BDC88209489207008980081E
:102AF00004E0C8820648D20700894008002AF0D0C6
:102B0000401CEEE7C8824FF6FF7000EA4200E8E79B
:102B1000A001002044656275673A20536574205314
:102B200063616C6520496E70757420706172616DAF
:102B300065746572206572726F720D0A0000000084
:102B400044656275673A205363616C65204F6E6C13
:102B50007920737570706F72743A2032203420318E
:102B6000362036350D0A0000704700000B49096811
:102B70000A6842F040020A6009494A6842F48052F9
:102B80004A608A689207FCD5087388680006FCD4FE
:102B90008868C007FCD0087B70470000B0000020A8
:102BA0000030014038B50B460092044600228021D7
:102BB00000F008F8002804D0606D40F02000606547
:102BC000032038BD2DE9F8431E4691468846044649
:102BD000089DFEF7D9F8401B351AFEF7D5F80746D1
:102BE00025480068C0F3CB30684338E0701C37D00C
:102BF000FEF7CAF8C01BA84203D215B1009860B313
:102C00002CE02068416821F0E00141606068B0F587
:102C1000827F0BD1A068B0F5004F02D0B0F5806F75
:102C200004D12068016821F040010160A06AB0F57C
:102C3000005F09D12068016821F40051016020681B
:102C4000016841F400510160012084F85100002026
:102C500084F850000320BDE8F8830025401E009052
:102C60002068816838EA010004D000214945BDD1BF
:102C70000020F0E70121F9E7000000207047FEF78F
:102C800089B830B58FB028216846FDF776FA14214F
:102C90000AA8FDF772FA0920012100904FF4803054
:102CA000002404910691CDE901040225CDE90750E5
:102CB000C00009906846FEF7F1F90F200A90CDE9AF
:102CC0000B540D9401210AA80E94FEF7FBF80FB0E7
:102CD00030BD704710B5134C2068C00721D0201FAD
:102CE0000068C0071DD01048104B0188491C89B2EC
:102CF00001801A78521C1A700D4A13685B1C13600D
:102D0000B1F57A7F04D3002101804188491C4180BC
:102D1000FDF706FFFFF72CF801F0DAF96FF001007C
:102D2000206010BD102C0140100000201A0000206F
:102D300034000020F0B50268164B174C174D4FF0C9
:102D40008047984205D0B84203D0A04201D0A842A3
:102D500003D122F070064A683243984205D0B84247
:102D600003D0A04201D0A84203D122F44074CA6823
:102D700022434C6922F08002224302608A68C262C8
:102D80000A688262984201D10969016301214161A7
:102D9000F0BD0000002C014000040040000800408D
:102DA00010B501F01F030121046A99408C430462AD
:102DB000016A9A401143016210BD000030B5026AF9
:102DC00022F001020262026A4368846924F07305FA
:102DD0000C682C4322F002058A682A430A4DA84257
:102DE0000BD122F00805CA6823F440732A434D69C9
:102DF00022F004021D438B692B43436084614968C0
:102E00004163026230BD0000002C014030B5026A0F
:102E100022F010020262026A436884690D6824F499
:102E2000E64444EA05248D6822F0200242EA0512B5
:102E30000B4DA8420ED1CD6822F0800242EA051265
:102E40004D6923F4406343EA85038D6922F0400213
:102E500043EA85034360846149688163026230BD4F
:102E6000002C014030B5026A22F480720262036ACB
:102E70004268C46923F4007324F073050C682C4382
:102E80008D6843EA05230C4DA8420ED1CD6823F48A
:102E9000006343EA05234D6922F4405242EA0512D9
:102EA0008D6923F4806342EA05124260C461496877
:102EB000C163036230BD0000002C014030B5026ADE
:102EC00022F480520262046A4268C3690D6823F4E6
:102ED000E64343EA05238D6824F4005444EA0534AC
:102EE000064DA84204D14D6922F4804242EA85127F
:102EF0004260C36149680164046230BD002C014036
:102F000070B5044600680169E26821F4405111433C
:102F100001612169A0680843616908432168CA68A2
:102F200041F20C639A430243CA6020684169A26976
:102F300021F44071114341611E492068884202D149
:102F4000FEF766F801E0FEF753F800EBC00101EB75
:102F50000012606864218000B2FBF0F3B3FBF1F370
:102F60006FF018067343B2FBF0F5B2FBF0F605EB19
:102F70008305322303EB0515B5FBF1F5B6FBF1F63E
:102F800005F0F00505EB0615B2FBF0F6B2FBF0F02C
:102F9000B0FBF1F06FF01802504306EB800003EB3A
:102FA0000010B0FBF1F0216800F00F0028448860A9
:102FB00070BD0000003801402DE9F04198461746E9
:102FC0000E460446069D1DE0681C1BD02DB1FDF782
:102FD000DBFEA0EB0800A84214D92068C16821F4E8
:102FE000D071C1602068416921F001014161202058
:102FF00084F8390084F83A00002084F8380003206F
:10300000BDE8F0812068006836EA000004D00020A6
:10301000B842D9D00020F3E70120F9E7FEE700002D
:103020000FB4054B10B503A9044A029800F0EAF862
:1030300010BC5DF814FB000035400008A40000201F
:103040000907090E002804DB00F1E02080F80014D5
:10305000704700F00F0000F1E02080F8141D704769
:1030600002E008C8121F08C1002AFAD17047704751
:10307000002001E001C1121F002AFBD170470000AF
:103080002DE9FF5F82B00021DDE90430020DDDF89B
:1030900040B0034318D044F61050A2F2FF3242432E
:1030A0001514119801281FD0A5EB0B00401C5FEAF6
:1030B000000A4FF000064E4FDFF83891B0465046F8
:1030C00015D5CAF1000413E0119801244AA3012880
:1030D00001D16FEA0B010298119AC0E90031C0E9F1
:1030E000024206B0BDE8F09FCBF10000DFE70446E6
:1030F0000021404A491842EB0450CDE9001012E08B
:10310000E00707D032463B4640464946FDF7BBF94B
:103110008046894632463B4610461946FDF7B3F9CC
:1031200006460F466410002CEAD1DDE90401DDE912
:103130000023BAF1000F06DAFDF7A5F942464B4627
:10314000FDF7A1F905E0FDF710FA42464B46FDF701
:103150000CFA04460E460022284BFDF713FC03D858
:103160004FF0FF30014607E00022254B2046314654
:10317000FDF7E2F8FDF7EEFB102409E0002C0ADB76
:103180000A220023FDF700FB039B30321A55641E10
:1031900050EA0102F2D1641C039AC4F111031444F1
:1031A000119A012A03D0012208430DD10AE00843F5
:1031B00004D000204FF0110B119072E7A3EB0B0528
:1031C0006D1E0DE05B4504DD4FF0000205F10105C9
:1031D00004E003DA4FF00002A5F10105002AECD06B
:1031E00002981199C0E90231C0E9004579E7000071
:1031F000000014400000F03F300000000000F043E9
:103200000000E03F2DE9FF4F95B09A4688460646FC
:103210000025EEE1252877D100242746F94A01212F
:10322000039400E0044316F8013F203B01FA03F049
:103230001042F7D130782A2811D06FF02F03307860
:10324000A0F13002092A16D8039A44F0020402EBD6
:10325000820203EB42021044761C0390EFE758F819
:10326000042B0392002A03DA504244F400540390E2
:1032700044F00204761C30782E2816D116F8010F7F
:1032800044F004042A280DD06FF02F023078A0F10A
:103290003003092B09D807EB870302EB4303C71858
:1032A000761CF3E758F8047B761C30786C280FD036
:1032B00006DC4C2817D068280DD06A2814D104E009
:1032C000742810D07A280FD10DE044F400140AE0DD
:1032D00044F4801401E044F440147278824202D134
:1032E00004F58014761C761C307866280BD013DC2D
:1032F000582877D009DC002875D04528F6D0462814
:10330000F4D047281AD193E118E0632835D0642817
:1033100079D0652812D18BE1702873D008DC67283A
:10332000F1D069286FD06E280DD06F2806D1ACE09F
:1033300073282CD0752874D0782853D0524617990A
:1033400090476D1C54E1C4F30250022809D00328B1
:103350000DD0D8F8001004280DD00D6008F1040835
:1033600046E1D8F80010EA17C1E90052F6E7D8F8AC
:1033700000100D80F2E70D70F0E718F8041B8DF8CF
:10338000001000208DF80100EB46012003E058F802
:1033900004BB4FF0FF3061074FF0000102D40DE095
:1033A00009F101018946B9420FDA8145F8DB1BF8C2
:1033B00009100029F4D108E009F101018946814290
:1033C000FADB1BF809100029F6D103985346A0EB4D
:1033D000090721463846179A00F080FA284400EB86
:1033E000090507E044E008E10DE01BF8010B524637
:1033F00017999047B9F10109F7D25346214638464B
:10340000179AF2E039E00A21C4F302524FF0000BA0
:103410000091022A06D058F8040BC117032A09D0DC
:103420000AE023E008F1070020F00702F2E80201B9
:10343000904605E000B2C117042A01D140B2C1177D
:10344000002906DA0A460021404261EB02012D22E2
:1034500002E0220504D52B228DF80420012203E08E
:10346000E20701D02022F7E7914657E00A2100E069
:1034700010214FF0000B00910BE010214FF0000BDA
:1034800044F004040827009103E008204FF0000BEB
:103490000090C4F30252022A05D058F8040B002110
:1034A000032A08D008E008F1070020F00702F2E83C
:1034B0000201904603E080B2042A00D1C0B24FF06E
:1034C000000922072AD53278702A07D0DDF800C01B
:1034D0008CF0100C5CEA0B0C05D00EE040228DF84D
:1034E0000420012208E050EA010306D030238DF8C1
:1034F00004308DF8052002229146009B83F00803DA
:1035000053EA0B030AD150EA010201D1620705D543
:1035100030228DF804204FF001097F1E3278582A9E
:1035200004D039A20C920CAA02920BE03BA2F9E75C
:103530005B46009AFDF728F90C9B9B5C029A521E91
:103540000292137050EA0102F2D1029804A9081AFB
:1035500000F1200B600702D524F4803400E001273D
:103560005F4502DDA7EB0B0000E0002000EB0B0144
:10357000009003984944401A0390E00306D4534650
:103580002146179A039800F0A9F90544002706E0A0
:1035900001A85246C05D179990476D1C7F1C4F458E
:1035A000F6DBE0030CD553462146179A039800F04A
:1035B00095F9054404E030205246179990476D1C58
:1035C0000099481E00900029F5DC08E00298029955
:1035D00052460078491C0291179990476D1CBBF127
:1035E0000001ABF1010BF1DC5BE100F065F9054492
:1035F000761C307800287FF40DAE19B02846BDE85F
:10360000F08F00000928010030313233343536376D
:10361000383961626364656600000000303132331E
:1036200034353637383941424344454600000000BE
:10363000600700D4062708F1070020F00700F0E833
:103640000223804603F0004C5FEA0C0001D097A0F3
:1036500009E0200501D596A005E0E00701D095A07E
:1036600001E0AFF24C001390307823F0004365285E
:103670000CD006DC452809D046281DD047287FD12C
:103680003BE0662818D067287AD136E00021112F58
:1036900001DB112000E0781CCDE9000104A90CA891
:1036A000FFF7EEFCDDE90D010C9A4FF0000B07F17E
:1036B0000109109200914EE04FF000400097CDE9D3
:1036C000011004A90CA8FFF7DBFCDDE90D020C9B3F
:1036D0000F994FF0000B91461093009211B9791C8D
:1036E00000EB0109B7EB090003D4C0F1FF3B07F180
:1036F0000109A9EB0700019042E0012F00DA012740
:103700000021112F01DD112000E03846CDE9000134
:1037100004A90CA8FFF7B4FCDDE90D010C9A009197
:103720004FF0000BB946109221070FD4009A4A457A
:1037300003DA914601E0A9F10109B9F1010F05DDB4
:10374000109AA9F10101515C3029F4D0B84202DA93
:1037500010F1040F03DA0121CDE9011010E0002877
:1037600003DC8344A9EB000102E0411C494500DD74
:103770008946A0EB0B00401C01904FF000400290E6
:10378000200705D40198484502DB4FF0FF30019037
:1037900000208DF84B0002980DF14B07B0F1004F5F
:1037A00025D002200C902B200D90029800280CDAD6
:1037B000404202902D200D9007E00A210298FCF76C
:1037C000CDFF3031029007F8011D0C99481E0C9076
:1037D0000029F2DC02980028EFD1791E0D980870BC
:1037E000307800F0200040F0450007F8020D11A8E5
:1037F000C01BC01D02901398007800B1012000EB9F
:103800000901019801EBE071029801440398401A04
:10381000401E0390E00306D453462146179A0398AE
:1038200000F05CF805441398007818B152461799D7
:1038300090476D1CE00323D553462146179A039801
:1038400000F04CF805441BE0BBF1000F07DB0098CB
:10385000584504DD1098179910F80B0001E01799EE
:1038600030205246904701980BF1010B401E05F1A4
:103870000105019004D12E205246179990476D1CE6
:10388000B9F10001A9F10109DEDC05E017F8010B2F
:103890005246179990476D1C0299481E02900029C4
:1038A000F4DC53462146179A03989EE62D0000004B
:1038B0002B000000200000002DE9F0410446002507
:1038C0001E461746880404D405E039462020B04738
:1038D0006D1C641EF9D52846BDE8F0812DE9F04144
:1038E000044600251E469046C80301D5302700E057
:1038F0002027880404D505E041463846B0476D1CB2
:10390000641EF9D52846BDE8F08170B50346002055
:1039100013E01C788022C50914EA020600D00126B3
:103920004FEA4060B5424FEA106001D080F00700D6
:103930005208F0D1491EC9B25B1C0029E9D170BD03
:103940002DE9F04115460E46074600F041F80446C1
:103950003146384600F049F806461C4F2846FCF729
:103960007CFE0546DCB10120B040FCF77BFE024640
:103970000B4600203946FCF7F8FD06460C46284663
:103980006FF01601FCF7CCFC4FF07E51FCF752FCB7
:10399000FCF7B1FE32462346FCF775FD11E04FF00F
:1039A0008070B040FCF75EFE06460C462846FCF7E9
:1039B000A2FE00223B46FCF766FD32462346FCF79A
:1039C000D4FDBDE8F041FCF7A9BE000000000440B2
:1039D00000B5034600F016F859684FF4CA7202EBBE
:1039E0000010085AC0F3C02000BD00B5034600F027
:1039F00009F84FF4CA72596802EB0010085C00F035
:103A0000070000BD4068942202EB0111405AC0F348
:103A1000023070472DE9FF474FF000080C460600C2
:103A2000CDF800804546CDF80480CDF80880CDF86B
:103A30000C800BD054B1207800F03F0040F04000E3
:103A40008DF800002068022805D009E04FF0FF3013
:103A500004B0BDE8F0877068808A400500D5012574
:103A600030890028A06800D0401C2844401CC2B205
:103A70006946306800F09EFD0700E9D43089E946C8
:103A8000012820D1207802AB00F03F0040F0400038
:103A90008DF808000120A91C4A4605E012F800C074
:103AA00003F800C0401CC0B2D4F808C08C44844560
:103AB000F4DC207A0844C1B21846FFF726FF10B1A3
:103AC0006FF00100C4E72DB1A1680DF10100085CA1
:103AD00071684860C4F80480A16801204A46491C06
:103AE00007E063681B026360155C401C2B44C0B296
:103AF00063608142F5DC3846AAE77CB505004FF0EB
:103B000000001C4600900346019005D001F03F00E4
:103B10008DF80000684607E04FF0FF307CBDE11AE9
:103B2000425412125B1CDBB29C42F8DC288938B18B
:103B3000601CC1B26846FFF7E8FE0DF10101605458
:103B4000288908B1A41C00E0641CE2B26946286818
:103B500000F030FD7CBD70B50D4638B1446804F10D
:103B6000200100F006F8616A296070BD4FF0FF3057
:103B700070BD70B5044608680D46062808D06089F7
:103B800030B1B4F90C10204600F025F8002805DB10
:103B900029462046BDE87040FFF73CBF70BD70B5B8
:103BA0000C46050001D06E6810E04FF0FF3070BD8C
:103BB00031462846FFF7DDFF0028F8DB307940F377
:103BC000C010401C02D01CB1002070BD641EEFD19B
:103BD0006FF0020070BD2DE9F0410C46050003D0E6
:103BE0006E6806F1600712E04FF0FF30BDE8F0812B
:103BF00039462846FFF7BDFF0028F7DB96F864003A
:103C000040F38010401C02D01CB10020EEE7641E7F
:103C1000EED16FF00200E9E72DE9F8430446408950
:103C2000089D0E461746984630B1B4F90C10204650
:103C3000FFF7D1FF002806DB43463A4631462046CF
:103C40000095FFF75AFFBDE8F883000001A0FFF7D9
:103C5000E7B900001B5B324A1B5B480D0A000000FD
:103C600010B504A0FFF7DCF9BDE810400A4800F0E9
:103C70001DBA00000D0A507265737320616E7920C1
:103C80006B657920746F20636F6E74696E75652E35
:103C90002E2E0D0A00000000A0000020074B00207F
:103CA000014603F1400200BF43F8201042F8201003
:103CB000401CC0B21028F7D370470000B8010020A4
:103CC00000EB4000400002D000BF401EFCD1704716
:103CD0002DE9FC41DFF8A080284F0646A8F1A00599
:103CE00029B3012946D1002004462EB108EB041166
:103CF000B1F89410090411D510B121A0FFF790F983
:103D000055F8242021467868FFF71AFEFCF7F3FCEB
:103D100002460B461BA0FFF783F90120641CE4B2A6
:103D2000102CE2D3BDE8FC4118A0FFF779B918A028
:103D3000FFF776F900242EB108EB0410B0F89400D8
:103D4000000413D555F8242021467868FFF7F8FDC4
:103D5000FCF7D1FCCDE90001074855F82420603874
:103D6000214650F8243011A0FFF75AF9641CE4B240
:103D7000102CE0D3BDE8FC81580200204800002050
:103D80002C200000252E3666000000000D0A0000E1
:103D90000943680956616C75650909436F756E744E
:103DA0000909566F6C746167650D0A0009252D328B
:103DB0006409252D31306C6409256C6409092520BE
:103DC0002E36660D0A0000002DE9FC41444C0746E2
:103DD000A4F120086069434E20F03C022046626155
:103DE000C0690090D8F83830D8F830107068FFF704
:103DF00013FF010001D53CA06AE0FFF74FFF012F40
:103E00004FD100204FEA000504EB0511B1F89410E2
:103E1000090407D510B143A0FFF702F9294642A0D3
:103E2000FFF7FEF86D1C0120EDB2102DECD33FA082
:103E3000FFF7F6F835E000BF00F0E6FB27B9FFF723
:103E400005FF3BA0FFF7ECF842F210717068FFF736
:103E5000A6FE010001D546A007E001A97068FFF7A2
:103E60007AFE002804DA01464EA0FFF7D9F818E0E0
:103E7000207900F00F0110290CD2194A0198A03ABC
:103E800042F8210002F1400050F82120521C40F875
:103E9000212002E04BA0FFF7C3F839460120FFF7CD
:103EA00017FF00F0B7FB0028C6D0606920F03C0087
:103EB00040F008020A486261C0690090D8F83830C2
:103EC000D8F830107068FFF7A7FE010004D54CA0A9
:103ED000FFF7A6F8FFF7C4FE0020BDE8FC81000054
:103EE00058020020480000204572726F7220282579
:103EF0006C64292073657474696E6720414437319E
:103F0000323420436F6E74696E756F757320636F02
:103F10006E76657273696F6E206D6F64652E0D0A23
:103F2000000000002C200000256400000D0A0000A5
:103F300052756E6E696E6720636F6E74696E756F11
:103F4000757320636F6E76657273696F6E206D6F27
:103F500064652E2E2E0D0A507265737320457363AF
:103F600061706520746F2073746F700D0A0D0A0004
:103F70004572726F722F54696D656F757420776129
:103F80006974696E6720666F7220636F6E76657202
:103F900073696F6E20726561647920256C640D0A07
:103FA000000000004572726F722072656164696E74
:103FB000672041444320446174612028256C6429B2
:103FC0002E0D0A004368616E6E656C205265616457
:103FD000207761732025642C2077686963682069E5
:103FE00073206E6F74203C204144373132345F437C
:103FF00048414E4E454C5F434F554E540D0A00000C
:104000004572726F722028256C6429207365747460
:10401000696E67204144373132342041444320697E
:104020006E746F207374616E646279206D6F646565
:104030002E0D0A0013B54FF6FF73012269460248A0
:10404000FDF7E6FC00981CBD6001002070B5064637
:104050006421FFF7A4FD00281FDB1048104CA0F1DD
:1040600020050179217005EB81013046FFF773FDD2
:10407000247855F82400FCF7E7FA0A49FCF712F90E
:10408000FCF739FB4FF06632074BFCF7FCF9FCF705
:1040900045FB0349083141F8240070BD5802002057
:1040A00048000020FFFF7F4B66660A40FCF752BBCA
:1040B00008B50023012269460448FDF74BFC10B106
:1040C0004FF0FF3008BD9DF8000008BD60010020E2
:1040D00010B501210B48FCF745FE0B49012804D01F
:1040E000002008708870487010BD48786428FBD3A1
:1040F0006420487088780028F6D101208870087004
:1041000010BD00000008014019000020FCF74AFE25
:10411000FEF7B7FDFDF73CFEFDF7F8FCFDF7E0FE0E
:10412000FDF70EFFFDF73CFFFDF768FFFDF7A2FF6F
:1041300013494FF44870088012A0FEF771FFFEF794
:1041400099F9144F144D154E4FF07E58306864287D
:1041500003D83868FFF77AFFF8E7FCF73FFCFEF773
:10416000FBF80024414655F82400FCF711F845F807
:104170002400641C0020E4B2082CF3D33060E5E78F
:10418000160000204150502072756E2E2E2E0D0A02
:10419000000000004C0000205000002034000020EF
:1041A000F0B50B30154D20F007010024144A0FE044
:1041B00003688B420BD38B4205D95E1A43184768BC
:1041C000C3E9006700E04368136002C004E0021D19
:1041D00010680028ECD12046002802D1286808B1D8
:1041E0000020F0BD064A07481060074A121A22F064
:1041F0000702C0E9002401202860D7E7AC000020B6
:10420000A8000020EC060020E846002010B50120A0
:10421000FFF7DAFD03A0FEF703FFFFF721FD002003
:1042200010BD0000436F6E74696E756F7573204327
:104230006F6E76657273696F6E20636F6D706C65FB
:104240007465642E2E2E0D0A0D0A000010B5002094
:10425000FFF7BAFDFFF7FAFC05A0FEF7E1FE00212B
:104260000846FFF735FDFFF7FBFC002010BD0000FE
:10427000436F6E74696E756F757320436F6E7665EC
:104280007273696F6E20636F6D706C657465642EF8
:104290002E2E0D0A0D0A00002DE9FC470027614D66
:1042A0003E463846012400BF05EB0011B1F89410DA
:1042B000090405D504FA00F13943761C8FB2F6B231
:1042C000401CC0B21028EFD3FFF7E8FCFFF7BEFC9C
:1042D00055A0FEF7A5FE68694FF0000820F03C00ED
:1042E000DFF8809168615FE000F08EF969694D4800
:1042F00041F004026A61C06900904A482038836B2B
:10430000016BD9F80400FFF787FC002804DA0146A6
:1043100055A0FEF785FE3DE042F21071D9F8040089
:10432000FFF73DFC010001D55DA037E001A9D9F8F8
:104330000400FFF710FC010001D566A02EE02979EA
:1043400001F00F018A46102927D2364B019AA03B73
:1043500003F1400143F82A2051F82A20521C41F869
:104360002A2005EB0A11D1F8940020F4004201F153
:104370009000C1F89420D1F89C10009183680168E6
:10438000D9F80400FFF748FC010009D5524659A0AE
:10439000FEF746FEFFF764FC02E062A0FEF740FE77
:1043A00008F1010808F0FF0800F034F908B9B04539
:1043B0009AD368692E4620F03C0040F008006861FE
:1043C0005FF0000504FA05F038421ED006EB051137
:1043D000D1F8940040F4004201F19000C1F894201B
:1043E000D1F89C10009183680168D9F80400FFF7A8
:1043F00013FC010009D52A4659A0FEF711FE00BFA3
:10440000FFF72EFC0020BDE8FC876D1CEDB2102DDF
:10441000D8D35FA0FEF704FE00210120FFF758FC6F
:10442000EEE700005802002052756E6E696E67203C
:1044300053696E676C6520636F6E76657273696F22
:104440006E206D6F64652E2E2E0D0A50726573738B
:104450002045736361706520746F2073746F700DF5
:104460000A0D0A00480000204572726F722028254C
:104470006C64292073657474696E67204144373118
:1044800032342053696E676C6520636F6E76657297
:1044900073696F6E206D6F64652E0D0A0000000059
:1044A0004572726F722F54696D656F7574207761F4
:1044B0006974696E6720666F7220636F6E766572CD
:1044C00073696F6E20726561647920256C640D0AD2
:1044D000000000004572726F722072656164696E3F
:1044E000672041444320446174612028256C64297D
:1044F0002E0D0A004572726F722028256C642920E7
:10450000436C656172696E67206368616E6E656C8D
:1045100020256420456E61626C65206269742E0DF1
:104520000A0000004368616E6E656C20526561642C
:10453000207761732025642C20776869636820697F
:1045400073206E6F74203C204144373132345F4316
:1045500048414E4E454C5F434F554E540D0A0000A6
:104560004572726F722028256C642920536574741B
:10457000696E67206368616E6E656C2025642045F6
:104580006E61626C65206269742E0D0D0A00000078
:1045900053696E676C6520436F6E76657273696FE1
:1045A0006E20636F6D706C657465642E2E2E0D0A1F
:1045B0000D0A0000F8B5114D16460F464FF4805411
:1045C000002221462846FCF7DAFB41F288300090B1
:1045D00033460B4A39460B48FCF74AFF10B14FF0FF
:1045E000FF30F8BD012221462846FCF7C8FB3246C1
:1045F00003493846FBF7A8FD0020F8BD000C014038
:10460000E80500200801002004210148FCF7AFBBA9
:10461000000C014010B50024FFF74AFD10F0FF0028
:1046200002D01B2800D10124204610BD000000004C
:104630000000000001020304060708090000000052
:104640000102030400000000000000000000000060
:10465000001010101010000010000000006C4848FE
:104660000000000000000000001414287C287C28B2
:1046700050500000001038404038487010100000C2
:10468000002050200C7008140800000000000018E2
:1046900020205448340000000010101010000000CA
:1046A000000000000008081010101010100808008A
:1046B00000202010101010101020200000107C107E
:1046C00028280000000000000000101010FE10104C
:1046D0001000000000000000000000181030200052
:1046E00000000000007C000000000000000000004E
:1046F0000000003030000000000404080810102002
:104700002040000000384444444444443800000041
:1047100000301010101010107C000000003844040D
:10472000081020447C0000000038440418040444AD
:1047300038000000000C141424447E040E00000015
:10474000003C20203804044438000000001C2040B5
:104750007844444438000000007C440408080810F1
:10476000100000000038444438444444380000003D
:1047700000384444443C040870000000000000304D
:104780003000003030000000000000181800001851
:104790003020000000000C10608060100C00000051
:1047A000000000007C007C00000000000000C02031
:1047B00018041820C000000000001824040810008D
:1047C000300000003844444C54544C4044380000FD
:1047D0000030102828287C44EE00000000F84444F3
:1047E00078444444F8000000003C444040404044C9
:1047F0003800000000F0484444444448F000000001
:1048000000FC445070504044FC000000007E222810
:104810003828202070000000003C4440404E4444B2
:104820003800000000EE44447C444444EE000000A4
:10483000007C1010101010107C000000003C0808D4
:10484000084848483000000000EE44485070484492
:10485000E600000000702020202024247C000000BE
:1048600000EE6C6C54544444EE00000000EE6464AE
:104870005454544CEC000000003844444444444434
:104880003800000000782424243820207000000024
:104890000038444444444444381C000000F8444474
:1048A00044784844E200000000344C40380404647A
:1048B0005800000000FE9210101010103800000088
:1048C00000EE4444444444443800000000EE4444B4
:1048D000282828101000000000EE4444545454547A
:1048E0002800000000C6442810102844C60000001C
:1048F00000EE44282810101038000000007C440806
:10490000101020447C0000000038202020202020AF
:104910002020380000402020201010080808000047
:10492000003808080808080808083800001010288F
:104930004400000000000000000000000000000033
:10494000000000FE00100800000000000000000051
:1049500000000038443C44443E00000000C0405881
:1049600064444444F80000000000003C44404044DB
:1049700038000000000C04344C4444443E00000065
:1049800000000038447C40403C000000001C207CBB
:10499000202020207C000000000000364C444444CD
:1049A0003C04380000C0405864444444EE00000019
:1049B00000100070101010107C0000000010007833
:1049C000080808080808700000C0405C487050489B
:1049D000DC00000000301010101010107C000000EF
:1049E000000000E854545454FE000000000000D8B9
:1049F00064444444EE000000000000384444444451
:104A000038000000000000D8644444447840E000CE
:104A1000000000364C4444443C040E000000006C8E
:104A2000302020207C0000000000003C443804447A
:104A3000780000000000207C202020221C000000C4
:104A4000000000CC4444444C36000000000000EE5E
:104A50004444282810000000000000EE4454545440
:104A600028000000000000CC48303048CC00000096
:104A7000000000EE44242818101078000000007C8C
:104A8000481020447C000000000810101010201076
:104A9000101008000010101010101010101000005E
:104AA000002010101010081010102000000000004E
:104AB000002458000000000000000000000000007A
:104AC00000000000000000000000000000000000E6
:104AD00000000000000000000000000000000000D6
:104AE0000000070007000700070007000700070095
:104AF00002000200000000000700070000000000A4
:104B00000000000000000000000000001CE01CE0AD
:104B10001CE00840084008400000000000000000C1
:104B20000000000000000000000000000000000085
:104B30000CC00CC00CC00CC00CC03FF03FF00CC04F
:104B40000CC03FF03FF00CC00CC00CC00CC00CC03F
:104B500000000000000000000300030007E00FE079
:104B6000186018001F000FC000E0186018601FC018
:104B70001F8003000300030000000000000000008D
:104B800000001C002200220022001C6001E00F80B7
:104B90003C0031C002200220022001C000000000C1
:104BA000000000000000000000000000000003E022
:104BB0000FE00C000C0006000F301FF019E018C0C9
:104BC0001FF007B00000000000000000000000001F
:104BD0000000000003800380038001000100010049
:104BE00000000000000000000000000000000000C5
:104BF0000000000000000000000000C000C00180B4
:104C00000180018003000300030003000300030090
:104C100001800180018000C000C000000000000091
:104C200000000C000C000600060006000300030054
:104C300003000300030003000600060006000C004A
:104C40000C0000000000000000000300030003004F
:104C50001B601FE0078007800FC00CC00000000031
:104C60000000000000000000000000000000000044
:104C700000000000000003000300030003003FF0F9
:104C80003FF00300030003000300000000000000E9
:104C90000000000000000000000000000000000014
:104CA0000000000000000000000000000000038081
:104CB00003000300060006000400000000000000DE
:104CC00000000000000000000000000000003FE0C5
:104CD0003FE00000000000000000000000000000B5
:104CE00000000000000000000000000000000000C4
:104CF0000000000000000000000000000000038031
:104D0000038003800000000000000000000000009D
:104D10000060006000C000C000C00180018003008E
:104D20000300060006000C000C000C001800180020
:104D3000000000000000000000000F801FC018C02D
:104D4000306030603060306030603060306018C09B
:104D50001FC00F80000000000000000000000000E5
:104D6000000003001F001F000300030003000300F6
:104D700003000300030003001FE01FE00000000029
:104D8000000000000000000000000F801FC038E09D
:104D90003060006000C00180030006000C001800B5
:104DA0003FE03FE0000000000000000000000000C5
:104DB00000000F803FC030E0006000E007C007C087
:104DC00000E00060006060E07FC03F800000000005
:104DD0000000000000000000000001C003C003C08C
:104DE00006C00CC00CC018C030C03FE03FE000C09F
:104DF00003E003E0000000000000000000000000ED
:104E000000001FC01FC0180018001F801FC018E03E
:104E100000600060006030E03FC01F8000000000C4
:104E20000000000000000000000003E00FE01E0092
:104E30001800380037803FC038E03060306018E03C
:104E40001FC00780000000000000000000000000FC
:104E500000003FE03FE03060006000C000C000C0E4
:104E600001800180018003000300030000000000B6
:104E7000000000000000000000000F801FC038E0AC
:104E8000306038E01FC01FC038E03060306038E06C
:104E90001FC00F80000000000000000000000000A4
:104EA00000000F001FC038C03060306038E01FE0E5
:104EB0000F6000E000C003C03F803E000000000023
:104EC00000000000000000000000000000000000E2
:104ED00000000380038003800000000000000380C6
:104EE00003800380000000000000000000000000BC
:104EF0000000000000000000000001C001C001C06F
:104F0000000000000000038003000600060004000B
:104F10000000000000000000000000000000003061
:104F200000F003C007001C0078001C00070003C04D
:104F300000F0003000000000000000000000000051
:104F4000000000000000000000007FF07FF0000083
:104F500000007FF07FF00000000000000000000073
:104F60000000000000000000000000000000300011
:104F70003C000F00038000E0007800E003800F0099
:104F80003C003000000000000000000000000000B5
:104F9000000000000F801FC018601860006001C092
:104FA000038003000000000007000700000000006D
:104FB0000000000000000000000003800C8008409A
:104FC0001040104011C012401240124011C0100099
:104FD00008000840078000000000000000000000FA
:104FE000000000001F801F80038006C006C00CC0A8
:104FF0000C601FE01FE03030787878780000000007
:105000000000000000000000000000003F803FC0E2
:105010001860186018E01FC01FE0187018301830B2
:105020003FF03FE000000000000000000000000032
:105030000000000007B00FF01C7038303000300066
:105040003000300038301C700FE007C00000000056
:105050000000000000000000000000007F807FC012
:1050600030E030703030303030303030307030E060
:105070007FC07F80000000000000000000000000F2
:10508000000000003FF03FF01830183019801F80FA
:105090001F801980183018303FF03FF000000000EA
:1050A0000000000000000000000000003FF03FF0A2
:1050B0001830183019801F801F80198018001800C0
:1050C0003F003F0000000000000000000000000062
:1050D0000000000007B01FF01870303030003000C2
:1050E00031F831F8303018301FF007C000000000F0
:1050F0000000000000000000000000003CF03CF058
:105100001860186018601FE01FE0186018601860D1
:105110003CF03CF000000000000000000000000037
:10512000000000001FE01FE0030003000300030075
:1051300003000300030003001FE01FE00000000065
:1051400000000000000000000000000003F803F869
:10515000006000600060006030603060306030E00F
:105160003FC00F80000000000000000000000000B1
:10517000000000003EF83EF818E019801B001F00F8
:105180001D8018C018C018603E783E38000000002E
:105190000000000000000000000000003F003F0091
:1051A0000C000C000C000C000C000C300C300C300F
:1051B0003FF03FF000000000000000000000000091
:1051C000000000007878787838703CF034B037B060
:1051D00037B03330333030307CF87CF800000000DA
:1051E00000000000000000000000000039F03DF069
:1051F0001C601E601E601B601B6019E019E018E057
:105200003EE03E60000000000000000000000000E2
:105210000000000007800FC01CE0387030303030D4
:105220003030303038701CE00FC0078000000000C4
:105230000000000000000000000000003FC03FE050
:1052400018701830183018701FE01FC018001800B0
:105250003F003F00000000000000000000000000D0
:105260000000000007800FC01CE038703030303084
:105270003030303038701CE00FC0078007B00FF0BE
:105280000CE0000000000000000000003FC03FE014
:105290001870183018701FE01FC018E018601870E0
:1052A0003E383E1800000000000000000000000032
:1052B000000000000FB01FF03870303038001F8041
:1052C00007E00070303038703FE037C00000000069
:1052D0000000000000000000000000003FF03FF070
:1052E0003330333033300300030003000300030086
:1052F0000FC00FC000000000000000000000000010
:10530000000000003CF03CF0186018601860186065
:105310001860186018601CE00FC0078000000000D3
:1053200000000000000000000000000078F078F0AD
:105330003060306018C018C00D800D800D800700EF
:10534000070007000000000000000000000000004F
:10535000000000007C7C7C7C3018339833983398B4
:1053600036D816D01C701C701C701830000000005D
:1053700000000000000000000000000078F078F05D
:10538000306018C00D80070007000D8018C0306025
:1053900078F078F00000000000000000000000003D
:1053A000000000003CF03CF018600CC00780078053
:1053B00003000300030003000FC00FC00000000043
:1053C0000000000000000000000000001FE01FE0DF
:1053D000186018C001800300030006000C6018600C
:1053E0001FE01FE0000000000000000000000000BF
:1053F000000003C003C00300030003000300030018
:10540000030003000300030003000300030003C0C4
:1054100003C0000000000000180018000C000C0081
:105420000C0006000600030003000180018000C09C
:1054300000C000C00060006000000000000000002C
:1054400000000F000F00030003000300030003002F
:1054500003000300030003000300030003000F0028
:105460000F000000000000000000020007000D8097
:1054700018C0306020200000000000000000000084
:10548000000000000000000000000000000000001C
:10549000000000000000000000000000000000000C
:1054A00000000000000000000000000000000000FC
:1054B00000000000FFFCFFFC00000400030000806F
:1054C00000000000000000000000000000000000DC
:1054D00000000000000000000000000000000000CC
:1054E000000000000000000000000FC01FE000608E
:1054F0000FE01FE0386030E03FF01F700000000058
:10550000000000000000000000007000700030008B
:10551000300037803FE03860303030303030386035
:105520007FE0778000000000000000000000000025
:105530000000000000000000000007B01FF018305D
:1055400030303000300038301FF00FC00000000055
:10555000000000000000000000000070007000303B
:10556000003007B01FF018703030303030303870F5
:105570001FF807B800000000000000000000000055
:105580000000000000000000000007801FE018601D
:105590003FF03FF0300018301FF007C0000000005F
:1055A0000000000000000000000003F007F006000B
:1055B00006001FE01FE006000600060006000600C9
:1055C0001FE01FE0000000000000000000000000DD
:1055D0000000000000000000000007B81FF818706D
:1055E00030303030303018701FF007B000300070AD
:1055F0000FE00FC000000000000038003800180065
:1056000018001BC01FE01C6018601860186018604C
:105610003CF03CF000000000000000000000000032
:10562000000003000300000000001F001F00030033
:1056300003000300030003001FE01FE00000000060
:105640000000000000000000000003000300000054
:1056500000001FC01FC000C000C000C000C000C0CC
:1056600000C000C000C001C03F803F00000000003B
:10567000000038003800180018001BE01BE01B0079
:105680001E001E001B00198039F039F000000000D8
:10569000000000000000000000001F001F000300C9
:1056A00003000300030003000300030003000300E2
:1056B0001FE01FE0000000000000000000000000EC
:1056C000000000000000000000007EE07FF03330AA
:1056D00033303330333033307BB87BB800000000D8
:1056E00000000000000000000000000000000000BA
:1056F00000003BC03FE01C60186018601860186034
:105700003CF03CF000000000000000000000000041
:105710000000000000000000000007801FE018608B
:1057200030303030303018601FE00780000000005B
:105730000000000000000000000000000000000069
:10574000000077807FE038603030303030303860B3
:105750003FE03780300030007C007C00000000001B
:105760000000000000000000000007B81FF81870DB
:1057700030303030303018701FF007B0003000305B
:1057800000F800F800000000000000000000000029
:1057900000003CE03DF00F300E000C000C000C004F
:1057A0003FC03FC0000000000000000000000000FB
:1057B0000000000000000000000007E01FE018608B
:1057C0001E000FC001E018601FE01F8000000000F5
:1057D0000000000000000000000000000C000C00B1
:1057E0000C003FE03FE00C000C000C000C000C3003
:1057F0000FF007C0000000000000000000000000E3
:105800000000000000000000000038E038E01860F0
:1058100018601860186018E01FF00F70000000009A
:105820000000000000000000000000000000000078
:10583000000078F078F0306018C018C00D800D803E
:10584000070007000000000000000000000000004A
:105850000000000000000000000078F078F03260E6
:10586000326037E01DC01DC018C018C00000000025
:105870000000000000000000000000000000000028
:1058800000003CF03CF00CC00780030007800CC017
:105890003CF03CF0000000000000000000000000B0
:1058A0000000000000000000000078F078F0306098
:1058B00018C018C00D800F800700060006000C00FD
:1058C0007F007F00000000000000000000000000DA
:1058D00000001FE01FE018C00180030006000C60FC
:1058E0001FE01FE0000000000000000000000000BA
:1058F000000001C003C00300030003000300030015
:1059000007000E000700030003000300030003C0AC
:1059100001C00000000000000000030003000300BD
:10592000030003000300030003000300030003005F
:105930000300030003000300030000000000000058
:1059400000001C001E0006000600060006000600FF
:1059500007000380070006000600060006001E0080
:105960001C0000000000000000000000000000001B
:10597000000000000E003F3033F001E000000000A6
:105980000000000000000000000000000000000017
:1059900044656275673A205061696E745F44726154
:1059A00077537472696E675F454E20496E707574E7
:1059B000206578636565647320746865206E6F7216
:1059C0006D616C20646973706C61792072616E67BF
:1059D000650D0A00446174612041637175697369E2
:1059E00074696F6E204D656E75000000436F6E74B4
:1059F000696E756F757320436F6E76657273696F2C
:105A00006E204D6F6465202D2053747265616D208A
:105A1000446174610000000053696E676C65204347
:105A20006F6E76657273696F6E204D6F64650000EE
:105A3000436F6E74696E756F757320436F6E766514
:105A40007273696F6E204D6F6465202D2054616202
:105A50006C65205669657700785A000800000020C0
:105A6000B000000060300008285B0008B000002093
:105A7000384A0000703000080024F40001000000E3
:105A80001000000000000000000000000000000006
:105A90000000000000000000000000000000000006
:105AA00000000000000000000000000000000000F6
:105AB0004446000807000C00B84A00080E00140015
:105AC00000000000000000000000803F00000040D7
:105AD00000004040000080400000A0400000C040A6
